{
  "abi": [
    {
      "inputs": [
        {
          "internalType": "address",
          "name": "stakingToken",
          "type": "address"
        },
        {
          "internalType": "address",
          "name": "rewardsToken",
          "type": "address"
        }
      ],
      "stateMutability": "nonpayable",
      "type": "constructor"
    },
    {
      "inputs": [],
      "name": "NeedsMoreThanZero",
      "type": "error"
    },
    {
      "inputs": [],
      "name": "TransferFailed",
      "type": "error"
    },
    {
      "anonymous": false,
      "inputs": [
        {
          "indexed": true,
          "internalType": "address",
          "name": "previousOwner",
          "type": "address"
        },
        {
          "indexed": true,
          "internalType": "address",
          "name": "newOwner",
          "type": "address"
        }
      ],
      "name": "OwnershipTransferred",
      "type": "event"
    },
    {
      "anonymous": false,
      "inputs": [
        {
          "indexed": true,
          "internalType": "address",
          "name": "user",
          "type": "address"
        },
        {
          "indexed": true,
          "internalType": "uint256",
          "name": "amount",
          "type": "uint256"
        }
      ],
      "name": "RewardsClaimed",
      "type": "event"
    },
    {
      "anonymous": false,
      "inputs": [
        {
          "indexed": true,
          "internalType": "address",
          "name": "user",
          "type": "address"
        },
        {
          "indexed": true,
          "internalType": "uint256",
          "name": "amount",
          "type": "uint256"
        }
      ],
      "name": "Staked",
      "type": "event"
    },
    {
      "anonymous": false,
      "inputs": [
        {
          "indexed": true,
          "internalType": "address",
          "name": "user",
          "type": "address"
        },
        {
          "indexed": true,
          "internalType": "uint256",
          "name": "amount",
          "type": "uint256"
        }
      ],
      "name": "WithdrewStake",
      "type": "event"
    },
    {
      "inputs": [],
      "name": "REWARD_RATE",
      "outputs": [
        {
          "internalType": "uint256",
          "name": "",
          "type": "uint256"
        }
      ],
      "stateMutability": "view",
      "type": "function"
    },
    {
      "inputs": [
        {
          "internalType": "uint256",
          "name": "",
          "type": "uint256"
        }
      ],
      "name": "addresses",
      "outputs": [
        {
          "internalType": "address",
          "name": "",
          "type": "address"
        }
      ],
      "stateMutability": "view",
      "type": "function"
    },
    {
      "inputs": [],
      "name": "claimReward",
      "outputs": [],
      "stateMutability": "nonpayable",
      "type": "function"
    },
    {
      "inputs": [
        {
          "internalType": "address",
          "name": "account",
          "type": "address"
        }
      ],
      "name": "earned",
      "outputs": [
        {
          "internalType": "uint256",
          "name": "",
          "type": "uint256"
        }
      ],
      "stateMutability": "view",
      "type": "function"
    },
    {
      "inputs": [],
      "name": "getOwner",
      "outputs": [
        {
          "internalType": "address",
          "name": "",
          "type": "address"
        }
      ],
      "stateMutability": "view",
      "type": "function"
    },
    {
      "inputs": [],
      "name": "getRewardPerTokenStored",
      "outputs": [
        {
          "internalType": "uint256",
          "name": "",
          "type": "uint256"
        }
      ],
      "stateMutability": "view",
      "type": "function"
    },
    {
      "inputs": [
        {
          "internalType": "address",
          "name": "account",
          "type": "address"
        }
      ],
      "name": "getRewardsTokensBalance",
      "outputs": [
        {
          "internalType": "uint256",
          "name": "",
          "type": "uint256"
        }
      ],
      "stateMutability": "view",
      "type": "function"
    },
    {
      "inputs": [],
      "name": "getSender",
      "outputs": [
        {
          "internalType": "address",
          "name": "",
          "type": "address"
        }
      ],
      "stateMutability": "view",
      "type": "function"
    },
    {
      "inputs": [
        {
          "internalType": "address",
          "name": "account",
          "type": "address"
        }
      ],
      "name": "getStakableTokensBalance",
      "outputs": [
        {
          "internalType": "uint256",
          "name": "",
          "type": "uint256"
        }
      ],
      "stateMutability": "view",
      "type": "function"
    },
    {
      "inputs": [
        {
          "internalType": "address",
          "name": "_stakeholder",
          "type": "address"
        }
      ],
      "name": "getStaked",
      "outputs": [
        {
          "internalType": "uint256",
          "name": "",
          "type": "uint256"
        }
      ],
      "stateMutability": "view",
      "type": "function"
    },
    {
      "inputs": [],
      "name": "getTotalRewardTokensSupply",
      "outputs": [
        {
          "internalType": "uint256",
          "name": "",
          "type": "uint256"
        }
      ],
      "stateMutability": "view",
      "type": "function"
    },
    {
      "inputs": [],
      "name": "getTotalStakes",
      "outputs": [
        {
          "internalType": "uint256",
          "name": "",
          "type": "uint256"
        }
      ],
      "stateMutability": "view",
      "type": "function"
    },
    {
      "inputs": [],
      "name": "getTotalStakingTokensSupply",
      "outputs": [
        {
          "internalType": "uint256",
          "name": "",
          "type": "uint256"
        }
      ],
      "stateMutability": "view",
      "type": "function"
    },
    {
      "inputs": [
        {
          "internalType": "address",
          "name": "account",
          "type": "address"
        }
      ],
      "name": "getUsersRewards",
      "outputs": [
        {
          "internalType": "address[]",
          "name": "",
          "type": "address[]"
        },
        {
          "internalType": "uint256[]",
          "name": "",
          "type": "uint256[]"
        }
      ],
      "stateMutability": "view",
      "type": "function"
    },
    {
      "inputs": [
        {
          "internalType": "address",
          "name": "account",
          "type": "address"
        }
      ],
      "name": "getUsersStaked",
      "outputs": [
        {
          "internalType": "address[]",
          "name": "",
          "type": "address[]"
        },
        {
          "internalType": "uint256[]",
          "name": "",
          "type": "uint256[]"
        }
      ],
      "stateMutability": "view",
      "type": "function"
    },
    {
      "inputs": [
        {
          "internalType": "address",
          "name": "account",
          "type": "address"
        }
      ],
      "name": "isOwner",
      "outputs": [
        {
          "internalType": "bool",
          "name": "",
          "type": "bool"
        }
      ],
      "stateMutability": "view",
      "type": "function"
    },
    {
      "inputs": [],
      "name": "owner",
      "outputs": [
        {
          "internalType": "address",
          "name": "",
          "type": "address"
        }
      ],
      "stateMutability": "view",
      "type": "function"
    },
    {
      "inputs": [],
      "name": "renounceOwnership",
      "outputs": [],
      "stateMutability": "nonpayable",
      "type": "function"
    },
    {
      "inputs": [],
      "name": "rewardPerToken",
      "outputs": [
        {
          "internalType": "uint256",
          "name": "",
          "type": "uint256"
        }
      ],
      "stateMutability": "view",
      "type": "function"
    },
    {
      "inputs": [],
      "name": "s_lastUpdateTime",
      "outputs": [
        {
          "internalType": "uint256",
          "name": "",
          "type": "uint256"
        }
      ],
      "stateMutability": "view",
      "type": "function"
    },
    {
      "inputs": [],
      "name": "s_rewardPerTokenStored",
      "outputs": [
        {
          "internalType": "uint256",
          "name": "",
          "type": "uint256"
        }
      ],
      "stateMutability": "view",
      "type": "function"
    },
    {
      "inputs": [
        {
          "internalType": "address",
          "name": "",
          "type": "address"
        }
      ],
      "name": "s_rewards",
      "outputs": [
        {
          "internalType": "uint256",
          "name": "",
          "type": "uint256"
        }
      ],
      "stateMutability": "view",
      "type": "function"
    },
    {
      "inputs": [],
      "name": "s_rewardsToken",
      "outputs": [
        {
          "internalType": "contract IERC20",
          "name": "",
          "type": "address"
        }
      ],
      "stateMutability": "view",
      "type": "function"
    },
    {
      "inputs": [
        {
          "internalType": "address",
          "name": "",
          "type": "address"
        }
      ],
      "name": "s_stakes",
      "outputs": [
        {
          "internalType": "uint256",
          "name": "",
          "type": "uint256"
        }
      ],
      "stateMutability": "view",
      "type": "function"
    },
    {
      "inputs": [],
      "name": "s_stakingToken",
      "outputs": [
        {
          "internalType": "contract IERC20",
          "name": "",
          "type": "address"
        }
      ],
      "stateMutability": "view",
      "type": "function"
    },
    {
      "inputs": [
        {
          "internalType": "address",
          "name": "",
          "type": "address"
        }
      ],
      "name": "s_userRewardPerTokenPaid",
      "outputs": [
        {
          "internalType": "uint256",
          "name": "",
          "type": "uint256"
        }
      ],
      "stateMutability": "view",
      "type": "function"
    },
    {
      "inputs": [
        {
          "internalType": "uint256",
          "name": "amount",
          "type": "uint256"
        }
      ],
      "name": "stake",
      "outputs": [],
      "stateMutability": "nonpayable",
      "type": "function"
    },
    {
      "inputs": [
        {
          "internalType": "address",
          "name": "newOwner",
          "type": "address"
        }
      ],
      "name": "transferOwnership",
      "outputs": [],
      "stateMutability": "nonpayable",
      "type": "function"
    },
    {
      "inputs": [
        {
          "internalType": "uint256",
          "name": "amount",
          "type": "uint256"
        }
      ],
      "name": "withdraw",
      "outputs": [],
      "stateMutability": "nonpayable",
      "type": "function"
    }
  ],
  "devdoc": {
    "kind": "dev",
    "methods": {
      "owner()": {
        "details": "Returns the address of the current owner."
      },
      "renounceOwnership()": {
        "details": "Leaves the contract without owner. It will not be possible to call `onlyOwner` functions anymore. Can only be called by the current owner. NOTE: Renouncing ownership will leave the contract without an owner, thereby removing any functionality that is only available to the owner."
      },
      "stake(uint256)": {
        "params": {
          "amount": "| How much to stake"
        }
      },
      "transferOwnership(address)": {
        "details": "Transfers ownership of the contract to a new account (`newOwner`). Can only be called by the current owner."
      },
      "withdraw(uint256)": {
        "params": {
          "amount": "| How much to withdraw"
        }
      }
    },
    "version": 1
  },
  "evm": {
    "assembly": "    /* \"ERC20Staking.sol\":283:6218  contract Staking17 is ReentrancyGuard, Ownable {... */\n  mstore(0x40, 0x80)\n    /* \"ERC20Staking.sol\":1248:1405  constructor(address stakingToken, address rewardsToken) {... */\n  callvalue\n  dup1\n  iszero\n  tag_1\n  jumpi\n  0x00\n  dup1\n  revert\ntag_1:\n  pop\n  mload(0x40)\n  sub(codesize, bytecodeSize)\n  dup1\n  bytecodeSize\n  dup4\n  codecopy\n  dup2\n  add\n  0x40\n  dup2\n  swap1\n  mstore\n  tag_2\n  swap2\n  tag_3\n  jump\t// in\ntag_2:\n    /* \"@openzeppelin/contracts/security/ReentrancyGuard.sol\":1701:1702   */\n  0x01\n    /* \"@openzeppelin/contracts/security/ReentrancyGuard.sol\":1806:1813   */\n  0x00\n    /* \"@openzeppelin/contracts/security/ReentrancyGuard.sol\":1806:1828   */\n  sstore\n    /* \"@openzeppelin/contracts/access/Ownable.sol\":921:953   */\n  tag_9\n    /* \"@openzeppelin/contracts/utils/Context.sol\":719:729   */\n  caller\n    /* \"@openzeppelin/contracts/access/Ownable.sol\":921:939   */\n  tag_12\n    /* \"@openzeppelin/contracts/access/Ownable.sol\":921:953   */\n  jump\t// in\ntag_9:\n    /* \"ERC20Staking.sol\":1314:1328  s_stakingToken */\n  0x03\n    /* \"ERC20Staking.sol\":1314:1351  s_stakingToken = IERC20(stakingToken) */\n  dup1\n  sload\n  sub(shl(0xa0, 0x01), 0x01)\n  swap4\n  dup5\n  and\n  not(sub(shl(0xa0, 0x01), 0x01))\n  swap2\n  dup3\n  and\n  or\n  swap1\n  swap2\n  sstore\n    /* \"ERC20Staking.sol\":1361:1375  s_rewardsToken */\n  0x02\n    /* \"ERC20Staking.sol\":1361:1398  s_rewardsToken = IERC20(rewardsToken) */\n  dup1\n  sload\n  swap3\n  swap1\n  swap4\n  and\n  swap2\n  and\n  or\n  swap1\n  sstore\n    /* \"ERC20Staking.sol\":283:6218  contract Staking17 is ReentrancyGuard, Ownable {... */\n  jump(tag_18)\n    /* \"@openzeppelin/contracts/access/Ownable.sol\":2270:2457   */\ntag_12:\n    /* \"@openzeppelin/contracts/access/Ownable.sol\":2362:2368   */\n  0x01\n  dup1\n  sload\n  sub(shl(0xa0, 0x01), 0x01)\n    /* \"@openzeppelin/contracts/access/Ownable.sol\":2378:2395   */\n  dup4\n  dup2\n  and\n  not(sub(shl(0xa0, 0x01), 0x01))\n  dup4\n  and\n  dup2\n  or\n  swap1\n  swap4\n  sstore\n    /* \"@openzeppelin/contracts/access/Ownable.sol\":2410:2450   */\n  mload(0x40)\n    /* \"@openzeppelin/contracts/access/Ownable.sol\":2362:2368   */\n  swap2\n  and\n  swap2\n    /* \"@openzeppelin/contracts/access/Ownable.sol\":2378:2395   */\n  swap1\n    /* \"@openzeppelin/contracts/access/Ownable.sol\":2362:2368   */\n  dup3\n  swap1\n    /* \"@openzeppelin/contracts/access/Ownable.sol\":2410:2450   */\n  0x8be0079c531659141344cd1fd0a4f28419497f9722a3daafe3b4186f6b6457e0\n  swap1\n    /* \"@openzeppelin/contracts/access/Ownable.sol\":2343:2359   */\n  0x00\n  swap1\n    /* \"@openzeppelin/contracts/access/Ownable.sol\":2410:2450   */\n  log3\n    /* \"@openzeppelin/contracts/access/Ownable.sol\":2333:2457   */\n  pop\n    /* \"@openzeppelin/contracts/access/Ownable.sol\":2270:2457   */\n  pop\n  jump\t// out\n    /* \"#utility.yul\":14:191   */\ntag_17:\n    /* \"#utility.yul\":93:106   */\n  dup1\n  mload\n  sub(shl(0xa0, 0x01), 0x01)\n    /* \"#utility.yul\":135:166   */\n  dup2\n  and\n    /* \"#utility.yul\":125:167   */\n  dup2\n  eq\n    /* \"#utility.yul\":115:185   */\n  tag_20\n  jumpi\n    /* \"#utility.yul\":181:182   */\n  0x00\n    /* \"#utility.yul\":178:179   */\n  dup1\n    /* \"#utility.yul\":171:183   */\n  revert\n    /* \"#utility.yul\":115:185   */\ntag_20:\n    /* \"#utility.yul\":14:191   */\n  swap2\n  swap1\n  pop\n  jump\t// out\n    /* \"#utility.yul\":196:489   */\ntag_3:\n    /* \"#utility.yul\":275:281   */\n  0x00\n    /* \"#utility.yul\":283:289   */\n  dup1\n    /* \"#utility.yul\":336:338   */\n  0x40\n    /* \"#utility.yul\":324:333   */\n  dup4\n    /* \"#utility.yul\":315:322   */\n  dup6\n    /* \"#utility.yul\":311:334   */\n  sub\n    /* \"#utility.yul\":307:339   */\n  slt\n    /* \"#utility.yul\":304:356   */\n  iszero\n  tag_22\n  jumpi\n    /* \"#utility.yul\":352:353   */\n  0x00\n    /* \"#utility.yul\":349:350   */\n  dup1\n    /* \"#utility.yul\":342:354   */\n  revert\n    /* \"#utility.yul\":304:356   */\ntag_22:\n    /* \"#utility.yul\":375:415   */\n  tag_23\n    /* \"#utility.yul\":405:414   */\n  dup4\n    /* \"#utility.yul\":375:415   */\n  tag_17\n  jump\t// in\ntag_23:\n    /* \"#utility.yul\":365:415   */\n  swap2\n  pop\n    /* \"#utility.yul\":434:483   */\n  tag_24\n    /* \"#utility.yul\":479:481   */\n  0x20\n    /* \"#utility.yul\":468:477   */\n  dup5\n    /* \"#utility.yul\":464:482   */\n  add\n    /* \"#utility.yul\":434:483   */\n  tag_17\n  jump\t// in\ntag_24:\n    /* \"#utility.yul\":424:483   */\n  swap1\n  pop\n    /* \"#utility.yul\":196:489   */\n  swap3\n  pop\n  swap3\n  swap1\n  pop\n  jump\t// out\ntag_18:\n    /* \"ERC20Staking.sol\":283:6218  contract Staking17 is ReentrancyGuard, Ownable {... */\n  dataSize(sub_0)\n  dup1\n  dataOffset(sub_0)\n  0x00\n  codecopy\n  0x00\n  return\nstop\n\nsub_0: assembly {\n        /* \"ERC20Staking.sol\":283:6218  contract Staking17 is ReentrancyGuard, Ownable {... */\n      mstore(0x40, 0x80)\n      callvalue\n      dup1\n      iszero\n      tag_1\n      jumpi\n      0x00\n      dup1\n      revert\n    tag_1:\n      pop\n      jumpi(tag_2, lt(calldatasize, 0x04))\n      shr(0xe0, calldataload(0x00))\n      dup1\n      0x893d20e8\n      gt\n      tag_32\n      jumpi\n      dup1\n      0xbea08151\n      gt\n      tag_33\n      jumpi\n      dup1\n      0xcd3daf9d\n      gt\n      tag_34\n      jumpi\n      dup1\n      0xcd3daf9d\n      eq\n      tag_28\n      jumpi\n      dup1\n      0xedf26d9b\n      eq\n      tag_29\n      jumpi\n      dup1\n      0xf245ace4\n      eq\n      tag_30\n      jumpi\n      dup1\n      0xf2fde38b\n      eq\n      tag_31\n      jumpi\n      0x00\n      dup1\n      revert\n    tag_34:\n      dup1\n      0xbea08151\n      eq\n      tag_24\n      jumpi\n      dup1\n      0xc2f8498d\n      eq\n      tag_25\n      jumpi\n      dup1\n      0xc32726c2\n      eq\n      tag_26\n      jumpi\n      dup1\n      0xc9b1b70d\n      eq\n      tag_27\n      jumpi\n      0x00\n      dup1\n      revert\n    tag_33:\n      dup1\n      0x8da5cb5b\n      gt\n      tag_35\n      jumpi\n      dup1\n      0x8da5cb5b\n      eq\n      tag_20\n      jumpi\n      dup1\n      0xa694fc3a\n      eq\n      tag_21\n      jumpi\n      dup1\n      0xadca9b72\n      eq\n      tag_22\n      jumpi\n      dup1\n      0xb88a802f\n      eq\n      tag_23\n      jumpi\n      0x00\n      dup1\n      revert\n    tag_35:\n      dup1\n      0x893d20e8\n      eq\n      tag_17\n      jumpi\n      dup1\n      0x8a877567\n      eq\n      tag_18\n      jumpi\n      dup1\n      0x8d869342\n      eq\n      tag_19\n      jumpi\n      0x00\n      dup1\n      revert\n    tag_32:\n      dup1\n      0x43cbce3e\n      gt\n      tag_36\n      jumpi\n      dup1\n      0x675f457d\n      gt\n      tag_37\n      jumpi\n      dup1\n      0x675f457d\n      eq\n      tag_13\n      jumpi\n      dup1\n      0x68c33627\n      eq\n      tag_14\n      jumpi\n      dup1\n      0x6aa0838f\n      eq\n      tag_15\n      jumpi\n      dup1\n      0x715018a6\n      eq\n      tag_16\n      jumpi\n      0x00\n      dup1\n      revert\n    tag_37:\n      dup1\n      0x43cbce3e\n      eq\n      tag_10\n      jumpi\n      dup1\n      0x5997bb37\n      eq\n      tag_11\n      jumpi\n      dup1\n      0x5e01eb5a\n      eq\n      tag_12\n      jumpi\n      0x00\n      dup1\n      revert\n    tag_36:\n      dup1\n      0x2e1a7d4d\n      gt\n      tag_38\n      jumpi\n      dup1\n      0x2e1a7d4d\n      eq\n      tag_6\n      jumpi\n      dup1\n      0x2f54bf6e\n      eq\n      tag_7\n      jumpi\n      dup1\n      0x304ac91b\n      eq\n      tag_8\n      jumpi\n      dup1\n      0x399080ec\n      eq\n      tag_9\n      jumpi\n      0x00\n      dup1\n      revert\n    tag_38:\n      dup1\n      0x8cc262\n      eq\n      tag_3\n      jumpi\n      dup1\n      0x0bd21c56\n      eq\n      tag_4\n      jumpi\n      dup1\n      0x0fda55b4\n      eq\n      tag_5\n      jumpi\n    tag_2:\n      0x00\n      dup1\n      revert\n        /* \"ERC20Staking.sol\":1895:2100  function earned(address account) public view returns (uint256) {... */\n    tag_3:\n      tag_39\n      tag_40\n      calldatasize\n      0x04\n      tag_41\n      jump\t// in\n    tag_40:\n      tag_42\n      jump\t// in\n    tag_39:\n      mload(0x40)\n        /* \"#utility.yul\":474:499   */\n      swap1\n      dup2\n      mstore\n        /* \"#utility.yul\":462:464   */\n      0x20\n        /* \"#utility.yul\":447:465   */\n      add\n        /* \"ERC20Staking.sol\":1895:2100  function earned(address account) public view returns (uint256) {... */\n    tag_43:\n      mload(0x40)\n      dup1\n      swap2\n      sub\n      swap1\n      return\n        /* \"ERC20Staking.sol\":336:364  IERC20 public s_rewardsToken */\n    tag_4:\n      sload(0x02)\n      tag_45\n      swap1\n      sub(shl(0xa0, 0x01), 0x01)\n      and\n      dup2\n      jump\n    tag_45:\n      mload(0x40)\n      sub(shl(0xa0, 0x01), 0x01)\n        /* \"#utility.yul\":688:743   */\n      swap1\n      swap2\n      and\n        /* \"#utility.yul\":670:744   */\n      dup2\n      mstore\n        /* \"#utility.yul\":658:660   */\n      0x20\n        /* \"#utility.yul\":643:661   */\n      add\n        /* \"ERC20Staking.sol\":336:364  IERC20 public s_rewardsToken */\n      tag_43\n        /* \"#utility.yul\":510:750   */\n      jump\n        /* \"ERC20Staking.sol\":4648:4767  function getTotalStakingTokensSupply() public view returns (uint256) {... */\n    tag_5:\n      tag_39\n      tag_50\n      jump\t// in\n        /* \"ERC20Staking.sol\":2778:3126  function withdraw(uint256 amount) external updateReward(msg.sender) nonReentrant {... */\n    tag_6:\n      tag_52\n      tag_53\n      calldatasize\n      0x04\n      tag_54\n      jump\t// in\n    tag_53:\n      tag_55\n      jump\t// in\n    tag_52:\n      stop\n        /* \"ERC20Staking.sol\":5159:5260  function isOwner(address account) public view returns (bool) {... */\n    tag_7:\n      tag_56\n      tag_57\n      calldatasize\n      0x04\n      tag_41\n      jump\t// in\n    tag_57:\n      tag_58\n      jump\t// in\n    tag_56:\n      mload(0x40)\n        /* \"#utility.yul\":1105:1119   */\n      swap1\n      iszero\n        /* \"#utility.yul\":1098:1120   */\n      iszero\n        /* \"#utility.yul\":1080:1121   */\n      dup2\n      mstore\n        /* \"#utility.yul\":1068:1070   */\n      0x20\n        /* \"#utility.yul\":1053:1071   */\n      add\n        /* \"ERC20Staking.sol\":5159:5260  function isOwner(address account) public view returns (bool) {... */\n      tag_43\n        /* \"#utility.yul\":940:1127   */\n      jump\n        /* \"ERC20Staking.sol\":764:801  uint256 public s_rewardPerTokenStored */\n    tag_8:\n      tag_39\n      sload(0x05)\n      dup2\n      jump\n        /* \"ERC20Staking.sol\":4118:4235  function getStaked(address _stakeholder) public view returns (uint256) {... */\n    tag_9:\n      tag_39\n      tag_65\n      calldatasize\n      0x04\n      tag_41\n      jump\t// in\n    tag_65:\n      sub(shl(0xa0, 0x01), 0x01)\n        /* \"ERC20Staking.sol\":4206:4228  s_stakes[_stakeholder] */\n      and\n        /* \"ERC20Staking.sol\":4180:4187  uint256 */\n      0x00\n        /* \"ERC20Staking.sol\":4206:4228  s_stakes[_stakeholder] */\n      swap1\n      dup2\n      mstore\n        /* \"ERC20Staking.sol\":4206:4214  s_stakes */\n      0x0a\n        /* \"ERC20Staking.sol\":4206:4228  s_stakes[_stakeholder] */\n      0x20\n      mstore\n      0x40\n      swap1\n      keccak256\n      sload\n      swap1\n        /* \"ERC20Staking.sol\":4118:4235  function getStaked(address _stakeholder) public view returns (uint256) {... */\n      jump\n        /* \"ERC20Staking.sol\":4241:4377  function getStakableTokensBalance(address account) public view returns (uint256) {... */\n    tag_10:\n      tag_39\n      tag_69\n      calldatasize\n      0x04\n      tag_41\n      jump\t// in\n    tag_69:\n      tag_70\n      jump\t// in\n        /* \"ERC20Staking.sol\":680:721  uint256 public constant REWARD_RATE = 100 */\n    tag_11:\n      tag_39\n        /* \"ERC20Staking.sol\":718:721  100 */\n      0x64\n        /* \"ERC20Staking.sol\":680:721  uint256 public constant REWARD_RATE = 100 */\n      dup2\n      jump\n        /* \"ERC20Staking.sol\":4985:5068  function getSender() public view returns (address) {... */\n    tag_12:\n        /* \"ERC20Staking.sol\":5051:5061  msg.sender */\n      caller\n        /* \"ERC20Staking.sol\":4985:5068  function getSender() public view returns (address) {... */\n      jump(tag_45)\n        /* \"ERC20Staking.sol\":4383:4518  function getRewardsTokensBalance(address account) public view returns (uint256) {... */\n    tag_13:\n      tag_39\n      tag_80\n      calldatasize\n      0x04\n      tag_41\n      jump\t// in\n    tag_80:\n      tag_81\n      jump\t// in\n        /* \"ERC20Staking.sol\":4773:4864  function getTotalStakes() public view returns (uint256) {... */\n    tag_14:\n        /* \"ERC20Staking.sol\":4844:4857  s_totalSupply */\n      sload(0x07)\n        /* \"ERC20Staking.sol\":4773:4864  function getTotalStakes() public view returns (uint256) {... */\n      jump(tag_39)\n        /* \"ERC20Staking.sol\":727:758  uint256 public s_lastUpdateTime */\n    tag_15:\n      tag_39\n      sload(0x04)\n      dup2\n      jump\n        /* \"@openzeppelin/contracts/access/Ownable.sol\":1668:1769   */\n    tag_16:\n      tag_52\n      tag_90\n      jump\t// in\n        /* \"ERC20Staking.sol\":5074:5153  function getOwner() public view returns (address) {... */\n    tag_17:\n      tag_45\n      tag_92\n      jump\t// in\n        /* \"ERC20Staking.sol\":990:1033  mapping(address => uint256) public s_stakes */\n    tag_18:\n      tag_39\n      tag_95\n      calldatasize\n      0x04\n      tag_41\n      jump\t// in\n    tag_95:\n      mstore(0x20, 0x0a)\n      0x00\n      swap1\n      dup2\n      mstore\n      0x40\n      swap1\n      keccak256\n      sload\n      dup2\n      jump\n        /* \"ERC20Staking.sol\":4870:4979  function getRewardPerTokenStored() public view returns (uint256) {... */\n    tag_19:\n        /* \"ERC20Staking.sol\":4950:4972  s_rewardPerTokenStored */\n      sload(0x05)\n        /* \"ERC20Staking.sol\":4870:4979  function getRewardPerTokenStored() public view returns (uint256) {... */\n      jump(tag_39)\n        /* \"@openzeppelin/contracts/access/Ownable.sol\":1036:1121   */\n    tag_20:\n        /* \"@openzeppelin/contracts/access/Ownable.sol\":1108:1114   */\n      and(sub(shl(0xa0, 0x01), 0x01), sload(0x01))\n        /* \"@openzeppelin/contracts/access/Ownable.sol\":1036:1121   */\n      jump(tag_45)\n        /* \"ERC20Staking.sol\":2212:2662  function stake(uint256 amount)... */\n    tag_21:\n      tag_52\n      tag_105\n      calldatasize\n      0x04\n      tag_54\n      jump\t// in\n    tag_105:\n      tag_106\n      jump\t// in\n        /* \"ERC20Staking.sol\":370:398  IERC20 public s_stakingToken */\n    tag_22:\n      sload(0x03)\n      tag_45\n      swap1\n      sub(shl(0xa0, 0x01), 0x01)\n      and\n      dup2\n      jump\n        /* \"ERC20Staking.sol\":3188:3536  function claimReward() external updateReward(msg.sender) nonReentrant {... */\n    tag_23:\n      tag_52\n      tag_111\n      jump\t// in\n        /* \"ERC20Staking.sol\":940:984  mapping(address => uint256) public s_rewards */\n    tag_24:\n      tag_39\n      tag_113\n      calldatasize\n      0x04\n      tag_41\n      jump\t// in\n    tag_113:\n      mstore(0x20, 0x09)\n      0x00\n      swap1\n      dup2\n      mstore\n      0x40\n      swap1\n      keccak256\n      sload\n      dup2\n      jump\n        /* \"ERC20Staking.sol\":5739:6211  function getUsersRewards(address account) public view returns (address[] memory, uint[] memory) {... */\n    tag_25:\n      tag_116\n      tag_117\n      calldatasize\n      0x04\n      tag_41\n      jump\t// in\n    tag_117:\n      tag_118\n      jump\t// in\n    tag_116:\n      mload(0x40)\n      tag_43\n      swap3\n      swap2\n      swap1\n      tag_120\n      jump\t// in\n        /* \"ERC20Staking.sol\":5266:5733  function getUsersStaked(address account) public view returns (address[] memory, uint[] memory) {... */\n    tag_26:\n      tag_116\n      tag_122\n      calldatasize\n      0x04\n      tag_41\n      jump\t// in\n    tag_122:\n      tag_123\n      jump\t// in\n        /* \"ERC20Staking.sol\":4524:4642  function getTotalRewardTokensSupply() public view returns (uint256) {... */\n    tag_27:\n      tag_39\n      tag_126\n      jump\t// in\n        /* \"ERC20Staking.sol\":1531:1824  function rewardPerToken() public view returns (uint256) {... */\n    tag_28:\n      tag_39\n      tag_129\n      jump\t// in\n        /* \"ERC20Staking.sol\":807:833  address[] public addresses */\n    tag_29:\n      tag_45\n      tag_132\n      calldatasize\n      0x04\n      tag_54\n      jump\t// in\n    tag_132:\n      tag_133\n      jump\t// in\n        /* \"ERC20Staking.sol\":875:934  mapping(address => uint256) public s_userRewardPerTokenPaid */\n    tag_30:\n      tag_39\n      tag_136\n      calldatasize\n      0x04\n      tag_41\n      jump\t// in\n    tag_136:\n      mstore(0x20, 0x08)\n      0x00\n      swap1\n      dup2\n      mstore\n      0x40\n      swap1\n      keccak256\n      sload\n      dup2\n      jump\n        /* \"@openzeppelin/contracts/access/Ownable.sol\":1918:2116   */\n    tag_31:\n      tag_52\n      tag_140\n      calldatasize\n      0x04\n      tag_41\n      jump\t// in\n    tag_140:\n      tag_141\n      jump\t// in\n        /* \"ERC20Staking.sol\":1895:2100  function earned(address account) public view returns (uint256) {... */\n    tag_42:\n      sub(shl(0xa0, 0x01), 0x01)\n        /* \"ERC20Staking.sol\":2075:2093  s_rewards[account] */\n      dup2\n      and\n        /* \"ERC20Staking.sol\":1949:1956  uint256 */\n      0x00\n        /* \"ERC20Staking.sol\":2075:2093  s_rewards[account] */\n      swap1\n      dup2\n      mstore\n        /* \"ERC20Staking.sol\":2075:2084  s_rewards */\n      0x09\n        /* \"ERC20Staking.sol\":2075:2093  s_rewards[account] */\n      0x20\n      swap1\n      dup2\n      mstore\n      0x40\n      dup1\n      dup4\n      keccak256\n      sload\n        /* \"ERC20Staking.sol\":2029:2053  s_userRewardPerTokenPaid */\n      0x08\n        /* \"ERC20Staking.sol\":2029:2062  s_userRewardPerTokenPaid[account] */\n      swap1\n      swap3\n      mstore\n      dup3\n      keccak256\n      sload\n        /* \"ERC20Staking.sol\":2067:2071  1e18 */\n      0x0de0b6b3a7640000\n      swap1\n        /* \"ERC20Staking.sol\":2010:2026  rewardPerToken() */\n      tag_143\n        /* \"ERC20Staking.sol\":2010:2024  rewardPerToken */\n      tag_129\n        /* \"ERC20Staking.sol\":2010:2026  rewardPerToken() */\n      jump\t// in\n    tag_143:\n        /* \"ERC20Staking.sol\":2010:2062  rewardPerToken() - s_userRewardPerTokenPaid[account] */\n      tag_144\n      swap2\n      swap1\n      tag_145\n      jump\t// in\n    tag_144:\n      sub(shl(0xa0, 0x01), 0x01)\n        /* \"ERC20Staking.sol\":1989:2006  s_stakes[account] */\n      dup6\n      and\n      0x00\n      swap1\n      dup2\n      mstore\n        /* \"ERC20Staking.sol\":1989:1997  s_stakes */\n      0x0a\n        /* \"ERC20Staking.sol\":1989:2006  s_stakes[account] */\n      0x20\n      mstore\n      0x40\n      swap1\n      keccak256\n      sload\n        /* \"ERC20Staking.sol\":1989:2063  s_stakes[account] * (rewardPerToken() - s_userRewardPerTokenPaid[account]) */\n      tag_146\n      swap2\n      swap1\n      tag_147\n      jump\t// in\n    tag_146:\n        /* \"ERC20Staking.sol\":1988:2071  (s_stakes[account] * (rewardPerToken() - s_userRewardPerTokenPaid[account])) / 1e18 */\n      tag_148\n      swap2\n      swap1\n      tag_149\n      jump\t// in\n    tag_148:\n        /* \"ERC20Staking.sol\":1987:2093  ((s_stakes[account] * (rewardPerToken() - s_userRewardPerTokenPaid[account])) / 1e18) + s_rewards[account] */\n      tag_150\n      swap2\n      swap1\n      tag_151\n      jump\t// in\n    tag_150:\n        /* \"ERC20Staking.sol\":1968:2093  return... */\n      swap3\n        /* \"ERC20Staking.sol\":1895:2100  function earned(address account) public view returns (uint256) {... */\n      swap2\n      pop\n      pop\n      jump\t// out\n        /* \"ERC20Staking.sol\":4648:4767  function getTotalStakingTokensSupply() public view returns (uint256) {... */\n    tag_50:\n        /* \"ERC20Staking.sol\":4732:4746  s_stakingToken */\n      sload(0x03)\n        /* \"ERC20Staking.sol\":4732:4760  s_stakingToken.totalSupply() */\n      0x40\n      dup1\n      mload\n      shl(0xe0, 0x18160ddd)\n      dup2\n      mstore\n      swap1\n      mload\n        /* \"ERC20Staking.sol\":4708:4715  uint256 */\n      0x00\n      swap3\n      sub(shl(0xa0, 0x01), 0x01)\n        /* \"ERC20Staking.sol\":4732:4746  s_stakingToken */\n      and\n      swap2\n        /* \"ERC20Staking.sol\":4732:4758  s_stakingToken.totalSupply */\n      0x18160ddd\n      swap2\n        /* \"ERC20Staking.sol\":4732:4760  s_stakingToken.totalSupply() */\n      0x04\n      dup1\n      dup4\n      add\n      swap3\n      0x20\n      swap3\n      swap2\n      swap1\n      dup3\n      swap1\n      sub\n      add\n      dup2\n        /* \"ERC20Staking.sol\":4732:4746  s_stakingToken */\n      dup7\n        /* \"ERC20Staking.sol\":4732:4760  s_stakingToken.totalSupply() */\n      gas\n      staticcall\n      iszero\n      dup1\n      iszero\n      tag_154\n      jumpi\n      returndatasize\n      0x00\n      dup1\n      returndatacopy\n      revert(0x00, returndatasize)\n    tag_154:\n      pop\n      pop\n      pop\n      pop\n      mload(0x40)\n      returndatasize\n      not(0x1f)\n      0x1f\n      dup3\n      add\n      and\n      dup3\n      add\n      dup1\n      0x40\n      mstore\n      pop\n      dup2\n      add\n      swap1\n      tag_155\n      swap2\n      swap1\n      tag_156\n      jump\t// in\n    tag_155:\n        /* \"ERC20Staking.sol\":4725:4760  return s_stakingToken.totalSupply() */\n      swap1\n      pop\n        /* \"ERC20Staking.sol\":4648:4767  function getTotalStakingTokensSupply() public view returns (uint256) {... */\n      swap1\n      jump\t// out\n        /* \"ERC20Staking.sol\":2778:3126  function withdraw(uint256 amount) external updateReward(msg.sender) nonReentrant {... */\n    tag_55:\n        /* \"ERC20Staking.sol\":2834:2844  msg.sender */\n      caller\n        /* \"ERC20Staking.sol\":3700:3716  rewardPerToken() */\n      tag_158\n        /* \"ERC20Staking.sol\":3700:3714  rewardPerToken */\n      tag_129\n        /* \"ERC20Staking.sol\":3700:3716  rewardPerToken() */\n      jump\t// in\n    tag_158:\n        /* \"ERC20Staking.sol\":3675:3697  s_rewardPerTokenStored */\n      0x05\n        /* \"ERC20Staking.sol\":3675:3716  s_rewardPerTokenStored = rewardPerToken() */\n      sstore\n        /* \"ERC20Staking.sol\":3745:3760  block.timestamp */\n      timestamp\n        /* \"ERC20Staking.sol\":3726:3742  s_lastUpdateTime */\n      0x04\n        /* \"ERC20Staking.sol\":3726:3760  s_lastUpdateTime = block.timestamp */\n      sstore\n        /* \"ERC20Staking.sol\":3791:3806  earned(account) */\n      tag_159\n        /* \"ERC20Staking.sol\":3798:3805  account */\n      dup2\n        /* \"ERC20Staking.sol\":3791:3797  earned */\n      tag_42\n        /* \"ERC20Staking.sol\":3791:3806  earned(account) */\n      jump\t// in\n    tag_159:\n      sub(shl(0xa0, 0x01), 0x01)\n        /* \"ERC20Staking.sol\":3770:3788  s_rewards[account] */\n      dup3\n      and\n      0x00\n      swap1\n      dup2\n      mstore\n        /* \"ERC20Staking.sol\":3770:3779  s_rewards */\n      0x09\n        /* \"ERC20Staking.sol\":3770:3788  s_rewards[account] */\n      0x20\n      swap1\n      dup2\n      mstore\n      0x40\n      dup1\n      dup4\n      keccak256\n        /* \"ERC20Staking.sol\":3770:3806  s_rewards[account] = earned(account) */\n      swap4\n      swap1\n      swap4\n      sstore\n        /* \"ERC20Staking.sol\":3852:3874  s_rewardPerTokenStored */\n      sload(0x05)\n        /* \"ERC20Staking.sol\":3816:3840  s_userRewardPerTokenPaid */\n      0x08\n        /* \"ERC20Staking.sol\":3816:3849  s_userRewardPerTokenPaid[account] */\n      swap1\n      swap2\n      mstore\n      swap2\n      dup2\n      keccak256\n        /* \"ERC20Staking.sol\":3816:3874  s_userRewardPerTokenPaid[account] = s_rewardPerTokenStored */\n      swap2\n      swap1\n      swap2\n      sstore\n        /* \"@openzeppelin/contracts/security/ReentrancyGuard.sol\":2325:2332   */\n      sload\n      not(0x01)\n        /* \"@openzeppelin/contracts/security/ReentrancyGuard.sol\":2325:2344   */\n      add\n        /* \"@openzeppelin/contracts/security/ReentrancyGuard.sol\":2317:2380   */\n      tag_161\n      jumpi\n      mload(0x40)\n      shl(0xe5, 0x461bcd)\n      dup2\n      mstore\n        /* \"#utility.yul\":3750:3752   */\n      0x20\n        /* \"@openzeppelin/contracts/security/ReentrancyGuard.sol\":2317:2380   */\n      0x04\n      dup3\n      add\n        /* \"#utility.yul\":3732:3753   */\n      mstore\n        /* \"#utility.yul\":3789:3791   */\n      0x1f\n        /* \"#utility.yul\":3769:3787   */\n      0x24\n      dup3\n      add\n        /* \"#utility.yul\":3762:3792   */\n      mstore\n        /* \"#utility.yul\":3828:3861   */\n      0x5265656e7472616e637947756172643a207265656e7472616e742063616c6c00\n        /* \"#utility.yul\":3808:3826   */\n      0x44\n      dup3\n      add\n        /* \"#utility.yul\":3801:3862   */\n      mstore\n        /* \"#utility.yul\":3879:3897   */\n      0x64\n      add\n        /* \"@openzeppelin/contracts/security/ReentrancyGuard.sol\":2317:2380   */\n    tag_162:\n      mload(0x40)\n      dup1\n      swap2\n      sub\n      swap1\n      revert\n    tag_161:\n        /* \"@openzeppelin/contracts/security/ReentrancyGuard.sol\":1744:1745   */\n      0x02\n        /* \"@openzeppelin/contracts/security/ReentrancyGuard.sol\":2455:2462   */\n      0x00\n        /* \"@openzeppelin/contracts/security/ReentrancyGuard.sol\":2455:2473   */\n      dup2\n      swap1\n      sstore\n      pop\n        /* \"ERC20Staking.sol\":2886:2892  amount */\n      dup2\n        /* \"ERC20Staking.sol\":2869:2882  s_totalSupply */\n      0x07\n      0x00\n        /* \"ERC20Staking.sol\":2869:2892  s_totalSupply -= amount */\n      dup3\n      dup3\n      sload\n      tag_165\n      swap2\n      swap1\n      tag_145\n      jump\t// in\n    tag_165:\n      swap1\n      swap2\n      sstore\n      pop\n      pop\n        /* \"ERC20Staking.sol\":2911:2921  msg.sender */\n      caller\n        /* \"ERC20Staking.sol\":2902:2922  s_stakes[msg.sender] */\n      0x00\n      swap1\n      dup2\n      mstore\n        /* \"ERC20Staking.sol\":2902:2910  s_stakes */\n      0x0a\n        /* \"ERC20Staking.sol\":2902:2922  s_stakes[msg.sender] */\n      0x20\n      mstore\n      0x40\n      dup2\n      keccak256\n        /* \"ERC20Staking.sol\":2902:2932  s_stakes[msg.sender] -= amount */\n      dup1\n      sload\n        /* \"ERC20Staking.sol\":2926:2932  amount */\n      dup5\n      swap3\n        /* \"ERC20Staking.sol\":2902:2922  s_stakes[msg.sender] */\n      swap1\n        /* \"ERC20Staking.sol\":2902:2932  s_stakes[msg.sender] -= amount */\n      tag_166\n      swap1\n        /* \"ERC20Staking.sol\":2926:2932  amount */\n      dup5\n      swap1\n        /* \"ERC20Staking.sol\":2902:2932  s_stakes[msg.sender] -= amount */\n      tag_145\n      jump\t// in\n    tag_166:\n      swap1\n      swap2\n      sstore\n      pop\n      pop\n        /* \"ERC20Staking.sol\":2947:2980  WithdrewStake(msg.sender, amount) */\n      mload(0x40)\n        /* \"ERC20Staking.sol\":2973:2979  amount */\n      dup3\n      swap1\n        /* \"ERC20Staking.sol\":2961:2971  msg.sender */\n      caller\n      swap1\n        /* \"ERC20Staking.sol\":2947:2980  WithdrewStake(msg.sender, amount) */\n      0x4cb6da433ea55f6e302b7bdbfeed740816a42301cde7f5bac5dff2b340376374\n      swap1\n      0x00\n      swap1\n      log3\n        /* \"ERC20Staking.sol\":3005:3019  s_stakingToken */\n      sload(0x03)\n        /* \"ERC20Staking.sol\":3005:3048  s_stakingToken.transfer(msg.sender, amount) */\n      mload(0x40)\n      shl(0xe0, 0xa9059cbb)\n      dup2\n      mstore\n        /* \"ERC20Staking.sol\":3029:3039  msg.sender */\n      caller\n        /* \"ERC20Staking.sol\":3005:3048  s_stakingToken.transfer(msg.sender, amount) */\n      0x04\n      dup3\n      add\n        /* \"#utility.yul\":4082:4156   */\n      mstore\n        /* \"#utility.yul\":4172:4190   */\n      0x24\n      dup2\n      add\n        /* \"#utility.yul\":4165:4199   */\n      dup5\n      swap1\n      mstore\n        /* \"ERC20Staking.sol\":2990:3002  bool success */\n      0x00\n      swap2\n      sub(shl(0xa0, 0x01), 0x01)\n        /* \"ERC20Staking.sol\":3005:3019  s_stakingToken */\n      and\n      swap1\n        /* \"ERC20Staking.sol\":3005:3028  s_stakingToken.transfer */\n      0xa9059cbb\n      swap1\n        /* \"#utility.yul\":4055:4073   */\n      0x44\n      add\n        /* \"ERC20Staking.sol\":3005:3048  s_stakingToken.transfer(msg.sender, amount) */\n    tag_167:\n      0x20\n      mload(0x40)\n      dup1\n      dup4\n      sub\n      dup2\n      0x00\n      dup8\n      gas\n      call\n      iszero\n      dup1\n      iszero\n      tag_170\n      jumpi\n      returndatasize\n      0x00\n      dup1\n      returndatacopy\n      revert(0x00, returndatasize)\n    tag_170:\n      pop\n      pop\n      pop\n      pop\n      mload(0x40)\n      returndatasize\n      not(0x1f)\n      0x1f\n      dup3\n      add\n      and\n      dup3\n      add\n      dup1\n      0x40\n      mstore\n      pop\n      dup2\n      add\n      swap1\n      tag_171\n      swap2\n      swap1\n      tag_172\n      jump\t// in\n    tag_171:\n        /* \"ERC20Staking.sol\":2990:3048  bool success = s_stakingToken.transfer(msg.sender, amount) */\n      swap1\n      pop\n        /* \"ERC20Staking.sol\":3063:3070  success */\n      dup1\n        /* \"ERC20Staking.sol\":3058:3120  if (!success) {... */\n      tag_173\n      jumpi\n        /* \"ERC20Staking.sol\":3093:3109  TransferFailed() */\n      mload(0x40)\n      shl(0xe3, 0x12171d83)\n      dup2\n      mstore\n      0x04\n      add\n      mload(0x40)\n      dup1\n      swap2\n      sub\n      swap1\n      revert\n        /* \"ERC20Staking.sol\":3058:3120  if (!success) {... */\n    tag_173:\n      pop\n      pop\n        /* \"@openzeppelin/contracts/security/ReentrancyGuard.sol\":1701:1702   */\n      0x01\n        /* \"@openzeppelin/contracts/security/ReentrancyGuard.sol\":2628:2635   */\n      0x00\n        /* \"@openzeppelin/contracts/security/ReentrancyGuard.sol\":2628:2650   */\n      sstore\n      pop\n        /* \"ERC20Staking.sol\":2778:3126  function withdraw(uint256 amount) external updateReward(msg.sender) nonReentrant {... */\n      jump\t// out\n        /* \"ERC20Staking.sol\":5159:5260  function isOwner(address account) public view returns (bool) {... */\n    tag_58:\n        /* \"ERC20Staking.sol\":5214:5218  bool */\n      0x00\n        /* \"ERC20Staking.sol\":5246:5253  account */\n      dup2\n      sub(shl(0xa0, 0x01), 0x01)\n        /* \"ERC20Staking.sol\":5235:5253  owner() == account */\n      and\n        /* \"ERC20Staking.sol\":5235:5242  owner() */\n      tag_175\n        /* \"@openzeppelin/contracts/access/Ownable.sol\":1108:1114   */\n      and(sub(shl(0xa0, 0x01), 0x01), sload(0x01))\n      swap1\n        /* \"@openzeppelin/contracts/access/Ownable.sol\":1036:1121   */\n      jump\n        /* \"ERC20Staking.sol\":5235:5242  owner() */\n    tag_175:\n      sub(shl(0xa0, 0x01), 0x01)\n        /* \"ERC20Staking.sol\":5235:5253  owner() == account */\n      and\n      eq\n      swap3\n        /* \"ERC20Staking.sol\":5159:5260  function isOwner(address account) public view returns (bool) {... */\n      swap2\n      pop\n      pop\n      jump\t// out\n        /* \"ERC20Staking.sol\":4241:4377  function getStakableTokensBalance(address account) public view returns (uint256) {... */\n    tag_70:\n        /* \"ERC20Staking.sol\":4337:4351  s_stakingToken */\n      sload(0x03)\n        /* \"ERC20Staking.sol\":4337:4370  s_stakingToken.balanceOf(account) */\n      mload(0x40)\n      shl(0xe0, 0x70a08231)\n      dup2\n      mstore\n      sub(shl(0xa0, 0x01), 0x01)\n        /* \"#utility.yul\":688:743   */\n      dup4\n      dup2\n      and\n        /* \"ERC20Staking.sol\":4337:4370  s_stakingToken.balanceOf(account) */\n      0x04\n      dup4\n      add\n        /* \"#utility.yul\":670:744   */\n      mstore\n        /* \"ERC20Staking.sol\":4313:4320  uint256 */\n      0x00\n      swap3\n        /* \"ERC20Staking.sol\":4337:4351  s_stakingToken */\n      and\n      swap1\n        /* \"ERC20Staking.sol\":4337:4361  s_stakingToken.balanceOf */\n      0x70a08231\n      swap1\n        /* \"#utility.yul\":643:661   */\n      0x24\n      add\n        /* \"ERC20Staking.sol\":4337:4370  s_stakingToken.balanceOf(account) */\n    tag_178:\n      0x20\n      mload(0x40)\n      dup1\n      dup4\n      sub\n      dup2\n      dup7\n      gas\n      staticcall\n      iszero\n      dup1\n      iszero\n      tag_180\n      jumpi\n      returndatasize\n      0x00\n      dup1\n      returndatacopy\n      revert(0x00, returndatasize)\n    tag_180:\n      pop\n      pop\n      pop\n      pop\n      mload(0x40)\n      returndatasize\n      not(0x1f)\n      0x1f\n      dup3\n      add\n      and\n      dup3\n      add\n      dup1\n      0x40\n      mstore\n      pop\n      dup2\n      add\n      swap1\n      tag_150\n      swap2\n      swap1\n      tag_156\n      jump\t// in\n        /* \"ERC20Staking.sol\":4383:4518  function getRewardsTokensBalance(address account) public view returns (uint256) {... */\n    tag_81:\n        /* \"ERC20Staking.sol\":4478:4492  s_rewardsToken */\n      sload(0x02)\n        /* \"ERC20Staking.sol\":4478:4511  s_rewardsToken.balanceOf(account) */\n      mload(0x40)\n      shl(0xe0, 0x70a08231)\n      dup2\n      mstore\n      sub(shl(0xa0, 0x01), 0x01)\n        /* \"#utility.yul\":688:743   */\n      dup4\n      dup2\n      and\n        /* \"ERC20Staking.sol\":4478:4511  s_rewardsToken.balanceOf(account) */\n      0x04\n      dup4\n      add\n        /* \"#utility.yul\":670:744   */\n      mstore\n        /* \"ERC20Staking.sol\":4454:4461  uint256 */\n      0x00\n      swap3\n        /* \"ERC20Staking.sol\":4478:4492  s_rewardsToken */\n      and\n      swap1\n        /* \"ERC20Staking.sol\":4478:4502  s_rewardsToken.balanceOf */\n      0x70a08231\n      swap1\n        /* \"#utility.yul\":643:661   */\n      0x24\n      add\n        /* \"ERC20Staking.sol\":4478:4511  s_rewardsToken.balanceOf(account) */\n      tag_178\n        /* \"#utility.yul\":510:750   */\n      jump\n        /* \"@openzeppelin/contracts/access/Ownable.sol\":1668:1769   */\n    tag_90:\n        /* \"@openzeppelin/contracts/access/Ownable.sol\":1108:1114   */\n      and(sub(shl(0xa0, 0x01), 0x01), sload(0x01))\n        /* \"ERC20Staking.sol\":5051:5061  msg.sender */\n      caller\n        /* \"@openzeppelin/contracts/access/Ownable.sol\":1248:1271   */\n      eq\n        /* \"@openzeppelin/contracts/access/Ownable.sol\":1240:1308   */\n      tag_193\n      jumpi\n      mload(0x40)\n      shl(0xe5, 0x461bcd)\n      dup2\n      mstore\n        /* \"#utility.yul\":4694:4696   */\n      0x20\n        /* \"@openzeppelin/contracts/access/Ownable.sol\":1240:1308   */\n      0x04\n      dup3\n      add\n        /* \"#utility.yul\":4676:4697   */\n      dup2\n      swap1\n      mstore\n        /* \"#utility.yul\":4713:4731   */\n      0x24\n      dup3\n      add\n        /* \"#utility.yul\":4706:4736   */\n      mstore\n        /* \"#utility.yul\":4772:4806   */\n      0x4f776e61626c653a2063616c6c6572206973206e6f7420746865206f776e6572\n        /* \"#utility.yul\":4752:4770   */\n      0x44\n      dup3\n      add\n        /* \"#utility.yul\":4745:4807   */\n      mstore\n        /* \"#utility.yul\":4824:4842   */\n      0x64\n      add\n        /* \"@openzeppelin/contracts/access/Ownable.sol\":1240:1308   */\n      tag_162\n        /* \"#utility.yul\":4492:4848   */\n      jump\n        /* \"@openzeppelin/contracts/access/Ownable.sol\":1240:1308   */\n    tag_193:\n        /* \"@openzeppelin/contracts/access/Ownable.sol\":1732:1762   */\n      tag_197\n        /* \"@openzeppelin/contracts/access/Ownable.sol\":1759:1760   */\n      0x00\n        /* \"@openzeppelin/contracts/access/Ownable.sol\":1732:1750   */\n      tag_198\n        /* \"@openzeppelin/contracts/access/Ownable.sol\":1732:1762   */\n      jump\t// in\n    tag_197:\n        /* \"@openzeppelin/contracts/access/Ownable.sol\":1668:1769   */\n      jump\t// out\n        /* \"ERC20Staking.sol\":5074:5153  function getOwner() public view returns (address) {... */\n    tag_92:\n        /* \"ERC20Staking.sol\":5115:5122  address */\n      0x00\n        /* \"ERC20Staking.sol\":5139:5146  owner() */\n      tag_155\n        /* \"@openzeppelin/contracts/access/Ownable.sol\":1108:1114   */\n      and(sub(shl(0xa0, 0x01), 0x01), sload(0x01))\n      swap1\n        /* \"@openzeppelin/contracts/access/Ownable.sol\":1036:1121   */\n      jump\n        /* \"ERC20Staking.sol\":2212:2662  function stake(uint256 amount)... */\n    tag_106:\n        /* \"ERC20Staking.sol\":2281:2291  msg.sender */\n      caller\n        /* \"ERC20Staking.sol\":3700:3716  rewardPerToken() */\n      tag_204\n        /* \"ERC20Staking.sol\":3700:3714  rewardPerToken */\n      tag_129\n        /* \"ERC20Staking.sol\":3700:3716  rewardPerToken() */\n      jump\t// in\n    tag_204:\n        /* \"ERC20Staking.sol\":3675:3697  s_rewardPerTokenStored */\n      0x05\n        /* \"ERC20Staking.sol\":3675:3716  s_rewardPerTokenStored = rewardPerToken() */\n      sstore\n        /* \"ERC20Staking.sol\":3745:3760  block.timestamp */\n      timestamp\n        /* \"ERC20Staking.sol\":3726:3742  s_lastUpdateTime */\n      0x04\n        /* \"ERC20Staking.sol\":3726:3760  s_lastUpdateTime = block.timestamp */\n      sstore\n        /* \"ERC20Staking.sol\":3791:3806  earned(account) */\n      tag_205\n        /* \"ERC20Staking.sol\":3798:3805  account */\n      dup2\n        /* \"ERC20Staking.sol\":3791:3797  earned */\n      tag_42\n        /* \"ERC20Staking.sol\":3791:3806  earned(account) */\n      jump\t// in\n    tag_205:\n      sub(shl(0xa0, 0x01), 0x01)\n        /* \"ERC20Staking.sol\":3770:3788  s_rewards[account] */\n      dup3\n      and\n      0x00\n      swap1\n      dup2\n      mstore\n        /* \"ERC20Staking.sol\":3770:3779  s_rewards */\n      0x09\n        /* \"ERC20Staking.sol\":3770:3788  s_rewards[account] */\n      0x20\n      swap1\n      dup2\n      mstore\n      0x40\n      dup1\n      dup4\n      keccak256\n        /* \"ERC20Staking.sol\":3770:3806  s_rewards[account] = earned(account) */\n      swap4\n      swap1\n      swap4\n      sstore\n        /* \"ERC20Staking.sol\":3852:3874  s_rewardPerTokenStored */\n      sload(0x05)\n        /* \"ERC20Staking.sol\":3816:3840  s_userRewardPerTokenPaid */\n      0x08\n        /* \"ERC20Staking.sol\":3816:3849  s_userRewardPerTokenPaid[account] */\n      swap1\n      swap2\n      mstore\n      swap2\n      dup2\n      keccak256\n        /* \"ERC20Staking.sol\":3816:3874  s_userRewardPerTokenPaid[account] = s_rewardPerTokenStored */\n      swap2\n      swap1\n      swap2\n      sstore\n        /* \"@openzeppelin/contracts/security/ReentrancyGuard.sol\":2325:2332   */\n      sload\n      not(0x01)\n        /* \"@openzeppelin/contracts/security/ReentrancyGuard.sol\":2325:2344   */\n      add\n        /* \"@openzeppelin/contracts/security/ReentrancyGuard.sol\":2317:2380   */\n      tag_207\n      jumpi\n      mload(0x40)\n      shl(0xe5, 0x461bcd)\n      dup2\n      mstore\n        /* \"#utility.yul\":3750:3752   */\n      0x20\n        /* \"@openzeppelin/contracts/security/ReentrancyGuard.sol\":2317:2380   */\n      0x04\n      dup3\n      add\n        /* \"#utility.yul\":3732:3753   */\n      mstore\n        /* \"#utility.yul\":3789:3791   */\n      0x1f\n        /* \"#utility.yul\":3769:3787   */\n      0x24\n      dup3\n      add\n        /* \"#utility.yul\":3762:3792   */\n      mstore\n        /* \"#utility.yul\":3828:3861   */\n      0x5265656e7472616e637947756172643a207265656e7472616e742063616c6c00\n        /* \"#utility.yul\":3808:3826   */\n      0x44\n      dup3\n      add\n        /* \"#utility.yul\":3801:3862   */\n      mstore\n        /* \"#utility.yul\":3879:3897   */\n      0x64\n      add\n        /* \"@openzeppelin/contracts/security/ReentrancyGuard.sol\":2317:2380   */\n      tag_162\n        /* \"#utility.yul\":3548:3903   */\n      jump\n        /* \"@openzeppelin/contracts/security/ReentrancyGuard.sol\":2317:2380   */\n    tag_207:\n        /* \"@openzeppelin/contracts/security/ReentrancyGuard.sol\":1744:1745   */\n      0x02\n        /* \"@openzeppelin/contracts/security/ReentrancyGuard.sol\":2455:2462   */\n      0x00\n        /* \"@openzeppelin/contracts/security/ReentrancyGuard.sol\":2455:2473   */\n      dup2\n      swap1\n      sstore\n      pop\n        /* \"ERC20Staking.sol\":2335:2341  amount */\n      dup2\n        /* \"ERC20Staking.sol\":3950:3956  amount */\n      dup1\n        /* \"ERC20Staking.sol\":3960:3961  0 */\n      0x00\n        /* \"ERC20Staking.sol\":3950:3961  amount == 0 */\n      sub\n        /* \"ERC20Staking.sol\":3946:4014  if (amount == 0) {... */\n      tag_210\n      jumpi\n        /* \"ERC20Staking.sol\":3984:4003  NeedsMoreThanZero() */\n      mload(0x40)\n      shl(0xe4, 0x0f45911f)\n      dup2\n      mstore\n      0x04\n      add\n      mload(0x40)\n      dup1\n      swap2\n      sub\n      swap1\n      revert\n        /* \"ERC20Staking.sol\":3946:4014  if (amount == 0) {... */\n    tag_210:\n        /* \"ERC20Staking.sol\":2357:2366  addresses */\n      0x06\n        /* \"ERC20Staking.sol\":2357:2383  addresses.push(msg.sender) */\n      dup1\n      sload\n      0x01\n      dup2\n      add\n      dup3\n      sstore\n      0x00\n      swap2\n      dup3\n      mstore\n      0xf652222313e28459528d920b65115c16c04f3efc82aaedc97be59f3f377c0d3f\n      add\n      dup1\n      sload\n      not(0xffffffffffffffffffffffffffffffffffffffff)\n      and\n        /* \"ERC20Staking.sol\":2372:2382  msg.sender */\n      caller\n        /* \"ERC20Staking.sol\":2357:2383  addresses.push(msg.sender) */\n      or\n      swap1\n      sstore\n        /* \"ERC20Staking.sol\":2393:2406  s_totalSupply */\n      0x07\n        /* \"ERC20Staking.sol\":2393:2416  s_totalSupply += amount */\n      dup1\n      sload\n        /* \"ERC20Staking.sol\":2410:2416  amount */\n      dup6\n      swap3\n      swap1\n        /* \"ERC20Staking.sol\":2393:2416  s_totalSupply += amount */\n      tag_213\n      swap1\n        /* \"ERC20Staking.sol\":2410:2416  amount */\n      dup5\n      swap1\n        /* \"ERC20Staking.sol\":2393:2416  s_totalSupply += amount */\n      tag_151\n      jump\t// in\n    tag_213:\n      swap1\n      swap2\n      sstore\n      pop\n      pop\n        /* \"ERC20Staking.sol\":2435:2445  msg.sender */\n      caller\n        /* \"ERC20Staking.sol\":2426:2446  s_stakes[msg.sender] */\n      0x00\n      swap1\n      dup2\n      mstore\n        /* \"ERC20Staking.sol\":2426:2434  s_stakes */\n      0x0a\n        /* \"ERC20Staking.sol\":2426:2446  s_stakes[msg.sender] */\n      0x20\n      mstore\n      0x40\n      dup2\n      keccak256\n        /* \"ERC20Staking.sol\":2426:2456  s_stakes[msg.sender] += amount */\n      dup1\n      sload\n        /* \"ERC20Staking.sol\":2450:2456  amount */\n      dup6\n      swap3\n        /* \"ERC20Staking.sol\":2426:2446  s_stakes[msg.sender] */\n      swap1\n        /* \"ERC20Staking.sol\":2426:2456  s_stakes[msg.sender] += amount */\n      tag_214\n      swap1\n        /* \"ERC20Staking.sol\":2450:2456  amount */\n      dup5\n      swap1\n        /* \"ERC20Staking.sol\":2426:2456  s_stakes[msg.sender] += amount */\n      tag_151\n      jump\t// in\n    tag_214:\n      swap1\n      swap2\n      sstore\n      pop\n      pop\n        /* \"ERC20Staking.sol\":2471:2497  Staked(msg.sender, amount) */\n      mload(0x40)\n        /* \"ERC20Staking.sol\":2490:2496  amount */\n      dup4\n      swap1\n        /* \"ERC20Staking.sol\":2478:2488  msg.sender */\n      caller\n      swap1\n        /* \"ERC20Staking.sol\":2471:2497  Staked(msg.sender, amount) */\n      0x9e71bc8eea02a63969f509818f2dafb9254532904319f9dbda79b67bd34a5f3d\n      swap1\n      0x00\n      swap1\n      log3\n        /* \"ERC20Staking.sol\":2522:2536  s_stakingToken */\n      sload(0x03)\n        /* \"ERC20Staking.sol\":2522:2584  s_stakingToken.transferFrom(msg.sender, address(this), amount) */\n      mload(0x40)\n      shl(0xe0, 0x23b872dd)\n      dup2\n      mstore\n        /* \"ERC20Staking.sol\":2550:2560  msg.sender */\n      caller\n        /* \"ERC20Staking.sol\":2522:2584  s_stakingToken.transferFrom(msg.sender, address(this), amount) */\n      0x04\n      dup3\n      add\n        /* \"#utility.yul\":5116:5150   */\n      mstore\n        /* \"ERC20Staking.sol\":2570:2574  this */\n      address\n        /* \"#utility.yul\":5166:5184   */\n      0x24\n      dup3\n      add\n        /* \"#utility.yul\":5159:5202   */\n      mstore\n        /* \"#utility.yul\":5218:5236   */\n      0x44\n      dup2\n      add\n        /* \"#utility.yul\":5211:5245   */\n      dup6\n      swap1\n      mstore\n        /* \"ERC20Staking.sol\":2507:2519  bool success */\n      0x00\n      swap2\n      sub(shl(0xa0, 0x01), 0x01)\n        /* \"ERC20Staking.sol\":2522:2536  s_stakingToken */\n      and\n      swap1\n        /* \"ERC20Staking.sol\":2522:2549  s_stakingToken.transferFrom */\n      0x23b872dd\n      swap1\n        /* \"#utility.yul\":5028:5046   */\n      0x64\n      add\n        /* \"ERC20Staking.sol\":2522:2584  s_stakingToken.transferFrom(msg.sender, address(this), amount) */\n      0x20\n      mload(0x40)\n      dup1\n      dup4\n      sub\n      dup2\n      0x00\n      dup8\n      gas\n      call\n      iszero\n      dup1\n      iszero\n      tag_218\n      jumpi\n      returndatasize\n      0x00\n      dup1\n      returndatacopy\n      revert(0x00, returndatasize)\n    tag_218:\n      pop\n      pop\n      pop\n      pop\n      mload(0x40)\n      returndatasize\n      not(0x1f)\n      0x1f\n      dup3\n      add\n      and\n      dup3\n      add\n      dup1\n      0x40\n      mstore\n      pop\n      dup2\n      add\n      swap1\n      tag_219\n      swap2\n      swap1\n      tag_172\n      jump\t// in\n    tag_219:\n        /* \"ERC20Staking.sol\":2507:2584  bool success = s_stakingToken.transferFrom(msg.sender, address(this), amount) */\n      swap1\n      pop\n        /* \"ERC20Staking.sol\":2599:2606  success */\n      dup1\n        /* \"ERC20Staking.sol\":2594:2656  if (!success) {... */\n      tag_220\n      jumpi\n        /* \"ERC20Staking.sol\":2629:2645  TransferFailed() */\n      mload(0x40)\n      shl(0xe3, 0x12171d83)\n      dup2\n      mstore\n      0x04\n      add\n      mload(0x40)\n      dup1\n      swap2\n      sub\n      swap1\n      revert\n        /* \"ERC20Staking.sol\":2594:2656  if (!success) {... */\n    tag_220:\n      pop\n      pop\n        /* \"@openzeppelin/contracts/security/ReentrancyGuard.sol\":1701:1702   */\n      0x01\n        /* \"@openzeppelin/contracts/security/ReentrancyGuard.sol\":2628:2635   */\n      0x00\n        /* \"@openzeppelin/contracts/security/ReentrancyGuard.sol\":2628:2650   */\n      sstore\n      pop\n      pop\n        /* \"ERC20Staking.sol\":2212:2662  function stake(uint256 amount)... */\n      jump\t// out\n        /* \"ERC20Staking.sol\":3188:3536  function claimReward() external updateReward(msg.sender) nonReentrant {... */\n    tag_111:\n        /* \"ERC20Staking.sol\":3233:3243  msg.sender */\n      caller\n        /* \"ERC20Staking.sol\":3700:3716  rewardPerToken() */\n      tag_222\n        /* \"ERC20Staking.sol\":3700:3714  rewardPerToken */\n      tag_129\n        /* \"ERC20Staking.sol\":3700:3716  rewardPerToken() */\n      jump\t// in\n    tag_222:\n        /* \"ERC20Staking.sol\":3675:3697  s_rewardPerTokenStored */\n      0x05\n        /* \"ERC20Staking.sol\":3675:3716  s_rewardPerTokenStored = rewardPerToken() */\n      sstore\n        /* \"ERC20Staking.sol\":3745:3760  block.timestamp */\n      timestamp\n        /* \"ERC20Staking.sol\":3726:3742  s_lastUpdateTime */\n      0x04\n        /* \"ERC20Staking.sol\":3726:3760  s_lastUpdateTime = block.timestamp */\n      sstore\n        /* \"ERC20Staking.sol\":3791:3806  earned(account) */\n      tag_223\n        /* \"ERC20Staking.sol\":3798:3805  account */\n      dup2\n        /* \"ERC20Staking.sol\":3791:3797  earned */\n      tag_42\n        /* \"ERC20Staking.sol\":3791:3806  earned(account) */\n      jump\t// in\n    tag_223:\n      sub(shl(0xa0, 0x01), 0x01)\n        /* \"ERC20Staking.sol\":3770:3788  s_rewards[account] */\n      dup3\n      and\n      0x00\n      swap1\n      dup2\n      mstore\n        /* \"ERC20Staking.sol\":3770:3779  s_rewards */\n      0x09\n        /* \"ERC20Staking.sol\":3770:3788  s_rewards[account] */\n      0x20\n      swap1\n      dup2\n      mstore\n      0x40\n      dup1\n      dup4\n      keccak256\n        /* \"ERC20Staking.sol\":3770:3806  s_rewards[account] = earned(account) */\n      swap4\n      swap1\n      swap4\n      sstore\n        /* \"ERC20Staking.sol\":3852:3874  s_rewardPerTokenStored */\n      sload(0x05)\n        /* \"ERC20Staking.sol\":3816:3840  s_userRewardPerTokenPaid */\n      0x08\n        /* \"ERC20Staking.sol\":3816:3849  s_userRewardPerTokenPaid[account] */\n      swap1\n      swap2\n      mstore\n      swap2\n      dup2\n      keccak256\n        /* \"ERC20Staking.sol\":3816:3874  s_userRewardPerTokenPaid[account] = s_rewardPerTokenStored */\n      swap2\n      swap1\n      swap2\n      sstore\n        /* \"@openzeppelin/contracts/security/ReentrancyGuard.sol\":2325:2332   */\n      sload\n      not(0x01)\n        /* \"@openzeppelin/contracts/security/ReentrancyGuard.sol\":2325:2344   */\n      add\n        /* \"@openzeppelin/contracts/security/ReentrancyGuard.sol\":2317:2380   */\n      tag_225\n      jumpi\n      mload(0x40)\n      shl(0xe5, 0x461bcd)\n      dup2\n      mstore\n        /* \"#utility.yul\":3750:3752   */\n      0x20\n        /* \"@openzeppelin/contracts/security/ReentrancyGuard.sol\":2317:2380   */\n      0x04\n      dup3\n      add\n        /* \"#utility.yul\":3732:3753   */\n      mstore\n        /* \"#utility.yul\":3789:3791   */\n      0x1f\n        /* \"#utility.yul\":3769:3787   */\n      0x24\n      dup3\n      add\n        /* \"#utility.yul\":3762:3792   */\n      mstore\n        /* \"#utility.yul\":3828:3861   */\n      0x5265656e7472616e637947756172643a207265656e7472616e742063616c6c00\n        /* \"#utility.yul\":3808:3826   */\n      0x44\n      dup3\n      add\n        /* \"#utility.yul\":3801:3862   */\n      mstore\n        /* \"#utility.yul\":3879:3897   */\n      0x64\n      add\n        /* \"@openzeppelin/contracts/security/ReentrancyGuard.sol\":2317:2380   */\n      tag_162\n        /* \"#utility.yul\":3548:3903   */\n      jump\n        /* \"@openzeppelin/contracts/security/ReentrancyGuard.sol\":2317:2380   */\n    tag_225:\n        /* \"@openzeppelin/contracts/security/ReentrancyGuard.sol\":1744:1745   */\n      0x02\n        /* \"@openzeppelin/contracts/security/ReentrancyGuard.sol\":2455:2462   */\n      0x00\n        /* \"@openzeppelin/contracts/security/ReentrancyGuard.sol\":2455:2473   */\n      swap1\n      dup2\n      sstore\n        /* \"ERC20Staking.sol\":3295:3305  msg.sender */\n      caller\n        /* \"ERC20Staking.sol\":3285:3306  s_rewards[msg.sender] */\n      dup1\n      dup3\n      mstore\n        /* \"ERC20Staking.sol\":3285:3294  s_rewards */\n      0x09\n        /* \"ERC20Staking.sol\":3285:3306  s_rewards[msg.sender] */\n      0x20\n      mstore\n      0x40\n      dup1\n      dup4\n      keccak256\n      dup1\n      sload\n        /* \"ERC20Staking.sol\":3316:3341  s_rewards[msg.sender] = 0 */\n      swap1\n      dup5\n      swap1\n      sstore\n        /* \"ERC20Staking.sol\":3356:3390  RewardsClaimed(msg.sender, reward) */\n      swap1\n      mload\n        /* \"ERC20Staking.sol\":3285:3306  s_rewards[msg.sender] */\n      swap1\n      swap3\n      dup4\n      swap3\n        /* \"ERC20Staking.sol\":3295:3305  msg.sender */\n      swap2\n        /* \"ERC20Staking.sol\":3356:3390  RewardsClaimed(msg.sender, reward) */\n      0xfc30cddea38e2bf4d6ea7d3f9ed3b6ad7f176419f4963bd81318067a4aee73fe\n      swap2\n        /* \"@openzeppelin/contracts/security/ReentrancyGuard.sol\":2455:2462   */\n      swap1\n        /* \"ERC20Staking.sol\":3356:3390  RewardsClaimed(msg.sender, reward) */\n      log3\n        /* \"ERC20Staking.sol\":3415:3429  s_rewardsToken */\n      sload(0x02)\n        /* \"ERC20Staking.sol\":3415:3458  s_rewardsToken.transfer(msg.sender, reward) */\n      mload(0x40)\n      shl(0xe0, 0xa9059cbb)\n      dup2\n      mstore\n        /* \"ERC20Staking.sol\":3439:3449  msg.sender */\n      caller\n        /* \"ERC20Staking.sol\":3415:3458  s_rewardsToken.transfer(msg.sender, reward) */\n      0x04\n      dup3\n      add\n        /* \"#utility.yul\":4082:4156   */\n      mstore\n        /* \"#utility.yul\":4172:4190   */\n      0x24\n      dup2\n      add\n        /* \"#utility.yul\":4165:4199   */\n      dup4\n      swap1\n      mstore\n        /* \"ERC20Staking.sol\":3400:3412  bool success */\n      0x00\n      swap2\n      sub(shl(0xa0, 0x01), 0x01)\n        /* \"ERC20Staking.sol\":3415:3429  s_rewardsToken */\n      and\n      swap1\n        /* \"ERC20Staking.sol\":3415:3438  s_rewardsToken.transfer */\n      0xa9059cbb\n      swap1\n        /* \"#utility.yul\":4055:4073   */\n      0x44\n      add\n        /* \"ERC20Staking.sol\":3415:3458  s_rewardsToken.transfer(msg.sender, reward) */\n      tag_167\n        /* \"#utility.yul\":3908:4205   */\n      jump\n        /* \"ERC20Staking.sol\":5739:6211  function getUsersRewards(address account) public view returns (address[] memory, uint[] memory) {... */\n    tag_118:\n        /* \"ERC20Staking.sol\":5802:5818  address[] memory */\n      0x60\n        /* \"ERC20Staking.sol\":5820:5833  uint[] memory */\n      dup1\n        /* \"ERC20Staking.sol\":5862:5869  account */\n      dup3\n      sub(shl(0xa0, 0x01), 0x01)\n        /* \"ERC20Staking.sol\":5851:5869  owner() == account */\n      and\n        /* \"ERC20Staking.sol\":5851:5858  owner() */\n      tag_234\n        /* \"@openzeppelin/contracts/access/Ownable.sol\":1108:1114   */\n      and(sub(shl(0xa0, 0x01), 0x01), sload(0x01))\n      swap1\n        /* \"@openzeppelin/contracts/access/Ownable.sol\":1036:1121   */\n      jump\n        /* \"ERC20Staking.sol\":5851:5858  owner() */\n    tag_234:\n      sub(shl(0xa0, 0x01), 0x01)\n        /* \"ERC20Staking.sol\":5851:5869  owner() == account */\n      and\n      eq\n        /* \"ERC20Staking.sol\":5843:5895  require(owner() == account, \"You are not the owner\") */\n      tag_235\n      jumpi\n      mload(0x40)\n      shl(0xe5, 0x461bcd)\n      dup2\n      mstore\n        /* \"#utility.yul\":5458:5460   */\n      0x20\n        /* \"ERC20Staking.sol\":5843:5895  require(owner() == account, \"You are not the owner\") */\n      0x04\n      dup3\n      add\n        /* \"#utility.yul\":5440:5461   */\n      mstore\n        /* \"#utility.yul\":5497:5499   */\n      0x15\n        /* \"#utility.yul\":5477:5495   */\n      0x24\n      dup3\n      add\n        /* \"#utility.yul\":5470:5500   */\n      mstore\n        /* \"#utility.yul\":5536:5559   */\n      0x596f7520617265206e6f7420746865206f776e65720000000000000000000000\n        /* \"#utility.yul\":5516:5534   */\n      0x44\n      dup3\n      add\n        /* \"#utility.yul\":5509:5560   */\n      mstore\n        /* \"#utility.yul\":5577:5595   */\n      0x64\n      add\n        /* \"ERC20Staking.sol\":5843:5895  require(owner() == account, \"You are not the owner\") */\n      tag_162\n        /* \"#utility.yul\":5256:5601   */\n      jump\n        /* \"ERC20Staking.sol\":5843:5895  require(owner() == account, \"You are not the owner\") */\n    tag_235:\n        /* \"ERC20Staking.sol\":5947:5956  addresses */\n      0x06\n        /* \"ERC20Staking.sol\":5947:5963  addresses.length */\n      sload\n        /* \"ERC20Staking.sol\":5903:5930  address[] memory mAddresses */\n      0x00\n      swap1\n        /* \"ERC20Staking.sol\":5933:5964  new address[](addresses.length) */\n      0xffffffffffffffff\n      dup2\n      gt\n      iszero\n      tag_239\n      jumpi\n      tag_239\n      tag_240\n      jump\t// in\n    tag_239:\n      mload(0x40)\n      swap1\n      dup1\n      dup3\n      mstore\n      dup1\n      0x20\n      mul\n      0x20\n      add\n      dup3\n      add\n      0x40\n      mstore\n      dup1\n      iszero\n      tag_241\n      jumpi\n      dup2\n      0x20\n      add\n      0x20\n      dup3\n      mul\n      dup1\n      calldatasize\n      dup4\n      calldatacopy\n      add\n      swap1\n      pop\n    tag_241:\n      pop\n        /* \"ERC20Staking.sol\":6008:6017  addresses */\n      0x06\n        /* \"ERC20Staking.sol\":6008:6024  addresses.length */\n      sload\n        /* \"ERC20Staking.sol\":5903:5964  address[] memory mAddresses = new address[](addresses.length) */\n      swap1\n      swap2\n      pop\n        /* \"ERC20Staking.sol\":5972:5994  uint[] memory mRewards */\n      0x00\n      swap1\n        /* \"ERC20Staking.sol\":5997:6025  new uint[](addresses.length) */\n      0xffffffffffffffff\n      dup2\n      gt\n      iszero\n      tag_243\n      jumpi\n      tag_243\n      tag_240\n      jump\t// in\n    tag_243:\n      mload(0x40)\n      swap1\n      dup1\n      dup3\n      mstore\n      dup1\n      0x20\n      mul\n      0x20\n      add\n      dup3\n      add\n      0x40\n      mstore\n      dup1\n      iszero\n      tag_244\n      jumpi\n      dup2\n      0x20\n      add\n      0x20\n      dup3\n      mul\n      dup1\n      calldatasize\n      dup4\n      calldatacopy\n      add\n      swap1\n      pop\n    tag_244:\n      pop\n        /* \"ERC20Staking.sol\":5972:6025  uint[] memory mRewards = new uint[](addresses.length) */\n      swap1\n      pop\n        /* \"ERC20Staking.sol\":6038:6044  uint i */\n      0x00\n        /* \"ERC20Staking.sol\":6034:6167  for(uint i=0; i<addresses.length; i++) {... */\n    tag_245:\n        /* \"ERC20Staking.sol\":6050:6059  addresses */\n      0x06\n        /* \"ERC20Staking.sol\":6050:6066  addresses.length */\n      sload\n        /* \"ERC20Staking.sol\":6048:6066  i<addresses.length */\n      dup2\n      lt\n        /* \"ERC20Staking.sol\":6034:6167  for(uint i=0; i<addresses.length; i++) {... */\n      iszero\n      tag_246\n      jumpi\n        /* \"ERC20Staking.sol\":6099:6108  addresses */\n      0x06\n        /* \"ERC20Staking.sol\":6109:6110  i */\n      dup2\n        /* \"ERC20Staking.sol\":6099:6111  addresses[i] */\n      dup2\n      sload\n      dup2\n      lt\n      tag_249\n      jumpi\n      tag_249\n      tag_250\n      jump\t// in\n    tag_249:\n      swap1\n      0x00\n      mstore\n      keccak256(0x00, 0x20)\n      add\n      0x00\n      swap1\n      sload\n      swap1\n      0x0100\n      exp\n      swap1\n      div\n      sub(shl(0xa0, 0x01), 0x01)\n      and\n        /* \"ERC20Staking.sol\":6083:6093  mAddresses */\n      dup4\n        /* \"ERC20Staking.sol\":6094:6095  i */\n      dup3\n        /* \"ERC20Staking.sol\":6083:6096  mAddresses[i] */\n      dup2\n      mload\n      dup2\n      lt\n      tag_253\n      jumpi\n      tag_253\n      tag_250\n      jump\t// in\n    tag_253:\n      0x20\n      mul\n      0x20\n      add\n      add\n        /* \"ERC20Staking.sol\":6083:6111  mAddresses[i] = addresses[i] */\n      swap1\n      sub(shl(0xa0, 0x01), 0x01)\n      and\n      swap1\n      dup2\n      sub(shl(0xa0, 0x01), 0x01)\n      and\n      dup2\n      mstore\n      pop\n      pop\n        /* \"ERC20Staking.sol\":6135:6144  s_rewards */\n      0x09\n        /* \"ERC20Staking.sol\":6135:6158  s_rewards[addresses[i]] */\n      0x00\n        /* \"ERC20Staking.sol\":6145:6154  addresses */\n      0x06\n        /* \"ERC20Staking.sol\":6155:6156  i */\n      dup4\n        /* \"ERC20Staking.sol\":6145:6157  addresses[i] */\n      dup2\n      sload\n      dup2\n      lt\n      tag_255\n      jumpi\n      tag_255\n      tag_250\n      jump\t// in\n    tag_255:\n      0x00\n      swap2\n      dup3\n      mstore\n      0x20\n      dup1\n      dup4\n      keccak256\n      swap1\n      swap2\n      add\n      sload\n      sub(shl(0xa0, 0x01), 0x01)\n      and\n        /* \"ERC20Staking.sol\":6135:6158  s_rewards[addresses[i]] */\n      dup4\n      mstore\n      dup3\n      add\n      swap3\n      swap1\n      swap3\n      mstore\n      0x40\n      add\n      swap1\n      keccak256\n      sload\n        /* \"ERC20Staking.sol\":6121:6132  mRewards[i] */\n      dup3\n      mload\n        /* \"ERC20Staking.sol\":6121:6129  mRewards */\n      dup4\n      swap1\n        /* \"ERC20Staking.sol\":6130:6131  i */\n      dup4\n      swap1\n        /* \"ERC20Staking.sol\":6121:6132  mRewards[i] */\n      dup2\n      lt\n      tag_258\n      jumpi\n      tag_258\n      tag_250\n      jump\t// in\n    tag_258:\n      0x20\n      swap1\n      dup2\n      mul\n      swap2\n      swap1\n      swap2\n      add\n      add\n        /* \"ERC20Staking.sol\":6121:6158  mRewards[i] = s_rewards[addresses[i]] */\n      mstore\n        /* \"ERC20Staking.sol\":6068:6071  i++ */\n      dup1\n      tag_259\n      dup2\n      tag_260\n      jump\t// in\n    tag_259:\n      swap2\n      pop\n      pop\n        /* \"ERC20Staking.sol\":6034:6167  for(uint i=0; i<addresses.length; i++) {... */\n      jump(tag_245)\n    tag_246:\n      pop\n        /* \"ERC20Staking.sol\":6183:6193  mAddresses */\n      swap1\n      swap5\n        /* \"ERC20Staking.sol\":6195:6203  mRewards */\n      swap1\n      swap4\n      pop\n        /* \"ERC20Staking.sol\":5739:6211  function getUsersRewards(address account) public view returns (address[] memory, uint[] memory) {... */\n      swap2\n      pop\n      pop\n      jump\t// out\n        /* \"ERC20Staking.sol\":5266:5733  function getUsersStaked(address account) public view returns (address[] memory, uint[] memory) {... */\n    tag_123:\n        /* \"ERC20Staking.sol\":5328:5344  address[] memory */\n      0x60\n        /* \"ERC20Staking.sol\":5346:5359  uint[] memory */\n      dup1\n        /* \"ERC20Staking.sol\":5388:5395  account */\n      dup3\n      sub(shl(0xa0, 0x01), 0x01)\n        /* \"ERC20Staking.sol\":5377:5395  owner() == account */\n      and\n        /* \"ERC20Staking.sol\":5377:5384  owner() */\n      tag_262\n        /* \"@openzeppelin/contracts/access/Ownable.sol\":1108:1114   */\n      and(sub(shl(0xa0, 0x01), 0x01), sload(0x01))\n      swap1\n        /* \"@openzeppelin/contracts/access/Ownable.sol\":1036:1121   */\n      jump\n        /* \"ERC20Staking.sol\":5377:5384  owner() */\n    tag_262:\n      sub(shl(0xa0, 0x01), 0x01)\n        /* \"ERC20Staking.sol\":5377:5395  owner() == account */\n      and\n      eq\n        /* \"ERC20Staking.sol\":5369:5421  require(owner() == account, \"You are not the owner\") */\n      tag_263\n      jumpi\n      mload(0x40)\n      shl(0xe5, 0x461bcd)\n      dup2\n      mstore\n        /* \"#utility.yul\":5458:5460   */\n      0x20\n        /* \"ERC20Staking.sol\":5369:5421  require(owner() == account, \"You are not the owner\") */\n      0x04\n      dup3\n      add\n        /* \"#utility.yul\":5440:5461   */\n      mstore\n        /* \"#utility.yul\":5497:5499   */\n      0x15\n        /* \"#utility.yul\":5477:5495   */\n      0x24\n      dup3\n      add\n        /* \"#utility.yul\":5470:5500   */\n      mstore\n        /* \"#utility.yul\":5536:5559   */\n      0x596f7520617265206e6f7420746865206f776e65720000000000000000000000\n        /* \"#utility.yul\":5516:5534   */\n      0x44\n      dup3\n      add\n        /* \"#utility.yul\":5509:5560   */\n      mstore\n        /* \"#utility.yul\":5577:5595   */\n      0x64\n      add\n        /* \"ERC20Staking.sol\":5369:5421  require(owner() == account, \"You are not the owner\") */\n      tag_162\n        /* \"#utility.yul\":5256:5601   */\n      jump\n        /* \"ERC20Staking.sol\":5369:5421  require(owner() == account, \"You are not the owner\") */\n    tag_263:\n        /* \"ERC20Staking.sol\":5473:5482  addresses */\n      0x06\n        /* \"ERC20Staking.sol\":5473:5489  addresses.length */\n      sload\n        /* \"ERC20Staking.sol\":5429:5456  address[] memory mAddresses */\n      0x00\n      swap1\n        /* \"ERC20Staking.sol\":5459:5490  new address[](addresses.length) */\n      0xffffffffffffffff\n      dup2\n      gt\n      iszero\n      tag_266\n      jumpi\n      tag_266\n      tag_240\n      jump\t// in\n    tag_266:\n      mload(0x40)\n      swap1\n      dup1\n      dup3\n      mstore\n      dup1\n      0x20\n      mul\n      0x20\n      add\n      dup3\n      add\n      0x40\n      mstore\n      dup1\n      iszero\n      tag_267\n      jumpi\n      dup2\n      0x20\n      add\n      0x20\n      dup3\n      mul\n      dup1\n      calldatasize\n      dup4\n      calldatacopy\n      add\n      swap1\n      pop\n    tag_267:\n      pop\n        /* \"ERC20Staking.sol\":5533:5542  addresses */\n      0x06\n        /* \"ERC20Staking.sol\":5533:5549  addresses.length */\n      sload\n        /* \"ERC20Staking.sol\":5429:5490  address[] memory mAddresses = new address[](addresses.length) */\n      swap1\n      swap2\n      pop\n        /* \"ERC20Staking.sol\":5498:5519  uint[] memory mStakes */\n      0x00\n      swap1\n        /* \"ERC20Staking.sol\":5522:5550  new uint[](addresses.length) */\n      0xffffffffffffffff\n      dup2\n      gt\n      iszero\n      tag_269\n      jumpi\n      tag_269\n      tag_240\n      jump\t// in\n    tag_269:\n      mload(0x40)\n      swap1\n      dup1\n      dup3\n      mstore\n      dup1\n      0x20\n      mul\n      0x20\n      add\n      dup3\n      add\n      0x40\n      mstore\n      dup1\n      iszero\n      tag_270\n      jumpi\n      dup2\n      0x20\n      add\n      0x20\n      dup3\n      mul\n      dup1\n      calldatasize\n      dup4\n      calldatacopy\n      add\n      swap1\n      pop\n    tag_270:\n      pop\n        /* \"ERC20Staking.sol\":5498:5550  uint[] memory mStakes = new uint[](addresses.length) */\n      swap1\n      pop\n        /* \"ERC20Staking.sol\":5563:5569  uint i */\n      0x00\n        /* \"ERC20Staking.sol\":5559:5690  for(uint i=0; i<addresses.length; i++) {... */\n    tag_271:\n        /* \"ERC20Staking.sol\":5575:5584  addresses */\n      0x06\n        /* \"ERC20Staking.sol\":5575:5591  addresses.length */\n      sload\n        /* \"ERC20Staking.sol\":5573:5591  i<addresses.length */\n      dup2\n      lt\n        /* \"ERC20Staking.sol\":5559:5690  for(uint i=0; i<addresses.length; i++) {... */\n      iszero\n      tag_246\n      jumpi\n        /* \"ERC20Staking.sol\":5624:5633  addresses */\n      0x06\n        /* \"ERC20Staking.sol\":5634:5635  i */\n      dup2\n        /* \"ERC20Staking.sol\":5624:5636  addresses[i] */\n      dup2\n      sload\n      dup2\n      lt\n      tag_275\n      jumpi\n      tag_275\n      tag_250\n      jump\t// in\n    tag_275:\n      swap1\n      0x00\n      mstore\n      keccak256(0x00, 0x20)\n      add\n      0x00\n      swap1\n      sload\n      swap1\n      0x0100\n      exp\n      swap1\n      div\n      sub(shl(0xa0, 0x01), 0x01)\n      and\n        /* \"ERC20Staking.sol\":5608:5618  mAddresses */\n      dup4\n        /* \"ERC20Staking.sol\":5619:5620  i */\n      dup3\n        /* \"ERC20Staking.sol\":5608:5621  mAddresses[i] */\n      dup2\n      mload\n      dup2\n      lt\n      tag_278\n      jumpi\n      tag_278\n      tag_250\n      jump\t// in\n    tag_278:\n      0x20\n      mul\n      0x20\n      add\n      add\n        /* \"ERC20Staking.sol\":5608:5636  mAddresses[i] = addresses[i] */\n      swap1\n      sub(shl(0xa0, 0x01), 0x01)\n      and\n      swap1\n      dup2\n      sub(shl(0xa0, 0x01), 0x01)\n      and\n      dup2\n      mstore\n      pop\n      pop\n        /* \"ERC20Staking.sol\":5659:5667  s_stakes */\n      0x0a\n        /* \"ERC20Staking.sol\":5659:5681  s_stakes[addresses[i]] */\n      0x00\n        /* \"ERC20Staking.sol\":5668:5677  addresses */\n      0x06\n        /* \"ERC20Staking.sol\":5678:5679  i */\n      dup4\n        /* \"ERC20Staking.sol\":5668:5680  addresses[i] */\n      dup2\n      sload\n      dup2\n      lt\n      tag_280\n      jumpi\n      tag_280\n      tag_250\n      jump\t// in\n    tag_280:\n      0x00\n      swap2\n      dup3\n      mstore\n      0x20\n      dup1\n      dup4\n      keccak256\n      swap1\n      swap2\n      add\n      sload\n      sub(shl(0xa0, 0x01), 0x01)\n      and\n        /* \"ERC20Staking.sol\":5659:5681  s_stakes[addresses[i]] */\n      dup4\n      mstore\n      dup3\n      add\n      swap3\n      swap1\n      swap3\n      mstore\n      0x40\n      add\n      swap1\n      keccak256\n      sload\n        /* \"ERC20Staking.sol\":5646:5656  mStakes[i] */\n      dup3\n      mload\n        /* \"ERC20Staking.sol\":5646:5653  mStakes */\n      dup4\n      swap1\n        /* \"ERC20Staking.sol\":5654:5655  i */\n      dup4\n      swap1\n        /* \"ERC20Staking.sol\":5646:5656  mStakes[i] */\n      dup2\n      lt\n      tag_283\n      jumpi\n      tag_283\n      tag_250\n      jump\t// in\n    tag_283:\n      0x20\n      swap1\n      dup2\n      mul\n      swap2\n      swap1\n      swap2\n      add\n      add\n        /* \"ERC20Staking.sol\":5646:5681  mStakes[i] = s_stakes[addresses[i]] */\n      mstore\n        /* \"ERC20Staking.sol\":5593:5596  i++ */\n      dup1\n      tag_284\n      dup2\n      tag_260\n      jump\t// in\n    tag_284:\n      swap2\n      pop\n      pop\n        /* \"ERC20Staking.sol\":5559:5690  for(uint i=0; i<addresses.length; i++) {... */\n      jump(tag_271)\n        /* \"ERC20Staking.sol\":4524:4642  function getTotalRewardTokensSupply() public view returns (uint256) {... */\n    tag_126:\n        /* \"ERC20Staking.sol\":4607:4621  s_rewardsToken */\n      sload(0x02)\n        /* \"ERC20Staking.sol\":4607:4635  s_rewardsToken.totalSupply() */\n      0x40\n      dup1\n      mload\n      shl(0xe0, 0x18160ddd)\n      dup2\n      mstore\n      swap1\n      mload\n        /* \"ERC20Staking.sol\":4583:4590  uint256 */\n      0x00\n      swap3\n      sub(shl(0xa0, 0x01), 0x01)\n        /* \"ERC20Staking.sol\":4607:4621  s_rewardsToken */\n      and\n      swap2\n        /* \"ERC20Staking.sol\":4607:4633  s_rewardsToken.totalSupply */\n      0x18160ddd\n      swap2\n        /* \"ERC20Staking.sol\":4607:4635  s_rewardsToken.totalSupply() */\n      0x04\n      dup1\n      dup4\n      add\n      swap3\n      0x20\n      swap3\n      swap2\n      swap1\n      dup3\n      swap1\n      sub\n      add\n      dup2\n        /* \"ERC20Staking.sol\":4607:4621  s_rewardsToken */\n      dup7\n        /* \"ERC20Staking.sol\":4607:4635  s_rewardsToken.totalSupply() */\n      gas\n      staticcall\n      iszero\n      dup1\n      iszero\n      tag_154\n      jumpi\n      returndatasize\n      0x00\n      dup1\n      returndatacopy\n      revert(0x00, returndatasize)\n        /* \"ERC20Staking.sol\":1531:1824  function rewardPerToken() public view returns (uint256) {... */\n    tag_129:\n        /* \"ERC20Staking.sol\":1578:1585  uint256 */\n      0x00\n        /* \"ERC20Staking.sol\":1601:1614  s_totalSupply */\n      sload(0x07)\n        /* \"ERC20Staking.sol\":1618:1619  0 */\n      0x00\n        /* \"ERC20Staking.sol\":1601:1619  s_totalSupply == 0 */\n      sub\n        /* \"ERC20Staking.sol\":1597:1675  if (s_totalSupply == 0) {... */\n      tag_290\n      jumpi\n      pop\n        /* \"ERC20Staking.sol\":1642:1664  s_rewardPerTokenStored */\n      sload(0x05)\n      swap1\n        /* \"ERC20Staking.sol\":1531:1824  function rewardPerToken() public view returns (uint256) {... */\n      jump\t// out\n        /* \"ERC20Staking.sol\":1597:1675  if (s_totalSupply == 0) {... */\n    tag_290:\n        /* \"ERC20Staking.sol\":1803:1816  s_totalSupply */\n      sload(0x07)\n        /* \"ERC20Staking.sol\":718:721  100 */\n      0x64\n        /* \"ERC20Staking.sol\":1761:1777  s_lastUpdateTime */\n      sload(0x04)\n        /* \"ERC20Staking.sol\":1743:1758  block.timestamp */\n      timestamp\n        /* \"ERC20Staking.sol\":1743:1777  block.timestamp - s_lastUpdateTime */\n      tag_291\n      swap2\n      swap1\n      tag_145\n      jump\t// in\n    tag_291:\n        /* \"ERC20Staking.sol\":1742:1792  (block.timestamp - s_lastUpdateTime) * REWARD_RATE */\n      tag_292\n      swap2\n      swap1\n      tag_147\n      jump\t// in\n    tag_292:\n        /* \"ERC20Staking.sol\":1742:1799  (block.timestamp - s_lastUpdateTime) * REWARD_RATE * 1e18 */\n      tag_293\n      swap1\n        /* \"ERC20Staking.sol\":1795:1799  1e18 */\n      0x0de0b6b3a7640000\n        /* \"ERC20Staking.sol\":1742:1799  (block.timestamp - s_lastUpdateTime) * REWARD_RATE * 1e18 */\n      tag_147\n      jump\t// in\n    tag_293:\n        /* \"ERC20Staking.sol\":1741:1816  ((block.timestamp - s_lastUpdateTime) * REWARD_RATE * 1e18) / s_totalSupply */\n      tag_294\n      swap2\n      swap1\n      tag_149\n      jump\t// in\n    tag_294:\n        /* \"ERC20Staking.sol\":1703:1725  s_rewardPerTokenStored */\n      sload(0x05)\n        /* \"ERC20Staking.sol\":1703:1817  s_rewardPerTokenStored +... */\n      tag_155\n      swap2\n      swap1\n      tag_151\n      jump\t// in\n        /* \"ERC20Staking.sol\":807:833  address[] public addresses */\n    tag_133:\n      0x06\n      dup2\n      dup2\n      sload\n      dup2\n      lt\n      tag_296\n      jumpi\n      0x00\n      dup1\n      revert\n    tag_296:\n      0x00\n      swap2\n      dup3\n      mstore\n      0x20\n      swap1\n      swap2\n      keccak256\n      add\n      sload\n      sub(shl(0xa0, 0x01), 0x01)\n      and\n      swap1\n      pop\n      dup2\n      jump\t// out\n        /* \"@openzeppelin/contracts/access/Ownable.sol\":1918:2116   */\n    tag_141:\n        /* \"@openzeppelin/contracts/access/Ownable.sol\":1108:1114   */\n      and(sub(shl(0xa0, 0x01), 0x01), sload(0x01))\n        /* \"ERC20Staking.sol\":5051:5061  msg.sender */\n      caller\n        /* \"@openzeppelin/contracts/access/Ownable.sol\":1248:1271   */\n      eq\n        /* \"@openzeppelin/contracts/access/Ownable.sol\":1240:1308   */\n      tag_301\n      jumpi\n      mload(0x40)\n      shl(0xe5, 0x461bcd)\n      dup2\n      mstore\n        /* \"#utility.yul\":4694:4696   */\n      0x20\n        /* \"@openzeppelin/contracts/access/Ownable.sol\":1240:1308   */\n      0x04\n      dup3\n      add\n        /* \"#utility.yul\":4676:4697   */\n      dup2\n      swap1\n      mstore\n        /* \"#utility.yul\":4713:4731   */\n      0x24\n      dup3\n      add\n        /* \"#utility.yul\":4706:4736   */\n      mstore\n        /* \"#utility.yul\":4772:4806   */\n      0x4f776e61626c653a2063616c6c6572206973206e6f7420746865206f776e6572\n        /* \"#utility.yul\":4752:4770   */\n      0x44\n      dup3\n      add\n        /* \"#utility.yul\":4745:4807   */\n      mstore\n        /* \"#utility.yul\":4824:4842   */\n      0x64\n      add\n        /* \"@openzeppelin/contracts/access/Ownable.sol\":1240:1308   */\n      tag_162\n        /* \"#utility.yul\":4492:4848   */\n      jump\n        /* \"@openzeppelin/contracts/access/Ownable.sol\":1240:1308   */\n    tag_301:\n      sub(shl(0xa0, 0x01), 0x01)\n        /* \"@openzeppelin/contracts/access/Ownable.sol\":2006:2028   */\n      dup2\n      and\n        /* \"@openzeppelin/contracts/access/Ownable.sol\":1998:2071   */\n      tag_304\n      jumpi\n      mload(0x40)\n      shl(0xe5, 0x461bcd)\n      dup2\n      mstore\n        /* \"#utility.yul\":6212:6214   */\n      0x20\n        /* \"@openzeppelin/contracts/access/Ownable.sol\":1998:2071   */\n      0x04\n      dup3\n      add\n        /* \"#utility.yul\":6194:6215   */\n      mstore\n        /* \"#utility.yul\":6251:6253   */\n      0x26\n        /* \"#utility.yul\":6231:6249   */\n      0x24\n      dup3\n      add\n        /* \"#utility.yul\":6224:6254   */\n      mstore\n        /* \"#utility.yul\":6290:6324   */\n      0x4f776e61626c653a206e6577206f776e657220697320746865207a65726f2061\n        /* \"#utility.yul\":6270:6288   */\n      0x44\n      dup3\n      add\n        /* \"#utility.yul\":6263:6325   */\n      mstore\n        /* \"#utility.yul\":6361:6369   */\n      0x6464726573730000000000000000000000000000000000000000000000000000\n        /* \"#utility.yul\":6341:6359   */\n      0x64\n      dup3\n      add\n        /* \"#utility.yul\":6334:6370   */\n      mstore\n        /* \"#utility.yul\":6387:6406   */\n      0x84\n      add\n        /* \"@openzeppelin/contracts/access/Ownable.sol\":1998:2071   */\n      tag_162\n        /* \"#utility.yul\":6010:6412   */\n      jump\n        /* \"@openzeppelin/contracts/access/Ownable.sol\":1998:2071   */\n    tag_304:\n        /* \"@openzeppelin/contracts/access/Ownable.sol\":2081:2109   */\n      tag_307\n        /* \"@openzeppelin/contracts/access/Ownable.sol\":2100:2108   */\n      dup2\n        /* \"@openzeppelin/contracts/access/Ownable.sol\":2081:2099   */\n      tag_198\n        /* \"@openzeppelin/contracts/access/Ownable.sol\":2081:2109   */\n      jump\t// in\n    tag_307:\n        /* \"@openzeppelin/contracts/access/Ownable.sol\":1918:2116   */\n      pop\n      jump\t// out\n        /* \"@openzeppelin/contracts/access/Ownable.sol\":2270:2457   */\n    tag_198:\n        /* \"@openzeppelin/contracts/access/Ownable.sol\":2362:2368   */\n      0x01\n      dup1\n      sload\n      sub(shl(0xa0, 0x01), 0x01)\n        /* \"@openzeppelin/contracts/access/Ownable.sol\":2378:2395   */\n      dup4\n      dup2\n      and\n      not(0xffffffffffffffffffffffffffffffffffffffff)\n      dup4\n      and\n      dup2\n      or\n      swap1\n      swap4\n      sstore\n        /* \"@openzeppelin/contracts/access/Ownable.sol\":2410:2450   */\n      mload(0x40)\n        /* \"@openzeppelin/contracts/access/Ownable.sol\":2362:2368   */\n      swap2\n      and\n      swap2\n        /* \"@openzeppelin/contracts/access/Ownable.sol\":2378:2395   */\n      swap1\n        /* \"@openzeppelin/contracts/access/Ownable.sol\":2362:2368   */\n      dup3\n      swap1\n        /* \"@openzeppelin/contracts/access/Ownable.sol\":2410:2450   */\n      0x8be0079c531659141344cd1fd0a4f28419497f9722a3daafe3b4186f6b6457e0\n      swap1\n        /* \"@openzeppelin/contracts/access/Ownable.sol\":2343:2359   */\n      0x00\n      swap1\n        /* \"@openzeppelin/contracts/access/Ownable.sol\":2410:2450   */\n      log3\n        /* \"@openzeppelin/contracts/access/Ownable.sol\":2333:2457   */\n      pop\n        /* \"@openzeppelin/contracts/access/Ownable.sol\":2270:2457   */\n      pop\n      jump\t// out\n        /* \"#utility.yul\":14:323   */\n    tag_41:\n        /* \"#utility.yul\":73:79   */\n      0x00\n        /* \"#utility.yul\":126:128   */\n      0x20\n        /* \"#utility.yul\":114:123   */\n      dup3\n        /* \"#utility.yul\":105:112   */\n      dup5\n        /* \"#utility.yul\":101:124   */\n      sub\n        /* \"#utility.yul\":97:129   */\n      slt\n        /* \"#utility.yul\":94:146   */\n      iszero\n      tag_313\n      jumpi\n        /* \"#utility.yul\":142:143   */\n      0x00\n        /* \"#utility.yul\":139:140   */\n      dup1\n        /* \"#utility.yul\":132:144   */\n      revert\n        /* \"#utility.yul\":94:146   */\n    tag_313:\n        /* \"#utility.yul\":181:190   */\n      dup2\n        /* \"#utility.yul\":168:191   */\n      calldataload\n      sub(shl(0xa0, 0x01), 0x01)\n        /* \"#utility.yul\":224:229   */\n      dup2\n        /* \"#utility.yul\":220:274   */\n      and\n        /* \"#utility.yul\":213:218   */\n      dup2\n        /* \"#utility.yul\":210:275   */\n      eq\n        /* \"#utility.yul\":200:293   */\n      tag_314\n      jumpi\n        /* \"#utility.yul\":289:290   */\n      0x00\n        /* \"#utility.yul\":286:287   */\n      dup1\n        /* \"#utility.yul\":279:291   */\n      revert\n        /* \"#utility.yul\":200:293   */\n    tag_314:\n        /* \"#utility.yul\":312:317   */\n      swap4\n        /* \"#utility.yul\":14:323   */\n      swap3\n      pop\n      pop\n      pop\n      jump\t// out\n        /* \"#utility.yul\":755:935   */\n    tag_54:\n        /* \"#utility.yul\":814:820   */\n      0x00\n        /* \"#utility.yul\":867:869   */\n      0x20\n        /* \"#utility.yul\":855:864   */\n      dup3\n        /* \"#utility.yul\":846:853   */\n      dup5\n        /* \"#utility.yul\":842:865   */\n      sub\n        /* \"#utility.yul\":838:870   */\n      slt\n        /* \"#utility.yul\":835:887   */\n      iszero\n      tag_318\n      jumpi\n        /* \"#utility.yul\":883:884   */\n      0x00\n        /* \"#utility.yul\":880:881   */\n      dup1\n        /* \"#utility.yul\":873:885   */\n      revert\n        /* \"#utility.yul\":835:887   */\n    tag_318:\n      pop\n        /* \"#utility.yul\":906:929   */\n      calldataload\n      swap2\n        /* \"#utility.yul\":755:935   */\n      swap1\n      pop\n      jump\t// out\n        /* \"#utility.yul\":1363:2564   */\n    tag_120:\n        /* \"#utility.yul\":1631:1633   */\n      0x40\n        /* \"#utility.yul\":1643:1664   */\n      dup1\n      dup3\n      mstore\n        /* \"#utility.yul\":1713:1726   */\n      dup4\n      mload\n        /* \"#utility.yul\":1616:1634   */\n      swap1\n      dup3\n      add\n        /* \"#utility.yul\":1735:1757   */\n      dup2\n      swap1\n      mstore\n        /* \"#utility.yul\":1583:1587   */\n      0x00\n      swap1\n        /* \"#utility.yul\":1810:1814   */\n      0x20\n      swap1\n        /* \"#utility.yul\":1788:1790   */\n      0x60\n        /* \"#utility.yul\":1773:1791   */\n      dup5\n      add\n      swap1\n        /* \"#utility.yul\":1837:1852   */\n      dup3\n      dup8\n      add\n        /* \"#utility.yul\":1583:1587   */\n      dup5\n        /* \"#utility.yul\":1880:2098   */\n    tag_322:\n        /* \"#utility.yul\":1894:1900   */\n      dup3\n        /* \"#utility.yul\":1891:1892   */\n      dup2\n        /* \"#utility.yul\":1888:1901   */\n      lt\n        /* \"#utility.yul\":1880:2098   */\n      iszero\n      tag_324\n      jumpi\n        /* \"#utility.yul\":1959:1972   */\n      dup2\n      mload\n      sub(shl(0xa0, 0x01), 0x01)\n        /* \"#utility.yul\":1955:2017   */\n      and\n        /* \"#utility.yul\":1943:2018   */\n      dup5\n      mstore\n        /* \"#utility.yul\":2038:2050   */\n      swap3\n      dup5\n      add\n      swap3\n        /* \"#utility.yul\":2073:2088   */\n      swap1\n      dup5\n      add\n      swap1\n        /* \"#utility.yul\":1916:1917   */\n      0x01\n        /* \"#utility.yul\":1909:1918   */\n      add\n        /* \"#utility.yul\":1880:2098   */\n      jump(tag_322)\n    tag_324:\n      pop\n      pop\n      pop\n        /* \"#utility.yul\":2134:2153   */\n      dup4\n      dup2\n      sub\n        /* \"#utility.yul\":2114:2132   */\n      dup3\n      dup6\n      add\n        /* \"#utility.yul\":2107:2154   */\n      mstore\n        /* \"#utility.yul\":2204:2217   */\n      dup5\n      mload\n        /* \"#utility.yul\":2226:2247   */\n      dup1\n      dup3\n      mstore\n        /* \"#utility.yul\":2302:2317   */\n      dup6\n      dup4\n      add\n      swap2\n        /* \"#utility.yul\":2265:2277   */\n      dup4\n      add\n      swap1\n        /* \"#utility.yul\":2337:2338   */\n      0x00\n        /* \"#utility.yul\":2347:2536   */\n    tag_325:\n        /* \"#utility.yul\":2363:2371   */\n      dup2\n        /* \"#utility.yul\":2358:2361   */\n      dup2\n        /* \"#utility.yul\":2355:2372   */\n      lt\n        /* \"#utility.yul\":2347:2536   */\n      iszero\n      tag_327\n      jumpi\n        /* \"#utility.yul\":2432:2447   */\n      dup4\n      mload\n        /* \"#utility.yul\":2418:2448   */\n      dup4\n      mstore\n        /* \"#utility.yul\":2509:2526   */\n      swap3\n      dup5\n      add\n      swap3\n        /* \"#utility.yul\":2470:2484   */\n      swap2\n      dup5\n      add\n      swap2\n        /* \"#utility.yul\":2391:2392   */\n      0x01\n        /* \"#utility.yul\":2382:2393   */\n      add\n        /* \"#utility.yul\":2347:2536   */\n      jump(tag_325)\n    tag_327:\n      pop\n        /* \"#utility.yul\":2553:2558   */\n      swap1\n      swap8\n        /* \"#utility.yul\":1363:2564   */\n      swap7\n      pop\n      pop\n      pop\n      pop\n      pop\n      pop\n      pop\n      jump\t// out\n        /* \"#utility.yul\":2569:2696   */\n    tag_310:\n        /* \"#utility.yul\":2630:2640   */\n      0x4e487b71\n        /* \"#utility.yul\":2625:2628   */\n      0xe0\n        /* \"#utility.yul\":2621:2641   */\n      shl\n        /* \"#utility.yul\":2618:2619   */\n      0x00\n        /* \"#utility.yul\":2611:2642   */\n      mstore\n        /* \"#utility.yul\":2661:2665   */\n      0x11\n        /* \"#utility.yul\":2658:2659   */\n      0x04\n        /* \"#utility.yul\":2651:2666   */\n      mstore\n        /* \"#utility.yul\":2685:2689   */\n      0x24\n        /* \"#utility.yul\":2682:2683   */\n      0x00\n        /* \"#utility.yul\":2675:2690   */\n      revert\n        /* \"#utility.yul\":2701:2826   */\n    tag_145:\n        /* \"#utility.yul\":2741:2745   */\n      0x00\n        /* \"#utility.yul\":2769:2770   */\n      dup3\n        /* \"#utility.yul\":2766:2767   */\n      dup3\n        /* \"#utility.yul\":2763:2771   */\n      lt\n        /* \"#utility.yul\":2760:2794   */\n      iszero\n      tag_331\n      jumpi\n        /* \"#utility.yul\":2774:2792   */\n      tag_331\n      tag_310\n      jump\t// in\n    tag_331:\n      pop\n        /* \"#utility.yul\":2811:2820   */\n      sub\n      swap1\n        /* \"#utility.yul\":2701:2826   */\n      jump\t// out\n        /* \"#utility.yul\":2831:2999   */\n    tag_147:\n        /* \"#utility.yul\":2871:2878   */\n      0x00\n        /* \"#utility.yul\":2937:2938   */\n      dup2\n        /* \"#utility.yul\":2933:2934   */\n      0x00\n        /* \"#utility.yul\":2929:2935   */\n      not\n        /* \"#utility.yul\":2925:2939   */\n      div\n        /* \"#utility.yul\":2922:2923   */\n      dup4\n        /* \"#utility.yul\":2919:2940   */\n      gt\n        /* \"#utility.yul\":2914:2915   */\n      dup3\n        /* \"#utility.yul\":2907:2916   */\n      iszero\n        /* \"#utility.yul\":2900:2917   */\n      iszero\n        /* \"#utility.yul\":2896:2941   */\n      and\n        /* \"#utility.yul\":2893:2964   */\n      iszero\n      tag_334\n      jumpi\n        /* \"#utility.yul\":2944:2962   */\n      tag_334\n      tag_310\n      jump\t// in\n    tag_334:\n      pop\n        /* \"#utility.yul\":2984:2993   */\n      mul\n      swap1\n        /* \"#utility.yul\":2831:2999   */\n      jump\t// out\n        /* \"#utility.yul\":3004:3221   */\n    tag_149:\n        /* \"#utility.yul\":3044:3045   */\n      0x00\n        /* \"#utility.yul\":3070:3071   */\n      dup3\n        /* \"#utility.yul\":3060:3192   */\n      tag_336\n      jumpi\n        /* \"#utility.yul\":3114:3124   */\n      0x4e487b71\n        /* \"#utility.yul\":3109:3112   */\n      0xe0\n        /* \"#utility.yul\":3105:3125   */\n      shl\n        /* \"#utility.yul\":3102:3103   */\n      0x00\n        /* \"#utility.yul\":3095:3126   */\n      mstore\n        /* \"#utility.yul\":3149:3153   */\n      0x12\n        /* \"#utility.yul\":3146:3147   */\n      0x04\n        /* \"#utility.yul\":3139:3154   */\n      mstore\n        /* \"#utility.yul\":3177:3181   */\n      0x24\n        /* \"#utility.yul\":3174:3175   */\n      0x00\n        /* \"#utility.yul\":3167:3182   */\n      revert\n        /* \"#utility.yul\":3060:3192   */\n    tag_336:\n      pop\n        /* \"#utility.yul\":3206:3215   */\n      div\n      swap1\n        /* \"#utility.yul\":3004:3221   */\n      jump\t// out\n        /* \"#utility.yul\":3226:3354   */\n    tag_151:\n        /* \"#utility.yul\":3266:3269   */\n      0x00\n        /* \"#utility.yul\":3297:3298   */\n      dup3\n        /* \"#utility.yul\":3293:3299   */\n      not\n        /* \"#utility.yul\":3290:3291   */\n      dup3\n        /* \"#utility.yul\":3287:3300   */\n      gt\n        /* \"#utility.yul\":3284:3323   */\n      iszero\n      tag_339\n      jumpi\n        /* \"#utility.yul\":3303:3321   */\n      tag_339\n      tag_310\n      jump\t// in\n    tag_339:\n      pop\n        /* \"#utility.yul\":3339:3348   */\n      add\n      swap1\n        /* \"#utility.yul\":3226:3354   */\n      jump\t// out\n        /* \"#utility.yul\":3359:3543   */\n    tag_156:\n        /* \"#utility.yul\":3429:3435   */\n      0x00\n        /* \"#utility.yul\":3482:3484   */\n      0x20\n        /* \"#utility.yul\":3470:3479   */\n      dup3\n        /* \"#utility.yul\":3461:3468   */\n      dup5\n        /* \"#utility.yul\":3457:3480   */\n      sub\n        /* \"#utility.yul\":3453:3485   */\n      slt\n        /* \"#utility.yul\":3450:3502   */\n      iszero\n      tag_341\n      jumpi\n        /* \"#utility.yul\":3498:3499   */\n      0x00\n        /* \"#utility.yul\":3495:3496   */\n      dup1\n        /* \"#utility.yul\":3488:3500   */\n      revert\n        /* \"#utility.yul\":3450:3502   */\n    tag_341:\n      pop\n        /* \"#utility.yul\":3521:3537   */\n      mload\n      swap2\n        /* \"#utility.yul\":3359:3543   */\n      swap1\n      pop\n      jump\t// out\n        /* \"#utility.yul\":4210:4487   */\n    tag_172:\n        /* \"#utility.yul\":4277:4283   */\n      0x00\n        /* \"#utility.yul\":4330:4332   */\n      0x20\n        /* \"#utility.yul\":4318:4327   */\n      dup3\n        /* \"#utility.yul\":4309:4316   */\n      dup5\n        /* \"#utility.yul\":4305:4328   */\n      sub\n        /* \"#utility.yul\":4301:4333   */\n      slt\n        /* \"#utility.yul\":4298:4350   */\n      iszero\n      tag_345\n      jumpi\n        /* \"#utility.yul\":4346:4347   */\n      0x00\n        /* \"#utility.yul\":4343:4344   */\n      dup1\n        /* \"#utility.yul\":4336:4348   */\n      revert\n        /* \"#utility.yul\":4298:4350   */\n    tag_345:\n        /* \"#utility.yul\":4378:4387   */\n      dup2\n        /* \"#utility.yul\":4372:4388   */\n      mload\n        /* \"#utility.yul\":4431:4436   */\n      dup1\n        /* \"#utility.yul\":4424:4437   */\n      iszero\n        /* \"#utility.yul\":4417:4438   */\n      iszero\n        /* \"#utility.yul\":4410:4415   */\n      dup2\n        /* \"#utility.yul\":4407:4439   */\n      eq\n        /* \"#utility.yul\":4397:4457   */\n      tag_314\n      jumpi\n        /* \"#utility.yul\":4453:4454   */\n      0x00\n        /* \"#utility.yul\":4450:4451   */\n      dup1\n        /* \"#utility.yul\":4443:4455   */\n      revert\n        /* \"#utility.yul\":5606:5733   */\n    tag_240:\n        /* \"#utility.yul\":5667:5677   */\n      0x4e487b71\n        /* \"#utility.yul\":5662:5665   */\n      0xe0\n        /* \"#utility.yul\":5658:5678   */\n      shl\n        /* \"#utility.yul\":5655:5656   */\n      0x00\n        /* \"#utility.yul\":5648:5679   */\n      mstore\n        /* \"#utility.yul\":5698:5702   */\n      0x41\n        /* \"#utility.yul\":5695:5696   */\n      0x04\n        /* \"#utility.yul\":5688:5703   */\n      mstore\n        /* \"#utility.yul\":5722:5726   */\n      0x24\n        /* \"#utility.yul\":5719:5720   */\n      0x00\n        /* \"#utility.yul\":5712:5727   */\n      revert\n        /* \"#utility.yul\":5738:5865   */\n    tag_250:\n        /* \"#utility.yul\":5799:5809   */\n      0x4e487b71\n        /* \"#utility.yul\":5794:5797   */\n      0xe0\n        /* \"#utility.yul\":5790:5810   */\n      shl\n        /* \"#utility.yul\":5787:5788   */\n      0x00\n        /* \"#utility.yul\":5780:5811   */\n      mstore\n        /* \"#utility.yul\":5830:5834   */\n      0x32\n        /* \"#utility.yul\":5827:5828   */\n      0x04\n        /* \"#utility.yul\":5820:5835   */\n      mstore\n        /* \"#utility.yul\":5854:5858   */\n      0x24\n        /* \"#utility.yul\":5851:5852   */\n      0x00\n        /* \"#utility.yul\":5844:5859   */\n      revert\n        /* \"#utility.yul\":5870:6005   */\n    tag_260:\n        /* \"#utility.yul\":5909:5912   */\n      0x00\n        /* \"#utility.yul\":5930:5947   */\n      0x01\n      dup3\n      add\n        /* \"#utility.yul\":5927:5970   */\n      tag_354\n      jumpi\n        /* \"#utility.yul\":5950:5968   */\n      tag_354\n      tag_310\n      jump\t// in\n    tag_354:\n      pop\n        /* \"#utility.yul\":5997:5998   */\n      0x01\n        /* \"#utility.yul\":5986:5999   */\n      add\n      swap1\n        /* \"#utility.yul\":5870:6005   */\n      jump\t// out\n\n    auxdata: 0xa26469706673582212203298581c7667c141e9c5a906016543bbdc6371a91a50719cc02a76c2d8a347ea64736f6c634300080d0033\n}\n",
    "bytecode": {
      "linkReferences": {},
      "object": "608060405234801561001057600080fd5b506040516200142b3803806200142b833981016040819052610031916100de565b600160005561003f33610070565b600380546001600160a01b039384166001600160a01b03199182161790915560028054929093169116179055610111565b600180546001600160a01b038381166001600160a01b0319831681179093556040519116919082907f8be0079c531659141344cd1fd0a4f28419497f9722a3daafe3b4186f6b6457e090600090a35050565b80516001600160a01b03811681146100d957600080fd5b919050565b600080604083850312156100f157600080fd5b6100fa836100c2565b9150610108602084016100c2565b90509250929050565b61130a80620001216000396000f3fe608060405234801561001057600080fd5b50600436106101ce5760003560e01c8063893d20e811610104578063bea08151116100a2578063cd3daf9d11610071578063cd3daf9d146103ae578063edf26d9b146103b6578063f245ace4146103c9578063f2fde38b146103e957600080fd5b8063bea0815114610352578063c2f8498d14610372578063c32726c214610393578063c9b1b70d146103a657600080fd5b80638da5cb5b116100de5780638da5cb5b14610313578063a694fc3a14610324578063adca9b7214610337578063b88a802f1461034a57600080fd5b8063893d20e8146102e35780638a877567146102eb5780638d8693421461030b57600080fd5b806343cbce3e11610171578063675f457d1161014b578063675f457d146102b757806368c33627146102ca5780636aa0838f146102d2578063715018a6146102db57600080fd5b806343cbce3e146102965780635997bb37146102a95780635e01eb5a146102b157600080fd5b80632e1a7d4d116101ad5780632e1a7d4d1461022c5780632f54bf6e14610241578063304ac91b14610264578063399080ec1461026d57600080fd5b80628cc262146101d35780630bd21c56146101f95780630fda55b414610224575b600080fd5b6101e66101e1366004611101565b6103fc565b6040519081526020015b60405180910390f35b60025461020c906001600160a01b031681565b6040516001600160a01b0390911681526020016101f0565b6101e6610479565b61023f61023a366004611131565b6104ec565b005b61025461024f366004611101565b61069a565b60405190151581526020016101f0565b6101e660055481565b6101e661027b366004611101565b6001600160a01b03166000908152600a602052604090205490565b6101e66102a4366004611101565b6106c8565b6101e6606481565b3361020c565b6101e66102c5366004611101565b610738565b6007546101e6565b6101e660045481565b61023f61076b565b61020c6107d1565b6101e66102f9366004611101565b600a6020526000908152604090205481565b6005546101e6565b6001546001600160a01b031661020c565b61023f610332366004611131565b6107e5565b60035461020c906001600160a01b031681565b61023f610a04565b6101e6610360366004611101565b60096020526000908152604090205481565b610385610380366004611101565b610b1a565b6040516101f092919061114a565b6103856103a1366004611101565b610d0c565b6101e6610ef3565b6101e6610f3d565b61020c6103c4366004611131565b610f96565b6101e66103d7366004611101565b60086020526000908152604090205481565b61023f6103f7366004611101565b610fc0565b6001600160a01b0381166000908152600960209081526040808320546008909252822054670de0b6b3a764000090610432610f3d565b61043c91906111e4565b6001600160a01b0385166000908152600a602052604090205461045f91906111fb565b610469919061121a565b610473919061123c565b92915050565b600354604080516318160ddd60e01b815290516000926001600160a01b0316916318160ddd9160048083019260209291908290030181865afa1580156104c3573d6000803e3d6000fd5b505050506040513d601f19601f820116820180604052508101906104e79190611254565b905090565b336104f5610f3d565b60055542600455610505816103fc565b6001600160a01b03821660009081526009602090815260408083209390935560055460089091529181209190915554600119016105895760405162461bcd60e51b815260206004820152601f60248201527f5265656e7472616e637947756172643a207265656e7472616e742063616c6c0060448201526064015b60405180910390fd5b600260008190555081600760008282546105a391906111e4565b9091555050336000908152600a6020526040812080548492906105c79084906111e4565b9091555050604051829033907f4cb6da433ea55f6e302b7bdbfeed740816a42301cde7f5bac5dff2b34037637490600090a360035460405163a9059cbb60e01b8152336004820152602481018490526000916001600160a01b03169063a9059cbb906044015b6020604051808303816000875af115801561064c573d6000803e3d6000fd5b505050506040513d601f19601f82011682018060405250810190610670919061126d565b905080610690576040516312171d8360e31b815260040160405180910390fd5b5050600160005550565b6000816001600160a01b03166106b86001546001600160a01b031690565b6001600160a01b03161492915050565b6003546040516370a0823160e01b81526001600160a01b03838116600483015260009216906370a08231906024015b602060405180830381865afa158015610714573d6000803e3d6000fd5b505050506040513d601f19601f820116820180604052508101906104739190611254565b6002546040516370a0823160e01b81526001600160a01b03838116600483015260009216906370a08231906024016106f7565b6001546001600160a01b031633146107c55760405162461bcd60e51b815260206004820181905260248201527f4f776e61626c653a2063616c6c6572206973206e6f7420746865206f776e65726044820152606401610580565b6107cf60006110a2565b565b60006104e76001546001600160a01b031690565b336107ee610f3d565b600555426004556107fe816103fc565b6001600160a01b038216600090815260096020908152604080832093909355600554600890915291812091909155546001190161087d5760405162461bcd60e51b815260206004820152601f60248201527f5265656e7472616e637947756172643a207265656e7472616e742063616c6c006044820152606401610580565b600260008190555081806000036108a757604051630f45911f60e41b815260040160405180910390fd5b6006805460018101825560009182527ff652222313e28459528d920b65115c16c04f3efc82aaedc97be59f3f377c0d3f01805473ffffffffffffffffffffffffffffffffffffffff1916331790556007805485929061090790849061123c565b9091555050336000908152600a60205260408120805485929061092b90849061123c565b9091555050604051839033907f9e71bc8eea02a63969f509818f2dafb9254532904319f9dbda79b67bd34a5f3d90600090a36003546040516323b872dd60e01b8152336004820152306024820152604481018590526000916001600160a01b0316906323b872dd906064016020604051808303816000875af11580156109b5573d6000803e3d6000fd5b505050506040513d601f19601f820116820180604052508101906109d9919061126d565b9050806109f9576040516312171d8360e31b815260040160405180910390fd5b505060016000555050565b33610a0d610f3d565b60055542600455610a1d816103fc565b6001600160a01b0382166000908152600960209081526040808320939093556005546008909152918120919091555460011901610a9c5760405162461bcd60e51b815260206004820152601f60248201527f5265656e7472616e637947756172643a207265656e7472616e742063616c6c006044820152606401610580565b600260009081553380825260096020526040808320805490849055905190928392917ffc30cddea38e2bf4d6ea7d3f9ed3b6ad7f176419f4963bd81318067a4aee73fe9190a360025460405163a9059cbb60e01b8152336004820152602481018390526000916001600160a01b03169063a9059cbb9060440161062d565b606080826001600160a01b0316610b396001546001600160a01b031690565b6001600160a01b031614610b8f5760405162461bcd60e51b815260206004820152601560248201527f596f7520617265206e6f7420746865206f776e657200000000000000000000006044820152606401610580565b60065460009067ffffffffffffffff811115610bad57610bad61128f565b604051908082528060200260200182016040528015610bd6578160200160208202803683370190505b5060065490915060009067ffffffffffffffff811115610bf857610bf861128f565b604051908082528060200260200182016040528015610c21578160200160208202803683370190505b50905060005b600654811015610d015760068181548110610c4457610c446112a5565b9060005260206000200160009054906101000a90046001600160a01b0316838281518110610c7457610c746112a5565b60200260200101906001600160a01b031690816001600160a01b0316815250506009600060068381548110610cab57610cab6112a5565b60009182526020808320909101546001600160a01b031683528201929092526040019020548251839083908110610ce457610ce46112a5565b602090810291909101015280610cf9816112bb565b915050610c27565b509094909350915050565b606080826001600160a01b0316610d2b6001546001600160a01b031690565b6001600160a01b031614610d815760405162461bcd60e51b815260206004820152601560248201527f596f7520617265206e6f7420746865206f776e657200000000000000000000006044820152606401610580565b60065460009067ffffffffffffffff811115610d9f57610d9f61128f565b604051908082528060200260200182016040528015610dc8578160200160208202803683370190505b5060065490915060009067ffffffffffffffff811115610dea57610dea61128f565b604051908082528060200260200182016040528015610e13578160200160208202803683370190505b50905060005b600654811015610d015760068181548110610e3657610e366112a5565b9060005260206000200160009054906101000a90046001600160a01b0316838281518110610e6657610e666112a5565b60200260200101906001600160a01b031690816001600160a01b031681525050600a600060068381548110610e9d57610e9d6112a5565b60009182526020808320909101546001600160a01b031683528201929092526040019020548251839083908110610ed657610ed66112a5565b602090810291909101015280610eeb816112bb565b915050610e19565b600254604080516318160ddd60e01b815290516000926001600160a01b0316916318160ddd9160048083019260209291908290030181865afa1580156104c3573d6000803e3d6000fd5b6000600754600003610f50575060055490565b600754606460045442610f6391906111e4565b610f6d91906111fb565b610f7f90670de0b6b3a76400006111fb565b610f89919061121a565b6005546104e7919061123c565b60068181548110610fa657600080fd5b6000918252602090912001546001600160a01b0316905081565b6001546001600160a01b0316331461101a5760405162461bcd60e51b815260206004820181905260248201527f4f776e61626c653a2063616c6c6572206973206e6f7420746865206f776e65726044820152606401610580565b6001600160a01b0381166110965760405162461bcd60e51b815260206004820152602660248201527f4f776e61626c653a206e6577206f776e657220697320746865207a65726f206160448201527f64647265737300000000000000000000000000000000000000000000000000006064820152608401610580565b61109f816110a2565b50565b600180546001600160a01b0383811673ffffffffffffffffffffffffffffffffffffffff19831681179093556040519116919082907f8be0079c531659141344cd1fd0a4f28419497f9722a3daafe3b4186f6b6457e090600090a35050565b60006020828403121561111357600080fd5b81356001600160a01b038116811461112a57600080fd5b9392505050565b60006020828403121561114357600080fd5b5035919050565b604080825283519082018190526000906020906060840190828701845b8281101561118c5781516001600160a01b031684529284019290840190600101611167565b5050508381038285015284518082528583019183019060005b818110156111c1578351835292840192918401916001016111a5565b5090979650505050505050565b634e487b7160e01b600052601160045260246000fd5b6000828210156111f6576111f66111ce565b500390565b6000816000190483118215151615611215576112156111ce565b500290565b60008261123757634e487b7160e01b600052601260045260246000fd5b500490565b6000821982111561124f5761124f6111ce565b500190565b60006020828403121561126657600080fd5b5051919050565b60006020828403121561127f57600080fd5b8151801515811461112a57600080fd5b634e487b7160e01b600052604160045260246000fd5b634e487b7160e01b600052603260045260246000fd5b6000600182016112cd576112cd6111ce565b506001019056fea26469706673582212203298581c7667c141e9c5a906016543bbdc6371a91a50719cc02a76c2d8a347ea64736f6c634300080d0033",
      "opcodes": "PUSH1 0x80 PUSH1 0x40 MSTORE CALLVALUE DUP1 ISZERO PUSH2 0x10 JUMPI PUSH1 0x0 DUP1 REVERT JUMPDEST POP PUSH1 0x40 MLOAD PUSH3 0x142B CODESIZE SUB DUP1 PUSH3 0x142B DUP4 CODECOPY DUP2 ADD PUSH1 0x40 DUP2 SWAP1 MSTORE PUSH2 0x31 SWAP2 PUSH2 0xDE JUMP JUMPDEST PUSH1 0x1 PUSH1 0x0 SSTORE PUSH2 0x3F CALLER PUSH2 0x70 JUMP JUMPDEST PUSH1 0x3 DUP1 SLOAD PUSH1 0x1 PUSH1 0x1 PUSH1 0xA0 SHL SUB SWAP4 DUP5 AND PUSH1 0x1 PUSH1 0x1 PUSH1 0xA0 SHL SUB NOT SWAP2 DUP3 AND OR SWAP1 SWAP2 SSTORE PUSH1 0x2 DUP1 SLOAD SWAP3 SWAP1 SWAP4 AND SWAP2 AND OR SWAP1 SSTORE PUSH2 0x111 JUMP JUMPDEST PUSH1 0x1 DUP1 SLOAD PUSH1 0x1 PUSH1 0x1 PUSH1 0xA0 SHL SUB DUP4 DUP2 AND PUSH1 0x1 PUSH1 0x1 PUSH1 0xA0 SHL SUB NOT DUP4 AND DUP2 OR SWAP1 SWAP4 SSTORE PUSH1 0x40 MLOAD SWAP2 AND SWAP2 SWAP1 DUP3 SWAP1 PUSH32 0x8BE0079C531659141344CD1FD0A4F28419497F9722A3DAAFE3B4186F6B6457E0 SWAP1 PUSH1 0x0 SWAP1 LOG3 POP POP JUMP JUMPDEST DUP1 MLOAD PUSH1 0x1 PUSH1 0x1 PUSH1 0xA0 SHL SUB DUP2 AND DUP2 EQ PUSH2 0xD9 JUMPI PUSH1 0x0 DUP1 REVERT JUMPDEST SWAP2 SWAP1 POP JUMP JUMPDEST PUSH1 0x0 DUP1 PUSH1 0x40 DUP4 DUP6 SUB SLT ISZERO PUSH2 0xF1 JUMPI PUSH1 0x0 DUP1 REVERT JUMPDEST PUSH2 0xFA DUP4 PUSH2 0xC2 JUMP JUMPDEST SWAP2 POP PUSH2 0x108 PUSH1 0x20 DUP5 ADD PUSH2 0xC2 JUMP JUMPDEST SWAP1 POP SWAP3 POP SWAP3 SWAP1 POP JUMP JUMPDEST PUSH2 0x130A DUP1 PUSH3 0x121 PUSH1 0x0 CODECOPY PUSH1 0x0 RETURN INVALID PUSH1 0x80 PUSH1 0x40 MSTORE CALLVALUE DUP1 ISZERO PUSH2 0x10 JUMPI PUSH1 0x0 DUP1 REVERT JUMPDEST POP PUSH1 0x4 CALLDATASIZE LT PUSH2 0x1CE JUMPI PUSH1 0x0 CALLDATALOAD PUSH1 0xE0 SHR DUP1 PUSH4 0x893D20E8 GT PUSH2 0x104 JUMPI DUP1 PUSH4 0xBEA08151 GT PUSH2 0xA2 JUMPI DUP1 PUSH4 0xCD3DAF9D GT PUSH2 0x71 JUMPI DUP1 PUSH4 0xCD3DAF9D EQ PUSH2 0x3AE JUMPI DUP1 PUSH4 0xEDF26D9B EQ PUSH2 0x3B6 JUMPI DUP1 PUSH4 0xF245ACE4 EQ PUSH2 0x3C9 JUMPI DUP1 PUSH4 0xF2FDE38B EQ PUSH2 0x3E9 JUMPI PUSH1 0x0 DUP1 REVERT JUMPDEST DUP1 PUSH4 0xBEA08151 EQ PUSH2 0x352 JUMPI DUP1 PUSH4 0xC2F8498D EQ PUSH2 0x372 JUMPI DUP1 PUSH4 0xC32726C2 EQ PUSH2 0x393 JUMPI DUP1 PUSH4 0xC9B1B70D EQ PUSH2 0x3A6 JUMPI PUSH1 0x0 DUP1 REVERT JUMPDEST DUP1 PUSH4 0x8DA5CB5B GT PUSH2 0xDE JUMPI DUP1 PUSH4 0x8DA5CB5B EQ PUSH2 0x313 JUMPI DUP1 PUSH4 0xA694FC3A EQ PUSH2 0x324 JUMPI DUP1 PUSH4 0xADCA9B72 EQ PUSH2 0x337 JUMPI DUP1 PUSH4 0xB88A802F EQ PUSH2 0x34A JUMPI PUSH1 0x0 DUP1 REVERT JUMPDEST DUP1 PUSH4 0x893D20E8 EQ PUSH2 0x2E3 JUMPI DUP1 PUSH4 0x8A877567 EQ PUSH2 0x2EB JUMPI DUP1 PUSH4 0x8D869342 EQ PUSH2 0x30B JUMPI PUSH1 0x0 DUP1 REVERT JUMPDEST DUP1 PUSH4 0x43CBCE3E GT PUSH2 0x171 JUMPI DUP1 PUSH4 0x675F457D GT PUSH2 0x14B JUMPI DUP1 PUSH4 0x675F457D EQ PUSH2 0x2B7 JUMPI DUP1 PUSH4 0x68C33627 EQ PUSH2 0x2CA JUMPI DUP1 PUSH4 0x6AA0838F EQ PUSH2 0x2D2 JUMPI DUP1 PUSH4 0x715018A6 EQ PUSH2 0x2DB JUMPI PUSH1 0x0 DUP1 REVERT JUMPDEST DUP1 PUSH4 0x43CBCE3E EQ PUSH2 0x296 JUMPI DUP1 PUSH4 0x5997BB37 EQ PUSH2 0x2A9 JUMPI DUP1 PUSH4 0x5E01EB5A EQ PUSH2 0x2B1 JUMPI PUSH1 0x0 DUP1 REVERT JUMPDEST DUP1 PUSH4 0x2E1A7D4D GT PUSH2 0x1AD JUMPI DUP1 PUSH4 0x2E1A7D4D EQ PUSH2 0x22C JUMPI DUP1 PUSH4 0x2F54BF6E EQ PUSH2 0x241 JUMPI DUP1 PUSH4 0x304AC91B EQ PUSH2 0x264 JUMPI DUP1 PUSH4 0x399080EC EQ PUSH2 0x26D JUMPI PUSH1 0x0 DUP1 REVERT JUMPDEST DUP1 PUSH3 0x8CC262 EQ PUSH2 0x1D3 JUMPI DUP1 PUSH4 0xBD21C56 EQ PUSH2 0x1F9 JUMPI DUP1 PUSH4 0xFDA55B4 EQ PUSH2 0x224 JUMPI JUMPDEST PUSH1 0x0 DUP1 REVERT JUMPDEST PUSH2 0x1E6 PUSH2 0x1E1 CALLDATASIZE PUSH1 0x4 PUSH2 0x1101 JUMP JUMPDEST PUSH2 0x3FC JUMP JUMPDEST PUSH1 0x40 MLOAD SWAP1 DUP2 MSTORE PUSH1 0x20 ADD JUMPDEST PUSH1 0x40 MLOAD DUP1 SWAP2 SUB SWAP1 RETURN JUMPDEST PUSH1 0x2 SLOAD PUSH2 0x20C SWAP1 PUSH1 0x1 PUSH1 0x1 PUSH1 0xA0 SHL SUB AND DUP2 JUMP JUMPDEST PUSH1 0x40 MLOAD PUSH1 0x1 PUSH1 0x1 PUSH1 0xA0 SHL SUB SWAP1 SWAP2 AND DUP2 MSTORE PUSH1 0x20 ADD PUSH2 0x1F0 JUMP JUMPDEST PUSH2 0x1E6 PUSH2 0x479 JUMP JUMPDEST PUSH2 0x23F PUSH2 0x23A CALLDATASIZE PUSH1 0x4 PUSH2 0x1131 JUMP JUMPDEST PUSH2 0x4EC JUMP JUMPDEST STOP JUMPDEST PUSH2 0x254 PUSH2 0x24F CALLDATASIZE PUSH1 0x4 PUSH2 0x1101 JUMP JUMPDEST PUSH2 0x69A JUMP JUMPDEST PUSH1 0x40 MLOAD SWAP1 ISZERO ISZERO DUP2 MSTORE PUSH1 0x20 ADD PUSH2 0x1F0 JUMP JUMPDEST PUSH2 0x1E6 PUSH1 0x5 SLOAD DUP2 JUMP JUMPDEST PUSH2 0x1E6 PUSH2 0x27B CALLDATASIZE PUSH1 0x4 PUSH2 0x1101 JUMP JUMPDEST PUSH1 0x1 PUSH1 0x1 PUSH1 0xA0 SHL SUB AND PUSH1 0x0 SWAP1 DUP2 MSTORE PUSH1 0xA PUSH1 0x20 MSTORE PUSH1 0x40 SWAP1 KECCAK256 SLOAD SWAP1 JUMP JUMPDEST PUSH2 0x1E6 PUSH2 0x2A4 CALLDATASIZE PUSH1 0x4 PUSH2 0x1101 JUMP JUMPDEST PUSH2 0x6C8 JUMP JUMPDEST PUSH2 0x1E6 PUSH1 0x64 DUP2 JUMP JUMPDEST CALLER PUSH2 0x20C JUMP JUMPDEST PUSH2 0x1E6 PUSH2 0x2C5 CALLDATASIZE PUSH1 0x4 PUSH2 0x1101 JUMP JUMPDEST PUSH2 0x738 JUMP JUMPDEST PUSH1 0x7 SLOAD PUSH2 0x1E6 JUMP JUMPDEST PUSH2 0x1E6 PUSH1 0x4 SLOAD DUP2 JUMP JUMPDEST PUSH2 0x23F PUSH2 0x76B JUMP JUMPDEST PUSH2 0x20C PUSH2 0x7D1 JUMP JUMPDEST PUSH2 0x1E6 PUSH2 0x2F9 CALLDATASIZE PUSH1 0x4 PUSH2 0x1101 JUMP JUMPDEST PUSH1 0xA PUSH1 0x20 MSTORE PUSH1 0x0 SWAP1 DUP2 MSTORE PUSH1 0x40 SWAP1 KECCAK256 SLOAD DUP2 JUMP JUMPDEST PUSH1 0x5 SLOAD PUSH2 0x1E6 JUMP JUMPDEST PUSH1 0x1 SLOAD PUSH1 0x1 PUSH1 0x1 PUSH1 0xA0 SHL SUB AND PUSH2 0x20C JUMP JUMPDEST PUSH2 0x23F PUSH2 0x332 CALLDATASIZE PUSH1 0x4 PUSH2 0x1131 JUMP JUMPDEST PUSH2 0x7E5 JUMP JUMPDEST PUSH1 0x3 SLOAD PUSH2 0x20C SWAP1 PUSH1 0x1 PUSH1 0x1 PUSH1 0xA0 SHL SUB AND DUP2 JUMP JUMPDEST PUSH2 0x23F PUSH2 0xA04 JUMP JUMPDEST PUSH2 0x1E6 PUSH2 0x360 CALLDATASIZE PUSH1 0x4 PUSH2 0x1101 JUMP JUMPDEST PUSH1 0x9 PUSH1 0x20 MSTORE PUSH1 0x0 SWAP1 DUP2 MSTORE PUSH1 0x40 SWAP1 KECCAK256 SLOAD DUP2 JUMP JUMPDEST PUSH2 0x385 PUSH2 0x380 CALLDATASIZE PUSH1 0x4 PUSH2 0x1101 JUMP JUMPDEST PUSH2 0xB1A JUMP JUMPDEST PUSH1 0x40 MLOAD PUSH2 0x1F0 SWAP3 SWAP2 SWAP1 PUSH2 0x114A JUMP JUMPDEST PUSH2 0x385 PUSH2 0x3A1 CALLDATASIZE PUSH1 0x4 PUSH2 0x1101 JUMP JUMPDEST PUSH2 0xD0C JUMP JUMPDEST PUSH2 0x1E6 PUSH2 0xEF3 JUMP JUMPDEST PUSH2 0x1E6 PUSH2 0xF3D JUMP JUMPDEST PUSH2 0x20C PUSH2 0x3C4 CALLDATASIZE PUSH1 0x4 PUSH2 0x1131 JUMP JUMPDEST PUSH2 0xF96 JUMP JUMPDEST PUSH2 0x1E6 PUSH2 0x3D7 CALLDATASIZE PUSH1 0x4 PUSH2 0x1101 JUMP JUMPDEST PUSH1 0x8 PUSH1 0x20 MSTORE PUSH1 0x0 SWAP1 DUP2 MSTORE PUSH1 0x40 SWAP1 KECCAK256 SLOAD DUP2 JUMP JUMPDEST PUSH2 0x23F PUSH2 0x3F7 CALLDATASIZE PUSH1 0x4 PUSH2 0x1101 JUMP JUMPDEST PUSH2 0xFC0 JUMP JUMPDEST PUSH1 0x1 PUSH1 0x1 PUSH1 0xA0 SHL SUB DUP2 AND PUSH1 0x0 SWAP1 DUP2 MSTORE PUSH1 0x9 PUSH1 0x20 SWAP1 DUP2 MSTORE PUSH1 0x40 DUP1 DUP4 KECCAK256 SLOAD PUSH1 0x8 SWAP1 SWAP3 MSTORE DUP3 KECCAK256 SLOAD PUSH8 0xDE0B6B3A7640000 SWAP1 PUSH2 0x432 PUSH2 0xF3D JUMP JUMPDEST PUSH2 0x43C SWAP2 SWAP1 PUSH2 0x11E4 JUMP JUMPDEST PUSH1 0x1 PUSH1 0x1 PUSH1 0xA0 SHL SUB DUP6 AND PUSH1 0x0 SWAP1 DUP2 MSTORE PUSH1 0xA PUSH1 0x20 MSTORE PUSH1 0x40 SWAP1 KECCAK256 SLOAD PUSH2 0x45F SWAP2 SWAP1 PUSH2 0x11FB JUMP JUMPDEST PUSH2 0x469 SWAP2 SWAP1 PUSH2 0x121A JUMP JUMPDEST PUSH2 0x473 SWAP2 SWAP1 PUSH2 0x123C JUMP JUMPDEST SWAP3 SWAP2 POP POP JUMP JUMPDEST PUSH1 0x3 SLOAD PUSH1 0x40 DUP1 MLOAD PUSH4 0x18160DDD PUSH1 0xE0 SHL DUP2 MSTORE SWAP1 MLOAD PUSH1 0x0 SWAP3 PUSH1 0x1 PUSH1 0x1 PUSH1 0xA0 SHL SUB AND SWAP2 PUSH4 0x18160DDD SWAP2 PUSH1 0x4 DUP1 DUP4 ADD SWAP3 PUSH1 0x20 SWAP3 SWAP2 SWAP1 DUP3 SWAP1 SUB ADD DUP2 DUP7 GAS STATICCALL ISZERO DUP1 ISZERO PUSH2 0x4C3 JUMPI RETURNDATASIZE PUSH1 0x0 DUP1 RETURNDATACOPY RETURNDATASIZE PUSH1 0x0 REVERT JUMPDEST POP POP POP POP PUSH1 0x40 MLOAD RETURNDATASIZE PUSH1 0x1F NOT PUSH1 0x1F DUP3 ADD AND DUP3 ADD DUP1 PUSH1 0x40 MSTORE POP DUP2 ADD SWAP1 PUSH2 0x4E7 SWAP2 SWAP1 PUSH2 0x1254 JUMP JUMPDEST SWAP1 POP SWAP1 JUMP JUMPDEST CALLER PUSH2 0x4F5 PUSH2 0xF3D JUMP JUMPDEST PUSH1 0x5 SSTORE TIMESTAMP PUSH1 0x4 SSTORE PUSH2 0x505 DUP2 PUSH2 0x3FC JUMP JUMPDEST PUSH1 0x1 PUSH1 0x1 PUSH1 0xA0 SHL SUB DUP3 AND PUSH1 0x0 SWAP1 DUP2 MSTORE PUSH1 0x9 PUSH1 0x20 SWAP1 DUP2 MSTORE PUSH1 0x40 DUP1 DUP4 KECCAK256 SWAP4 SWAP1 SWAP4 SSTORE PUSH1 0x5 SLOAD PUSH1 0x8 SWAP1 SWAP2 MSTORE SWAP2 DUP2 KECCAK256 SWAP2 SWAP1 SWAP2 SSTORE SLOAD PUSH1 0x1 NOT ADD PUSH2 0x589 JUMPI PUSH1 0x40 MLOAD PUSH3 0x461BCD PUSH1 0xE5 SHL DUP2 MSTORE PUSH1 0x20 PUSH1 0x4 DUP3 ADD MSTORE PUSH1 0x1F PUSH1 0x24 DUP3 ADD MSTORE PUSH32 0x5265656E7472616E637947756172643A207265656E7472616E742063616C6C00 PUSH1 0x44 DUP3 ADD MSTORE PUSH1 0x64 ADD JUMPDEST PUSH1 0x40 MLOAD DUP1 SWAP2 SUB SWAP1 REVERT JUMPDEST PUSH1 0x2 PUSH1 0x0 DUP2 SWAP1 SSTORE POP DUP2 PUSH1 0x7 PUSH1 0x0 DUP3 DUP3 SLOAD PUSH2 0x5A3 SWAP2 SWAP1 PUSH2 0x11E4 JUMP JUMPDEST SWAP1 SWAP2 SSTORE POP POP CALLER PUSH1 0x0 SWAP1 DUP2 MSTORE PUSH1 0xA PUSH1 0x20 MSTORE PUSH1 0x40 DUP2 KECCAK256 DUP1 SLOAD DUP5 SWAP3 SWAP1 PUSH2 0x5C7 SWAP1 DUP5 SWAP1 PUSH2 0x11E4 JUMP JUMPDEST SWAP1 SWAP2 SSTORE POP POP PUSH1 0x40 MLOAD DUP3 SWAP1 CALLER SWAP1 PUSH32 0x4CB6DA433EA55F6E302B7BDBFEED740816A42301CDE7F5BAC5DFF2B340376374 SWAP1 PUSH1 0x0 SWAP1 LOG3 PUSH1 0x3 SLOAD PUSH1 0x40 MLOAD PUSH4 0xA9059CBB PUSH1 0xE0 SHL DUP2 MSTORE CALLER PUSH1 0x4 DUP3 ADD MSTORE PUSH1 0x24 DUP2 ADD DUP5 SWAP1 MSTORE PUSH1 0x0 SWAP2 PUSH1 0x1 PUSH1 0x1 PUSH1 0xA0 SHL SUB AND SWAP1 PUSH4 0xA9059CBB SWAP1 PUSH1 0x44 ADD JUMPDEST PUSH1 0x20 PUSH1 0x40 MLOAD DUP1 DUP4 SUB DUP2 PUSH1 0x0 DUP8 GAS CALL ISZERO DUP1 ISZERO PUSH2 0x64C JUMPI RETURNDATASIZE PUSH1 0x0 DUP1 RETURNDATACOPY RETURNDATASIZE PUSH1 0x0 REVERT JUMPDEST POP POP POP POP PUSH1 0x40 MLOAD RETURNDATASIZE PUSH1 0x1F NOT PUSH1 0x1F DUP3 ADD AND DUP3 ADD DUP1 PUSH1 0x40 MSTORE POP DUP2 ADD SWAP1 PUSH2 0x670 SWAP2 SWAP1 PUSH2 0x126D JUMP JUMPDEST SWAP1 POP DUP1 PUSH2 0x690 JUMPI PUSH1 0x40 MLOAD PUSH4 0x12171D83 PUSH1 0xE3 SHL DUP2 MSTORE PUSH1 0x4 ADD PUSH1 0x40 MLOAD DUP1 SWAP2 SUB SWAP1 REVERT JUMPDEST POP POP PUSH1 0x1 PUSH1 0x0 SSTORE POP JUMP JUMPDEST PUSH1 0x0 DUP2 PUSH1 0x1 PUSH1 0x1 PUSH1 0xA0 SHL SUB AND PUSH2 0x6B8 PUSH1 0x1 SLOAD PUSH1 0x1 PUSH1 0x1 PUSH1 0xA0 SHL SUB AND SWAP1 JUMP JUMPDEST PUSH1 0x1 PUSH1 0x1 PUSH1 0xA0 SHL SUB AND EQ SWAP3 SWAP2 POP POP JUMP JUMPDEST PUSH1 0x3 SLOAD PUSH1 0x40 MLOAD PUSH4 0x70A08231 PUSH1 0xE0 SHL DUP2 MSTORE PUSH1 0x1 PUSH1 0x1 PUSH1 0xA0 SHL SUB DUP4 DUP2 AND PUSH1 0x4 DUP4 ADD MSTORE PUSH1 0x0 SWAP3 AND SWAP1 PUSH4 0x70A08231 SWAP1 PUSH1 0x24 ADD JUMPDEST PUSH1 0x20 PUSH1 0x40 MLOAD DUP1 DUP4 SUB DUP2 DUP7 GAS STATICCALL ISZERO DUP1 ISZERO PUSH2 0x714 JUMPI RETURNDATASIZE PUSH1 0x0 DUP1 RETURNDATACOPY RETURNDATASIZE PUSH1 0x0 REVERT JUMPDEST POP POP POP POP PUSH1 0x40 MLOAD RETURNDATASIZE PUSH1 0x1F NOT PUSH1 0x1F DUP3 ADD AND DUP3 ADD DUP1 PUSH1 0x40 MSTORE POP DUP2 ADD SWAP1 PUSH2 0x473 SWAP2 SWAP1 PUSH2 0x1254 JUMP JUMPDEST PUSH1 0x2 SLOAD PUSH1 0x40 MLOAD PUSH4 0x70A08231 PUSH1 0xE0 SHL DUP2 MSTORE PUSH1 0x1 PUSH1 0x1 PUSH1 0xA0 SHL SUB DUP4 DUP2 AND PUSH1 0x4 DUP4 ADD MSTORE PUSH1 0x0 SWAP3 AND SWAP1 PUSH4 0x70A08231 SWAP1 PUSH1 0x24 ADD PUSH2 0x6F7 JUMP JUMPDEST PUSH1 0x1 SLOAD PUSH1 0x1 PUSH1 0x1 PUSH1 0xA0 SHL SUB AND CALLER EQ PUSH2 0x7C5 JUMPI PUSH1 0x40 MLOAD PUSH3 0x461BCD PUSH1 0xE5 SHL DUP2 MSTORE PUSH1 0x20 PUSH1 0x4 DUP3 ADD DUP2 SWAP1 MSTORE PUSH1 0x24 DUP3 ADD MSTORE PUSH32 0x4F776E61626C653A2063616C6C6572206973206E6F7420746865206F776E6572 PUSH1 0x44 DUP3 ADD MSTORE PUSH1 0x64 ADD PUSH2 0x580 JUMP JUMPDEST PUSH2 0x7CF PUSH1 0x0 PUSH2 0x10A2 JUMP JUMPDEST JUMP JUMPDEST PUSH1 0x0 PUSH2 0x4E7 PUSH1 0x1 SLOAD PUSH1 0x1 PUSH1 0x1 PUSH1 0xA0 SHL SUB AND SWAP1 JUMP JUMPDEST CALLER PUSH2 0x7EE PUSH2 0xF3D JUMP JUMPDEST PUSH1 0x5 SSTORE TIMESTAMP PUSH1 0x4 SSTORE PUSH2 0x7FE DUP2 PUSH2 0x3FC JUMP JUMPDEST PUSH1 0x1 PUSH1 0x1 PUSH1 0xA0 SHL SUB DUP3 AND PUSH1 0x0 SWAP1 DUP2 MSTORE PUSH1 0x9 PUSH1 0x20 SWAP1 DUP2 MSTORE PUSH1 0x40 DUP1 DUP4 KECCAK256 SWAP4 SWAP1 SWAP4 SSTORE PUSH1 0x5 SLOAD PUSH1 0x8 SWAP1 SWAP2 MSTORE SWAP2 DUP2 KECCAK256 SWAP2 SWAP1 SWAP2 SSTORE SLOAD PUSH1 0x1 NOT ADD PUSH2 0x87D JUMPI PUSH1 0x40 MLOAD PUSH3 0x461BCD PUSH1 0xE5 SHL DUP2 MSTORE PUSH1 0x20 PUSH1 0x4 DUP3 ADD MSTORE PUSH1 0x1F PUSH1 0x24 DUP3 ADD MSTORE PUSH32 0x5265656E7472616E637947756172643A207265656E7472616E742063616C6C00 PUSH1 0x44 DUP3 ADD MSTORE PUSH1 0x64 ADD PUSH2 0x580 JUMP JUMPDEST PUSH1 0x2 PUSH1 0x0 DUP2 SWAP1 SSTORE POP DUP2 DUP1 PUSH1 0x0 SUB PUSH2 0x8A7 JUMPI PUSH1 0x40 MLOAD PUSH4 0xF45911F PUSH1 0xE4 SHL DUP2 MSTORE PUSH1 0x4 ADD PUSH1 0x40 MLOAD DUP1 SWAP2 SUB SWAP1 REVERT JUMPDEST PUSH1 0x6 DUP1 SLOAD PUSH1 0x1 DUP2 ADD DUP3 SSTORE PUSH1 0x0 SWAP2 DUP3 MSTORE PUSH32 0xF652222313E28459528D920B65115C16C04F3EFC82AAEDC97BE59F3F377C0D3F ADD DUP1 SLOAD PUSH20 0xFFFFFFFFFFFFFFFFFFFFFFFFFFFFFFFFFFFFFFFF NOT AND CALLER OR SWAP1 SSTORE PUSH1 0x7 DUP1 SLOAD DUP6 SWAP3 SWAP1 PUSH2 0x907 SWAP1 DUP5 SWAP1 PUSH2 0x123C JUMP JUMPDEST SWAP1 SWAP2 SSTORE POP POP CALLER PUSH1 0x0 SWAP1 DUP2 MSTORE PUSH1 0xA PUSH1 0x20 MSTORE PUSH1 0x40 DUP2 KECCAK256 DUP1 SLOAD DUP6 SWAP3 SWAP1 PUSH2 0x92B SWAP1 DUP5 SWAP1 PUSH2 0x123C JUMP JUMPDEST SWAP1 SWAP2 SSTORE POP POP PUSH1 0x40 MLOAD DUP4 SWAP1 CALLER SWAP1 PUSH32 0x9E71BC8EEA02A63969F509818F2DAFB9254532904319F9DBDA79B67BD34A5F3D SWAP1 PUSH1 0x0 SWAP1 LOG3 PUSH1 0x3 SLOAD PUSH1 0x40 MLOAD PUSH4 0x23B872DD PUSH1 0xE0 SHL DUP2 MSTORE CALLER PUSH1 0x4 DUP3 ADD MSTORE ADDRESS PUSH1 0x24 DUP3 ADD MSTORE PUSH1 0x44 DUP2 ADD DUP6 SWAP1 MSTORE PUSH1 0x0 SWAP2 PUSH1 0x1 PUSH1 0x1 PUSH1 0xA0 SHL SUB AND SWAP1 PUSH4 0x23B872DD SWAP1 PUSH1 0x64 ADD PUSH1 0x20 PUSH1 0x40 MLOAD DUP1 DUP4 SUB DUP2 PUSH1 0x0 DUP8 GAS CALL ISZERO DUP1 ISZERO PUSH2 0x9B5 JUMPI RETURNDATASIZE PUSH1 0x0 DUP1 RETURNDATACOPY RETURNDATASIZE PUSH1 0x0 REVERT JUMPDEST POP POP POP POP PUSH1 0x40 MLOAD RETURNDATASIZE PUSH1 0x1F NOT PUSH1 0x1F DUP3 ADD AND DUP3 ADD DUP1 PUSH1 0x40 MSTORE POP DUP2 ADD SWAP1 PUSH2 0x9D9 SWAP2 SWAP1 PUSH2 0x126D JUMP JUMPDEST SWAP1 POP DUP1 PUSH2 0x9F9 JUMPI PUSH1 0x40 MLOAD PUSH4 0x12171D83 PUSH1 0xE3 SHL DUP2 MSTORE PUSH1 0x4 ADD PUSH1 0x40 MLOAD DUP1 SWAP2 SUB SWAP1 REVERT JUMPDEST POP POP PUSH1 0x1 PUSH1 0x0 SSTORE POP POP JUMP JUMPDEST CALLER PUSH2 0xA0D PUSH2 0xF3D JUMP JUMPDEST PUSH1 0x5 SSTORE TIMESTAMP PUSH1 0x4 SSTORE PUSH2 0xA1D DUP2 PUSH2 0x3FC JUMP JUMPDEST PUSH1 0x1 PUSH1 0x1 PUSH1 0xA0 SHL SUB DUP3 AND PUSH1 0x0 SWAP1 DUP2 MSTORE PUSH1 0x9 PUSH1 0x20 SWAP1 DUP2 MSTORE PUSH1 0x40 DUP1 DUP4 KECCAK256 SWAP4 SWAP1 SWAP4 SSTORE PUSH1 0x5 SLOAD PUSH1 0x8 SWAP1 SWAP2 MSTORE SWAP2 DUP2 KECCAK256 SWAP2 SWAP1 SWAP2 SSTORE SLOAD PUSH1 0x1 NOT ADD PUSH2 0xA9C JUMPI PUSH1 0x40 MLOAD PUSH3 0x461BCD PUSH1 0xE5 SHL DUP2 MSTORE PUSH1 0x20 PUSH1 0x4 DUP3 ADD MSTORE PUSH1 0x1F PUSH1 0x24 DUP3 ADD MSTORE PUSH32 0x5265656E7472616E637947756172643A207265656E7472616E742063616C6C00 PUSH1 0x44 DUP3 ADD MSTORE PUSH1 0x64 ADD PUSH2 0x580 JUMP JUMPDEST PUSH1 0x2 PUSH1 0x0 SWAP1 DUP2 SSTORE CALLER DUP1 DUP3 MSTORE PUSH1 0x9 PUSH1 0x20 MSTORE PUSH1 0x40 DUP1 DUP4 KECCAK256 DUP1 SLOAD SWAP1 DUP5 SWAP1 SSTORE SWAP1 MLOAD SWAP1 SWAP3 DUP4 SWAP3 SWAP2 PUSH32 0xFC30CDDEA38E2BF4D6EA7D3F9ED3B6AD7F176419F4963BD81318067A4AEE73FE SWAP2 SWAP1 LOG3 PUSH1 0x2 SLOAD PUSH1 0x40 MLOAD PUSH4 0xA9059CBB PUSH1 0xE0 SHL DUP2 MSTORE CALLER PUSH1 0x4 DUP3 ADD MSTORE PUSH1 0x24 DUP2 ADD DUP4 SWAP1 MSTORE PUSH1 0x0 SWAP2 PUSH1 0x1 PUSH1 0x1 PUSH1 0xA0 SHL SUB AND SWAP1 PUSH4 0xA9059CBB SWAP1 PUSH1 0x44 ADD PUSH2 0x62D JUMP JUMPDEST PUSH1 0x60 DUP1 DUP3 PUSH1 0x1 PUSH1 0x1 PUSH1 0xA0 SHL SUB AND PUSH2 0xB39 PUSH1 0x1 SLOAD PUSH1 0x1 PUSH1 0x1 PUSH1 0xA0 SHL SUB AND SWAP1 JUMP JUMPDEST PUSH1 0x1 PUSH1 0x1 PUSH1 0xA0 SHL SUB AND EQ PUSH2 0xB8F JUMPI PUSH1 0x40 MLOAD PUSH3 0x461BCD PUSH1 0xE5 SHL DUP2 MSTORE PUSH1 0x20 PUSH1 0x4 DUP3 ADD MSTORE PUSH1 0x15 PUSH1 0x24 DUP3 ADD MSTORE PUSH32 0x596F7520617265206E6F7420746865206F776E65720000000000000000000000 PUSH1 0x44 DUP3 ADD MSTORE PUSH1 0x64 ADD PUSH2 0x580 JUMP JUMPDEST PUSH1 0x6 SLOAD PUSH1 0x0 SWAP1 PUSH8 0xFFFFFFFFFFFFFFFF DUP2 GT ISZERO PUSH2 0xBAD JUMPI PUSH2 0xBAD PUSH2 0x128F JUMP JUMPDEST PUSH1 0x40 MLOAD SWAP1 DUP1 DUP3 MSTORE DUP1 PUSH1 0x20 MUL PUSH1 0x20 ADD DUP3 ADD PUSH1 0x40 MSTORE DUP1 ISZERO PUSH2 0xBD6 JUMPI DUP2 PUSH1 0x20 ADD PUSH1 0x20 DUP3 MUL DUP1 CALLDATASIZE DUP4 CALLDATACOPY ADD SWAP1 POP JUMPDEST POP PUSH1 0x6 SLOAD SWAP1 SWAP2 POP PUSH1 0x0 SWAP1 PUSH8 0xFFFFFFFFFFFFFFFF DUP2 GT ISZERO PUSH2 0xBF8 JUMPI PUSH2 0xBF8 PUSH2 0x128F JUMP JUMPDEST PUSH1 0x40 MLOAD SWAP1 DUP1 DUP3 MSTORE DUP1 PUSH1 0x20 MUL PUSH1 0x20 ADD DUP3 ADD PUSH1 0x40 MSTORE DUP1 ISZERO PUSH2 0xC21 JUMPI DUP2 PUSH1 0x20 ADD PUSH1 0x20 DUP3 MUL DUP1 CALLDATASIZE DUP4 CALLDATACOPY ADD SWAP1 POP JUMPDEST POP SWAP1 POP PUSH1 0x0 JUMPDEST PUSH1 0x6 SLOAD DUP2 LT ISZERO PUSH2 0xD01 JUMPI PUSH1 0x6 DUP2 DUP2 SLOAD DUP2 LT PUSH2 0xC44 JUMPI PUSH2 0xC44 PUSH2 0x12A5 JUMP JUMPDEST SWAP1 PUSH1 0x0 MSTORE PUSH1 0x20 PUSH1 0x0 KECCAK256 ADD PUSH1 0x0 SWAP1 SLOAD SWAP1 PUSH2 0x100 EXP SWAP1 DIV PUSH1 0x1 PUSH1 0x1 PUSH1 0xA0 SHL SUB AND DUP4 DUP3 DUP2 MLOAD DUP2 LT PUSH2 0xC74 JUMPI PUSH2 0xC74 PUSH2 0x12A5 JUMP JUMPDEST PUSH1 0x20 MUL PUSH1 0x20 ADD ADD SWAP1 PUSH1 0x1 PUSH1 0x1 PUSH1 0xA0 SHL SUB AND SWAP1 DUP2 PUSH1 0x1 PUSH1 0x1 PUSH1 0xA0 SHL SUB AND DUP2 MSTORE POP POP PUSH1 0x9 PUSH1 0x0 PUSH1 0x6 DUP4 DUP2 SLOAD DUP2 LT PUSH2 0xCAB JUMPI PUSH2 0xCAB PUSH2 0x12A5 JUMP JUMPDEST PUSH1 0x0 SWAP2 DUP3 MSTORE PUSH1 0x20 DUP1 DUP4 KECCAK256 SWAP1 SWAP2 ADD SLOAD PUSH1 0x1 PUSH1 0x1 PUSH1 0xA0 SHL SUB AND DUP4 MSTORE DUP3 ADD SWAP3 SWAP1 SWAP3 MSTORE PUSH1 0x40 ADD SWAP1 KECCAK256 SLOAD DUP3 MLOAD DUP4 SWAP1 DUP4 SWAP1 DUP2 LT PUSH2 0xCE4 JUMPI PUSH2 0xCE4 PUSH2 0x12A5 JUMP JUMPDEST PUSH1 0x20 SWAP1 DUP2 MUL SWAP2 SWAP1 SWAP2 ADD ADD MSTORE DUP1 PUSH2 0xCF9 DUP2 PUSH2 0x12BB JUMP JUMPDEST SWAP2 POP POP PUSH2 0xC27 JUMP JUMPDEST POP SWAP1 SWAP5 SWAP1 SWAP4 POP SWAP2 POP POP JUMP JUMPDEST PUSH1 0x60 DUP1 DUP3 PUSH1 0x1 PUSH1 0x1 PUSH1 0xA0 SHL SUB AND PUSH2 0xD2B PUSH1 0x1 SLOAD PUSH1 0x1 PUSH1 0x1 PUSH1 0xA0 SHL SUB AND SWAP1 JUMP JUMPDEST PUSH1 0x1 PUSH1 0x1 PUSH1 0xA0 SHL SUB AND EQ PUSH2 0xD81 JUMPI PUSH1 0x40 MLOAD PUSH3 0x461BCD PUSH1 0xE5 SHL DUP2 MSTORE PUSH1 0x20 PUSH1 0x4 DUP3 ADD MSTORE PUSH1 0x15 PUSH1 0x24 DUP3 ADD MSTORE PUSH32 0x596F7520617265206E6F7420746865206F776E65720000000000000000000000 PUSH1 0x44 DUP3 ADD MSTORE PUSH1 0x64 ADD PUSH2 0x580 JUMP JUMPDEST PUSH1 0x6 SLOAD PUSH1 0x0 SWAP1 PUSH8 0xFFFFFFFFFFFFFFFF DUP2 GT ISZERO PUSH2 0xD9F JUMPI PUSH2 0xD9F PUSH2 0x128F JUMP JUMPDEST PUSH1 0x40 MLOAD SWAP1 DUP1 DUP3 MSTORE DUP1 PUSH1 0x20 MUL PUSH1 0x20 ADD DUP3 ADD PUSH1 0x40 MSTORE DUP1 ISZERO PUSH2 0xDC8 JUMPI DUP2 PUSH1 0x20 ADD PUSH1 0x20 DUP3 MUL DUP1 CALLDATASIZE DUP4 CALLDATACOPY ADD SWAP1 POP JUMPDEST POP PUSH1 0x6 SLOAD SWAP1 SWAP2 POP PUSH1 0x0 SWAP1 PUSH8 0xFFFFFFFFFFFFFFFF DUP2 GT ISZERO PUSH2 0xDEA JUMPI PUSH2 0xDEA PUSH2 0x128F JUMP JUMPDEST PUSH1 0x40 MLOAD SWAP1 DUP1 DUP3 MSTORE DUP1 PUSH1 0x20 MUL PUSH1 0x20 ADD DUP3 ADD PUSH1 0x40 MSTORE DUP1 ISZERO PUSH2 0xE13 JUMPI DUP2 PUSH1 0x20 ADD PUSH1 0x20 DUP3 MUL DUP1 CALLDATASIZE DUP4 CALLDATACOPY ADD SWAP1 POP JUMPDEST POP SWAP1 POP PUSH1 0x0 JUMPDEST PUSH1 0x6 SLOAD DUP2 LT ISZERO PUSH2 0xD01 JUMPI PUSH1 0x6 DUP2 DUP2 SLOAD DUP2 LT PUSH2 0xE36 JUMPI PUSH2 0xE36 PUSH2 0x12A5 JUMP JUMPDEST SWAP1 PUSH1 0x0 MSTORE PUSH1 0x20 PUSH1 0x0 KECCAK256 ADD PUSH1 0x0 SWAP1 SLOAD SWAP1 PUSH2 0x100 EXP SWAP1 DIV PUSH1 0x1 PUSH1 0x1 PUSH1 0xA0 SHL SUB AND DUP4 DUP3 DUP2 MLOAD DUP2 LT PUSH2 0xE66 JUMPI PUSH2 0xE66 PUSH2 0x12A5 JUMP JUMPDEST PUSH1 0x20 MUL PUSH1 0x20 ADD ADD SWAP1 PUSH1 0x1 PUSH1 0x1 PUSH1 0xA0 SHL SUB AND SWAP1 DUP2 PUSH1 0x1 PUSH1 0x1 PUSH1 0xA0 SHL SUB AND DUP2 MSTORE POP POP PUSH1 0xA PUSH1 0x0 PUSH1 0x6 DUP4 DUP2 SLOAD DUP2 LT PUSH2 0xE9D JUMPI PUSH2 0xE9D PUSH2 0x12A5 JUMP JUMPDEST PUSH1 0x0 SWAP2 DUP3 MSTORE PUSH1 0x20 DUP1 DUP4 KECCAK256 SWAP1 SWAP2 ADD SLOAD PUSH1 0x1 PUSH1 0x1 PUSH1 0xA0 SHL SUB AND DUP4 MSTORE DUP3 ADD SWAP3 SWAP1 SWAP3 MSTORE PUSH1 0x40 ADD SWAP1 KECCAK256 SLOAD DUP3 MLOAD DUP4 SWAP1 DUP4 SWAP1 DUP2 LT PUSH2 0xED6 JUMPI PUSH2 0xED6 PUSH2 0x12A5 JUMP JUMPDEST PUSH1 0x20 SWAP1 DUP2 MUL SWAP2 SWAP1 SWAP2 ADD ADD MSTORE DUP1 PUSH2 0xEEB DUP2 PUSH2 0x12BB JUMP JUMPDEST SWAP2 POP POP PUSH2 0xE19 JUMP JUMPDEST PUSH1 0x2 SLOAD PUSH1 0x40 DUP1 MLOAD PUSH4 0x18160DDD PUSH1 0xE0 SHL DUP2 MSTORE SWAP1 MLOAD PUSH1 0x0 SWAP3 PUSH1 0x1 PUSH1 0x1 PUSH1 0xA0 SHL SUB AND SWAP2 PUSH4 0x18160DDD SWAP2 PUSH1 0x4 DUP1 DUP4 ADD SWAP3 PUSH1 0x20 SWAP3 SWAP2 SWAP1 DUP3 SWAP1 SUB ADD DUP2 DUP7 GAS STATICCALL ISZERO DUP1 ISZERO PUSH2 0x4C3 JUMPI RETURNDATASIZE PUSH1 0x0 DUP1 RETURNDATACOPY RETURNDATASIZE PUSH1 0x0 REVERT JUMPDEST PUSH1 0x0 PUSH1 0x7 SLOAD PUSH1 0x0 SUB PUSH2 0xF50 JUMPI POP PUSH1 0x5 SLOAD SWAP1 JUMP JUMPDEST PUSH1 0x7 SLOAD PUSH1 0x64 PUSH1 0x4 SLOAD TIMESTAMP PUSH2 0xF63 SWAP2 SWAP1 PUSH2 0x11E4 JUMP JUMPDEST PUSH2 0xF6D SWAP2 SWAP1 PUSH2 0x11FB JUMP JUMPDEST PUSH2 0xF7F SWAP1 PUSH8 0xDE0B6B3A7640000 PUSH2 0x11FB JUMP JUMPDEST PUSH2 0xF89 SWAP2 SWAP1 PUSH2 0x121A JUMP JUMPDEST PUSH1 0x5 SLOAD PUSH2 0x4E7 SWAP2 SWAP1 PUSH2 0x123C JUMP JUMPDEST PUSH1 0x6 DUP2 DUP2 SLOAD DUP2 LT PUSH2 0xFA6 JUMPI PUSH1 0x0 DUP1 REVERT JUMPDEST PUSH1 0x0 SWAP2 DUP3 MSTORE PUSH1 0x20 SWAP1 SWAP2 KECCAK256 ADD SLOAD PUSH1 0x1 PUSH1 0x1 PUSH1 0xA0 SHL SUB AND SWAP1 POP DUP2 JUMP JUMPDEST PUSH1 0x1 SLOAD PUSH1 0x1 PUSH1 0x1 PUSH1 0xA0 SHL SUB AND CALLER EQ PUSH2 0x101A JUMPI PUSH1 0x40 MLOAD PUSH3 0x461BCD PUSH1 0xE5 SHL DUP2 MSTORE PUSH1 0x20 PUSH1 0x4 DUP3 ADD DUP2 SWAP1 MSTORE PUSH1 0x24 DUP3 ADD MSTORE PUSH32 0x4F776E61626C653A2063616C6C6572206973206E6F7420746865206F776E6572 PUSH1 0x44 DUP3 ADD MSTORE PUSH1 0x64 ADD PUSH2 0x580 JUMP JUMPDEST PUSH1 0x1 PUSH1 0x1 PUSH1 0xA0 SHL SUB DUP2 AND PUSH2 0x1096 JUMPI PUSH1 0x40 MLOAD PUSH3 0x461BCD PUSH1 0xE5 SHL DUP2 MSTORE PUSH1 0x20 PUSH1 0x4 DUP3 ADD MSTORE PUSH1 0x26 PUSH1 0x24 DUP3 ADD MSTORE PUSH32 0x4F776E61626C653A206E6577206F776E657220697320746865207A65726F2061 PUSH1 0x44 DUP3 ADD MSTORE PUSH32 0x6464726573730000000000000000000000000000000000000000000000000000 PUSH1 0x64 DUP3 ADD MSTORE PUSH1 0x84 ADD PUSH2 0x580 JUMP JUMPDEST PUSH2 0x109F DUP2 PUSH2 0x10A2 JUMP JUMPDEST POP JUMP JUMPDEST PUSH1 0x1 DUP1 SLOAD PUSH1 0x1 PUSH1 0x1 PUSH1 0xA0 SHL SUB DUP4 DUP2 AND PUSH20 0xFFFFFFFFFFFFFFFFFFFFFFFFFFFFFFFFFFFFFFFF NOT DUP4 AND DUP2 OR SWAP1 SWAP4 SSTORE PUSH1 0x40 MLOAD SWAP2 AND SWAP2 SWAP1 DUP3 SWAP1 PUSH32 0x8BE0079C531659141344CD1FD0A4F28419497F9722A3DAAFE3B4186F6B6457E0 SWAP1 PUSH1 0x0 SWAP1 LOG3 POP POP JUMP JUMPDEST PUSH1 0x0 PUSH1 0x20 DUP3 DUP5 SUB SLT ISZERO PUSH2 0x1113 JUMPI PUSH1 0x0 DUP1 REVERT JUMPDEST DUP2 CALLDATALOAD PUSH1 0x1 PUSH1 0x1 PUSH1 0xA0 SHL SUB DUP2 AND DUP2 EQ PUSH2 0x112A JUMPI PUSH1 0x0 DUP1 REVERT JUMPDEST SWAP4 SWAP3 POP POP POP JUMP JUMPDEST PUSH1 0x0 PUSH1 0x20 DUP3 DUP5 SUB SLT ISZERO PUSH2 0x1143 JUMPI PUSH1 0x0 DUP1 REVERT JUMPDEST POP CALLDATALOAD SWAP2 SWAP1 POP JUMP JUMPDEST PUSH1 0x40 DUP1 DUP3 MSTORE DUP4 MLOAD SWAP1 DUP3 ADD DUP2 SWAP1 MSTORE PUSH1 0x0 SWAP1 PUSH1 0x20 SWAP1 PUSH1 0x60 DUP5 ADD SWAP1 DUP3 DUP8 ADD DUP5 JUMPDEST DUP3 DUP2 LT ISZERO PUSH2 0x118C JUMPI DUP2 MLOAD PUSH1 0x1 PUSH1 0x1 PUSH1 0xA0 SHL SUB AND DUP5 MSTORE SWAP3 DUP5 ADD SWAP3 SWAP1 DUP5 ADD SWAP1 PUSH1 0x1 ADD PUSH2 0x1167 JUMP JUMPDEST POP POP POP DUP4 DUP2 SUB DUP3 DUP6 ADD MSTORE DUP5 MLOAD DUP1 DUP3 MSTORE DUP6 DUP4 ADD SWAP2 DUP4 ADD SWAP1 PUSH1 0x0 JUMPDEST DUP2 DUP2 LT ISZERO PUSH2 0x11C1 JUMPI DUP4 MLOAD DUP4 MSTORE SWAP3 DUP5 ADD SWAP3 SWAP2 DUP5 ADD SWAP2 PUSH1 0x1 ADD PUSH2 0x11A5 JUMP JUMPDEST POP SWAP1 SWAP8 SWAP7 POP POP POP POP POP POP POP JUMP JUMPDEST PUSH4 0x4E487B71 PUSH1 0xE0 SHL PUSH1 0x0 MSTORE PUSH1 0x11 PUSH1 0x4 MSTORE PUSH1 0x24 PUSH1 0x0 REVERT JUMPDEST PUSH1 0x0 DUP3 DUP3 LT ISZERO PUSH2 0x11F6 JUMPI PUSH2 0x11F6 PUSH2 0x11CE JUMP JUMPDEST POP SUB SWAP1 JUMP JUMPDEST PUSH1 0x0 DUP2 PUSH1 0x0 NOT DIV DUP4 GT DUP3 ISZERO ISZERO AND ISZERO PUSH2 0x1215 JUMPI PUSH2 0x1215 PUSH2 0x11CE JUMP JUMPDEST POP MUL SWAP1 JUMP JUMPDEST PUSH1 0x0 DUP3 PUSH2 0x1237 JUMPI PUSH4 0x4E487B71 PUSH1 0xE0 SHL PUSH1 0x0 MSTORE PUSH1 0x12 PUSH1 0x4 MSTORE PUSH1 0x24 PUSH1 0x0 REVERT JUMPDEST POP DIV SWAP1 JUMP JUMPDEST PUSH1 0x0 DUP3 NOT DUP3 GT ISZERO PUSH2 0x124F JUMPI PUSH2 0x124F PUSH2 0x11CE JUMP JUMPDEST POP ADD SWAP1 JUMP JUMPDEST PUSH1 0x0 PUSH1 0x20 DUP3 DUP5 SUB SLT ISZERO PUSH2 0x1266 JUMPI PUSH1 0x0 DUP1 REVERT JUMPDEST POP MLOAD SWAP2 SWAP1 POP JUMP JUMPDEST PUSH1 0x0 PUSH1 0x20 DUP3 DUP5 SUB SLT ISZERO PUSH2 0x127F JUMPI PUSH1 0x0 DUP1 REVERT JUMPDEST DUP2 MLOAD DUP1 ISZERO ISZERO DUP2 EQ PUSH2 0x112A JUMPI PUSH1 0x0 DUP1 REVERT JUMPDEST PUSH4 0x4E487B71 PUSH1 0xE0 SHL PUSH1 0x0 MSTORE PUSH1 0x41 PUSH1 0x4 MSTORE PUSH1 0x24 PUSH1 0x0 REVERT JUMPDEST PUSH4 0x4E487B71 PUSH1 0xE0 SHL PUSH1 0x0 MSTORE PUSH1 0x32 PUSH1 0x4 MSTORE PUSH1 0x24 PUSH1 0x0 REVERT JUMPDEST PUSH1 0x0 PUSH1 0x1 DUP3 ADD PUSH2 0x12CD JUMPI PUSH2 0x12CD PUSH2 0x11CE JUMP JUMPDEST POP PUSH1 0x1 ADD SWAP1 JUMP INVALID LOG2 PUSH5 0x6970667358 0x22 SLT KECCAK256 ORIGIN SWAP9 PC SHR PUSH23 0x67C141E9C5A906016543BBDC6371A91A50719CC02A76C2 0xD8 LOG3 SELFBALANCE 0xEA PUSH5 0x736F6C6343 STOP ADDMOD 0xD STOP CALLER "
    },
    "gasEstimates": {
      "creation": {
        "codeDepositCost": "974800",
        "executionCost": "infinite",
        "totalCost": "infinite"
      },
      "external": {
        "REWARD_RATE()": "252",
        "addresses(uint256)": "4680",
        "claimReward()": "infinite",
        "earned(address)": "infinite",
        "getOwner()": "2415",
        "getRewardPerTokenStored()": "2371",
        "getRewardsTokensBalance(address)": "infinite",
        "getSender()": "302",
        "getStakableTokensBalance(address)": "infinite",
        "getStaked(address)": "2603",
        "getTotalRewardTokensSupply()": "infinite",
        "getTotalStakes()": "2348",
        "getTotalStakingTokensSupply()": "infinite",
        "getUsersRewards(address)": "infinite",
        "getUsersStaked(address)": "infinite",
        "isOwner(address)": "2589",
        "owner()": "2376",
        "renounceOwnership()": "28216",
        "rewardPerToken()": "infinite",
        "s_lastUpdateTime()": "2373",
        "s_rewardPerTokenStored()": "2374",
        "s_rewards(address)": "2518",
        "s_rewardsToken()": "2406",
        "s_stakes(address)": "2541",
        "s_stakingToken()": "2426",
        "s_userRewardPerTokenPaid(address)": "2561",
        "stake(uint256)": "infinite",
        "transferOwnership(address)": "28375",
        "withdraw(uint256)": "infinite"
      }
    },
    "methodIdentifiers": {
      "REWARD_RATE()": "5997bb37",
      "addresses(uint256)": "edf26d9b",
      "claimReward()": "b88a802f",
      "earned(address)": "008cc262",
      "getOwner()": "893d20e8",
      "getRewardPerTokenStored()": "8d869342",
      "getRewardsTokensBalance(address)": "675f457d",
      "getSender()": "5e01eb5a",
      "getStakableTokensBalance(address)": "43cbce3e",
      "getStaked(address)": "399080ec",
      "getTotalRewardTokensSupply()": "c9b1b70d",
      "getTotalStakes()": "68c33627",
      "getTotalStakingTokensSupply()": "0fda55b4",
      "getUsersRewards(address)": "c2f8498d",
      "getUsersStaked(address)": "c32726c2",
      "isOwner(address)": "2f54bf6e",
      "owner()": "8da5cb5b",
      "renounceOwnership()": "715018a6",
      "rewardPerToken()": "cd3daf9d",
      "s_lastUpdateTime()": "6aa0838f",
      "s_rewardPerTokenStored()": "304ac91b",
      "s_rewards(address)": "bea08151",
      "s_rewardsToken()": "0bd21c56",
      "s_stakes(address)": "8a877567",
      "s_stakingToken()": "adca9b72",
      "s_userRewardPerTokenPaid(address)": "f245ace4",
      "stake(uint256)": "a694fc3a",
      "transferOwnership(address)": "f2fde38b",
      "withdraw(uint256)": "2e1a7d4d"
    }
  },
  "storageLayout": {
    "storage": [
      {
        "astId": 716,
        "contract": "ERC20Staking.sol:Staking17",
        "label": "_status",
        "offset": 0,
        "slot": "0",
        "type": "t_uint256"
      },
      {
        "astId": 608,
        "contract": "ERC20Staking.sol:Staking17",
        "label": "_owner",
        "offset": 0,
        "slot": "1",
        "type": "t_address"
      },
      {
        "astId": 15,
        "contract": "ERC20Staking.sol:Staking17",
        "label": "s_rewardsToken",
        "offset": 0,
        "slot": "2",
        "type": "t_contract(IERC20)823"
      },
      {
        "astId": 18,
        "contract": "ERC20Staking.sol:Staking17",
        "label": "s_stakingToken",
        "offset": 0,
        "slot": "3",
        "type": "t_contract(IERC20)823"
      },
      {
        "astId": 23,
        "contract": "ERC20Staking.sol:Staking17",
        "label": "s_lastUpdateTime",
        "offset": 0,
        "slot": "4",
        "type": "t_uint256"
      },
      {
        "astId": 25,
        "contract": "ERC20Staking.sol:Staking17",
        "label": "s_rewardPerTokenStored",
        "offset": 0,
        "slot": "5",
        "type": "t_uint256"
      },
      {
        "astId": 28,
        "contract": "ERC20Staking.sol:Staking17",
        "label": "addresses",
        "offset": 0,
        "slot": "6",
        "type": "t_array(t_address)dyn_storage"
      },
      {
        "astId": 30,
        "contract": "ERC20Staking.sol:Staking17",
        "label": "s_totalSupply",
        "offset": 0,
        "slot": "7",
        "type": "t_uint256"
      },
      {
        "astId": 34,
        "contract": "ERC20Staking.sol:Staking17",
        "label": "s_userRewardPerTokenPaid",
        "offset": 0,
        "slot": "8",
        "type": "t_mapping(t_address,t_uint256)"
      },
      {
        "astId": 38,
        "contract": "ERC20Staking.sol:Staking17",
        "label": "s_rewards",
        "offset": 0,
        "slot": "9",
        "type": "t_mapping(t_address,t_uint256)"
      },
      {
        "astId": 42,
        "contract": "ERC20Staking.sol:Staking17",
        "label": "s_stakes",
        "offset": 0,
        "slot": "10",
        "type": "t_mapping(t_address,t_uint256)"
      }
    ],
    "types": {
      "t_address": {
        "encoding": "inplace",
        "label": "address",
        "numberOfBytes": "20"
      },
      "t_array(t_address)dyn_storage": {
        "base": "t_address",
        "encoding": "dynamic_array",
        "label": "address[]",
        "numberOfBytes": "32"
      },
      "t_contract(IERC20)823": {
        "encoding": "inplace",
        "label": "contract IERC20",
        "numberOfBytes": "20"
      },
      "t_mapping(t_address,t_uint256)": {
        "encoding": "mapping",
        "key": "t_address",
        "label": "mapping(address => uint256)",
        "numberOfBytes": "32",
        "value": "t_uint256"
      },
      "t_uint256": {
        "encoding": "inplace",
        "label": "uint256",
        "numberOfBytes": "32"
      }
    }
  },
  "userdoc": {
    "kind": "user",
    "methods": {
      "claimReward()": {
        "notice": "User claims their tokens"
      },
      "earned(address)": {
        "notice": "How much reward a user has earned"
      },
      "rewardPerToken()": {
        "notice": "How much reward a token gets based on how long it's been in and during which \"snapshots\""
      },
      "stake(uint256)": {
        "notice": "Deposit tokens into this contract"
      },
      "withdraw(uint256)": {
        "notice": "Withdraw tokens from this contract"
      }
    },
    "version": 1
  }
}