{
  "abi": [
    {
      "inputs": [
        {
          "internalType": "address",
          "name": "stakingToken",
          "type": "address"
        },
        {
          "internalType": "address",
          "name": "rewardsToken",
          "type": "address"
        }
      ],
      "stateMutability": "nonpayable",
      "type": "constructor"
    },
    {
      "inputs": [],
      "name": "NeedsMoreThanZero",
      "type": "error"
    },
    {
      "inputs": [],
      "name": "TransferFailed",
      "type": "error"
    },
    {
      "anonymous": false,
      "inputs": [
        {
          "indexed": true,
          "internalType": "address",
          "name": "previousOwner",
          "type": "address"
        },
        {
          "indexed": true,
          "internalType": "address",
          "name": "newOwner",
          "type": "address"
        }
      ],
      "name": "OwnershipTransferred",
      "type": "event"
    },
    {
      "anonymous": false,
      "inputs": [
        {
          "indexed": true,
          "internalType": "address",
          "name": "user",
          "type": "address"
        },
        {
          "indexed": true,
          "internalType": "uint256",
          "name": "amount",
          "type": "uint256"
        }
      ],
      "name": "RewardsClaimed",
      "type": "event"
    },
    {
      "anonymous": false,
      "inputs": [
        {
          "indexed": true,
          "internalType": "address",
          "name": "user",
          "type": "address"
        },
        {
          "indexed": true,
          "internalType": "uint256",
          "name": "amount",
          "type": "uint256"
        }
      ],
      "name": "Staked",
      "type": "event"
    },
    {
      "anonymous": false,
      "inputs": [
        {
          "indexed": true,
          "internalType": "address",
          "name": "user",
          "type": "address"
        },
        {
          "indexed": true,
          "internalType": "uint256",
          "name": "amount",
          "type": "uint256"
        }
      ],
      "name": "WithdrewStake",
      "type": "event"
    },
    {
      "inputs": [],
      "name": "REWARD_RATE",
      "outputs": [
        {
          "internalType": "uint256",
          "name": "",
          "type": "uint256"
        }
      ],
      "stateMutability": "view",
      "type": "function"
    },
    {
      "inputs": [],
      "name": "claimReward",
      "outputs": [],
      "stateMutability": "nonpayable",
      "type": "function"
    },
    {
      "inputs": [
        {
          "internalType": "address",
          "name": "account",
          "type": "address"
        }
      ],
      "name": "earned",
      "outputs": [
        {
          "internalType": "uint256",
          "name": "",
          "type": "uint256"
        }
      ],
      "stateMutability": "view",
      "type": "function"
    },
    {
      "inputs": [],
      "name": "getRewardPerTokenStored",
      "outputs": [
        {
          "internalType": "uint256",
          "name": "",
          "type": "uint256"
        }
      ],
      "stateMutability": "view",
      "type": "function"
    },
    {
      "inputs": [
        {
          "internalType": "address",
          "name": "account",
          "type": "address"
        }
      ],
      "name": "getRewardsTokensBalance",
      "outputs": [
        {
          "internalType": "uint256",
          "name": "",
          "type": "uint256"
        }
      ],
      "stateMutability": "view",
      "type": "function"
    },
    {
      "inputs": [],
      "name": "getSender",
      "outputs": [
        {
          "internalType": "address",
          "name": "",
          "type": "address"
        }
      ],
      "stateMutability": "view",
      "type": "function"
    },
    {
      "inputs": [
        {
          "internalType": "address",
          "name": "account",
          "type": "address"
        }
      ],
      "name": "getStakableTokensBalance",
      "outputs": [
        {
          "internalType": "uint256",
          "name": "",
          "type": "uint256"
        }
      ],
      "stateMutability": "view",
      "type": "function"
    },
    {
      "inputs": [
        {
          "internalType": "address",
          "name": "_stakeholder",
          "type": "address"
        }
      ],
      "name": "getStaked",
      "outputs": [
        {
          "internalType": "uint256",
          "name": "",
          "type": "uint256"
        }
      ],
      "stateMutability": "view",
      "type": "function"
    },
    {
      "inputs": [],
      "name": "getTotalRewardTokensSupply",
      "outputs": [
        {
          "internalType": "uint256",
          "name": "",
          "type": "uint256"
        }
      ],
      "stateMutability": "view",
      "type": "function"
    },
    {
      "inputs": [],
      "name": "getTotalStakes",
      "outputs": [
        {
          "internalType": "uint256",
          "name": "",
          "type": "uint256"
        }
      ],
      "stateMutability": "view",
      "type": "function"
    },
    {
      "inputs": [],
      "name": "getTotalStakingTokensSupply",
      "outputs": [
        {
          "internalType": "uint256",
          "name": "",
          "type": "uint256"
        }
      ],
      "stateMutability": "view",
      "type": "function"
    },
    {
      "inputs": [],
      "name": "owner",
      "outputs": [
        {
          "internalType": "address",
          "name": "",
          "type": "address"
        }
      ],
      "stateMutability": "view",
      "type": "function"
    },
    {
      "inputs": [],
      "name": "renounceOwnership",
      "outputs": [],
      "stateMutability": "nonpayable",
      "type": "function"
    },
    {
      "inputs": [],
      "name": "rewardPerToken",
      "outputs": [
        {
          "internalType": "uint256",
          "name": "",
          "type": "uint256"
        }
      ],
      "stateMutability": "view",
      "type": "function"
    },
    {
      "inputs": [],
      "name": "s_lastUpdateTime",
      "outputs": [
        {
          "internalType": "uint256",
          "name": "",
          "type": "uint256"
        }
      ],
      "stateMutability": "view",
      "type": "function"
    },
    {
      "inputs": [],
      "name": "s_rewardPerTokenStored",
      "outputs": [
        {
          "internalType": "uint256",
          "name": "",
          "type": "uint256"
        }
      ],
      "stateMutability": "view",
      "type": "function"
    },
    {
      "inputs": [
        {
          "internalType": "address",
          "name": "",
          "type": "address"
        }
      ],
      "name": "s_rewards",
      "outputs": [
        {
          "internalType": "uint256",
          "name": "",
          "type": "uint256"
        }
      ],
      "stateMutability": "view",
      "type": "function"
    },
    {
      "inputs": [],
      "name": "s_rewardsToken",
      "outputs": [
        {
          "internalType": "contract IERC20",
          "name": "",
          "type": "address"
        }
      ],
      "stateMutability": "view",
      "type": "function"
    },
    {
      "inputs": [
        {
          "internalType": "address",
          "name": "",
          "type": "address"
        }
      ],
      "name": "s_stakes",
      "outputs": [
        {
          "internalType": "uint256",
          "name": "",
          "type": "uint256"
        }
      ],
      "stateMutability": "view",
      "type": "function"
    },
    {
      "inputs": [],
      "name": "s_stakingToken",
      "outputs": [
        {
          "internalType": "contract IERC20",
          "name": "",
          "type": "address"
        }
      ],
      "stateMutability": "view",
      "type": "function"
    },
    {
      "inputs": [
        {
          "internalType": "address",
          "name": "",
          "type": "address"
        }
      ],
      "name": "s_userRewardPerTokenPaid",
      "outputs": [
        {
          "internalType": "uint256",
          "name": "",
          "type": "uint256"
        }
      ],
      "stateMutability": "view",
      "type": "function"
    },
    {
      "inputs": [
        {
          "internalType": "uint256",
          "name": "amount",
          "type": "uint256"
        }
      ],
      "name": "stake",
      "outputs": [],
      "stateMutability": "nonpayable",
      "type": "function"
    },
    {
      "inputs": [
        {
          "internalType": "address",
          "name": "newOwner",
          "type": "address"
        }
      ],
      "name": "transferOwnership",
      "outputs": [],
      "stateMutability": "nonpayable",
      "type": "function"
    },
    {
      "inputs": [
        {
          "internalType": "uint256",
          "name": "amount",
          "type": "uint256"
        }
      ],
      "name": "withdraw",
      "outputs": [],
      "stateMutability": "nonpayable",
      "type": "function"
    }
  ],
  "devdoc": {
    "kind": "dev",
    "methods": {
      "owner()": {
        "details": "Returns the address of the current owner."
      },
      "renounceOwnership()": {
        "details": "Leaves the contract without owner. It will not be possible to call `onlyOwner` functions anymore. Can only be called by the current owner. NOTE: Renouncing ownership will leave the contract without an owner, thereby removing any functionality that is only available to the owner."
      },
      "stake(uint256)": {
        "params": {
          "amount": "| How much to stake"
        }
      },
      "transferOwnership(address)": {
        "details": "Transfers ownership of the contract to a new account (`newOwner`). Can only be called by the current owner."
      },
      "withdraw(uint256)": {
        "params": {
          "amount": "| How much to withdraw"
        }
      }
    },
    "version": 1
  },
  "evm": {
    "assembly": "    /* \"ERC20Staking.sol\":283:5002  contract Staking14 is ReentrancyGuard, Ownable {... */\n  mstore(0x40, 0x80)\n    /* \"ERC20Staking.sol\":1216:1373  constructor(address stakingToken, address rewardsToken) {... */\n  callvalue\n  dup1\n  iszero\n  tag_1\n  jumpi\n  0x00\n  dup1\n  revert\ntag_1:\n  pop\n  mload(0x40)\n  sub(codesize, bytecodeSize)\n  dup1\n  bytecodeSize\n  dup4\n  codecopy\n  dup2\n  add\n  0x40\n  dup2\n  swap1\n  mstore\n  tag_2\n  swap2\n  tag_3\n  jump\t// in\ntag_2:\n    /* \"@openzeppelin/contracts/security/ReentrancyGuard.sol\":1701:1702   */\n  0x01\n    /* \"@openzeppelin/contracts/security/ReentrancyGuard.sol\":1806:1813   */\n  0x00\n    /* \"@openzeppelin/contracts/security/ReentrancyGuard.sol\":1806:1828   */\n  sstore\n    /* \"@openzeppelin/contracts/access/Ownable.sol\":921:953   */\n  tag_9\n    /* \"@openzeppelin/contracts/utils/Context.sol\":719:729   */\n  caller\n    /* \"@openzeppelin/contracts/access/Ownable.sol\":921:939   */\n  tag_12\n    /* \"@openzeppelin/contracts/access/Ownable.sol\":921:953   */\n  jump\t// in\ntag_9:\n    /* \"ERC20Staking.sol\":1282:1296  s_stakingToken */\n  0x03\n    /* \"ERC20Staking.sol\":1282:1319  s_stakingToken = IERC20(stakingToken) */\n  dup1\n  sload\n  sub(shl(0xa0, 0x01), 0x01)\n  swap4\n  dup5\n  and\n  not(sub(shl(0xa0, 0x01), 0x01))\n  swap2\n  dup3\n  and\n  or\n  swap1\n  swap2\n  sstore\n    /* \"ERC20Staking.sol\":1329:1343  s_rewardsToken */\n  0x02\n    /* \"ERC20Staking.sol\":1329:1366  s_rewardsToken = IERC20(rewardsToken) */\n  dup1\n  sload\n  swap3\n  swap1\n  swap4\n  and\n  swap2\n  and\n  or\n  swap1\n  sstore\n    /* \"ERC20Staking.sol\":283:5002  contract Staking14 is ReentrancyGuard, Ownable {... */\n  jump(tag_18)\n    /* \"@openzeppelin/contracts/access/Ownable.sol\":2270:2457   */\ntag_12:\n    /* \"@openzeppelin/contracts/access/Ownable.sol\":2362:2368   */\n  0x01\n  dup1\n  sload\n  sub(shl(0xa0, 0x01), 0x01)\n    /* \"@openzeppelin/contracts/access/Ownable.sol\":2378:2395   */\n  dup4\n  dup2\n  and\n  not(sub(shl(0xa0, 0x01), 0x01))\n  dup4\n  and\n  dup2\n  or\n  swap1\n  swap4\n  sstore\n    /* \"@openzeppelin/contracts/access/Ownable.sol\":2410:2450   */\n  mload(0x40)\n    /* \"@openzeppelin/contracts/access/Ownable.sol\":2362:2368   */\n  swap2\n  and\n  swap2\n    /* \"@openzeppelin/contracts/access/Ownable.sol\":2378:2395   */\n  swap1\n    /* \"@openzeppelin/contracts/access/Ownable.sol\":2362:2368   */\n  dup3\n  swap1\n    /* \"@openzeppelin/contracts/access/Ownable.sol\":2410:2450   */\n  0x8be0079c531659141344cd1fd0a4f28419497f9722a3daafe3b4186f6b6457e0\n  swap1\n    /* \"@openzeppelin/contracts/access/Ownable.sol\":2343:2359   */\n  0x00\n  swap1\n    /* \"@openzeppelin/contracts/access/Ownable.sol\":2410:2450   */\n  log3\n    /* \"@openzeppelin/contracts/access/Ownable.sol\":2333:2457   */\n  pop\n    /* \"@openzeppelin/contracts/access/Ownable.sol\":2270:2457   */\n  pop\n  jump\t// out\n    /* \"#utility.yul\":14:191   */\ntag_17:\n    /* \"#utility.yul\":93:106   */\n  dup1\n  mload\n  sub(shl(0xa0, 0x01), 0x01)\n    /* \"#utility.yul\":135:166   */\n  dup2\n  and\n    /* \"#utility.yul\":125:167   */\n  dup2\n  eq\n    /* \"#utility.yul\":115:185   */\n  tag_20\n  jumpi\n    /* \"#utility.yul\":181:182   */\n  0x00\n    /* \"#utility.yul\":178:179   */\n  dup1\n    /* \"#utility.yul\":171:183   */\n  revert\n    /* \"#utility.yul\":115:185   */\ntag_20:\n    /* \"#utility.yul\":14:191   */\n  swap2\n  swap1\n  pop\n  jump\t// out\n    /* \"#utility.yul\":196:489   */\ntag_3:\n    /* \"#utility.yul\":275:281   */\n  0x00\n    /* \"#utility.yul\":283:289   */\n  dup1\n    /* \"#utility.yul\":336:338   */\n  0x40\n    /* \"#utility.yul\":324:333   */\n  dup4\n    /* \"#utility.yul\":315:322   */\n  dup6\n    /* \"#utility.yul\":311:334   */\n  sub\n    /* \"#utility.yul\":307:339   */\n  slt\n    /* \"#utility.yul\":304:356   */\n  iszero\n  tag_22\n  jumpi\n    /* \"#utility.yul\":352:353   */\n  0x00\n    /* \"#utility.yul\":349:350   */\n  dup1\n    /* \"#utility.yul\":342:354   */\n  revert\n    /* \"#utility.yul\":304:356   */\ntag_22:\n    /* \"#utility.yul\":375:415   */\n  tag_23\n    /* \"#utility.yul\":405:414   */\n  dup4\n    /* \"#utility.yul\":375:415   */\n  tag_17\n  jump\t// in\ntag_23:\n    /* \"#utility.yul\":365:415   */\n  swap2\n  pop\n    /* \"#utility.yul\":434:483   */\n  tag_24\n    /* \"#utility.yul\":479:481   */\n  0x20\n    /* \"#utility.yul\":468:477   */\n  dup5\n    /* \"#utility.yul\":464:482   */\n  add\n    /* \"#utility.yul\":434:483   */\n  tag_17\n  jump\t// in\ntag_24:\n    /* \"#utility.yul\":424:483   */\n  swap1\n  pop\n    /* \"#utility.yul\":196:489   */\n  swap3\n  pop\n  swap3\n  swap1\n  pop\n  jump\t// out\ntag_18:\n    /* \"ERC20Staking.sol\":283:5002  contract Staking14 is ReentrancyGuard, Ownable {... */\n  dataSize(sub_0)\n  dup1\n  dataOffset(sub_0)\n  0x00\n  codecopy\n  0x00\n  return\nstop\n\nsub_0: assembly {\n        /* \"ERC20Staking.sol\":283:5002  contract Staking14 is ReentrancyGuard, Ownable {... */\n      mstore(0x40, 0x80)\n      callvalue\n      dup1\n      iszero\n      tag_1\n      jumpi\n      0x00\n      dup1\n      revert\n    tag_1:\n      pop\n      jumpi(tag_2, lt(calldatasize, 0x04))\n      shr(0xe0, calldataload(0x00))\n      dup1\n      0x715018a6\n      gt\n      tag_27\n      jumpi\n      dup1\n      0xb88a802f\n      gt\n      tag_28\n      jumpi\n      dup1\n      0xcd3daf9d\n      gt\n      tag_29\n      jumpi\n      dup1\n      0xcd3daf9d\n      eq\n      tag_24\n      jumpi\n      dup1\n      0xf245ace4\n      eq\n      tag_25\n      jumpi\n      dup1\n      0xf2fde38b\n      eq\n      tag_26\n      jumpi\n      0x00\n      dup1\n      revert\n    tag_29:\n      dup1\n      0xb88a802f\n      eq\n      tag_21\n      jumpi\n      dup1\n      0xbea08151\n      eq\n      tag_22\n      jumpi\n      dup1\n      0xc9b1b70d\n      eq\n      tag_23\n      jumpi\n      0x00\n      dup1\n      revert\n    tag_28:\n      dup1\n      0x8da5cb5b\n      gt\n      tag_30\n      jumpi\n      dup1\n      0x8da5cb5b\n      eq\n      tag_18\n      jumpi\n      dup1\n      0xa694fc3a\n      eq\n      tag_19\n      jumpi\n      dup1\n      0xadca9b72\n      eq\n      tag_20\n      jumpi\n      0x00\n      dup1\n      revert\n    tag_30:\n      dup1\n      0x715018a6\n      eq\n      tag_15\n      jumpi\n      dup1\n      0x8a877567\n      eq\n      tag_16\n      jumpi\n      dup1\n      0x8d869342\n      eq\n      tag_17\n      jumpi\n      0x00\n      dup1\n      revert\n    tag_27:\n      dup1\n      0x43cbce3e\n      gt\n      tag_31\n      jumpi\n      dup1\n      0x675f457d\n      gt\n      tag_32\n      jumpi\n      dup1\n      0x675f457d\n      eq\n      tag_12\n      jumpi\n      dup1\n      0x68c33627\n      eq\n      tag_13\n      jumpi\n      dup1\n      0x6aa0838f\n      eq\n      tag_14\n      jumpi\n      0x00\n      dup1\n      revert\n    tag_32:\n      dup1\n      0x43cbce3e\n      eq\n      tag_9\n      jumpi\n      dup1\n      0x5997bb37\n      eq\n      tag_10\n      jumpi\n      dup1\n      0x5e01eb5a\n      eq\n      tag_11\n      jumpi\n      0x00\n      dup1\n      revert\n    tag_31:\n      dup1\n      0x2e1a7d4d\n      gt\n      tag_33\n      jumpi\n      dup1\n      0x2e1a7d4d\n      eq\n      tag_6\n      jumpi\n      dup1\n      0x304ac91b\n      eq\n      tag_7\n      jumpi\n      dup1\n      0x399080ec\n      eq\n      tag_8\n      jumpi\n      0x00\n      dup1\n      revert\n    tag_33:\n      dup1\n      0x8cc262\n      eq\n      tag_3\n      jumpi\n      dup1\n      0x0bd21c56\n      eq\n      tag_4\n      jumpi\n      dup1\n      0x0fda55b4\n      eq\n      tag_5\n      jumpi\n    tag_2:\n      0x00\n      dup1\n      revert\n        /* \"ERC20Staking.sol\":1863:2068  function earned(address account) public view returns (uint256) {... */\n    tag_3:\n      tag_34\n      tag_35\n      calldatasize\n      0x04\n      tag_36\n      jump\t// in\n    tag_35:\n      tag_37\n      jump\t// in\n    tag_34:\n      mload(0x40)\n        /* \"#utility.yul\":474:499   */\n      swap1\n      dup2\n      mstore\n        /* \"#utility.yul\":462:464   */\n      0x20\n        /* \"#utility.yul\":447:465   */\n      add\n        /* \"ERC20Staking.sol\":1863:2068  function earned(address account) public view returns (uint256) {... */\n    tag_38:\n      mload(0x40)\n      dup1\n      swap2\n      sub\n      swap1\n      return\n        /* \"ERC20Staking.sol\":336:364  IERC20 public s_rewardsToken */\n    tag_4:\n      sload(0x02)\n      tag_40\n      swap1\n      sub(shl(0xa0, 0x01), 0x01)\n      and\n      dup2\n      jump\n    tag_40:\n      mload(0x40)\n      sub(shl(0xa0, 0x01), 0x01)\n        /* \"#utility.yul\":688:743   */\n      swap1\n      swap2\n      and\n        /* \"#utility.yul\":670:744   */\n      dup2\n      mstore\n        /* \"#utility.yul\":658:660   */\n      0x20\n        /* \"#utility.yul\":643:661   */\n      add\n        /* \"ERC20Staking.sol\":336:364  IERC20 public s_rewardsToken */\n      tag_38\n        /* \"#utility.yul\":510:750   */\n      jump\n        /* \"ERC20Staking.sol\":4580:4699  function getTotalStakingTokensSupply() public view returns (uint256) {... */\n    tag_5:\n      tag_34\n      tag_45\n      jump\t// in\n        /* \"ERC20Staking.sol\":2710:3058  function withdraw(uint256 amount) external updateReward(msg.sender) nonReentrant {... */\n    tag_6:\n      tag_47\n      tag_48\n      calldatasize\n      0x04\n      tag_49\n      jump\t// in\n    tag_48:\n      tag_50\n      jump\t// in\n    tag_47:\n      stop\n        /* \"ERC20Staking.sol\":764:801  uint256 public s_rewardPerTokenStored */\n    tag_7:\n      tag_34\n      sload(0x05)\n      dup2\n      jump\n        /* \"ERC20Staking.sol\":4050:4167  function getStaked(address _stakeholder) public view returns (uint256) {... */\n    tag_8:\n      tag_34\n      tag_55\n      calldatasize\n      0x04\n      tag_36\n      jump\t// in\n    tag_55:\n      sub(shl(0xa0, 0x01), 0x01)\n        /* \"ERC20Staking.sol\":4138:4160  s_stakes[_stakeholder] */\n      and\n        /* \"ERC20Staking.sol\":4112:4119  uint256 */\n      0x00\n        /* \"ERC20Staking.sol\":4138:4160  s_stakes[_stakeholder] */\n      swap1\n      dup2\n      mstore\n        /* \"ERC20Staking.sol\":4138:4146  s_stakes */\n      0x09\n        /* \"ERC20Staking.sol\":4138:4160  s_stakes[_stakeholder] */\n      0x20\n      mstore\n      0x40\n      swap1\n      keccak256\n      sload\n      swap1\n        /* \"ERC20Staking.sol\":4050:4167  function getStaked(address _stakeholder) public view returns (uint256) {... */\n      jump\n        /* \"ERC20Staking.sol\":4173:4309  function getStakableTokensBalance(address account) public view returns (uint256) {... */\n    tag_9:\n      tag_34\n      tag_59\n      calldatasize\n      0x04\n      tag_36\n      jump\t// in\n    tag_59:\n      tag_60\n      jump\t// in\n        /* \"ERC20Staking.sol\":680:721  uint256 public constant REWARD_RATE = 100 */\n    tag_10:\n      tag_34\n        /* \"ERC20Staking.sol\":718:721  100 */\n      0x64\n        /* \"ERC20Staking.sol\":680:721  uint256 public constant REWARD_RATE = 100 */\n      dup2\n      jump\n        /* \"ERC20Staking.sol\":4917:5000  function getSender() public view returns (address) {... */\n    tag_11:\n        /* \"ERC20Staking.sol\":4983:4993  msg.sender */\n      caller\n        /* \"ERC20Staking.sol\":4917:5000  function getSender() public view returns (address) {... */\n      jump(tag_40)\n        /* \"ERC20Staking.sol\":4315:4450  function getRewardsTokensBalance(address account) public view returns (uint256) {... */\n    tag_12:\n      tag_34\n      tag_70\n      calldatasize\n      0x04\n      tag_36\n      jump\t// in\n    tag_70:\n      tag_71\n      jump\t// in\n        /* \"ERC20Staking.sol\":4705:4796  function getTotalStakes() public view returns (uint256) {... */\n    tag_13:\n        /* \"ERC20Staking.sol\":4776:4789  s_totalSupply */\n      sload(0x06)\n        /* \"ERC20Staking.sol\":4705:4796  function getTotalStakes() public view returns (uint256) {... */\n      jump(tag_34)\n        /* \"ERC20Staking.sol\":727:758  uint256 public s_lastUpdateTime */\n    tag_14:\n      tag_34\n      sload(0x04)\n      dup2\n      jump\n        /* \"@openzeppelin/contracts/access/Ownable.sol\":1668:1769   */\n    tag_15:\n      tag_47\n      tag_80\n      jump\t// in\n        /* \"ERC20Staking.sol\":958:1001  mapping(address => uint256) public s_stakes */\n    tag_16:\n      tag_34\n      tag_82\n      calldatasize\n      0x04\n      tag_36\n      jump\t// in\n    tag_82:\n      mstore(0x20, 0x09)\n      0x00\n      swap1\n      dup2\n      mstore\n      0x40\n      swap1\n      keccak256\n      sload\n      dup2\n      jump\n        /* \"ERC20Staking.sol\":4802:4911  function getRewardPerTokenStored() public view returns (uint256) {... */\n    tag_17:\n        /* \"ERC20Staking.sol\":4882:4904  s_rewardPerTokenStored */\n      sload(0x05)\n        /* \"ERC20Staking.sol\":4802:4911  function getRewardPerTokenStored() public view returns (uint256) {... */\n      jump(tag_34)\n        /* \"@openzeppelin/contracts/access/Ownable.sol\":1036:1121   */\n    tag_18:\n        /* \"@openzeppelin/contracts/access/Ownable.sol\":1108:1114   */\n      and(sub(shl(0xa0, 0x01), 0x01), sload(0x01))\n        /* \"@openzeppelin/contracts/access/Ownable.sol\":1036:1121   */\n      jump(tag_40)\n        /* \"ERC20Staking.sol\":2180:2594  function stake(uint256 amount)... */\n    tag_19:\n      tag_47\n      tag_92\n      calldatasize\n      0x04\n      tag_49\n      jump\t// in\n    tag_92:\n      tag_93\n      jump\t// in\n        /* \"ERC20Staking.sol\":370:398  IERC20 public s_stakingToken */\n    tag_20:\n      sload(0x03)\n      tag_40\n      swap1\n      sub(shl(0xa0, 0x01), 0x01)\n      and\n      dup2\n      jump\n        /* \"ERC20Staking.sol\":3120:3468  function claimReward() external updateReward(msg.sender) nonReentrant {... */\n    tag_21:\n      tag_47\n      tag_98\n      jump\t// in\n        /* \"ERC20Staking.sol\":908:952  mapping(address => uint256) public s_rewards */\n    tag_22:\n      tag_34\n      tag_100\n      calldatasize\n      0x04\n      tag_36\n      jump\t// in\n    tag_100:\n      mstore(0x20, 0x08)\n      0x00\n      swap1\n      dup2\n      mstore\n      0x40\n      swap1\n      keccak256\n      sload\n      dup2\n      jump\n        /* \"ERC20Staking.sol\":4456:4574  function getTotalRewardTokensSupply() public view returns (uint256) {... */\n    tag_23:\n      tag_34\n      tag_104\n      jump\t// in\n        /* \"ERC20Staking.sol\":1499:1792  function rewardPerToken() public view returns (uint256) {... */\n    tag_24:\n      tag_34\n      tag_107\n      jump\t// in\n        /* \"ERC20Staking.sol\":843:902  mapping(address => uint256) public s_userRewardPerTokenPaid */\n    tag_25:\n      tag_34\n      tag_110\n      calldatasize\n      0x04\n      tag_36\n      jump\t// in\n    tag_110:\n      mstore(0x20, 0x07)\n      0x00\n      swap1\n      dup2\n      mstore\n      0x40\n      swap1\n      keccak256\n      sload\n      dup2\n      jump\n        /* \"@openzeppelin/contracts/access/Ownable.sol\":1918:2116   */\n    tag_26:\n      tag_47\n      tag_114\n      calldatasize\n      0x04\n      tag_36\n      jump\t// in\n    tag_114:\n      tag_115\n      jump\t// in\n        /* \"ERC20Staking.sol\":1863:2068  function earned(address account) public view returns (uint256) {... */\n    tag_37:\n      sub(shl(0xa0, 0x01), 0x01)\n        /* \"ERC20Staking.sol\":2043:2061  s_rewards[account] */\n      dup2\n      and\n        /* \"ERC20Staking.sol\":1917:1924  uint256 */\n      0x00\n        /* \"ERC20Staking.sol\":2043:2061  s_rewards[account] */\n      swap1\n      dup2\n      mstore\n        /* \"ERC20Staking.sol\":2043:2052  s_rewards */\n      0x08\n        /* \"ERC20Staking.sol\":2043:2061  s_rewards[account] */\n      0x20\n      swap1\n      dup2\n      mstore\n      0x40\n      dup1\n      dup4\n      keccak256\n      sload\n        /* \"ERC20Staking.sol\":1997:2021  s_userRewardPerTokenPaid */\n      0x07\n        /* \"ERC20Staking.sol\":1997:2030  s_userRewardPerTokenPaid[account] */\n      swap1\n      swap3\n      mstore\n      dup3\n      keccak256\n      sload\n        /* \"ERC20Staking.sol\":2035:2039  1e18 */\n      0x0de0b6b3a7640000\n      swap1\n        /* \"ERC20Staking.sol\":1978:1994  rewardPerToken() */\n      tag_117\n        /* \"ERC20Staking.sol\":1978:1992  rewardPerToken */\n      tag_107\n        /* \"ERC20Staking.sol\":1978:1994  rewardPerToken() */\n      jump\t// in\n    tag_117:\n        /* \"ERC20Staking.sol\":1978:2030  rewardPerToken() - s_userRewardPerTokenPaid[account] */\n      tag_118\n      swap2\n      swap1\n      tag_119\n      jump\t// in\n    tag_118:\n      sub(shl(0xa0, 0x01), 0x01)\n        /* \"ERC20Staking.sol\":1957:1974  s_stakes[account] */\n      dup6\n      and\n      0x00\n      swap1\n      dup2\n      mstore\n        /* \"ERC20Staking.sol\":1957:1965  s_stakes */\n      0x09\n        /* \"ERC20Staking.sol\":1957:1974  s_stakes[account] */\n      0x20\n      mstore\n      0x40\n      swap1\n      keccak256\n      sload\n        /* \"ERC20Staking.sol\":1957:2031  s_stakes[account] * (rewardPerToken() - s_userRewardPerTokenPaid[account]) */\n      tag_120\n      swap2\n      swap1\n      tag_121\n      jump\t// in\n    tag_120:\n        /* \"ERC20Staking.sol\":1956:2039  (s_stakes[account] * (rewardPerToken() - s_userRewardPerTokenPaid[account])) / 1e18 */\n      tag_122\n      swap2\n      swap1\n      tag_123\n      jump\t// in\n    tag_122:\n        /* \"ERC20Staking.sol\":1955:2061  ((s_stakes[account] * (rewardPerToken() - s_userRewardPerTokenPaid[account])) / 1e18) + s_rewards[account] */\n      tag_124\n      swap2\n      swap1\n      tag_125\n      jump\t// in\n    tag_124:\n        /* \"ERC20Staking.sol\":1936:2061  return... */\n      swap3\n        /* \"ERC20Staking.sol\":1863:2068  function earned(address account) public view returns (uint256) {... */\n      swap2\n      pop\n      pop\n      jump\t// out\n        /* \"ERC20Staking.sol\":4580:4699  function getTotalStakingTokensSupply() public view returns (uint256) {... */\n    tag_45:\n        /* \"ERC20Staking.sol\":4664:4678  s_stakingToken */\n      sload(0x03)\n        /* \"ERC20Staking.sol\":4664:4692  s_stakingToken.totalSupply() */\n      0x40\n      dup1\n      mload\n      shl(0xe0, 0x18160ddd)\n      dup2\n      mstore\n      swap1\n      mload\n        /* \"ERC20Staking.sol\":4640:4647  uint256 */\n      0x00\n      swap3\n      sub(shl(0xa0, 0x01), 0x01)\n        /* \"ERC20Staking.sol\":4664:4678  s_stakingToken */\n      and\n      swap2\n        /* \"ERC20Staking.sol\":4664:4690  s_stakingToken.totalSupply */\n      0x18160ddd\n      swap2\n        /* \"ERC20Staking.sol\":4664:4692  s_stakingToken.totalSupply() */\n      0x04\n      dup1\n      dup4\n      add\n      swap3\n      0x20\n      swap3\n      swap2\n      swap1\n      dup3\n      swap1\n      sub\n      add\n      dup2\n        /* \"ERC20Staking.sol\":4664:4678  s_stakingToken */\n      dup7\n        /* \"ERC20Staking.sol\":4664:4692  s_stakingToken.totalSupply() */\n      gas\n      staticcall\n      iszero\n      dup1\n      iszero\n      tag_128\n      jumpi\n      returndatasize\n      0x00\n      dup1\n      returndatacopy\n      revert(0x00, returndatasize)\n    tag_128:\n      pop\n      pop\n      pop\n      pop\n      mload(0x40)\n      returndatasize\n      not(0x1f)\n      0x1f\n      dup3\n      add\n      and\n      dup3\n      add\n      dup1\n      0x40\n      mstore\n      pop\n      dup2\n      add\n      swap1\n      tag_129\n      swap2\n      swap1\n      tag_130\n      jump\t// in\n    tag_129:\n        /* \"ERC20Staking.sol\":4657:4692  return s_stakingToken.totalSupply() */\n      swap1\n      pop\n        /* \"ERC20Staking.sol\":4580:4699  function getTotalStakingTokensSupply() public view returns (uint256) {... */\n      swap1\n      jump\t// out\n        /* \"ERC20Staking.sol\":2710:3058  function withdraw(uint256 amount) external updateReward(msg.sender) nonReentrant {... */\n    tag_50:\n        /* \"ERC20Staking.sol\":2766:2776  msg.sender */\n      caller\n        /* \"ERC20Staking.sol\":3632:3648  rewardPerToken() */\n      tag_132\n        /* \"ERC20Staking.sol\":3632:3646  rewardPerToken */\n      tag_107\n        /* \"ERC20Staking.sol\":3632:3648  rewardPerToken() */\n      jump\t// in\n    tag_132:\n        /* \"ERC20Staking.sol\":3607:3629  s_rewardPerTokenStored */\n      0x05\n        /* \"ERC20Staking.sol\":3607:3648  s_rewardPerTokenStored = rewardPerToken() */\n      sstore\n        /* \"ERC20Staking.sol\":3677:3692  block.timestamp */\n      timestamp\n        /* \"ERC20Staking.sol\":3658:3674  s_lastUpdateTime */\n      0x04\n        /* \"ERC20Staking.sol\":3658:3692  s_lastUpdateTime = block.timestamp */\n      sstore\n        /* \"ERC20Staking.sol\":3723:3738  earned(account) */\n      tag_133\n        /* \"ERC20Staking.sol\":3730:3737  account */\n      dup2\n        /* \"ERC20Staking.sol\":3723:3729  earned */\n      tag_37\n        /* \"ERC20Staking.sol\":3723:3738  earned(account) */\n      jump\t// in\n    tag_133:\n      sub(shl(0xa0, 0x01), 0x01)\n        /* \"ERC20Staking.sol\":3702:3720  s_rewards[account] */\n      dup3\n      and\n      0x00\n      swap1\n      dup2\n      mstore\n        /* \"ERC20Staking.sol\":3702:3711  s_rewards */\n      0x08\n        /* \"ERC20Staking.sol\":3702:3720  s_rewards[account] */\n      0x20\n      swap1\n      dup2\n      mstore\n      0x40\n      dup1\n      dup4\n      keccak256\n        /* \"ERC20Staking.sol\":3702:3738  s_rewards[account] = earned(account) */\n      swap4\n      swap1\n      swap4\n      sstore\n        /* \"ERC20Staking.sol\":3784:3806  s_rewardPerTokenStored */\n      sload(0x05)\n        /* \"ERC20Staking.sol\":3748:3772  s_userRewardPerTokenPaid */\n      0x07\n        /* \"ERC20Staking.sol\":3748:3781  s_userRewardPerTokenPaid[account] */\n      swap1\n      swap2\n      mstore\n      swap2\n      dup2\n      keccak256\n        /* \"ERC20Staking.sol\":3748:3806  s_userRewardPerTokenPaid[account] = s_rewardPerTokenStored */\n      swap2\n      swap1\n      swap2\n      sstore\n        /* \"@openzeppelin/contracts/security/ReentrancyGuard.sol\":2325:2332   */\n      sload\n      not(0x01)\n        /* \"@openzeppelin/contracts/security/ReentrancyGuard.sol\":2325:2344   */\n      add\n        /* \"@openzeppelin/contracts/security/ReentrancyGuard.sol\":2317:2380   */\n      tag_135\n      jumpi\n      mload(0x40)\n      shl(0xe5, 0x461bcd)\n      dup2\n      mstore\n        /* \"#utility.yul\":2352:2354   */\n      0x20\n        /* \"@openzeppelin/contracts/security/ReentrancyGuard.sol\":2317:2380   */\n      0x04\n      dup3\n      add\n        /* \"#utility.yul\":2334:2355   */\n      mstore\n        /* \"#utility.yul\":2391:2393   */\n      0x1f\n        /* \"#utility.yul\":2371:2389   */\n      0x24\n      dup3\n      add\n        /* \"#utility.yul\":2364:2394   */\n      mstore\n        /* \"#utility.yul\":2430:2463   */\n      0x5265656e7472616e637947756172643a207265656e7472616e742063616c6c00\n        /* \"#utility.yul\":2410:2428   */\n      0x44\n      dup3\n      add\n        /* \"#utility.yul\":2403:2464   */\n      mstore\n        /* \"#utility.yul\":2481:2499   */\n      0x64\n      add\n        /* \"@openzeppelin/contracts/security/ReentrancyGuard.sol\":2317:2380   */\n    tag_136:\n      mload(0x40)\n      dup1\n      swap2\n      sub\n      swap1\n      revert\n    tag_135:\n        /* \"@openzeppelin/contracts/security/ReentrancyGuard.sol\":1744:1745   */\n      0x02\n        /* \"@openzeppelin/contracts/security/ReentrancyGuard.sol\":2455:2462   */\n      0x00\n        /* \"@openzeppelin/contracts/security/ReentrancyGuard.sol\":2455:2473   */\n      dup2\n      swap1\n      sstore\n      pop\n        /* \"ERC20Staking.sol\":2818:2824  amount */\n      dup2\n        /* \"ERC20Staking.sol\":2801:2814  s_totalSupply */\n      0x06\n      0x00\n        /* \"ERC20Staking.sol\":2801:2824  s_totalSupply -= amount */\n      dup3\n      dup3\n      sload\n      tag_139\n      swap2\n      swap1\n      tag_119\n      jump\t// in\n    tag_139:\n      swap1\n      swap2\n      sstore\n      pop\n      pop\n        /* \"ERC20Staking.sol\":2843:2853  msg.sender */\n      caller\n        /* \"ERC20Staking.sol\":2834:2854  s_stakes[msg.sender] */\n      0x00\n      swap1\n      dup2\n      mstore\n        /* \"ERC20Staking.sol\":2834:2842  s_stakes */\n      0x09\n        /* \"ERC20Staking.sol\":2834:2854  s_stakes[msg.sender] */\n      0x20\n      mstore\n      0x40\n      dup2\n      keccak256\n        /* \"ERC20Staking.sol\":2834:2864  s_stakes[msg.sender] -= amount */\n      dup1\n      sload\n        /* \"ERC20Staking.sol\":2858:2864  amount */\n      dup5\n      swap3\n        /* \"ERC20Staking.sol\":2834:2854  s_stakes[msg.sender] */\n      swap1\n        /* \"ERC20Staking.sol\":2834:2864  s_stakes[msg.sender] -= amount */\n      tag_140\n      swap1\n        /* \"ERC20Staking.sol\":2858:2864  amount */\n      dup5\n      swap1\n        /* \"ERC20Staking.sol\":2834:2864  s_stakes[msg.sender] -= amount */\n      tag_119\n      jump\t// in\n    tag_140:\n      swap1\n      swap2\n      sstore\n      pop\n      pop\n        /* \"ERC20Staking.sol\":2879:2912  WithdrewStake(msg.sender, amount) */\n      mload(0x40)\n        /* \"ERC20Staking.sol\":2905:2911  amount */\n      dup3\n      swap1\n        /* \"ERC20Staking.sol\":2893:2903  msg.sender */\n      caller\n      swap1\n        /* \"ERC20Staking.sol\":2879:2912  WithdrewStake(msg.sender, amount) */\n      0x4cb6da433ea55f6e302b7bdbfeed740816a42301cde7f5bac5dff2b340376374\n      swap1\n      0x00\n      swap1\n      log3\n        /* \"ERC20Staking.sol\":2937:2951  s_stakingToken */\n      sload(0x03)\n        /* \"ERC20Staking.sol\":2937:2980  s_stakingToken.transfer(msg.sender, amount) */\n      mload(0x40)\n      shl(0xe0, 0xa9059cbb)\n      dup2\n      mstore\n        /* \"ERC20Staking.sol\":2961:2971  msg.sender */\n      caller\n        /* \"ERC20Staking.sol\":2937:2980  s_stakingToken.transfer(msg.sender, amount) */\n      0x04\n      dup3\n      add\n        /* \"#utility.yul\":2684:2758   */\n      mstore\n        /* \"#utility.yul\":2774:2792   */\n      0x24\n      dup2\n      add\n        /* \"#utility.yul\":2767:2801   */\n      dup5\n      swap1\n      mstore\n        /* \"ERC20Staking.sol\":2922:2934  bool success */\n      0x00\n      swap2\n      sub(shl(0xa0, 0x01), 0x01)\n        /* \"ERC20Staking.sol\":2937:2951  s_stakingToken */\n      and\n      swap1\n        /* \"ERC20Staking.sol\":2937:2960  s_stakingToken.transfer */\n      0xa9059cbb\n      swap1\n        /* \"#utility.yul\":2657:2675   */\n      0x44\n      add\n        /* \"ERC20Staking.sol\":2937:2980  s_stakingToken.transfer(msg.sender, amount) */\n    tag_141:\n      0x20\n      mload(0x40)\n      dup1\n      dup4\n      sub\n      dup2\n      0x00\n      dup8\n      gas\n      call\n      iszero\n      dup1\n      iszero\n      tag_144\n      jumpi\n      returndatasize\n      0x00\n      dup1\n      returndatacopy\n      revert(0x00, returndatasize)\n    tag_144:\n      pop\n      pop\n      pop\n      pop\n      mload(0x40)\n      returndatasize\n      not(0x1f)\n      0x1f\n      dup3\n      add\n      and\n      dup3\n      add\n      dup1\n      0x40\n      mstore\n      pop\n      dup2\n      add\n      swap1\n      tag_145\n      swap2\n      swap1\n      tag_146\n      jump\t// in\n    tag_145:\n        /* \"ERC20Staking.sol\":2922:2980  bool success = s_stakingToken.transfer(msg.sender, amount) */\n      swap1\n      pop\n        /* \"ERC20Staking.sol\":2995:3002  success */\n      dup1\n        /* \"ERC20Staking.sol\":2990:3052  if (!success) {... */\n      tag_147\n      jumpi\n        /* \"ERC20Staking.sol\":3025:3041  TransferFailed() */\n      mload(0x40)\n      shl(0xe3, 0x12171d83)\n      dup2\n      mstore\n      0x04\n      add\n      mload(0x40)\n      dup1\n      swap2\n      sub\n      swap1\n      revert\n        /* \"ERC20Staking.sol\":2990:3052  if (!success) {... */\n    tag_147:\n      pop\n      pop\n        /* \"@openzeppelin/contracts/security/ReentrancyGuard.sol\":1701:1702   */\n      0x01\n        /* \"@openzeppelin/contracts/security/ReentrancyGuard.sol\":2628:2635   */\n      0x00\n        /* \"@openzeppelin/contracts/security/ReentrancyGuard.sol\":2628:2650   */\n      sstore\n      pop\n        /* \"ERC20Staking.sol\":2710:3058  function withdraw(uint256 amount) external updateReward(msg.sender) nonReentrant {... */\n      jump\t// out\n        /* \"ERC20Staking.sol\":4173:4309  function getStakableTokensBalance(address account) public view returns (uint256) {... */\n    tag_60:\n        /* \"ERC20Staking.sol\":4269:4283  s_stakingToken */\n      sload(0x03)\n        /* \"ERC20Staking.sol\":4269:4302  s_stakingToken.balanceOf(account) */\n      mload(0x40)\n      shl(0xe0, 0x70a08231)\n      dup2\n      mstore\n      sub(shl(0xa0, 0x01), 0x01)\n        /* \"#utility.yul\":688:743   */\n      dup4\n      dup2\n      and\n        /* \"ERC20Staking.sol\":4269:4302  s_stakingToken.balanceOf(account) */\n      0x04\n      dup4\n      add\n        /* \"#utility.yul\":670:744   */\n      mstore\n        /* \"ERC20Staking.sol\":4245:4252  uint256 */\n      0x00\n      swap3\n        /* \"ERC20Staking.sol\":4269:4283  s_stakingToken */\n      and\n      swap1\n        /* \"ERC20Staking.sol\":4269:4293  s_stakingToken.balanceOf */\n      0x70a08231\n      swap1\n        /* \"#utility.yul\":643:661   */\n      0x24\n      add\n        /* \"ERC20Staking.sol\":4269:4302  s_stakingToken.balanceOf(account) */\n    tag_150:\n      0x20\n      mload(0x40)\n      dup1\n      dup4\n      sub\n      dup2\n      dup7\n      gas\n      staticcall\n      iszero\n      dup1\n      iszero\n      tag_152\n      jumpi\n      returndatasize\n      0x00\n      dup1\n      returndatacopy\n      revert(0x00, returndatasize)\n    tag_152:\n      pop\n      pop\n      pop\n      pop\n      mload(0x40)\n      returndatasize\n      not(0x1f)\n      0x1f\n      dup3\n      add\n      and\n      dup3\n      add\n      dup1\n      0x40\n      mstore\n      pop\n      dup2\n      add\n      swap1\n      tag_124\n      swap2\n      swap1\n      tag_130\n      jump\t// in\n        /* \"ERC20Staking.sol\":4315:4450  function getRewardsTokensBalance(address account) public view returns (uint256) {... */\n    tag_71:\n        /* \"ERC20Staking.sol\":4410:4424  s_rewardsToken */\n      sload(0x02)\n        /* \"ERC20Staking.sol\":4410:4443  s_rewardsToken.balanceOf(account) */\n      mload(0x40)\n      shl(0xe0, 0x70a08231)\n      dup2\n      mstore\n      sub(shl(0xa0, 0x01), 0x01)\n        /* \"#utility.yul\":688:743   */\n      dup4\n      dup2\n      and\n        /* \"ERC20Staking.sol\":4410:4443  s_rewardsToken.balanceOf(account) */\n      0x04\n      dup4\n      add\n        /* \"#utility.yul\":670:744   */\n      mstore\n        /* \"ERC20Staking.sol\":4386:4393  uint256 */\n      0x00\n      swap3\n        /* \"ERC20Staking.sol\":4410:4424  s_rewardsToken */\n      and\n      swap1\n        /* \"ERC20Staking.sol\":4410:4434  s_rewardsToken.balanceOf */\n      0x70a08231\n      swap1\n        /* \"#utility.yul\":643:661   */\n      0x24\n      add\n        /* \"ERC20Staking.sol\":4410:4443  s_rewardsToken.balanceOf(account) */\n      tag_150\n        /* \"#utility.yul\":510:750   */\n      jump\n        /* \"@openzeppelin/contracts/access/Ownable.sol\":1668:1769   */\n    tag_80:\n        /* \"@openzeppelin/contracts/access/Ownable.sol\":1108:1114   */\n      and(sub(shl(0xa0, 0x01), 0x01), sload(0x01))\n        /* \"ERC20Staking.sol\":4983:4993  msg.sender */\n      caller\n        /* \"@openzeppelin/contracts/access/Ownable.sol\":1248:1271   */\n      eq\n        /* \"@openzeppelin/contracts/access/Ownable.sol\":1240:1308   */\n      tag_165\n      jumpi\n      mload(0x40)\n      shl(0xe5, 0x461bcd)\n      dup2\n      mstore\n        /* \"#utility.yul\":3296:3298   */\n      0x20\n        /* \"@openzeppelin/contracts/access/Ownable.sol\":1240:1308   */\n      0x04\n      dup3\n      add\n        /* \"#utility.yul\":3278:3299   */\n      dup2\n      swap1\n      mstore\n        /* \"#utility.yul\":3315:3333   */\n      0x24\n      dup3\n      add\n        /* \"#utility.yul\":3308:3338   */\n      mstore\n        /* \"#utility.yul\":3374:3408   */\n      0x4f776e61626c653a2063616c6c6572206973206e6f7420746865206f776e6572\n        /* \"#utility.yul\":3354:3372   */\n      0x44\n      dup3\n      add\n        /* \"#utility.yul\":3347:3409   */\n      mstore\n        /* \"#utility.yul\":3426:3444   */\n      0x64\n      add\n        /* \"@openzeppelin/contracts/access/Ownable.sol\":1240:1308   */\n      tag_136\n        /* \"#utility.yul\":3094:3450   */\n      jump\n        /* \"@openzeppelin/contracts/access/Ownable.sol\":1240:1308   */\n    tag_165:\n        /* \"@openzeppelin/contracts/access/Ownable.sol\":1732:1762   */\n      tag_169\n        /* \"@openzeppelin/contracts/access/Ownable.sol\":1759:1760   */\n      0x00\n        /* \"@openzeppelin/contracts/access/Ownable.sol\":1732:1750   */\n      tag_170\n        /* \"@openzeppelin/contracts/access/Ownable.sol\":1732:1762   */\n      jump\t// in\n    tag_169:\n        /* \"@openzeppelin/contracts/access/Ownable.sol\":1668:1769   */\n      jump\t// out\n        /* \"ERC20Staking.sol\":2180:2594  function stake(uint256 amount)... */\n    tag_93:\n        /* \"ERC20Staking.sol\":2249:2259  msg.sender */\n      caller\n        /* \"ERC20Staking.sol\":3632:3648  rewardPerToken() */\n      tag_174\n        /* \"ERC20Staking.sol\":3632:3646  rewardPerToken */\n      tag_107\n        /* \"ERC20Staking.sol\":3632:3648  rewardPerToken() */\n      jump\t// in\n    tag_174:\n        /* \"ERC20Staking.sol\":3607:3629  s_rewardPerTokenStored */\n      0x05\n        /* \"ERC20Staking.sol\":3607:3648  s_rewardPerTokenStored = rewardPerToken() */\n      sstore\n        /* \"ERC20Staking.sol\":3677:3692  block.timestamp */\n      timestamp\n        /* \"ERC20Staking.sol\":3658:3674  s_lastUpdateTime */\n      0x04\n        /* \"ERC20Staking.sol\":3658:3692  s_lastUpdateTime = block.timestamp */\n      sstore\n        /* \"ERC20Staking.sol\":3723:3738  earned(account) */\n      tag_175\n        /* \"ERC20Staking.sol\":3730:3737  account */\n      dup2\n        /* \"ERC20Staking.sol\":3723:3729  earned */\n      tag_37\n        /* \"ERC20Staking.sol\":3723:3738  earned(account) */\n      jump\t// in\n    tag_175:\n      sub(shl(0xa0, 0x01), 0x01)\n        /* \"ERC20Staking.sol\":3702:3720  s_rewards[account] */\n      dup3\n      and\n      0x00\n      swap1\n      dup2\n      mstore\n        /* \"ERC20Staking.sol\":3702:3711  s_rewards */\n      0x08\n        /* \"ERC20Staking.sol\":3702:3720  s_rewards[account] */\n      0x20\n      swap1\n      dup2\n      mstore\n      0x40\n      dup1\n      dup4\n      keccak256\n        /* \"ERC20Staking.sol\":3702:3738  s_rewards[account] = earned(account) */\n      swap4\n      swap1\n      swap4\n      sstore\n        /* \"ERC20Staking.sol\":3784:3806  s_rewardPerTokenStored */\n      sload(0x05)\n        /* \"ERC20Staking.sol\":3748:3772  s_userRewardPerTokenPaid */\n      0x07\n        /* \"ERC20Staking.sol\":3748:3781  s_userRewardPerTokenPaid[account] */\n      swap1\n      swap2\n      mstore\n      swap2\n      dup2\n      keccak256\n        /* \"ERC20Staking.sol\":3748:3806  s_userRewardPerTokenPaid[account] = s_rewardPerTokenStored */\n      swap2\n      swap1\n      swap2\n      sstore\n        /* \"@openzeppelin/contracts/security/ReentrancyGuard.sol\":2325:2332   */\n      sload\n      not(0x01)\n        /* \"@openzeppelin/contracts/security/ReentrancyGuard.sol\":2325:2344   */\n      add\n        /* \"@openzeppelin/contracts/security/ReentrancyGuard.sol\":2317:2380   */\n      tag_177\n      jumpi\n      mload(0x40)\n      shl(0xe5, 0x461bcd)\n      dup2\n      mstore\n        /* \"#utility.yul\":2352:2354   */\n      0x20\n        /* \"@openzeppelin/contracts/security/ReentrancyGuard.sol\":2317:2380   */\n      0x04\n      dup3\n      add\n        /* \"#utility.yul\":2334:2355   */\n      mstore\n        /* \"#utility.yul\":2391:2393   */\n      0x1f\n        /* \"#utility.yul\":2371:2389   */\n      0x24\n      dup3\n      add\n        /* \"#utility.yul\":2364:2394   */\n      mstore\n        /* \"#utility.yul\":2430:2463   */\n      0x5265656e7472616e637947756172643a207265656e7472616e742063616c6c00\n        /* \"#utility.yul\":2410:2428   */\n      0x44\n      dup3\n      add\n        /* \"#utility.yul\":2403:2464   */\n      mstore\n        /* \"#utility.yul\":2481:2499   */\n      0x64\n      add\n        /* \"@openzeppelin/contracts/security/ReentrancyGuard.sol\":2317:2380   */\n      tag_136\n        /* \"#utility.yul\":2150:2505   */\n      jump\n        /* \"@openzeppelin/contracts/security/ReentrancyGuard.sol\":2317:2380   */\n    tag_177:\n        /* \"@openzeppelin/contracts/security/ReentrancyGuard.sol\":1744:1745   */\n      0x02\n        /* \"@openzeppelin/contracts/security/ReentrancyGuard.sol\":2455:2462   */\n      0x00\n        /* \"@openzeppelin/contracts/security/ReentrancyGuard.sol\":2455:2473   */\n      dup2\n      swap1\n      sstore\n      pop\n        /* \"ERC20Staking.sol\":2303:2309  amount */\n      dup2\n        /* \"ERC20Staking.sol\":3882:3888  amount */\n      dup1\n        /* \"ERC20Staking.sol\":3892:3893  0 */\n      0x00\n        /* \"ERC20Staking.sol\":3882:3893  amount == 0 */\n      sub\n        /* \"ERC20Staking.sol\":3878:3946  if (amount == 0) {... */\n      tag_180\n      jumpi\n        /* \"ERC20Staking.sol\":3916:3935  NeedsMoreThanZero() */\n      mload(0x40)\n      shl(0xe4, 0x0f45911f)\n      dup2\n      mstore\n      0x04\n      add\n      mload(0x40)\n      dup1\n      swap2\n      sub\n      swap1\n      revert\n        /* \"ERC20Staking.sol\":3878:3946  if (amount == 0) {... */\n    tag_180:\n        /* \"ERC20Staking.sol\":2342:2348  amount */\n      dup3\n        /* \"ERC20Staking.sol\":2325:2338  s_totalSupply */\n      0x06\n      0x00\n        /* \"ERC20Staking.sol\":2325:2348  s_totalSupply += amount */\n      dup3\n      dup3\n      sload\n      tag_182\n      swap2\n      swap1\n      tag_125\n      jump\t// in\n    tag_182:\n      swap1\n      swap2\n      sstore\n      pop\n      pop\n        /* \"ERC20Staking.sol\":2367:2377  msg.sender */\n      caller\n        /* \"ERC20Staking.sol\":2358:2378  s_stakes[msg.sender] */\n      0x00\n      swap1\n      dup2\n      mstore\n        /* \"ERC20Staking.sol\":2358:2366  s_stakes */\n      0x09\n        /* \"ERC20Staking.sol\":2358:2378  s_stakes[msg.sender] */\n      0x20\n      mstore\n      0x40\n      dup2\n      keccak256\n        /* \"ERC20Staking.sol\":2358:2388  s_stakes[msg.sender] += amount */\n      dup1\n      sload\n        /* \"ERC20Staking.sol\":2382:2388  amount */\n      dup6\n      swap3\n        /* \"ERC20Staking.sol\":2358:2378  s_stakes[msg.sender] */\n      swap1\n        /* \"ERC20Staking.sol\":2358:2388  s_stakes[msg.sender] += amount */\n      tag_183\n      swap1\n        /* \"ERC20Staking.sol\":2382:2388  amount */\n      dup5\n      swap1\n        /* \"ERC20Staking.sol\":2358:2388  s_stakes[msg.sender] += amount */\n      tag_125\n      jump\t// in\n    tag_183:\n      swap1\n      swap2\n      sstore\n      pop\n      pop\n        /* \"ERC20Staking.sol\":2403:2429  Staked(msg.sender, amount) */\n      mload(0x40)\n        /* \"ERC20Staking.sol\":2422:2428  amount */\n      dup4\n      swap1\n        /* \"ERC20Staking.sol\":2410:2420  msg.sender */\n      caller\n      swap1\n        /* \"ERC20Staking.sol\":2403:2429  Staked(msg.sender, amount) */\n      0x9e71bc8eea02a63969f509818f2dafb9254532904319f9dbda79b67bd34a5f3d\n      swap1\n      0x00\n      swap1\n      log3\n        /* \"ERC20Staking.sol\":2454:2468  s_stakingToken */\n      sload(0x03)\n        /* \"ERC20Staking.sol\":2454:2516  s_stakingToken.transferFrom(msg.sender, address(this), amount) */\n      mload(0x40)\n      shl(0xe0, 0x23b872dd)\n      dup2\n      mstore\n        /* \"ERC20Staking.sol\":2482:2492  msg.sender */\n      caller\n        /* \"ERC20Staking.sol\":2454:2516  s_stakingToken.transferFrom(msg.sender, address(this), amount) */\n      0x04\n      dup3\n      add\n        /* \"#utility.yul\":3718:3752   */\n      mstore\n        /* \"ERC20Staking.sol\":2502:2506  this */\n      address\n        /* \"#utility.yul\":3768:3786   */\n      0x24\n      dup3\n      add\n        /* \"#utility.yul\":3761:3804   */\n      mstore\n        /* \"#utility.yul\":3820:3838   */\n      0x44\n      dup2\n      add\n        /* \"#utility.yul\":3813:3847   */\n      dup6\n      swap1\n      mstore\n        /* \"ERC20Staking.sol\":2439:2451  bool success */\n      0x00\n      swap2\n      sub(shl(0xa0, 0x01), 0x01)\n        /* \"ERC20Staking.sol\":2454:2468  s_stakingToken */\n      and\n      swap1\n        /* \"ERC20Staking.sol\":2454:2481  s_stakingToken.transferFrom */\n      0x23b872dd\n      swap1\n        /* \"#utility.yul\":3630:3648   */\n      0x64\n      add\n        /* \"ERC20Staking.sol\":2454:2516  s_stakingToken.transferFrom(msg.sender, address(this), amount) */\n      0x20\n      mload(0x40)\n      dup1\n      dup4\n      sub\n      dup2\n      0x00\n      dup8\n      gas\n      call\n      iszero\n      dup1\n      iszero\n      tag_187\n      jumpi\n      returndatasize\n      0x00\n      dup1\n      returndatacopy\n      revert(0x00, returndatasize)\n    tag_187:\n      pop\n      pop\n      pop\n      pop\n      mload(0x40)\n      returndatasize\n      not(0x1f)\n      0x1f\n      dup3\n      add\n      and\n      dup3\n      add\n      dup1\n      0x40\n      mstore\n      pop\n      dup2\n      add\n      swap1\n      tag_188\n      swap2\n      swap1\n      tag_146\n      jump\t// in\n    tag_188:\n        /* \"ERC20Staking.sol\":2439:2516  bool success = s_stakingToken.transferFrom(msg.sender, address(this), amount) */\n      swap1\n      pop\n        /* \"ERC20Staking.sol\":2531:2538  success */\n      dup1\n        /* \"ERC20Staking.sol\":2526:2588  if (!success) {... */\n      tag_189\n      jumpi\n        /* \"ERC20Staking.sol\":2561:2577  TransferFailed() */\n      mload(0x40)\n      shl(0xe3, 0x12171d83)\n      dup2\n      mstore\n      0x04\n      add\n      mload(0x40)\n      dup1\n      swap2\n      sub\n      swap1\n      revert\n        /* \"ERC20Staking.sol\":2526:2588  if (!success) {... */\n    tag_189:\n      pop\n      pop\n        /* \"@openzeppelin/contracts/security/ReentrancyGuard.sol\":1701:1702   */\n      0x01\n        /* \"@openzeppelin/contracts/security/ReentrancyGuard.sol\":2628:2635   */\n      0x00\n        /* \"@openzeppelin/contracts/security/ReentrancyGuard.sol\":2628:2650   */\n      sstore\n      pop\n      pop\n        /* \"ERC20Staking.sol\":2180:2594  function stake(uint256 amount)... */\n      jump\t// out\n        /* \"ERC20Staking.sol\":3120:3468  function claimReward() external updateReward(msg.sender) nonReentrant {... */\n    tag_98:\n        /* \"ERC20Staking.sol\":3165:3175  msg.sender */\n      caller\n        /* \"ERC20Staking.sol\":3632:3648  rewardPerToken() */\n      tag_191\n        /* \"ERC20Staking.sol\":3632:3646  rewardPerToken */\n      tag_107\n        /* \"ERC20Staking.sol\":3632:3648  rewardPerToken() */\n      jump\t// in\n    tag_191:\n        /* \"ERC20Staking.sol\":3607:3629  s_rewardPerTokenStored */\n      0x05\n        /* \"ERC20Staking.sol\":3607:3648  s_rewardPerTokenStored = rewardPerToken() */\n      sstore\n        /* \"ERC20Staking.sol\":3677:3692  block.timestamp */\n      timestamp\n        /* \"ERC20Staking.sol\":3658:3674  s_lastUpdateTime */\n      0x04\n        /* \"ERC20Staking.sol\":3658:3692  s_lastUpdateTime = block.timestamp */\n      sstore\n        /* \"ERC20Staking.sol\":3723:3738  earned(account) */\n      tag_192\n        /* \"ERC20Staking.sol\":3730:3737  account */\n      dup2\n        /* \"ERC20Staking.sol\":3723:3729  earned */\n      tag_37\n        /* \"ERC20Staking.sol\":3723:3738  earned(account) */\n      jump\t// in\n    tag_192:\n      sub(shl(0xa0, 0x01), 0x01)\n        /* \"ERC20Staking.sol\":3702:3720  s_rewards[account] */\n      dup3\n      and\n      0x00\n      swap1\n      dup2\n      mstore\n        /* \"ERC20Staking.sol\":3702:3711  s_rewards */\n      0x08\n        /* \"ERC20Staking.sol\":3702:3720  s_rewards[account] */\n      0x20\n      swap1\n      dup2\n      mstore\n      0x40\n      dup1\n      dup4\n      keccak256\n        /* \"ERC20Staking.sol\":3702:3738  s_rewards[account] = earned(account) */\n      swap4\n      swap1\n      swap4\n      sstore\n        /* \"ERC20Staking.sol\":3784:3806  s_rewardPerTokenStored */\n      sload(0x05)\n        /* \"ERC20Staking.sol\":3748:3772  s_userRewardPerTokenPaid */\n      0x07\n        /* \"ERC20Staking.sol\":3748:3781  s_userRewardPerTokenPaid[account] */\n      swap1\n      swap2\n      mstore\n      swap2\n      dup2\n      keccak256\n        /* \"ERC20Staking.sol\":3748:3806  s_userRewardPerTokenPaid[account] = s_rewardPerTokenStored */\n      swap2\n      swap1\n      swap2\n      sstore\n        /* \"@openzeppelin/contracts/security/ReentrancyGuard.sol\":2325:2332   */\n      sload\n      not(0x01)\n        /* \"@openzeppelin/contracts/security/ReentrancyGuard.sol\":2325:2344   */\n      add\n        /* \"@openzeppelin/contracts/security/ReentrancyGuard.sol\":2317:2380   */\n      tag_194\n      jumpi\n      mload(0x40)\n      shl(0xe5, 0x461bcd)\n      dup2\n      mstore\n        /* \"#utility.yul\":2352:2354   */\n      0x20\n        /* \"@openzeppelin/contracts/security/ReentrancyGuard.sol\":2317:2380   */\n      0x04\n      dup3\n      add\n        /* \"#utility.yul\":2334:2355   */\n      mstore\n        /* \"#utility.yul\":2391:2393   */\n      0x1f\n        /* \"#utility.yul\":2371:2389   */\n      0x24\n      dup3\n      add\n        /* \"#utility.yul\":2364:2394   */\n      mstore\n        /* \"#utility.yul\":2430:2463   */\n      0x5265656e7472616e637947756172643a207265656e7472616e742063616c6c00\n        /* \"#utility.yul\":2410:2428   */\n      0x44\n      dup3\n      add\n        /* \"#utility.yul\":2403:2464   */\n      mstore\n        /* \"#utility.yul\":2481:2499   */\n      0x64\n      add\n        /* \"@openzeppelin/contracts/security/ReentrancyGuard.sol\":2317:2380   */\n      tag_136\n        /* \"#utility.yul\":2150:2505   */\n      jump\n        /* \"@openzeppelin/contracts/security/ReentrancyGuard.sol\":2317:2380   */\n    tag_194:\n        /* \"@openzeppelin/contracts/security/ReentrancyGuard.sol\":1744:1745   */\n      0x02\n        /* \"@openzeppelin/contracts/security/ReentrancyGuard.sol\":2455:2462   */\n      0x00\n        /* \"@openzeppelin/contracts/security/ReentrancyGuard.sol\":2455:2473   */\n      swap1\n      dup2\n      sstore\n        /* \"ERC20Staking.sol\":3227:3237  msg.sender */\n      caller\n        /* \"ERC20Staking.sol\":3217:3238  s_rewards[msg.sender] */\n      dup1\n      dup3\n      mstore\n        /* \"ERC20Staking.sol\":3217:3226  s_rewards */\n      0x08\n        /* \"ERC20Staking.sol\":3217:3238  s_rewards[msg.sender] */\n      0x20\n      mstore\n      0x40\n      dup1\n      dup4\n      keccak256\n      dup1\n      sload\n        /* \"ERC20Staking.sol\":3248:3273  s_rewards[msg.sender] = 0 */\n      swap1\n      dup5\n      swap1\n      sstore\n        /* \"ERC20Staking.sol\":3288:3322  RewardsClaimed(msg.sender, reward) */\n      swap1\n      mload\n        /* \"ERC20Staking.sol\":3217:3238  s_rewards[msg.sender] */\n      swap1\n      swap3\n      dup4\n      swap3\n        /* \"ERC20Staking.sol\":3227:3237  msg.sender */\n      swap2\n        /* \"ERC20Staking.sol\":3288:3322  RewardsClaimed(msg.sender, reward) */\n      0xfc30cddea38e2bf4d6ea7d3f9ed3b6ad7f176419f4963bd81318067a4aee73fe\n      swap2\n        /* \"@openzeppelin/contracts/security/ReentrancyGuard.sol\":2455:2462   */\n      swap1\n        /* \"ERC20Staking.sol\":3288:3322  RewardsClaimed(msg.sender, reward) */\n      log3\n        /* \"ERC20Staking.sol\":3347:3361  s_rewardsToken */\n      sload(0x02)\n        /* \"ERC20Staking.sol\":3347:3390  s_rewardsToken.transfer(msg.sender, reward) */\n      mload(0x40)\n      shl(0xe0, 0xa9059cbb)\n      dup2\n      mstore\n        /* \"ERC20Staking.sol\":3371:3381  msg.sender */\n      caller\n        /* \"ERC20Staking.sol\":3347:3390  s_rewardsToken.transfer(msg.sender, reward) */\n      0x04\n      dup3\n      add\n        /* \"#utility.yul\":2684:2758   */\n      mstore\n        /* \"#utility.yul\":2774:2792   */\n      0x24\n      dup2\n      add\n        /* \"#utility.yul\":2767:2801   */\n      dup4\n      swap1\n      mstore\n        /* \"ERC20Staking.sol\":3332:3344  bool success */\n      0x00\n      swap2\n      sub(shl(0xa0, 0x01), 0x01)\n        /* \"ERC20Staking.sol\":3347:3361  s_rewardsToken */\n      and\n      swap1\n        /* \"ERC20Staking.sol\":3347:3370  s_rewardsToken.transfer */\n      0xa9059cbb\n      swap1\n        /* \"#utility.yul\":2657:2675   */\n      0x44\n      add\n        /* \"ERC20Staking.sol\":3347:3390  s_rewardsToken.transfer(msg.sender, reward) */\n      tag_141\n        /* \"#utility.yul\":2510:2807   */\n      jump\n        /* \"ERC20Staking.sol\":4456:4574  function getTotalRewardTokensSupply() public view returns (uint256) {... */\n    tag_104:\n        /* \"ERC20Staking.sol\":4539:4553  s_rewardsToken */\n      sload(0x02)\n        /* \"ERC20Staking.sol\":4539:4567  s_rewardsToken.totalSupply() */\n      0x40\n      dup1\n      mload\n      shl(0xe0, 0x18160ddd)\n      dup2\n      mstore\n      swap1\n      mload\n        /* \"ERC20Staking.sol\":4515:4522  uint256 */\n      0x00\n      swap3\n      sub(shl(0xa0, 0x01), 0x01)\n        /* \"ERC20Staking.sol\":4539:4553  s_rewardsToken */\n      and\n      swap2\n        /* \"ERC20Staking.sol\":4539:4565  s_rewardsToken.totalSupply */\n      0x18160ddd\n      swap2\n        /* \"ERC20Staking.sol\":4539:4567  s_rewardsToken.totalSupply() */\n      0x04\n      dup1\n      dup4\n      add\n      swap3\n      0x20\n      swap3\n      swap2\n      swap1\n      dup3\n      swap1\n      sub\n      add\n      dup2\n        /* \"ERC20Staking.sol\":4539:4553  s_rewardsToken */\n      dup7\n        /* \"ERC20Staking.sol\":4539:4567  s_rewardsToken.totalSupply() */\n      gas\n      staticcall\n      iszero\n      dup1\n      iszero\n      tag_128\n      jumpi\n      returndatasize\n      0x00\n      dup1\n      returndatacopy\n      revert(0x00, returndatasize)\n        /* \"ERC20Staking.sol\":1499:1792  function rewardPerToken() public view returns (uint256) {... */\n    tag_107:\n        /* \"ERC20Staking.sol\":1546:1553  uint256 */\n      0x00\n        /* \"ERC20Staking.sol\":1569:1582  s_totalSupply */\n      sload(0x06)\n        /* \"ERC20Staking.sol\":1586:1587  0 */\n      0x00\n        /* \"ERC20Staking.sol\":1569:1587  s_totalSupply == 0 */\n      sub\n        /* \"ERC20Staking.sol\":1565:1643  if (s_totalSupply == 0) {... */\n      tag_207\n      jumpi\n      pop\n        /* \"ERC20Staking.sol\":1610:1632  s_rewardPerTokenStored */\n      sload(0x05)\n      swap1\n        /* \"ERC20Staking.sol\":1499:1792  function rewardPerToken() public view returns (uint256) {... */\n      jump\t// out\n        /* \"ERC20Staking.sol\":1565:1643  if (s_totalSupply == 0) {... */\n    tag_207:\n        /* \"ERC20Staking.sol\":1771:1784  s_totalSupply */\n      sload(0x06)\n        /* \"ERC20Staking.sol\":718:721  100 */\n      0x64\n        /* \"ERC20Staking.sol\":1729:1745  s_lastUpdateTime */\n      sload(0x04)\n        /* \"ERC20Staking.sol\":1711:1726  block.timestamp */\n      timestamp\n        /* \"ERC20Staking.sol\":1711:1745  block.timestamp - s_lastUpdateTime */\n      tag_208\n      swap2\n      swap1\n      tag_119\n      jump\t// in\n    tag_208:\n        /* \"ERC20Staking.sol\":1710:1760  (block.timestamp - s_lastUpdateTime) * REWARD_RATE */\n      tag_209\n      swap2\n      swap1\n      tag_121\n      jump\t// in\n    tag_209:\n        /* \"ERC20Staking.sol\":1710:1767  (block.timestamp - s_lastUpdateTime) * REWARD_RATE * 1e18 */\n      tag_210\n      swap1\n        /* \"ERC20Staking.sol\":1763:1767  1e18 */\n      0x0de0b6b3a7640000\n        /* \"ERC20Staking.sol\":1710:1767  (block.timestamp - s_lastUpdateTime) * REWARD_RATE * 1e18 */\n      tag_121\n      jump\t// in\n    tag_210:\n        /* \"ERC20Staking.sol\":1709:1784  ((block.timestamp - s_lastUpdateTime) * REWARD_RATE * 1e18) / s_totalSupply */\n      tag_211\n      swap2\n      swap1\n      tag_123\n      jump\t// in\n    tag_211:\n        /* \"ERC20Staking.sol\":1671:1693  s_rewardPerTokenStored */\n      sload(0x05)\n        /* \"ERC20Staking.sol\":1671:1785  s_rewardPerTokenStored +... */\n      tag_129\n      swap2\n      swap1\n      tag_125\n      jump\t// in\n        /* \"@openzeppelin/contracts/access/Ownable.sol\":1918:2116   */\n    tag_115:\n        /* \"@openzeppelin/contracts/access/Ownable.sol\":1108:1114   */\n      and(sub(shl(0xa0, 0x01), 0x01), sload(0x01))\n        /* \"ERC20Staking.sol\":4983:4993  msg.sender */\n      caller\n        /* \"@openzeppelin/contracts/access/Ownable.sol\":1248:1271   */\n      eq\n        /* \"@openzeppelin/contracts/access/Ownable.sol\":1240:1308   */\n      tag_216\n      jumpi\n      mload(0x40)\n      shl(0xe5, 0x461bcd)\n      dup2\n      mstore\n        /* \"#utility.yul\":3296:3298   */\n      0x20\n        /* \"@openzeppelin/contracts/access/Ownable.sol\":1240:1308   */\n      0x04\n      dup3\n      add\n        /* \"#utility.yul\":3278:3299   */\n      dup2\n      swap1\n      mstore\n        /* \"#utility.yul\":3315:3333   */\n      0x24\n      dup3\n      add\n        /* \"#utility.yul\":3308:3338   */\n      mstore\n        /* \"#utility.yul\":3374:3408   */\n      0x4f776e61626c653a2063616c6c6572206973206e6f7420746865206f776e6572\n        /* \"#utility.yul\":3354:3372   */\n      0x44\n      dup3\n      add\n        /* \"#utility.yul\":3347:3409   */\n      mstore\n        /* \"#utility.yul\":3426:3444   */\n      0x64\n      add\n        /* \"@openzeppelin/contracts/access/Ownable.sol\":1240:1308   */\n      tag_136\n        /* \"#utility.yul\":3094:3450   */\n      jump\n        /* \"@openzeppelin/contracts/access/Ownable.sol\":1240:1308   */\n    tag_216:\n      sub(shl(0xa0, 0x01), 0x01)\n        /* \"@openzeppelin/contracts/access/Ownable.sol\":2006:2028   */\n      dup2\n      and\n        /* \"@openzeppelin/contracts/access/Ownable.sol\":1998:2071   */\n      tag_219\n      jumpi\n      mload(0x40)\n      shl(0xe5, 0x461bcd)\n      dup2\n      mstore\n        /* \"#utility.yul\":4060:4062   */\n      0x20\n        /* \"@openzeppelin/contracts/access/Ownable.sol\":1998:2071   */\n      0x04\n      dup3\n      add\n        /* \"#utility.yul\":4042:4063   */\n      mstore\n        /* \"#utility.yul\":4099:4101   */\n      0x26\n        /* \"#utility.yul\":4079:4097   */\n      0x24\n      dup3\n      add\n        /* \"#utility.yul\":4072:4102   */\n      mstore\n        /* \"#utility.yul\":4138:4172   */\n      0x4f776e61626c653a206e6577206f776e657220697320746865207a65726f2061\n        /* \"#utility.yul\":4118:4136   */\n      0x44\n      dup3\n      add\n        /* \"#utility.yul\":4111:4173   */\n      mstore\n        /* \"#utility.yul\":4209:4217   */\n      0x6464726573730000000000000000000000000000000000000000000000000000\n        /* \"#utility.yul\":4189:4207   */\n      0x64\n      dup3\n      add\n        /* \"#utility.yul\":4182:4218   */\n      mstore\n        /* \"#utility.yul\":4235:4254   */\n      0x84\n      add\n        /* \"@openzeppelin/contracts/access/Ownable.sol\":1998:2071   */\n      tag_136\n        /* \"#utility.yul\":3858:4260   */\n      jump\n        /* \"@openzeppelin/contracts/access/Ownable.sol\":1998:2071   */\n    tag_219:\n        /* \"@openzeppelin/contracts/access/Ownable.sol\":2081:2109   */\n      tag_222\n        /* \"@openzeppelin/contracts/access/Ownable.sol\":2100:2108   */\n      dup2\n        /* \"@openzeppelin/contracts/access/Ownable.sol\":2081:2099   */\n      tag_170\n        /* \"@openzeppelin/contracts/access/Ownable.sol\":2081:2109   */\n      jump\t// in\n    tag_222:\n        /* \"@openzeppelin/contracts/access/Ownable.sol\":1918:2116   */\n      pop\n      jump\t// out\n        /* \"@openzeppelin/contracts/access/Ownable.sol\":2270:2457   */\n    tag_170:\n        /* \"@openzeppelin/contracts/access/Ownable.sol\":2362:2368   */\n      0x01\n      dup1\n      sload\n      sub(shl(0xa0, 0x01), 0x01)\n        /* \"@openzeppelin/contracts/access/Ownable.sol\":2378:2395   */\n      dup4\n      dup2\n      and\n      0xffffffffffffffffffffffff0000000000000000000000000000000000000000\n      dup4\n      and\n      dup2\n      or\n      swap1\n      swap4\n      sstore\n        /* \"@openzeppelin/contracts/access/Ownable.sol\":2410:2450   */\n      mload(0x40)\n        /* \"@openzeppelin/contracts/access/Ownable.sol\":2362:2368   */\n      swap2\n      and\n      swap2\n        /* \"@openzeppelin/contracts/access/Ownable.sol\":2378:2395   */\n      swap1\n        /* \"@openzeppelin/contracts/access/Ownable.sol\":2362:2368   */\n      dup3\n      swap1\n        /* \"@openzeppelin/contracts/access/Ownable.sol\":2410:2450   */\n      0x8be0079c531659141344cd1fd0a4f28419497f9722a3daafe3b4186f6b6457e0\n      swap1\n        /* \"@openzeppelin/contracts/access/Ownable.sol\":2343:2359   */\n      0x00\n      swap1\n        /* \"@openzeppelin/contracts/access/Ownable.sol\":2410:2450   */\n      log3\n        /* \"@openzeppelin/contracts/access/Ownable.sol\":2333:2457   */\n      pop\n        /* \"@openzeppelin/contracts/access/Ownable.sol\":2270:2457   */\n      pop\n      jump\t// out\n        /* \"#utility.yul\":14:323   */\n    tag_36:\n        /* \"#utility.yul\":73:79   */\n      0x00\n        /* \"#utility.yul\":126:128   */\n      0x20\n        /* \"#utility.yul\":114:123   */\n      dup3\n        /* \"#utility.yul\":105:112   */\n      dup5\n        /* \"#utility.yul\":101:124   */\n      sub\n        /* \"#utility.yul\":97:129   */\n      slt\n        /* \"#utility.yul\":94:146   */\n      iszero\n      tag_228\n      jumpi\n        /* \"#utility.yul\":142:143   */\n      0x00\n        /* \"#utility.yul\":139:140   */\n      dup1\n        /* \"#utility.yul\":132:144   */\n      revert\n        /* \"#utility.yul\":94:146   */\n    tag_228:\n        /* \"#utility.yul\":181:190   */\n      dup2\n        /* \"#utility.yul\":168:191   */\n      calldataload\n      sub(shl(0xa0, 0x01), 0x01)\n        /* \"#utility.yul\":224:229   */\n      dup2\n        /* \"#utility.yul\":220:274   */\n      and\n        /* \"#utility.yul\":213:218   */\n      dup2\n        /* \"#utility.yul\":210:275   */\n      eq\n        /* \"#utility.yul\":200:293   */\n      tag_229\n      jumpi\n        /* \"#utility.yul\":289:290   */\n      0x00\n        /* \"#utility.yul\":286:287   */\n      dup1\n        /* \"#utility.yul\":279:291   */\n      revert\n        /* \"#utility.yul\":200:293   */\n    tag_229:\n        /* \"#utility.yul\":312:317   */\n      swap4\n        /* \"#utility.yul\":14:323   */\n      swap3\n      pop\n      pop\n      pop\n      jump\t// out\n        /* \"#utility.yul\":755:935   */\n    tag_49:\n        /* \"#utility.yul\":814:820   */\n      0x00\n        /* \"#utility.yul\":867:869   */\n      0x20\n        /* \"#utility.yul\":855:864   */\n      dup3\n        /* \"#utility.yul\":846:853   */\n      dup5\n        /* \"#utility.yul\":842:865   */\n      sub\n        /* \"#utility.yul\":838:870   */\n      slt\n        /* \"#utility.yul\":835:887   */\n      iszero\n      tag_233\n      jumpi\n        /* \"#utility.yul\":883:884   */\n      0x00\n        /* \"#utility.yul\":880:881   */\n      dup1\n        /* \"#utility.yul\":873:885   */\n      revert\n        /* \"#utility.yul\":835:887   */\n    tag_233:\n      pop\n        /* \"#utility.yul\":906:929   */\n      calldataload\n      swap2\n        /* \"#utility.yul\":755:935   */\n      swap1\n      pop\n      jump\t// out\n        /* \"#utility.yul\":1171:1298   */\n    tag_225:\n        /* \"#utility.yul\":1232:1242   */\n      0x4e487b71\n        /* \"#utility.yul\":1227:1230   */\n      0xe0\n        /* \"#utility.yul\":1223:1243   */\n      shl\n        /* \"#utility.yul\":1220:1221   */\n      0x00\n        /* \"#utility.yul\":1213:1244   */\n      mstore\n        /* \"#utility.yul\":1263:1267   */\n      0x11\n        /* \"#utility.yul\":1260:1261   */\n      0x04\n        /* \"#utility.yul\":1253:1268   */\n      mstore\n        /* \"#utility.yul\":1287:1291   */\n      0x24\n        /* \"#utility.yul\":1284:1285   */\n      0x00\n        /* \"#utility.yul\":1277:1292   */\n      revert\n        /* \"#utility.yul\":1303:1428   */\n    tag_119:\n        /* \"#utility.yul\":1343:1347   */\n      0x00\n        /* \"#utility.yul\":1371:1372   */\n      dup3\n        /* \"#utility.yul\":1368:1369   */\n      dup3\n        /* \"#utility.yul\":1365:1373   */\n      lt\n        /* \"#utility.yul\":1362:1396   */\n      iszero\n      tag_238\n      jumpi\n        /* \"#utility.yul\":1376:1394   */\n      tag_238\n      tag_225\n      jump\t// in\n    tag_238:\n      pop\n        /* \"#utility.yul\":1413:1422   */\n      sub\n      swap1\n        /* \"#utility.yul\":1303:1428   */\n      jump\t// out\n        /* \"#utility.yul\":1433:1601   */\n    tag_121:\n        /* \"#utility.yul\":1473:1480   */\n      0x00\n        /* \"#utility.yul\":1539:1540   */\n      dup2\n        /* \"#utility.yul\":1535:1536   */\n      0x00\n        /* \"#utility.yul\":1531:1537   */\n      not\n        /* \"#utility.yul\":1527:1541   */\n      div\n        /* \"#utility.yul\":1524:1525   */\n      dup4\n        /* \"#utility.yul\":1521:1542   */\n      gt\n        /* \"#utility.yul\":1516:1517   */\n      dup3\n        /* \"#utility.yul\":1509:1518   */\n      iszero\n        /* \"#utility.yul\":1502:1519   */\n      iszero\n        /* \"#utility.yul\":1498:1543   */\n      and\n        /* \"#utility.yul\":1495:1566   */\n      iszero\n      tag_241\n      jumpi\n        /* \"#utility.yul\":1546:1564   */\n      tag_241\n      tag_225\n      jump\t// in\n    tag_241:\n      pop\n        /* \"#utility.yul\":1586:1595   */\n      mul\n      swap1\n        /* \"#utility.yul\":1433:1601   */\n      jump\t// out\n        /* \"#utility.yul\":1606:1823   */\n    tag_123:\n        /* \"#utility.yul\":1646:1647   */\n      0x00\n        /* \"#utility.yul\":1672:1673   */\n      dup3\n        /* \"#utility.yul\":1662:1794   */\n      tag_243\n      jumpi\n        /* \"#utility.yul\":1716:1726   */\n      0x4e487b71\n        /* \"#utility.yul\":1711:1714   */\n      0xe0\n        /* \"#utility.yul\":1707:1727   */\n      shl\n        /* \"#utility.yul\":1704:1705   */\n      0x00\n        /* \"#utility.yul\":1697:1728   */\n      mstore\n        /* \"#utility.yul\":1751:1755   */\n      0x12\n        /* \"#utility.yul\":1748:1749   */\n      0x04\n        /* \"#utility.yul\":1741:1756   */\n      mstore\n        /* \"#utility.yul\":1779:1783   */\n      0x24\n        /* \"#utility.yul\":1776:1777   */\n      0x00\n        /* \"#utility.yul\":1769:1784   */\n      revert\n        /* \"#utility.yul\":1662:1794   */\n    tag_243:\n      pop\n        /* \"#utility.yul\":1808:1817   */\n      div\n      swap1\n        /* \"#utility.yul\":1606:1823   */\n      jump\t// out\n        /* \"#utility.yul\":1828:1956   */\n    tag_125:\n        /* \"#utility.yul\":1868:1871   */\n      0x00\n        /* \"#utility.yul\":1899:1900   */\n      dup3\n        /* \"#utility.yul\":1895:1901   */\n      not\n        /* \"#utility.yul\":1892:1893   */\n      dup3\n        /* \"#utility.yul\":1889:1902   */\n      gt\n        /* \"#utility.yul\":1886:1925   */\n      iszero\n      tag_246\n      jumpi\n        /* \"#utility.yul\":1905:1923   */\n      tag_246\n      tag_225\n      jump\t// in\n    tag_246:\n      pop\n        /* \"#utility.yul\":1941:1950   */\n      add\n      swap1\n        /* \"#utility.yul\":1828:1956   */\n      jump\t// out\n        /* \"#utility.yul\":1961:2145   */\n    tag_130:\n        /* \"#utility.yul\":2031:2037   */\n      0x00\n        /* \"#utility.yul\":2084:2086   */\n      0x20\n        /* \"#utility.yul\":2072:2081   */\n      dup3\n        /* \"#utility.yul\":2063:2070   */\n      dup5\n        /* \"#utility.yul\":2059:2082   */\n      sub\n        /* \"#utility.yul\":2055:2087   */\n      slt\n        /* \"#utility.yul\":2052:2104   */\n      iszero\n      tag_248\n      jumpi\n        /* \"#utility.yul\":2100:2101   */\n      0x00\n        /* \"#utility.yul\":2097:2098   */\n      dup1\n        /* \"#utility.yul\":2090:2102   */\n      revert\n        /* \"#utility.yul\":2052:2104   */\n    tag_248:\n      pop\n        /* \"#utility.yul\":2123:2139   */\n      mload\n      swap2\n        /* \"#utility.yul\":1961:2145   */\n      swap1\n      pop\n      jump\t// out\n        /* \"#utility.yul\":2812:3089   */\n    tag_146:\n        /* \"#utility.yul\":2879:2885   */\n      0x00\n        /* \"#utility.yul\":2932:2934   */\n      0x20\n        /* \"#utility.yul\":2920:2929   */\n      dup3\n        /* \"#utility.yul\":2911:2918   */\n      dup5\n        /* \"#utility.yul\":2907:2930   */\n      sub\n        /* \"#utility.yul\":2903:2935   */\n      slt\n        /* \"#utility.yul\":2900:2952   */\n      iszero\n      tag_252\n      jumpi\n        /* \"#utility.yul\":2948:2949   */\n      0x00\n        /* \"#utility.yul\":2945:2946   */\n      dup1\n        /* \"#utility.yul\":2938:2950   */\n      revert\n        /* \"#utility.yul\":2900:2952   */\n    tag_252:\n        /* \"#utility.yul\":2980:2989   */\n      dup2\n        /* \"#utility.yul\":2974:2990   */\n      mload\n        /* \"#utility.yul\":3033:3038   */\n      dup1\n        /* \"#utility.yul\":3026:3039   */\n      iszero\n        /* \"#utility.yul\":3019:3040   */\n      iszero\n        /* \"#utility.yul\":3012:3017   */\n      dup2\n        /* \"#utility.yul\":3009:3041   */\n      eq\n        /* \"#utility.yul\":2999:3059   */\n      tag_229\n      jumpi\n        /* \"#utility.yul\":3055:3056   */\n      0x00\n        /* \"#utility.yul\":3052:3053   */\n      dup1\n        /* \"#utility.yul\":3045:3057   */\n      revert\n\n    auxdata: 0xa264697066735822122084fa711d79482dcc4a4c157d71496b657038c8177dd1085f7964c1aced8af7ff64736f6c634300080d0033\n}\n",
    "bytecode": {
      "linkReferences": {},
      "object": "608060405234801561001057600080fd5b50604051610e2e380380610e2e83398101604081905261002f916100dc565b600160005561003d3361006e565b600380546001600160a01b039384166001600160a01b0319918216179091556002805492909316911617905561010f565b600180546001600160a01b038381166001600160a01b0319831681179093556040519116919082907f8be0079c531659141344cd1fd0a4f28419497f9722a3daafe3b4186f6b6457e090600090a35050565b80516001600160a01b03811681146100d757600080fd5b919050565b600080604083850312156100ef57600080fd5b6100f8836100c0565b9150610106602084016100c0565b90509250929050565b610d108061011e6000396000f3fe608060405234801561001057600080fd5b50600436106101975760003560e01c8063715018a6116100e3578063b88a802f1161008c578063cd3daf9d11610066578063cd3daf9d14610318578063f245ace414610320578063f2fde38b1461034057600080fd5b8063b88a802f146102e8578063bea08151146102f0578063c9b1b70d1461031057600080fd5b80638da5cb5b116100bd5780638da5cb5b146102b1578063a694fc3a146102c2578063adca9b72146102d557600080fd5b8063715018a6146102815780638a877567146102895780638d869342146102a957600080fd5b806343cbce3e11610145578063675f457d1161011f578063675f457d1461025d57806368c33627146102705780636aa0838f1461027857600080fd5b806343cbce3e1461023c5780635997bb371461024f5780635e01eb5a1461025757600080fd5b80632e1a7d4d116101765780632e1a7d4d146101f5578063304ac91b1461020a578063399080ec1461021357600080fd5b80628cc2621461019c5780630bd21c56146101c25780630fda55b4146101ed575b600080fd5b6101af6101aa366004610bd0565b610353565b6040519081526020015b60405180910390f35b6002546101d5906001600160a01b031681565b6040516001600160a01b0390911681526020016101b9565b6101af6103d0565b610208610203366004610c00565b610443565b005b6101af60055481565b6101af610221366004610bd0565b6001600160a01b031660009081526009602052604090205490565b6101af61024a366004610bd0565b6105f1565b6101af606481565b336101d5565b6101af61026b366004610bd0565b610661565b6006546101af565b6101af60045481565b610208610694565b6101af610297366004610bd0565b60096020526000908152604090205481565b6005546101af565b6001546001600160a01b03166101d5565b6102086102d0366004610c00565b6106fa565b6003546101d5906001600160a01b031681565b6102086108cb565b6101af6102fe366004610bd0565b60086020526000908152604090205481565b6101af6109e1565b6101af610a2b565b6101af61032e366004610bd0565b60076020526000908152604090205481565b61020861034e366004610bd0565b610a84565b6001600160a01b0381166000908152600860209081526040808320546007909252822054670de0b6b3a764000090610389610a2b565b6103939190610c2f565b6001600160a01b0385166000908152600960205260409020546103b69190610c46565b6103c09190610c65565b6103ca9190610c87565b92915050565b600354604080516318160ddd60e01b815290516000926001600160a01b0316916318160ddd9160048083019260209291908290030181865afa15801561041a573d6000803e3d6000fd5b505050506040513d601f19601f8201168201806040525081019061043e9190610c9f565b905090565b3361044c610a2b565b6005554260045561045c81610353565b6001600160a01b03821660009081526008602090815260408083209390935560055460079091529181209190915554600119016104e05760405162461bcd60e51b815260206004820152601f60248201527f5265656e7472616e637947756172643a207265656e7472616e742063616c6c0060448201526064015b60405180910390fd5b600260008190555081600660008282546104fa9190610c2f565b9091555050336000908152600960205260408120805484929061051e908490610c2f565b9091555050604051829033907f4cb6da433ea55f6e302b7bdbfeed740816a42301cde7f5bac5dff2b34037637490600090a360035460405163a9059cbb60e01b8152336004820152602481018490526000916001600160a01b03169063a9059cbb906044015b6020604051808303816000875af11580156105a3573d6000803e3d6000fd5b505050506040513d601f19601f820116820180604052508101906105c79190610cb8565b9050806105e7576040516312171d8360e31b815260040160405180910390fd5b5050600160005550565b6003546040516370a0823160e01b81526001600160a01b03838116600483015260009216906370a08231906024015b602060405180830381865afa15801561063d573d6000803e3d6000fd5b505050506040513d601f19601f820116820180604052508101906103ca9190610c9f565b6002546040516370a0823160e01b81526001600160a01b03838116600483015260009216906370a0823190602401610620565b6001546001600160a01b031633146106ee5760405162461bcd60e51b815260206004820181905260248201527f4f776e61626c653a2063616c6c6572206973206e6f7420746865206f776e657260448201526064016104d7565b6106f86000610b66565b565b33610703610a2b565b6005554260045561071381610353565b6001600160a01b03821660009081526008602090815260408083209390935560055460079091529181209190915554600119016107925760405162461bcd60e51b815260206004820152601f60248201527f5265656e7472616e637947756172643a207265656e7472616e742063616c6c0060448201526064016104d7565b600260008190555081806000036107bc57604051630f45911f60e41b815260040160405180910390fd5b82600660008282546107ce9190610c87565b909155505033600090815260096020526040812080548592906107f2908490610c87565b9091555050604051839033907f9e71bc8eea02a63969f509818f2dafb9254532904319f9dbda79b67bd34a5f3d90600090a36003546040516323b872dd60e01b8152336004820152306024820152604481018590526000916001600160a01b0316906323b872dd906064016020604051808303816000875af115801561087c573d6000803e3d6000fd5b505050506040513d601f19601f820116820180604052508101906108a09190610cb8565b9050806108c0576040516312171d8360e31b815260040160405180910390fd5b505060016000555050565b336108d4610a2b565b600555426004556108e481610353565b6001600160a01b03821660009081526008602090815260408083209390935560055460079091529181209190915554600119016109635760405162461bcd60e51b815260206004820152601f60248201527f5265656e7472616e637947756172643a207265656e7472616e742063616c6c0060448201526064016104d7565b600260009081553380825260086020526040808320805490849055905190928392917ffc30cddea38e2bf4d6ea7d3f9ed3b6ad7f176419f4963bd81318067a4aee73fe9190a360025460405163a9059cbb60e01b8152336004820152602481018390526000916001600160a01b03169063a9059cbb90604401610584565b600254604080516318160ddd60e01b815290516000926001600160a01b0316916318160ddd9160048083019260209291908290030181865afa15801561041a573d6000803e3d6000fd5b6000600654600003610a3e575060055490565b600654606460045442610a519190610c2f565b610a5b9190610c46565b610a6d90670de0b6b3a7640000610c46565b610a779190610c65565b60055461043e9190610c87565b6001546001600160a01b03163314610ade5760405162461bcd60e51b815260206004820181905260248201527f4f776e61626c653a2063616c6c6572206973206e6f7420746865206f776e657260448201526064016104d7565b6001600160a01b038116610b5a5760405162461bcd60e51b815260206004820152602660248201527f4f776e61626c653a206e6577206f776e657220697320746865207a65726f206160448201527f646472657373000000000000000000000000000000000000000000000000000060648201526084016104d7565b610b6381610b66565b50565b600180546001600160a01b038381167fffffffffffffffffffffffff0000000000000000000000000000000000000000831681179093556040519116919082907f8be0079c531659141344cd1fd0a4f28419497f9722a3daafe3b4186f6b6457e090600090a35050565b600060208284031215610be257600080fd5b81356001600160a01b0381168114610bf957600080fd5b9392505050565b600060208284031215610c1257600080fd5b5035919050565b634e487b7160e01b600052601160045260246000fd5b600082821015610c4157610c41610c19565b500390565b6000816000190483118215151615610c6057610c60610c19565b500290565b600082610c8257634e487b7160e01b600052601260045260246000fd5b500490565b60008219821115610c9a57610c9a610c19565b500190565b600060208284031215610cb157600080fd5b5051919050565b600060208284031215610cca57600080fd5b81518015158114610bf957600080fdfea264697066735822122084fa711d79482dcc4a4c157d71496b657038c8177dd1085f7964c1aced8af7ff64736f6c634300080d0033",
      "opcodes": "PUSH1 0x80 PUSH1 0x40 MSTORE CALLVALUE DUP1 ISZERO PUSH2 0x10 JUMPI PUSH1 0x0 DUP1 REVERT JUMPDEST POP PUSH1 0x40 MLOAD PUSH2 0xE2E CODESIZE SUB DUP1 PUSH2 0xE2E DUP4 CODECOPY DUP2 ADD PUSH1 0x40 DUP2 SWAP1 MSTORE PUSH2 0x2F SWAP2 PUSH2 0xDC JUMP JUMPDEST PUSH1 0x1 PUSH1 0x0 SSTORE PUSH2 0x3D CALLER PUSH2 0x6E JUMP JUMPDEST PUSH1 0x3 DUP1 SLOAD PUSH1 0x1 PUSH1 0x1 PUSH1 0xA0 SHL SUB SWAP4 DUP5 AND PUSH1 0x1 PUSH1 0x1 PUSH1 0xA0 SHL SUB NOT SWAP2 DUP3 AND OR SWAP1 SWAP2 SSTORE PUSH1 0x2 DUP1 SLOAD SWAP3 SWAP1 SWAP4 AND SWAP2 AND OR SWAP1 SSTORE PUSH2 0x10F JUMP JUMPDEST PUSH1 0x1 DUP1 SLOAD PUSH1 0x1 PUSH1 0x1 PUSH1 0xA0 SHL SUB DUP4 DUP2 AND PUSH1 0x1 PUSH1 0x1 PUSH1 0xA0 SHL SUB NOT DUP4 AND DUP2 OR SWAP1 SWAP4 SSTORE PUSH1 0x40 MLOAD SWAP2 AND SWAP2 SWAP1 DUP3 SWAP1 PUSH32 0x8BE0079C531659141344CD1FD0A4F28419497F9722A3DAAFE3B4186F6B6457E0 SWAP1 PUSH1 0x0 SWAP1 LOG3 POP POP JUMP JUMPDEST DUP1 MLOAD PUSH1 0x1 PUSH1 0x1 PUSH1 0xA0 SHL SUB DUP2 AND DUP2 EQ PUSH2 0xD7 JUMPI PUSH1 0x0 DUP1 REVERT JUMPDEST SWAP2 SWAP1 POP JUMP JUMPDEST PUSH1 0x0 DUP1 PUSH1 0x40 DUP4 DUP6 SUB SLT ISZERO PUSH2 0xEF JUMPI PUSH1 0x0 DUP1 REVERT JUMPDEST PUSH2 0xF8 DUP4 PUSH2 0xC0 JUMP JUMPDEST SWAP2 POP PUSH2 0x106 PUSH1 0x20 DUP5 ADD PUSH2 0xC0 JUMP JUMPDEST SWAP1 POP SWAP3 POP SWAP3 SWAP1 POP JUMP JUMPDEST PUSH2 0xD10 DUP1 PUSH2 0x11E PUSH1 0x0 CODECOPY PUSH1 0x0 RETURN INVALID PUSH1 0x80 PUSH1 0x40 MSTORE CALLVALUE DUP1 ISZERO PUSH2 0x10 JUMPI PUSH1 0x0 DUP1 REVERT JUMPDEST POP PUSH1 0x4 CALLDATASIZE LT PUSH2 0x197 JUMPI PUSH1 0x0 CALLDATALOAD PUSH1 0xE0 SHR DUP1 PUSH4 0x715018A6 GT PUSH2 0xE3 JUMPI DUP1 PUSH4 0xB88A802F GT PUSH2 0x8C JUMPI DUP1 PUSH4 0xCD3DAF9D GT PUSH2 0x66 JUMPI DUP1 PUSH4 0xCD3DAF9D EQ PUSH2 0x318 JUMPI DUP1 PUSH4 0xF245ACE4 EQ PUSH2 0x320 JUMPI DUP1 PUSH4 0xF2FDE38B EQ PUSH2 0x340 JUMPI PUSH1 0x0 DUP1 REVERT JUMPDEST DUP1 PUSH4 0xB88A802F EQ PUSH2 0x2E8 JUMPI DUP1 PUSH4 0xBEA08151 EQ PUSH2 0x2F0 JUMPI DUP1 PUSH4 0xC9B1B70D EQ PUSH2 0x310 JUMPI PUSH1 0x0 DUP1 REVERT JUMPDEST DUP1 PUSH4 0x8DA5CB5B GT PUSH2 0xBD JUMPI DUP1 PUSH4 0x8DA5CB5B EQ PUSH2 0x2B1 JUMPI DUP1 PUSH4 0xA694FC3A EQ PUSH2 0x2C2 JUMPI DUP1 PUSH4 0xADCA9B72 EQ PUSH2 0x2D5 JUMPI PUSH1 0x0 DUP1 REVERT JUMPDEST DUP1 PUSH4 0x715018A6 EQ PUSH2 0x281 JUMPI DUP1 PUSH4 0x8A877567 EQ PUSH2 0x289 JUMPI DUP1 PUSH4 0x8D869342 EQ PUSH2 0x2A9 JUMPI PUSH1 0x0 DUP1 REVERT JUMPDEST DUP1 PUSH4 0x43CBCE3E GT PUSH2 0x145 JUMPI DUP1 PUSH4 0x675F457D GT PUSH2 0x11F JUMPI DUP1 PUSH4 0x675F457D EQ PUSH2 0x25D JUMPI DUP1 PUSH4 0x68C33627 EQ PUSH2 0x270 JUMPI DUP1 PUSH4 0x6AA0838F EQ PUSH2 0x278 JUMPI PUSH1 0x0 DUP1 REVERT JUMPDEST DUP1 PUSH4 0x43CBCE3E EQ PUSH2 0x23C JUMPI DUP1 PUSH4 0x5997BB37 EQ PUSH2 0x24F JUMPI DUP1 PUSH4 0x5E01EB5A EQ PUSH2 0x257 JUMPI PUSH1 0x0 DUP1 REVERT JUMPDEST DUP1 PUSH4 0x2E1A7D4D GT PUSH2 0x176 JUMPI DUP1 PUSH4 0x2E1A7D4D EQ PUSH2 0x1F5 JUMPI DUP1 PUSH4 0x304AC91B EQ PUSH2 0x20A JUMPI DUP1 PUSH4 0x399080EC EQ PUSH2 0x213 JUMPI PUSH1 0x0 DUP1 REVERT JUMPDEST DUP1 PUSH3 0x8CC262 EQ PUSH2 0x19C JUMPI DUP1 PUSH4 0xBD21C56 EQ PUSH2 0x1C2 JUMPI DUP1 PUSH4 0xFDA55B4 EQ PUSH2 0x1ED JUMPI JUMPDEST PUSH1 0x0 DUP1 REVERT JUMPDEST PUSH2 0x1AF PUSH2 0x1AA CALLDATASIZE PUSH1 0x4 PUSH2 0xBD0 JUMP JUMPDEST PUSH2 0x353 JUMP JUMPDEST PUSH1 0x40 MLOAD SWAP1 DUP2 MSTORE PUSH1 0x20 ADD JUMPDEST PUSH1 0x40 MLOAD DUP1 SWAP2 SUB SWAP1 RETURN JUMPDEST PUSH1 0x2 SLOAD PUSH2 0x1D5 SWAP1 PUSH1 0x1 PUSH1 0x1 PUSH1 0xA0 SHL SUB AND DUP2 JUMP JUMPDEST PUSH1 0x40 MLOAD PUSH1 0x1 PUSH1 0x1 PUSH1 0xA0 SHL SUB SWAP1 SWAP2 AND DUP2 MSTORE PUSH1 0x20 ADD PUSH2 0x1B9 JUMP JUMPDEST PUSH2 0x1AF PUSH2 0x3D0 JUMP JUMPDEST PUSH2 0x208 PUSH2 0x203 CALLDATASIZE PUSH1 0x4 PUSH2 0xC00 JUMP JUMPDEST PUSH2 0x443 JUMP JUMPDEST STOP JUMPDEST PUSH2 0x1AF PUSH1 0x5 SLOAD DUP2 JUMP JUMPDEST PUSH2 0x1AF PUSH2 0x221 CALLDATASIZE PUSH1 0x4 PUSH2 0xBD0 JUMP JUMPDEST PUSH1 0x1 PUSH1 0x1 PUSH1 0xA0 SHL SUB AND PUSH1 0x0 SWAP1 DUP2 MSTORE PUSH1 0x9 PUSH1 0x20 MSTORE PUSH1 0x40 SWAP1 KECCAK256 SLOAD SWAP1 JUMP JUMPDEST PUSH2 0x1AF PUSH2 0x24A CALLDATASIZE PUSH1 0x4 PUSH2 0xBD0 JUMP JUMPDEST PUSH2 0x5F1 JUMP JUMPDEST PUSH2 0x1AF PUSH1 0x64 DUP2 JUMP JUMPDEST CALLER PUSH2 0x1D5 JUMP JUMPDEST PUSH2 0x1AF PUSH2 0x26B CALLDATASIZE PUSH1 0x4 PUSH2 0xBD0 JUMP JUMPDEST PUSH2 0x661 JUMP JUMPDEST PUSH1 0x6 SLOAD PUSH2 0x1AF JUMP JUMPDEST PUSH2 0x1AF PUSH1 0x4 SLOAD DUP2 JUMP JUMPDEST PUSH2 0x208 PUSH2 0x694 JUMP JUMPDEST PUSH2 0x1AF PUSH2 0x297 CALLDATASIZE PUSH1 0x4 PUSH2 0xBD0 JUMP JUMPDEST PUSH1 0x9 PUSH1 0x20 MSTORE PUSH1 0x0 SWAP1 DUP2 MSTORE PUSH1 0x40 SWAP1 KECCAK256 SLOAD DUP2 JUMP JUMPDEST PUSH1 0x5 SLOAD PUSH2 0x1AF JUMP JUMPDEST PUSH1 0x1 SLOAD PUSH1 0x1 PUSH1 0x1 PUSH1 0xA0 SHL SUB AND PUSH2 0x1D5 JUMP JUMPDEST PUSH2 0x208 PUSH2 0x2D0 CALLDATASIZE PUSH1 0x4 PUSH2 0xC00 JUMP JUMPDEST PUSH2 0x6FA JUMP JUMPDEST PUSH1 0x3 SLOAD PUSH2 0x1D5 SWAP1 PUSH1 0x1 PUSH1 0x1 PUSH1 0xA0 SHL SUB AND DUP2 JUMP JUMPDEST PUSH2 0x208 PUSH2 0x8CB JUMP JUMPDEST PUSH2 0x1AF PUSH2 0x2FE CALLDATASIZE PUSH1 0x4 PUSH2 0xBD0 JUMP JUMPDEST PUSH1 0x8 PUSH1 0x20 MSTORE PUSH1 0x0 SWAP1 DUP2 MSTORE PUSH1 0x40 SWAP1 KECCAK256 SLOAD DUP2 JUMP JUMPDEST PUSH2 0x1AF PUSH2 0x9E1 JUMP JUMPDEST PUSH2 0x1AF PUSH2 0xA2B JUMP JUMPDEST PUSH2 0x1AF PUSH2 0x32E CALLDATASIZE PUSH1 0x4 PUSH2 0xBD0 JUMP JUMPDEST PUSH1 0x7 PUSH1 0x20 MSTORE PUSH1 0x0 SWAP1 DUP2 MSTORE PUSH1 0x40 SWAP1 KECCAK256 SLOAD DUP2 JUMP JUMPDEST PUSH2 0x208 PUSH2 0x34E CALLDATASIZE PUSH1 0x4 PUSH2 0xBD0 JUMP JUMPDEST PUSH2 0xA84 JUMP JUMPDEST PUSH1 0x1 PUSH1 0x1 PUSH1 0xA0 SHL SUB DUP2 AND PUSH1 0x0 SWAP1 DUP2 MSTORE PUSH1 0x8 PUSH1 0x20 SWAP1 DUP2 MSTORE PUSH1 0x40 DUP1 DUP4 KECCAK256 SLOAD PUSH1 0x7 SWAP1 SWAP3 MSTORE DUP3 KECCAK256 SLOAD PUSH8 0xDE0B6B3A7640000 SWAP1 PUSH2 0x389 PUSH2 0xA2B JUMP JUMPDEST PUSH2 0x393 SWAP2 SWAP1 PUSH2 0xC2F JUMP JUMPDEST PUSH1 0x1 PUSH1 0x1 PUSH1 0xA0 SHL SUB DUP6 AND PUSH1 0x0 SWAP1 DUP2 MSTORE PUSH1 0x9 PUSH1 0x20 MSTORE PUSH1 0x40 SWAP1 KECCAK256 SLOAD PUSH2 0x3B6 SWAP2 SWAP1 PUSH2 0xC46 JUMP JUMPDEST PUSH2 0x3C0 SWAP2 SWAP1 PUSH2 0xC65 JUMP JUMPDEST PUSH2 0x3CA SWAP2 SWAP1 PUSH2 0xC87 JUMP JUMPDEST SWAP3 SWAP2 POP POP JUMP JUMPDEST PUSH1 0x3 SLOAD PUSH1 0x40 DUP1 MLOAD PUSH4 0x18160DDD PUSH1 0xE0 SHL DUP2 MSTORE SWAP1 MLOAD PUSH1 0x0 SWAP3 PUSH1 0x1 PUSH1 0x1 PUSH1 0xA0 SHL SUB AND SWAP2 PUSH4 0x18160DDD SWAP2 PUSH1 0x4 DUP1 DUP4 ADD SWAP3 PUSH1 0x20 SWAP3 SWAP2 SWAP1 DUP3 SWAP1 SUB ADD DUP2 DUP7 GAS STATICCALL ISZERO DUP1 ISZERO PUSH2 0x41A JUMPI RETURNDATASIZE PUSH1 0x0 DUP1 RETURNDATACOPY RETURNDATASIZE PUSH1 0x0 REVERT JUMPDEST POP POP POP POP PUSH1 0x40 MLOAD RETURNDATASIZE PUSH1 0x1F NOT PUSH1 0x1F DUP3 ADD AND DUP3 ADD DUP1 PUSH1 0x40 MSTORE POP DUP2 ADD SWAP1 PUSH2 0x43E SWAP2 SWAP1 PUSH2 0xC9F JUMP JUMPDEST SWAP1 POP SWAP1 JUMP JUMPDEST CALLER PUSH2 0x44C PUSH2 0xA2B JUMP JUMPDEST PUSH1 0x5 SSTORE TIMESTAMP PUSH1 0x4 SSTORE PUSH2 0x45C DUP2 PUSH2 0x353 JUMP JUMPDEST PUSH1 0x1 PUSH1 0x1 PUSH1 0xA0 SHL SUB DUP3 AND PUSH1 0x0 SWAP1 DUP2 MSTORE PUSH1 0x8 PUSH1 0x20 SWAP1 DUP2 MSTORE PUSH1 0x40 DUP1 DUP4 KECCAK256 SWAP4 SWAP1 SWAP4 SSTORE PUSH1 0x5 SLOAD PUSH1 0x7 SWAP1 SWAP2 MSTORE SWAP2 DUP2 KECCAK256 SWAP2 SWAP1 SWAP2 SSTORE SLOAD PUSH1 0x1 NOT ADD PUSH2 0x4E0 JUMPI PUSH1 0x40 MLOAD PUSH3 0x461BCD PUSH1 0xE5 SHL DUP2 MSTORE PUSH1 0x20 PUSH1 0x4 DUP3 ADD MSTORE PUSH1 0x1F PUSH1 0x24 DUP3 ADD MSTORE PUSH32 0x5265656E7472616E637947756172643A207265656E7472616E742063616C6C00 PUSH1 0x44 DUP3 ADD MSTORE PUSH1 0x64 ADD JUMPDEST PUSH1 0x40 MLOAD DUP1 SWAP2 SUB SWAP1 REVERT JUMPDEST PUSH1 0x2 PUSH1 0x0 DUP2 SWAP1 SSTORE POP DUP2 PUSH1 0x6 PUSH1 0x0 DUP3 DUP3 SLOAD PUSH2 0x4FA SWAP2 SWAP1 PUSH2 0xC2F JUMP JUMPDEST SWAP1 SWAP2 SSTORE POP POP CALLER PUSH1 0x0 SWAP1 DUP2 MSTORE PUSH1 0x9 PUSH1 0x20 MSTORE PUSH1 0x40 DUP2 KECCAK256 DUP1 SLOAD DUP5 SWAP3 SWAP1 PUSH2 0x51E SWAP1 DUP5 SWAP1 PUSH2 0xC2F JUMP JUMPDEST SWAP1 SWAP2 SSTORE POP POP PUSH1 0x40 MLOAD DUP3 SWAP1 CALLER SWAP1 PUSH32 0x4CB6DA433EA55F6E302B7BDBFEED740816A42301CDE7F5BAC5DFF2B340376374 SWAP1 PUSH1 0x0 SWAP1 LOG3 PUSH1 0x3 SLOAD PUSH1 0x40 MLOAD PUSH4 0xA9059CBB PUSH1 0xE0 SHL DUP2 MSTORE CALLER PUSH1 0x4 DUP3 ADD MSTORE PUSH1 0x24 DUP2 ADD DUP5 SWAP1 MSTORE PUSH1 0x0 SWAP2 PUSH1 0x1 PUSH1 0x1 PUSH1 0xA0 SHL SUB AND SWAP1 PUSH4 0xA9059CBB SWAP1 PUSH1 0x44 ADD JUMPDEST PUSH1 0x20 PUSH1 0x40 MLOAD DUP1 DUP4 SUB DUP2 PUSH1 0x0 DUP8 GAS CALL ISZERO DUP1 ISZERO PUSH2 0x5A3 JUMPI RETURNDATASIZE PUSH1 0x0 DUP1 RETURNDATACOPY RETURNDATASIZE PUSH1 0x0 REVERT JUMPDEST POP POP POP POP PUSH1 0x40 MLOAD RETURNDATASIZE PUSH1 0x1F NOT PUSH1 0x1F DUP3 ADD AND DUP3 ADD DUP1 PUSH1 0x40 MSTORE POP DUP2 ADD SWAP1 PUSH2 0x5C7 SWAP2 SWAP1 PUSH2 0xCB8 JUMP JUMPDEST SWAP1 POP DUP1 PUSH2 0x5E7 JUMPI PUSH1 0x40 MLOAD PUSH4 0x12171D83 PUSH1 0xE3 SHL DUP2 MSTORE PUSH1 0x4 ADD PUSH1 0x40 MLOAD DUP1 SWAP2 SUB SWAP1 REVERT JUMPDEST POP POP PUSH1 0x1 PUSH1 0x0 SSTORE POP JUMP JUMPDEST PUSH1 0x3 SLOAD PUSH1 0x40 MLOAD PUSH4 0x70A08231 PUSH1 0xE0 SHL DUP2 MSTORE PUSH1 0x1 PUSH1 0x1 PUSH1 0xA0 SHL SUB DUP4 DUP2 AND PUSH1 0x4 DUP4 ADD MSTORE PUSH1 0x0 SWAP3 AND SWAP1 PUSH4 0x70A08231 SWAP1 PUSH1 0x24 ADD JUMPDEST PUSH1 0x20 PUSH1 0x40 MLOAD DUP1 DUP4 SUB DUP2 DUP7 GAS STATICCALL ISZERO DUP1 ISZERO PUSH2 0x63D JUMPI RETURNDATASIZE PUSH1 0x0 DUP1 RETURNDATACOPY RETURNDATASIZE PUSH1 0x0 REVERT JUMPDEST POP POP POP POP PUSH1 0x40 MLOAD RETURNDATASIZE PUSH1 0x1F NOT PUSH1 0x1F DUP3 ADD AND DUP3 ADD DUP1 PUSH1 0x40 MSTORE POP DUP2 ADD SWAP1 PUSH2 0x3CA SWAP2 SWAP1 PUSH2 0xC9F JUMP JUMPDEST PUSH1 0x2 SLOAD PUSH1 0x40 MLOAD PUSH4 0x70A08231 PUSH1 0xE0 SHL DUP2 MSTORE PUSH1 0x1 PUSH1 0x1 PUSH1 0xA0 SHL SUB DUP4 DUP2 AND PUSH1 0x4 DUP4 ADD MSTORE PUSH1 0x0 SWAP3 AND SWAP1 PUSH4 0x70A08231 SWAP1 PUSH1 0x24 ADD PUSH2 0x620 JUMP JUMPDEST PUSH1 0x1 SLOAD PUSH1 0x1 PUSH1 0x1 PUSH1 0xA0 SHL SUB AND CALLER EQ PUSH2 0x6EE JUMPI PUSH1 0x40 MLOAD PUSH3 0x461BCD PUSH1 0xE5 SHL DUP2 MSTORE PUSH1 0x20 PUSH1 0x4 DUP3 ADD DUP2 SWAP1 MSTORE PUSH1 0x24 DUP3 ADD MSTORE PUSH32 0x4F776E61626C653A2063616C6C6572206973206E6F7420746865206F776E6572 PUSH1 0x44 DUP3 ADD MSTORE PUSH1 0x64 ADD PUSH2 0x4D7 JUMP JUMPDEST PUSH2 0x6F8 PUSH1 0x0 PUSH2 0xB66 JUMP JUMPDEST JUMP JUMPDEST CALLER PUSH2 0x703 PUSH2 0xA2B JUMP JUMPDEST PUSH1 0x5 SSTORE TIMESTAMP PUSH1 0x4 SSTORE PUSH2 0x713 DUP2 PUSH2 0x353 JUMP JUMPDEST PUSH1 0x1 PUSH1 0x1 PUSH1 0xA0 SHL SUB DUP3 AND PUSH1 0x0 SWAP1 DUP2 MSTORE PUSH1 0x8 PUSH1 0x20 SWAP1 DUP2 MSTORE PUSH1 0x40 DUP1 DUP4 KECCAK256 SWAP4 SWAP1 SWAP4 SSTORE PUSH1 0x5 SLOAD PUSH1 0x7 SWAP1 SWAP2 MSTORE SWAP2 DUP2 KECCAK256 SWAP2 SWAP1 SWAP2 SSTORE SLOAD PUSH1 0x1 NOT ADD PUSH2 0x792 JUMPI PUSH1 0x40 MLOAD PUSH3 0x461BCD PUSH1 0xE5 SHL DUP2 MSTORE PUSH1 0x20 PUSH1 0x4 DUP3 ADD MSTORE PUSH1 0x1F PUSH1 0x24 DUP3 ADD MSTORE PUSH32 0x5265656E7472616E637947756172643A207265656E7472616E742063616C6C00 PUSH1 0x44 DUP3 ADD MSTORE PUSH1 0x64 ADD PUSH2 0x4D7 JUMP JUMPDEST PUSH1 0x2 PUSH1 0x0 DUP2 SWAP1 SSTORE POP DUP2 DUP1 PUSH1 0x0 SUB PUSH2 0x7BC JUMPI PUSH1 0x40 MLOAD PUSH4 0xF45911F PUSH1 0xE4 SHL DUP2 MSTORE PUSH1 0x4 ADD PUSH1 0x40 MLOAD DUP1 SWAP2 SUB SWAP1 REVERT JUMPDEST DUP3 PUSH1 0x6 PUSH1 0x0 DUP3 DUP3 SLOAD PUSH2 0x7CE SWAP2 SWAP1 PUSH2 0xC87 JUMP JUMPDEST SWAP1 SWAP2 SSTORE POP POP CALLER PUSH1 0x0 SWAP1 DUP2 MSTORE PUSH1 0x9 PUSH1 0x20 MSTORE PUSH1 0x40 DUP2 KECCAK256 DUP1 SLOAD DUP6 SWAP3 SWAP1 PUSH2 0x7F2 SWAP1 DUP5 SWAP1 PUSH2 0xC87 JUMP JUMPDEST SWAP1 SWAP2 SSTORE POP POP PUSH1 0x40 MLOAD DUP4 SWAP1 CALLER SWAP1 PUSH32 0x9E71BC8EEA02A63969F509818F2DAFB9254532904319F9DBDA79B67BD34A5F3D SWAP1 PUSH1 0x0 SWAP1 LOG3 PUSH1 0x3 SLOAD PUSH1 0x40 MLOAD PUSH4 0x23B872DD PUSH1 0xE0 SHL DUP2 MSTORE CALLER PUSH1 0x4 DUP3 ADD MSTORE ADDRESS PUSH1 0x24 DUP3 ADD MSTORE PUSH1 0x44 DUP2 ADD DUP6 SWAP1 MSTORE PUSH1 0x0 SWAP2 PUSH1 0x1 PUSH1 0x1 PUSH1 0xA0 SHL SUB AND SWAP1 PUSH4 0x23B872DD SWAP1 PUSH1 0x64 ADD PUSH1 0x20 PUSH1 0x40 MLOAD DUP1 DUP4 SUB DUP2 PUSH1 0x0 DUP8 GAS CALL ISZERO DUP1 ISZERO PUSH2 0x87C JUMPI RETURNDATASIZE PUSH1 0x0 DUP1 RETURNDATACOPY RETURNDATASIZE PUSH1 0x0 REVERT JUMPDEST POP POP POP POP PUSH1 0x40 MLOAD RETURNDATASIZE PUSH1 0x1F NOT PUSH1 0x1F DUP3 ADD AND DUP3 ADD DUP1 PUSH1 0x40 MSTORE POP DUP2 ADD SWAP1 PUSH2 0x8A0 SWAP2 SWAP1 PUSH2 0xCB8 JUMP JUMPDEST SWAP1 POP DUP1 PUSH2 0x8C0 JUMPI PUSH1 0x40 MLOAD PUSH4 0x12171D83 PUSH1 0xE3 SHL DUP2 MSTORE PUSH1 0x4 ADD PUSH1 0x40 MLOAD DUP1 SWAP2 SUB SWAP1 REVERT JUMPDEST POP POP PUSH1 0x1 PUSH1 0x0 SSTORE POP POP JUMP JUMPDEST CALLER PUSH2 0x8D4 PUSH2 0xA2B JUMP JUMPDEST PUSH1 0x5 SSTORE TIMESTAMP PUSH1 0x4 SSTORE PUSH2 0x8E4 DUP2 PUSH2 0x353 JUMP JUMPDEST PUSH1 0x1 PUSH1 0x1 PUSH1 0xA0 SHL SUB DUP3 AND PUSH1 0x0 SWAP1 DUP2 MSTORE PUSH1 0x8 PUSH1 0x20 SWAP1 DUP2 MSTORE PUSH1 0x40 DUP1 DUP4 KECCAK256 SWAP4 SWAP1 SWAP4 SSTORE PUSH1 0x5 SLOAD PUSH1 0x7 SWAP1 SWAP2 MSTORE SWAP2 DUP2 KECCAK256 SWAP2 SWAP1 SWAP2 SSTORE SLOAD PUSH1 0x1 NOT ADD PUSH2 0x963 JUMPI PUSH1 0x40 MLOAD PUSH3 0x461BCD PUSH1 0xE5 SHL DUP2 MSTORE PUSH1 0x20 PUSH1 0x4 DUP3 ADD MSTORE PUSH1 0x1F PUSH1 0x24 DUP3 ADD MSTORE PUSH32 0x5265656E7472616E637947756172643A207265656E7472616E742063616C6C00 PUSH1 0x44 DUP3 ADD MSTORE PUSH1 0x64 ADD PUSH2 0x4D7 JUMP JUMPDEST PUSH1 0x2 PUSH1 0x0 SWAP1 DUP2 SSTORE CALLER DUP1 DUP3 MSTORE PUSH1 0x8 PUSH1 0x20 MSTORE PUSH1 0x40 DUP1 DUP4 KECCAK256 DUP1 SLOAD SWAP1 DUP5 SWAP1 SSTORE SWAP1 MLOAD SWAP1 SWAP3 DUP4 SWAP3 SWAP2 PUSH32 0xFC30CDDEA38E2BF4D6EA7D3F9ED3B6AD7F176419F4963BD81318067A4AEE73FE SWAP2 SWAP1 LOG3 PUSH1 0x2 SLOAD PUSH1 0x40 MLOAD PUSH4 0xA9059CBB PUSH1 0xE0 SHL DUP2 MSTORE CALLER PUSH1 0x4 DUP3 ADD MSTORE PUSH1 0x24 DUP2 ADD DUP4 SWAP1 MSTORE PUSH1 0x0 SWAP2 PUSH1 0x1 PUSH1 0x1 PUSH1 0xA0 SHL SUB AND SWAP1 PUSH4 0xA9059CBB SWAP1 PUSH1 0x44 ADD PUSH2 0x584 JUMP JUMPDEST PUSH1 0x2 SLOAD PUSH1 0x40 DUP1 MLOAD PUSH4 0x18160DDD PUSH1 0xE0 SHL DUP2 MSTORE SWAP1 MLOAD PUSH1 0x0 SWAP3 PUSH1 0x1 PUSH1 0x1 PUSH1 0xA0 SHL SUB AND SWAP2 PUSH4 0x18160DDD SWAP2 PUSH1 0x4 DUP1 DUP4 ADD SWAP3 PUSH1 0x20 SWAP3 SWAP2 SWAP1 DUP3 SWAP1 SUB ADD DUP2 DUP7 GAS STATICCALL ISZERO DUP1 ISZERO PUSH2 0x41A JUMPI RETURNDATASIZE PUSH1 0x0 DUP1 RETURNDATACOPY RETURNDATASIZE PUSH1 0x0 REVERT JUMPDEST PUSH1 0x0 PUSH1 0x6 SLOAD PUSH1 0x0 SUB PUSH2 0xA3E JUMPI POP PUSH1 0x5 SLOAD SWAP1 JUMP JUMPDEST PUSH1 0x6 SLOAD PUSH1 0x64 PUSH1 0x4 SLOAD TIMESTAMP PUSH2 0xA51 SWAP2 SWAP1 PUSH2 0xC2F JUMP JUMPDEST PUSH2 0xA5B SWAP2 SWAP1 PUSH2 0xC46 JUMP JUMPDEST PUSH2 0xA6D SWAP1 PUSH8 0xDE0B6B3A7640000 PUSH2 0xC46 JUMP JUMPDEST PUSH2 0xA77 SWAP2 SWAP1 PUSH2 0xC65 JUMP JUMPDEST PUSH1 0x5 SLOAD PUSH2 0x43E SWAP2 SWAP1 PUSH2 0xC87 JUMP JUMPDEST PUSH1 0x1 SLOAD PUSH1 0x1 PUSH1 0x1 PUSH1 0xA0 SHL SUB AND CALLER EQ PUSH2 0xADE JUMPI PUSH1 0x40 MLOAD PUSH3 0x461BCD PUSH1 0xE5 SHL DUP2 MSTORE PUSH1 0x20 PUSH1 0x4 DUP3 ADD DUP2 SWAP1 MSTORE PUSH1 0x24 DUP3 ADD MSTORE PUSH32 0x4F776E61626C653A2063616C6C6572206973206E6F7420746865206F776E6572 PUSH1 0x44 DUP3 ADD MSTORE PUSH1 0x64 ADD PUSH2 0x4D7 JUMP JUMPDEST PUSH1 0x1 PUSH1 0x1 PUSH1 0xA0 SHL SUB DUP2 AND PUSH2 0xB5A JUMPI PUSH1 0x40 MLOAD PUSH3 0x461BCD PUSH1 0xE5 SHL DUP2 MSTORE PUSH1 0x20 PUSH1 0x4 DUP3 ADD MSTORE PUSH1 0x26 PUSH1 0x24 DUP3 ADD MSTORE PUSH32 0x4F776E61626C653A206E6577206F776E657220697320746865207A65726F2061 PUSH1 0x44 DUP3 ADD MSTORE PUSH32 0x6464726573730000000000000000000000000000000000000000000000000000 PUSH1 0x64 DUP3 ADD MSTORE PUSH1 0x84 ADD PUSH2 0x4D7 JUMP JUMPDEST PUSH2 0xB63 DUP2 PUSH2 0xB66 JUMP JUMPDEST POP JUMP JUMPDEST PUSH1 0x1 DUP1 SLOAD PUSH1 0x1 PUSH1 0x1 PUSH1 0xA0 SHL SUB DUP4 DUP2 AND PUSH32 0xFFFFFFFFFFFFFFFFFFFFFFFF0000000000000000000000000000000000000000 DUP4 AND DUP2 OR SWAP1 SWAP4 SSTORE PUSH1 0x40 MLOAD SWAP2 AND SWAP2 SWAP1 DUP3 SWAP1 PUSH32 0x8BE0079C531659141344CD1FD0A4F28419497F9722A3DAAFE3B4186F6B6457E0 SWAP1 PUSH1 0x0 SWAP1 LOG3 POP POP JUMP JUMPDEST PUSH1 0x0 PUSH1 0x20 DUP3 DUP5 SUB SLT ISZERO PUSH2 0xBE2 JUMPI PUSH1 0x0 DUP1 REVERT JUMPDEST DUP2 CALLDATALOAD PUSH1 0x1 PUSH1 0x1 PUSH1 0xA0 SHL SUB DUP2 AND DUP2 EQ PUSH2 0xBF9 JUMPI PUSH1 0x0 DUP1 REVERT JUMPDEST SWAP4 SWAP3 POP POP POP JUMP JUMPDEST PUSH1 0x0 PUSH1 0x20 DUP3 DUP5 SUB SLT ISZERO PUSH2 0xC12 JUMPI PUSH1 0x0 DUP1 REVERT JUMPDEST POP CALLDATALOAD SWAP2 SWAP1 POP JUMP JUMPDEST PUSH4 0x4E487B71 PUSH1 0xE0 SHL PUSH1 0x0 MSTORE PUSH1 0x11 PUSH1 0x4 MSTORE PUSH1 0x24 PUSH1 0x0 REVERT JUMPDEST PUSH1 0x0 DUP3 DUP3 LT ISZERO PUSH2 0xC41 JUMPI PUSH2 0xC41 PUSH2 0xC19 JUMP JUMPDEST POP SUB SWAP1 JUMP JUMPDEST PUSH1 0x0 DUP2 PUSH1 0x0 NOT DIV DUP4 GT DUP3 ISZERO ISZERO AND ISZERO PUSH2 0xC60 JUMPI PUSH2 0xC60 PUSH2 0xC19 JUMP JUMPDEST POP MUL SWAP1 JUMP JUMPDEST PUSH1 0x0 DUP3 PUSH2 0xC82 JUMPI PUSH4 0x4E487B71 PUSH1 0xE0 SHL PUSH1 0x0 MSTORE PUSH1 0x12 PUSH1 0x4 MSTORE PUSH1 0x24 PUSH1 0x0 REVERT JUMPDEST POP DIV SWAP1 JUMP JUMPDEST PUSH1 0x0 DUP3 NOT DUP3 GT ISZERO PUSH2 0xC9A JUMPI PUSH2 0xC9A PUSH2 0xC19 JUMP JUMPDEST POP ADD SWAP1 JUMP JUMPDEST PUSH1 0x0 PUSH1 0x20 DUP3 DUP5 SUB SLT ISZERO PUSH2 0xCB1 JUMPI PUSH1 0x0 DUP1 REVERT JUMPDEST POP MLOAD SWAP2 SWAP1 POP JUMP JUMPDEST PUSH1 0x0 PUSH1 0x20 DUP3 DUP5 SUB SLT ISZERO PUSH2 0xCCA JUMPI PUSH1 0x0 DUP1 REVERT JUMPDEST DUP2 MLOAD DUP1 ISZERO ISZERO DUP2 EQ PUSH2 0xBF9 JUMPI PUSH1 0x0 DUP1 REVERT INVALID LOG2 PUSH5 0x6970667358 0x22 SLT KECCAK256 DUP5 STATICCALL PUSH18 0x1D79482DCC4A4C157D71496B657038C8177D 0xD1 ADDMOD 0x5F PUSH26 0x64C1ACED8AF7FF64736F6C634300080D00330000000000000000 "
    },
    "gasEstimates": {
      "creation": {
        "codeDepositCost": "668800",
        "executionCost": "infinite",
        "totalCost": "infinite"
      },
      "external": {
        "REWARD_RATE()": "252",
        "claimReward()": "infinite",
        "earned(address)": "infinite",
        "getRewardPerTokenStored()": "2371",
        "getRewardsTokensBalance(address)": "infinite",
        "getSender()": "302",
        "getStakableTokensBalance(address)": "infinite",
        "getStaked(address)": "2581",
        "getTotalRewardTokensSupply()": "infinite",
        "getTotalStakes()": "2348",
        "getTotalStakingTokensSupply()": "infinite",
        "owner()": "2376",
        "renounceOwnership()": "28148",
        "rewardPerToken()": "infinite",
        "s_lastUpdateTime()": "2373",
        "s_rewardPerTokenStored()": "2352",
        "s_rewards(address)": "2540",
        "s_rewardsToken()": "2406",
        "s_stakes(address)": "2541",
        "s_stakingToken()": "2426",
        "s_userRewardPerTokenPaid(address)": "2539",
        "stake(uint256)": "infinite",
        "transferOwnership(address)": "28350",
        "withdraw(uint256)": "infinite"
      }
    },
    "methodIdentifiers": {
      "REWARD_RATE()": "5997bb37",
      "claimReward()": "b88a802f",
      "earned(address)": "008cc262",
      "getRewardPerTokenStored()": "8d869342",
      "getRewardsTokensBalance(address)": "675f457d",
      "getSender()": "5e01eb5a",
      "getStakableTokensBalance(address)": "43cbce3e",
      "getStaked(address)": "399080ec",
      "getTotalRewardTokensSupply()": "c9b1b70d",
      "getTotalStakes()": "68c33627",
      "getTotalStakingTokensSupply()": "0fda55b4",
      "owner()": "8da5cb5b",
      "renounceOwnership()": "715018a6",
      "rewardPerToken()": "cd3daf9d",
      "s_lastUpdateTime()": "6aa0838f",
      "s_rewardPerTokenStored()": "304ac91b",
      "s_rewards(address)": "bea08151",
      "s_rewardsToken()": "0bd21c56",
      "s_stakes(address)": "8a877567",
      "s_stakingToken()": "adca9b72",
      "s_userRewardPerTokenPaid(address)": "f245ace4",
      "stake(uint256)": "a694fc3a",
      "transferOwnership(address)": "f2fde38b",
      "withdraw(uint256)": "2e1a7d4d"
    }
  },
  "storageLayout": {
    "storage": [
      {
        "astId": 526,
        "contract": "ERC20Staking.sol:Staking14",
        "label": "_status",
        "offset": 0,
        "slot": "0",
        "type": "t_uint256"
      },
      {
        "astId": 418,
        "contract": "ERC20Staking.sol:Staking14",
        "label": "_owner",
        "offset": 0,
        "slot": "1",
        "type": "t_address"
      },
      {
        "astId": 15,
        "contract": "ERC20Staking.sol:Staking14",
        "label": "s_rewardsToken",
        "offset": 0,
        "slot": "2",
        "type": "t_contract(IERC20)633"
      },
      {
        "astId": 18,
        "contract": "ERC20Staking.sol:Staking14",
        "label": "s_stakingToken",
        "offset": 0,
        "slot": "3",
        "type": "t_contract(IERC20)633"
      },
      {
        "astId": 23,
        "contract": "ERC20Staking.sol:Staking14",
        "label": "s_lastUpdateTime",
        "offset": 0,
        "slot": "4",
        "type": "t_uint256"
      },
      {
        "astId": 25,
        "contract": "ERC20Staking.sol:Staking14",
        "label": "s_rewardPerTokenStored",
        "offset": 0,
        "slot": "5",
        "type": "t_uint256"
      },
      {
        "astId": 27,
        "contract": "ERC20Staking.sol:Staking14",
        "label": "s_totalSupply",
        "offset": 0,
        "slot": "6",
        "type": "t_uint256"
      },
      {
        "astId": 31,
        "contract": "ERC20Staking.sol:Staking14",
        "label": "s_userRewardPerTokenPaid",
        "offset": 0,
        "slot": "7",
        "type": "t_mapping(t_address,t_uint256)"
      },
      {
        "astId": 35,
        "contract": "ERC20Staking.sol:Staking14",
        "label": "s_rewards",
        "offset": 0,
        "slot": "8",
        "type": "t_mapping(t_address,t_uint256)"
      },
      {
        "astId": 39,
        "contract": "ERC20Staking.sol:Staking14",
        "label": "s_stakes",
        "offset": 0,
        "slot": "9",
        "type": "t_mapping(t_address,t_uint256)"
      }
    ],
    "types": {
      "t_address": {
        "encoding": "inplace",
        "label": "address",
        "numberOfBytes": "20"
      },
      "t_contract(IERC20)633": {
        "encoding": "inplace",
        "label": "contract IERC20",
        "numberOfBytes": "20"
      },
      "t_mapping(t_address,t_uint256)": {
        "encoding": "mapping",
        "key": "t_address",
        "label": "mapping(address => uint256)",
        "numberOfBytes": "32",
        "value": "t_uint256"
      },
      "t_uint256": {
        "encoding": "inplace",
        "label": "uint256",
        "numberOfBytes": "32"
      }
    }
  },
  "userdoc": {
    "kind": "user",
    "methods": {
      "claimReward()": {
        "notice": "User claims their tokens"
      },
      "earned(address)": {
        "notice": "How much reward a user has earned"
      },
      "rewardPerToken()": {
        "notice": "How much reward a token gets based on how long it's been in and during which \"snapshots\""
      },
      "stake(uint256)": {
        "notice": "Deposit tokens into this contract"
      },
      "withdraw(uint256)": {
        "notice": "Withdraw tokens from this contract"
      }
    },
    "version": 1
  }
}