{
  "abi": [
    {
      "inputs": [
        {
          "internalType": "address",
          "name": "stakingToken",
          "type": "address"
        },
        {
          "internalType": "address",
          "name": "rewardsToken",
          "type": "address"
        }
      ],
      "stateMutability": "nonpayable",
      "type": "constructor"
    },
    {
      "inputs": [],
      "name": "NeedsMoreThanZero",
      "type": "error"
    },
    {
      "inputs": [],
      "name": "TransferFailed",
      "type": "error"
    },
    {
      "anonymous": false,
      "inputs": [
        {
          "indexed": true,
          "internalType": "address",
          "name": "previousOwner",
          "type": "address"
        },
        {
          "indexed": true,
          "internalType": "address",
          "name": "newOwner",
          "type": "address"
        }
      ],
      "name": "OwnershipTransferred",
      "type": "event"
    },
    {
      "anonymous": false,
      "inputs": [
        {
          "indexed": true,
          "internalType": "address",
          "name": "user",
          "type": "address"
        },
        {
          "indexed": true,
          "internalType": "uint256",
          "name": "amount",
          "type": "uint256"
        }
      ],
      "name": "RewardsClaimed",
      "type": "event"
    },
    {
      "anonymous": false,
      "inputs": [
        {
          "indexed": true,
          "internalType": "address",
          "name": "user",
          "type": "address"
        },
        {
          "indexed": true,
          "internalType": "uint256",
          "name": "amount",
          "type": "uint256"
        }
      ],
      "name": "Staked",
      "type": "event"
    },
    {
      "anonymous": false,
      "inputs": [
        {
          "indexed": true,
          "internalType": "address",
          "name": "user",
          "type": "address"
        },
        {
          "indexed": true,
          "internalType": "uint256",
          "name": "amount",
          "type": "uint256"
        }
      ],
      "name": "WithdrewStake",
      "type": "event"
    },
    {
      "inputs": [],
      "name": "REWARD_RATE",
      "outputs": [
        {
          "internalType": "uint256",
          "name": "",
          "type": "uint256"
        }
      ],
      "stateMutability": "view",
      "type": "function"
    },
    {
      "inputs": [
        {
          "internalType": "uint256",
          "name": "",
          "type": "uint256"
        }
      ],
      "name": "addresses",
      "outputs": [
        {
          "internalType": "address",
          "name": "",
          "type": "address"
        }
      ],
      "stateMutability": "view",
      "type": "function"
    },
    {
      "inputs": [],
      "name": "claimReward",
      "outputs": [],
      "stateMutability": "nonpayable",
      "type": "function"
    },
    {
      "inputs": [
        {
          "internalType": "address",
          "name": "_user",
          "type": "address"
        }
      ],
      "name": "claimRewardsTimer",
      "outputs": [
        {
          "internalType": "uint256",
          "name": "_timer",
          "type": "uint256"
        }
      ],
      "stateMutability": "view",
      "type": "function"
    },
    {
      "inputs": [
        {
          "internalType": "address",
          "name": "account",
          "type": "address"
        }
      ],
      "name": "earned",
      "outputs": [
        {
          "internalType": "uint256",
          "name": "",
          "type": "uint256"
        }
      ],
      "stateMutability": "view",
      "type": "function"
    },
    {
      "inputs": [],
      "name": "getOwner",
      "outputs": [
        {
          "internalType": "address",
          "name": "",
          "type": "address"
        }
      ],
      "stateMutability": "view",
      "type": "function"
    },
    {
      "inputs": [],
      "name": "getRewardPerTokenStored",
      "outputs": [
        {
          "internalType": "uint256",
          "name": "",
          "type": "uint256"
        }
      ],
      "stateMutability": "view",
      "type": "function"
    },
    {
      "inputs": [
        {
          "internalType": "address",
          "name": "account",
          "type": "address"
        }
      ],
      "name": "getRewardsTokensBalance",
      "outputs": [
        {
          "internalType": "uint256",
          "name": "",
          "type": "uint256"
        }
      ],
      "stateMutability": "view",
      "type": "function"
    },
    {
      "inputs": [],
      "name": "getSender",
      "outputs": [
        {
          "internalType": "address",
          "name": "",
          "type": "address"
        }
      ],
      "stateMutability": "view",
      "type": "function"
    },
    {
      "inputs": [
        {
          "internalType": "address",
          "name": "account",
          "type": "address"
        }
      ],
      "name": "getStakableTokensBalance",
      "outputs": [
        {
          "internalType": "uint256",
          "name": "",
          "type": "uint256"
        }
      ],
      "stateMutability": "view",
      "type": "function"
    },
    {
      "inputs": [
        {
          "internalType": "address",
          "name": "_stakeholder",
          "type": "address"
        }
      ],
      "name": "getStaked",
      "outputs": [
        {
          "internalType": "uint256",
          "name": "",
          "type": "uint256"
        }
      ],
      "stateMutability": "view",
      "type": "function"
    },
    {
      "inputs": [],
      "name": "getTotalRewardTokensSupply",
      "outputs": [
        {
          "internalType": "uint256",
          "name": "",
          "type": "uint256"
        }
      ],
      "stateMutability": "view",
      "type": "function"
    },
    {
      "inputs": [],
      "name": "getTotalStakes",
      "outputs": [
        {
          "internalType": "uint256",
          "name": "",
          "type": "uint256"
        }
      ],
      "stateMutability": "view",
      "type": "function"
    },
    {
      "inputs": [],
      "name": "getTotalStakingTokensSupply",
      "outputs": [
        {
          "internalType": "uint256",
          "name": "",
          "type": "uint256"
        }
      ],
      "stateMutability": "view",
      "type": "function"
    },
    {
      "inputs": [
        {
          "internalType": "address",
          "name": "account",
          "type": "address"
        }
      ],
      "name": "getUsersRewards",
      "outputs": [
        {
          "internalType": "address[]",
          "name": "",
          "type": "address[]"
        },
        {
          "internalType": "uint256[]",
          "name": "",
          "type": "uint256[]"
        }
      ],
      "stateMutability": "view",
      "type": "function"
    },
    {
      "inputs": [
        {
          "internalType": "address",
          "name": "account",
          "type": "address"
        }
      ],
      "name": "getUsersStaked",
      "outputs": [
        {
          "internalType": "address[]",
          "name": "",
          "type": "address[]"
        },
        {
          "internalType": "uint256[]",
          "name": "",
          "type": "uint256[]"
        }
      ],
      "stateMutability": "view",
      "type": "function"
    },
    {
      "inputs": [
        {
          "internalType": "address",
          "name": "account",
          "type": "address"
        }
      ],
      "name": "isOwner",
      "outputs": [
        {
          "internalType": "bool",
          "name": "",
          "type": "bool"
        }
      ],
      "stateMutability": "view",
      "type": "function"
    },
    {
      "inputs": [],
      "name": "minStakePeriod",
      "outputs": [
        {
          "internalType": "uint256",
          "name": "",
          "type": "uint256"
        }
      ],
      "stateMutability": "view",
      "type": "function"
    },
    {
      "inputs": [],
      "name": "owner",
      "outputs": [
        {
          "internalType": "address",
          "name": "",
          "type": "address"
        }
      ],
      "stateMutability": "view",
      "type": "function"
    },
    {
      "inputs": [],
      "name": "renounceOwnership",
      "outputs": [],
      "stateMutability": "nonpayable",
      "type": "function"
    },
    {
      "inputs": [],
      "name": "rewardPerToken",
      "outputs": [
        {
          "internalType": "uint256",
          "name": "",
          "type": "uint256"
        }
      ],
      "stateMutability": "view",
      "type": "function"
    },
    {
      "inputs": [
        {
          "internalType": "address",
          "name": "",
          "type": "address"
        }
      ],
      "name": "s_lastTimeOfRewardsClaimed",
      "outputs": [
        {
          "internalType": "uint256",
          "name": "",
          "type": "uint256"
        }
      ],
      "stateMutability": "view",
      "type": "function"
    },
    {
      "inputs": [],
      "name": "s_lastUpdateTime",
      "outputs": [
        {
          "internalType": "uint256",
          "name": "",
          "type": "uint256"
        }
      ],
      "stateMutability": "view",
      "type": "function"
    },
    {
      "inputs": [],
      "name": "s_rewardPerTokenStored",
      "outputs": [
        {
          "internalType": "uint256",
          "name": "",
          "type": "uint256"
        }
      ],
      "stateMutability": "view",
      "type": "function"
    },
    {
      "inputs": [
        {
          "internalType": "address",
          "name": "",
          "type": "address"
        }
      ],
      "name": "s_rewards",
      "outputs": [
        {
          "internalType": "uint256",
          "name": "",
          "type": "uint256"
        }
      ],
      "stateMutability": "view",
      "type": "function"
    },
    {
      "inputs": [],
      "name": "s_rewardsToken",
      "outputs": [
        {
          "internalType": "contract IERC20",
          "name": "",
          "type": "address"
        }
      ],
      "stateMutability": "view",
      "type": "function"
    },
    {
      "inputs": [
        {
          "internalType": "address",
          "name": "",
          "type": "address"
        }
      ],
      "name": "s_stakes",
      "outputs": [
        {
          "internalType": "uint256",
          "name": "",
          "type": "uint256"
        }
      ],
      "stateMutability": "view",
      "type": "function"
    },
    {
      "inputs": [],
      "name": "s_stakingToken",
      "outputs": [
        {
          "internalType": "contract IERC20",
          "name": "",
          "type": "address"
        }
      ],
      "stateMutability": "view",
      "type": "function"
    },
    {
      "inputs": [
        {
          "internalType": "address",
          "name": "",
          "type": "address"
        }
      ],
      "name": "s_userRewardPerTokenPaid",
      "outputs": [
        {
          "internalType": "uint256",
          "name": "",
          "type": "uint256"
        }
      ],
      "stateMutability": "view",
      "type": "function"
    },
    {
      "inputs": [
        {
          "internalType": "uint256",
          "name": "amount",
          "type": "uint256"
        }
      ],
      "name": "stake",
      "outputs": [],
      "stateMutability": "nonpayable",
      "type": "function"
    },
    {
      "inputs": [
        {
          "internalType": "address",
          "name": "newOwner",
          "type": "address"
        }
      ],
      "name": "transferOwnership",
      "outputs": [],
      "stateMutability": "nonpayable",
      "type": "function"
    },
    {
      "inputs": [
        {
          "internalType": "uint256",
          "name": "amount",
          "type": "uint256"
        }
      ],
      "name": "withdraw",
      "outputs": [],
      "stateMutability": "nonpayable",
      "type": "function"
    }
  ],
  "devdoc": {
    "kind": "dev",
    "methods": {
      "owner()": {
        "details": "Returns the address of the current owner."
      },
      "renounceOwnership()": {
        "details": "Leaves the contract without owner. It will not be possible to call `onlyOwner` functions anymore. Can only be called by the current owner. NOTE: Renouncing ownership will leave the contract without an owner, thereby removing any functionality that is only available to the owner."
      },
      "stake(uint256)": {
        "params": {
          "amount": "| How much to stake"
        }
      },
      "transferOwnership(address)": {
        "details": "Transfers ownership of the contract to a new account (`newOwner`). Can only be called by the current owner."
      },
      "withdraw(uint256)": {
        "params": {
          "amount": "| How much to withdraw"
        }
      }
    },
    "version": 1
  },
  "evm": {
    "assembly": "    /* \"ERC20Staking.sol\":283:7081  contract StakingFinal is ReentrancyGuard, Ownable {... */\n  mstore(0x40, 0x80)\n    /* \"ERC20Staking.sol\":915:918  120 */\n  0x78\n    /* \"ERC20Staking.sol\":883:918  uint256 public minStakePeriod = 120 */\n  0x07\n  sstore\n    /* \"ERC20Staking.sol\":1410:1567  constructor(address stakingToken, address rewardsToken) {... */\n  callvalue\n  dup1\n  iszero\n  tag_1\n  jumpi\n  0x00\n  dup1\n  revert\ntag_1:\n  pop\n  mload(0x40)\n  sub(codesize, bytecodeSize)\n  dup1\n  bytecodeSize\n  dup4\n  codecopy\n  dup2\n  add\n  0x40\n  dup2\n  swap1\n  mstore\n  tag_2\n  swap2\n  tag_3\n  jump\t// in\ntag_2:\n    /* \"@openzeppelin/contracts/security/ReentrancyGuard.sol\":1701:1702   */\n  0x01\n    /* \"@openzeppelin/contracts/security/ReentrancyGuard.sol\":1806:1813   */\n  0x00\n    /* \"@openzeppelin/contracts/security/ReentrancyGuard.sol\":1806:1828   */\n  sstore\n    /* \"@openzeppelin/contracts/access/Ownable.sol\":921:953   */\n  tag_9\n    /* \"@openzeppelin/contracts/utils/Context.sol\":719:729   */\n  caller\n    /* \"@openzeppelin/contracts/access/Ownable.sol\":921:939   */\n  tag_12\n    /* \"@openzeppelin/contracts/access/Ownable.sol\":921:953   */\n  jump\t// in\ntag_9:\n    /* \"ERC20Staking.sol\":1476:1490  s_stakingToken */\n  0x03\n    /* \"ERC20Staking.sol\":1476:1513  s_stakingToken = IERC20(stakingToken) */\n  dup1\n  sload\n  sub(shl(0xa0, 0x01), 0x01)\n  swap4\n  dup5\n  and\n  not(sub(shl(0xa0, 0x01), 0x01))\n  swap2\n  dup3\n  and\n  or\n  swap1\n  swap2\n  sstore\n    /* \"ERC20Staking.sol\":1523:1537  s_rewardsToken */\n  0x02\n    /* \"ERC20Staking.sol\":1523:1560  s_rewardsToken = IERC20(rewardsToken) */\n  dup1\n  sload\n  swap3\n  swap1\n  swap4\n  and\n  swap2\n  and\n  or\n  swap1\n  sstore\n    /* \"ERC20Staking.sol\":283:7081  contract StakingFinal is ReentrancyGuard, Ownable {... */\n  jump(tag_18)\n    /* \"@openzeppelin/contracts/access/Ownable.sol\":2270:2457   */\ntag_12:\n    /* \"@openzeppelin/contracts/access/Ownable.sol\":2362:2368   */\n  0x01\n  dup1\n  sload\n  sub(shl(0xa0, 0x01), 0x01)\n    /* \"@openzeppelin/contracts/access/Ownable.sol\":2378:2395   */\n  dup4\n  dup2\n  and\n  not(sub(shl(0xa0, 0x01), 0x01))\n  dup4\n  and\n  dup2\n  or\n  swap1\n  swap4\n  sstore\n    /* \"@openzeppelin/contracts/access/Ownable.sol\":2410:2450   */\n  mload(0x40)\n    /* \"@openzeppelin/contracts/access/Ownable.sol\":2362:2368   */\n  swap2\n  and\n  swap2\n    /* \"@openzeppelin/contracts/access/Ownable.sol\":2378:2395   */\n  swap1\n    /* \"@openzeppelin/contracts/access/Ownable.sol\":2362:2368   */\n  dup3\n  swap1\n    /* \"@openzeppelin/contracts/access/Ownable.sol\":2410:2450   */\n  0x8be0079c531659141344cd1fd0a4f28419497f9722a3daafe3b4186f6b6457e0\n  swap1\n    /* \"@openzeppelin/contracts/access/Ownable.sol\":2343:2359   */\n  0x00\n  swap1\n    /* \"@openzeppelin/contracts/access/Ownable.sol\":2410:2450   */\n  log3\n    /* \"@openzeppelin/contracts/access/Ownable.sol\":2333:2457   */\n  pop\n    /* \"@openzeppelin/contracts/access/Ownable.sol\":2270:2457   */\n  pop\n  jump\t// out\n    /* \"#utility.yul\":14:191   */\ntag_17:\n    /* \"#utility.yul\":93:106   */\n  dup1\n  mload\n  sub(shl(0xa0, 0x01), 0x01)\n    /* \"#utility.yul\":135:166   */\n  dup2\n  and\n    /* \"#utility.yul\":125:167   */\n  dup2\n  eq\n    /* \"#utility.yul\":115:185   */\n  tag_20\n  jumpi\n    /* \"#utility.yul\":181:182   */\n  0x00\n    /* \"#utility.yul\":178:179   */\n  dup1\n    /* \"#utility.yul\":171:183   */\n  revert\n    /* \"#utility.yul\":115:185   */\ntag_20:\n    /* \"#utility.yul\":14:191   */\n  swap2\n  swap1\n  pop\n  jump\t// out\n    /* \"#utility.yul\":196:489   */\ntag_3:\n    /* \"#utility.yul\":275:281   */\n  0x00\n    /* \"#utility.yul\":283:289   */\n  dup1\n    /* \"#utility.yul\":336:338   */\n  0x40\n    /* \"#utility.yul\":324:333   */\n  dup4\n    /* \"#utility.yul\":315:322   */\n  dup6\n    /* \"#utility.yul\":311:334   */\n  sub\n    /* \"#utility.yul\":307:339   */\n  slt\n    /* \"#utility.yul\":304:356   */\n  iszero\n  tag_22\n  jumpi\n    /* \"#utility.yul\":352:353   */\n  0x00\n    /* \"#utility.yul\":349:350   */\n  dup1\n    /* \"#utility.yul\":342:354   */\n  revert\n    /* \"#utility.yul\":304:356   */\ntag_22:\n    /* \"#utility.yul\":375:415   */\n  tag_23\n    /* \"#utility.yul\":405:414   */\n  dup4\n    /* \"#utility.yul\":375:415   */\n  tag_17\n  jump\t// in\ntag_23:\n    /* \"#utility.yul\":365:415   */\n  swap2\n  pop\n    /* \"#utility.yul\":434:483   */\n  tag_24\n    /* \"#utility.yul\":479:481   */\n  0x20\n    /* \"#utility.yul\":468:477   */\n  dup5\n    /* \"#utility.yul\":464:482   */\n  add\n    /* \"#utility.yul\":434:483   */\n  tag_17\n  jump\t// in\ntag_24:\n    /* \"#utility.yul\":424:483   */\n  swap1\n  pop\n    /* \"#utility.yul\":196:489   */\n  swap3\n  pop\n  swap3\n  swap1\n  pop\n  jump\t// out\ntag_18:\n    /* \"ERC20Staking.sol\":283:7081  contract StakingFinal is ReentrancyGuard, Ownable {... */\n  dataSize(sub_0)\n  dup1\n  dataOffset(sub_0)\n  0x00\n  codecopy\n  0x00\n  return\nstop\n\nsub_0: assembly {\n        /* \"ERC20Staking.sol\":283:7081  contract StakingFinal is ReentrancyGuard, Ownable {... */\n      mstore(0x40, 0x80)\n      callvalue\n      dup1\n      iszero\n      tag_1\n      jumpi\n      0x00\n      dup1\n      revert\n    tag_1:\n      pop\n      jumpi(tag_2, lt(calldatasize, 0x04))\n      shr(0xe0, calldataload(0x00))\n      dup1\n      0x8d869342\n      gt\n      tag_35\n      jumpi\n      dup1\n      0xc32726c2\n      gt\n      tag_36\n      jumpi\n      dup1\n      0xedf26d9b\n      gt\n      tag_37\n      jumpi\n      dup1\n      0xedf26d9b\n      eq\n      tag_31\n      jumpi\n      dup1\n      0xee6da848\n      eq\n      tag_32\n      jumpi\n      dup1\n      0xf245ace4\n      eq\n      tag_33\n      jumpi\n      dup1\n      0xf2fde38b\n      eq\n      tag_34\n      jumpi\n      0x00\n      dup1\n      revert\n    tag_37:\n      dup1\n      0xc32726c2\n      eq\n      tag_27\n      jumpi\n      dup1\n      0xc9b1b70d\n      eq\n      tag_28\n      jumpi\n      dup1\n      0xcd3daf9d\n      eq\n      tag_29\n      jumpi\n      dup1\n      0xd84f2bc6\n      eq\n      tag_30\n      jumpi\n      0x00\n      dup1\n      revert\n    tag_36:\n      dup1\n      0xadca9b72\n      gt\n      tag_38\n      jumpi\n      dup1\n      0xadca9b72\n      eq\n      tag_23\n      jumpi\n      dup1\n      0xb88a802f\n      eq\n      tag_24\n      jumpi\n      dup1\n      0xbea08151\n      eq\n      tag_25\n      jumpi\n      dup1\n      0xc2f8498d\n      eq\n      tag_26\n      jumpi\n      0x00\n      dup1\n      revert\n    tag_38:\n      dup1\n      0x8d869342\n      eq\n      tag_19\n      jumpi\n      dup1\n      0x8da5cb5b\n      eq\n      tag_20\n      jumpi\n      dup1\n      0xa06b1813\n      eq\n      tag_21\n      jumpi\n      dup1\n      0xa694fc3a\n      eq\n      tag_22\n      jumpi\n      0x00\n      dup1\n      revert\n    tag_35:\n      dup1\n      0x5997bb37\n      gt\n      tag_39\n      jumpi\n      dup1\n      0x6aa0838f\n      gt\n      tag_40\n      jumpi\n      dup1\n      0x6aa0838f\n      eq\n      tag_15\n      jumpi\n      dup1\n      0x715018a6\n      eq\n      tag_16\n      jumpi\n      dup1\n      0x893d20e8\n      eq\n      tag_17\n      jumpi\n      dup1\n      0x8a877567\n      eq\n      tag_18\n      jumpi\n      0x00\n      dup1\n      revert\n    tag_40:\n      dup1\n      0x5997bb37\n      eq\n      tag_11\n      jumpi\n      dup1\n      0x5e01eb5a\n      eq\n      tag_12\n      jumpi\n      dup1\n      0x675f457d\n      eq\n      tag_13\n      jumpi\n      dup1\n      0x68c33627\n      eq\n      tag_14\n      jumpi\n      0x00\n      dup1\n      revert\n    tag_39:\n      dup1\n      0x2f54bf6e\n      gt\n      tag_41\n      jumpi\n      dup1\n      0x2f54bf6e\n      eq\n      tag_7\n      jumpi\n      dup1\n      0x304ac91b\n      eq\n      tag_8\n      jumpi\n      dup1\n      0x399080ec\n      eq\n      tag_9\n      jumpi\n      dup1\n      0x43cbce3e\n      eq\n      tag_10\n      jumpi\n      0x00\n      dup1\n      revert\n    tag_41:\n      dup1\n      0x8cc262\n      eq\n      tag_3\n      jumpi\n      dup1\n      0x0bd21c56\n      eq\n      tag_4\n      jumpi\n      dup1\n      0x0fda55b4\n      eq\n      tag_5\n      jumpi\n      dup1\n      0x2e1a7d4d\n      eq\n      tag_6\n      jumpi\n    tag_2:\n      0x00\n      dup1\n      revert\n        /* \"ERC20Staking.sol\":2057:2262  function earned(address account) public view returns (uint256) {... */\n    tag_3:\n      tag_42\n      tag_43\n      calldatasize\n      0x04\n      tag_44\n      jump\t// in\n    tag_43:\n      tag_45\n      jump\t// in\n    tag_42:\n      mload(0x40)\n        /* \"#utility.yul\":474:499   */\n      swap1\n      dup2\n      mstore\n        /* \"#utility.yul\":462:464   */\n      0x20\n        /* \"#utility.yul\":447:465   */\n      add\n        /* \"ERC20Staking.sol\":2057:2262  function earned(address account) public view returns (uint256) {... */\n    tag_46:\n      mload(0x40)\n      dup1\n      swap2\n      sub\n      swap1\n      return\n        /* \"ERC20Staking.sol\":339:367  IERC20 public s_rewardsToken */\n    tag_4:\n      sload(0x02)\n      tag_48\n      swap1\n      sub(shl(0xa0, 0x01), 0x01)\n      and\n      dup2\n      jump\n    tag_48:\n      mload(0x40)\n      sub(shl(0xa0, 0x01), 0x01)\n        /* \"#utility.yul\":688:743   */\n      swap1\n      swap2\n      and\n        /* \"#utility.yul\":670:744   */\n      dup2\n      mstore\n        /* \"#utility.yul\":658:660   */\n      0x20\n        /* \"#utility.yul\":643:661   */\n      add\n        /* \"ERC20Staking.sol\":339:367  IERC20 public s_rewardsToken */\n      tag_46\n        /* \"#utility.yul\":510:750   */\n      jump\n        /* \"ERC20Staking.sol\":5496:5615  function getTotalStakingTokensSupply() public view returns (uint256) {... */\n    tag_5:\n      tag_42\n      tag_53\n      jump\t// in\n        /* \"ERC20Staking.sol\":2995:3343  function withdraw(uint256 amount) external updateReward(msg.sender) nonReentrant {... */\n    tag_6:\n      tag_55\n      tag_56\n      calldatasize\n      0x04\n      tag_57\n      jump\t// in\n    tag_56:\n      tag_58\n      jump\t// in\n    tag_55:\n      stop\n        /* \"ERC20Staking.sol\":6007:6108  function isOwner(address account) public view returns (bool) {... */\n    tag_7:\n      tag_59\n      tag_60\n      calldatasize\n      0x04\n      tag_44\n      jump\t// in\n    tag_60:\n      tag_61\n      jump\t// in\n    tag_59:\n      mload(0x40)\n        /* \"#utility.yul\":1105:1119   */\n      swap1\n      iszero\n        /* \"#utility.yul\":1098:1120   */\n      iszero\n        /* \"#utility.yul\":1080:1121   */\n      dup2\n      mstore\n        /* \"#utility.yul\":1068:1070   */\n      0x20\n        /* \"#utility.yul\":1053:1071   */\n      add\n        /* \"ERC20Staking.sol\":6007:6108  function isOwner(address account) public view returns (bool) {... */\n      tag_46\n        /* \"#utility.yul\":940:1127   */\n      jump\n        /* \"ERC20Staking.sol\":767:804  uint256 public s_rewardPerTokenStored */\n    tag_8:\n      tag_42\n      sload(0x05)\n      dup2\n      jump\n        /* \"ERC20Staking.sol\":4966:5083  function getStaked(address _stakeholder) public view returns (uint256) {... */\n    tag_9:\n      tag_42\n      tag_68\n      calldatasize\n      0x04\n      tag_44\n      jump\t// in\n    tag_68:\n      sub(shl(0xa0, 0x01), 0x01)\n        /* \"ERC20Staking.sol\":5054:5076  s_stakes[_stakeholder] */\n      and\n        /* \"ERC20Staking.sol\":5028:5035  uint256 */\n      0x00\n        /* \"ERC20Staking.sol\":5054:5076  s_stakes[_stakeholder] */\n      swap1\n      dup2\n      mstore\n        /* \"ERC20Staking.sol\":5054:5062  s_stakes */\n      0x0b\n        /* \"ERC20Staking.sol\":5054:5076  s_stakes[_stakeholder] */\n      0x20\n      mstore\n      0x40\n      swap1\n      keccak256\n      sload\n      swap1\n        /* \"ERC20Staking.sol\":4966:5083  function getStaked(address _stakeholder) public view returns (uint256) {... */\n      jump\n        /* \"ERC20Staking.sol\":5089:5225  function getStakableTokensBalance(address account) public view returns (uint256) {... */\n    tag_10:\n      tag_42\n      tag_72\n      calldatasize\n      0x04\n      tag_44\n      jump\t// in\n    tag_72:\n      tag_73\n      jump\t// in\n        /* \"ERC20Staking.sol\":683:724  uint256 public constant REWARD_RATE = 100 */\n    tag_11:\n      tag_42\n        /* \"ERC20Staking.sol\":721:724  100 */\n      0x64\n        /* \"ERC20Staking.sol\":683:724  uint256 public constant REWARD_RATE = 100 */\n      dup2\n      jump\n        /* \"ERC20Staking.sol\":5833:5916  function getSender() public view returns (address) {... */\n    tag_12:\n        /* \"ERC20Staking.sol\":5899:5909  msg.sender */\n      caller\n        /* \"ERC20Staking.sol\":5833:5916  function getSender() public view returns (address) {... */\n      jump(tag_48)\n        /* \"ERC20Staking.sol\":5231:5366  function getRewardsTokensBalance(address account) public view returns (uint256) {... */\n    tag_13:\n      tag_42\n      tag_83\n      calldatasize\n      0x04\n      tag_44\n      jump\t// in\n    tag_83:\n      tag_84\n      jump\t// in\n        /* \"ERC20Staking.sol\":5621:5712  function getTotalStakes() public view returns (uint256) {... */\n    tag_14:\n        /* \"ERC20Staking.sol\":5692:5705  s_totalSupply */\n      sload(0x08)\n        /* \"ERC20Staking.sol\":5621:5712  function getTotalStakes() public view returns (uint256) {... */\n      jump(tag_42)\n        /* \"ERC20Staking.sol\":730:761  uint256 public s_lastUpdateTime */\n    tag_15:\n      tag_42\n      sload(0x04)\n      dup2\n      jump\n        /* \"@openzeppelin/contracts/access/Ownable.sol\":1668:1769   */\n    tag_16:\n      tag_55\n      tag_93\n      jump\t// in\n        /* \"ERC20Staking.sol\":5922:6001  function getOwner() public view returns (address) {... */\n    tag_17:\n      tag_48\n      tag_95\n      jump\t// in\n        /* \"ERC20Staking.sol\":1085:1128  mapping(address => uint256) public s_stakes */\n    tag_18:\n      tag_42\n      tag_98\n      calldatasize\n      0x04\n      tag_44\n      jump\t// in\n    tag_98:\n      mstore(0x20, 0x0b)\n      0x00\n      swap1\n      dup2\n      mstore\n      0x40\n      swap1\n      keccak256\n      sload\n      dup2\n      jump\n        /* \"ERC20Staking.sol\":5718:5827  function getRewardPerTokenStored() public view returns (uint256) {... */\n    tag_19:\n        /* \"ERC20Staking.sol\":5798:5820  s_rewardPerTokenStored */\n      sload(0x05)\n        /* \"ERC20Staking.sol\":5718:5827  function getRewardPerTokenStored() public view returns (uint256) {... */\n      jump(tag_42)\n        /* \"@openzeppelin/contracts/access/Ownable.sol\":1036:1121   */\n    tag_20:\n        /* \"@openzeppelin/contracts/access/Ownable.sol\":1108:1114   */\n      and(sub(shl(0xa0, 0x01), 0x01), sload(0x01))\n        /* \"@openzeppelin/contracts/access/Ownable.sol\":1036:1121   */\n      jump(tag_48)\n        /* \"ERC20Staking.sol\":4013:4384  function claimRewardsTimer(address _user)... */\n    tag_21:\n      tag_42\n      tag_108\n      calldatasize\n      0x04\n      tag_44\n      jump\t// in\n    tag_108:\n      tag_109\n      jump\t// in\n        /* \"ERC20Staking.sol\":2374:2879  function stake(uint256 amount)... */\n    tag_22:\n      tag_55\n      tag_112\n      calldatasize\n      0x04\n      tag_57\n      jump\t// in\n    tag_112:\n      tag_113\n      jump\t// in\n        /* \"ERC20Staking.sol\":373:401  IERC20 public s_stakingToken */\n    tag_23:\n      sload(0x03)\n      tag_48\n      swap1\n      sub(shl(0xa0, 0x01), 0x01)\n      and\n      dup2\n      jump\n        /* \"ERC20Staking.sol\":3405:3939  function claimReward() external updateReward(msg.sender) nonReentrant {... */\n    tag_24:\n      tag_55\n      tag_118\n      jump\t// in\n        /* \"ERC20Staking.sol\":1035:1079  mapping(address => uint256) public s_rewards */\n    tag_25:\n      tag_42\n      tag_120\n      calldatasize\n      0x04\n      tag_44\n      jump\t// in\n    tag_120:\n      mstore(0x20, 0x0a)\n      0x00\n      swap1\n      dup2\n      mstore\n      0x40\n      swap1\n      keccak256\n      sload\n      dup2\n      jump\n        /* \"ERC20Staking.sol\":6587:7074  function getUsersRewards(address account) public view returns (address[] memory, uint[] memory) {... */\n    tag_26:\n      tag_123\n      tag_124\n      calldatasize\n      0x04\n      tag_44\n      jump\t// in\n    tag_124:\n      tag_125\n      jump\t// in\n    tag_123:\n      mload(0x40)\n      tag_46\n      swap3\n      swap2\n      swap1\n      tag_127\n      jump\t// in\n        /* \"ERC20Staking.sol\":6114:6581  function getUsersStaked(address account) public view returns (address[] memory, uint[] memory) {... */\n    tag_27:\n      tag_123\n      tag_129\n      calldatasize\n      0x04\n      tag_44\n      jump\t// in\n    tag_129:\n      tag_130\n      jump\t// in\n        /* \"ERC20Staking.sol\":5372:5490  function getTotalRewardTokensSupply() public view returns (uint256) {... */\n    tag_28:\n      tag_42\n      tag_133\n      jump\t// in\n        /* \"ERC20Staking.sol\":1693:1986  function rewardPerToken() public view returns (uint256) {... */\n    tag_29:\n      tag_42\n      tag_136\n      jump\t// in\n        /* \"ERC20Staking.sol\":883:918  uint256 public minStakePeriod = 120 */\n    tag_30:\n      tag_42\n      sload(0x07)\n      dup2\n      jump\n        /* \"ERC20Staking.sol\":810:836  address[] public addresses */\n    tag_31:\n      tag_48\n      tag_142\n      calldatasize\n      0x04\n      tag_57\n      jump\t// in\n    tag_142:\n      tag_143\n      jump\t// in\n        /* \"ERC20Staking.sol\":1134:1195  mapping(address => uint256) public s_lastTimeOfRewardsClaimed */\n    tag_32:\n      tag_42\n      tag_146\n      calldatasize\n      0x04\n      tag_44\n      jump\t// in\n    tag_146:\n      mstore(0x20, 0x0c)\n      0x00\n      swap1\n      dup2\n      mstore\n      0x40\n      swap1\n      keccak256\n      sload\n      dup2\n      jump\n        /* \"ERC20Staking.sol\":970:1029  mapping(address => uint256) public s_userRewardPerTokenPaid */\n    tag_33:\n      tag_42\n      tag_150\n      calldatasize\n      0x04\n      tag_44\n      jump\t// in\n    tag_150:\n      mstore(0x20, 0x09)\n      0x00\n      swap1\n      dup2\n      mstore\n      0x40\n      swap1\n      keccak256\n      sload\n      dup2\n      jump\n        /* \"@openzeppelin/contracts/access/Ownable.sol\":1918:2116   */\n    tag_34:\n      tag_55\n      tag_154\n      calldatasize\n      0x04\n      tag_44\n      jump\t// in\n    tag_154:\n      tag_155\n      jump\t// in\n        /* \"ERC20Staking.sol\":2057:2262  function earned(address account) public view returns (uint256) {... */\n    tag_45:\n      sub(shl(0xa0, 0x01), 0x01)\n        /* \"ERC20Staking.sol\":2237:2255  s_rewards[account] */\n      dup2\n      and\n        /* \"ERC20Staking.sol\":2111:2118  uint256 */\n      0x00\n        /* \"ERC20Staking.sol\":2237:2255  s_rewards[account] */\n      swap1\n      dup2\n      mstore\n        /* \"ERC20Staking.sol\":2237:2246  s_rewards */\n      0x0a\n        /* \"ERC20Staking.sol\":2237:2255  s_rewards[account] */\n      0x20\n      swap1\n      dup2\n      mstore\n      0x40\n      dup1\n      dup4\n      keccak256\n      sload\n        /* \"ERC20Staking.sol\":2191:2215  s_userRewardPerTokenPaid */\n      0x09\n        /* \"ERC20Staking.sol\":2191:2224  s_userRewardPerTokenPaid[account] */\n      swap1\n      swap3\n      mstore\n      dup3\n      keccak256\n      sload\n        /* \"ERC20Staking.sol\":2229:2233  1e18 */\n      0x0de0b6b3a7640000\n      swap1\n        /* \"ERC20Staking.sol\":2172:2188  rewardPerToken() */\n      tag_157\n        /* \"ERC20Staking.sol\":2172:2186  rewardPerToken */\n      tag_136\n        /* \"ERC20Staking.sol\":2172:2188  rewardPerToken() */\n      jump\t// in\n    tag_157:\n        /* \"ERC20Staking.sol\":2172:2224  rewardPerToken() - s_userRewardPerTokenPaid[account] */\n      tag_158\n      swap2\n      swap1\n      tag_159\n      jump\t// in\n    tag_158:\n      sub(shl(0xa0, 0x01), 0x01)\n        /* \"ERC20Staking.sol\":2151:2168  s_stakes[account] */\n      dup6\n      and\n      0x00\n      swap1\n      dup2\n      mstore\n        /* \"ERC20Staking.sol\":2151:2159  s_stakes */\n      0x0b\n        /* \"ERC20Staking.sol\":2151:2168  s_stakes[account] */\n      0x20\n      mstore\n      0x40\n      swap1\n      keccak256\n      sload\n        /* \"ERC20Staking.sol\":2151:2225  s_stakes[account] * (rewardPerToken() - s_userRewardPerTokenPaid[account]) */\n      tag_160\n      swap2\n      swap1\n      tag_161\n      jump\t// in\n    tag_160:\n        /* \"ERC20Staking.sol\":2150:2233  (s_stakes[account] * (rewardPerToken() - s_userRewardPerTokenPaid[account])) / 1e18 */\n      tag_162\n      swap2\n      swap1\n      tag_163\n      jump\t// in\n    tag_162:\n        /* \"ERC20Staking.sol\":2149:2255  ((s_stakes[account] * (rewardPerToken() - s_userRewardPerTokenPaid[account])) / 1e18) + s_rewards[account] */\n      tag_164\n      swap2\n      swap1\n      tag_165\n      jump\t// in\n    tag_164:\n        /* \"ERC20Staking.sol\":2130:2255  return... */\n      swap3\n        /* \"ERC20Staking.sol\":2057:2262  function earned(address account) public view returns (uint256) {... */\n      swap2\n      pop\n      pop\n      jump\t// out\n        /* \"ERC20Staking.sol\":5496:5615  function getTotalStakingTokensSupply() public view returns (uint256) {... */\n    tag_53:\n        /* \"ERC20Staking.sol\":5580:5594  s_stakingToken */\n      sload(0x03)\n        /* \"ERC20Staking.sol\":5580:5608  s_stakingToken.totalSupply() */\n      0x40\n      dup1\n      mload\n      shl(0xe0, 0x18160ddd)\n      dup2\n      mstore\n      swap1\n      mload\n        /* \"ERC20Staking.sol\":5556:5563  uint256 */\n      0x00\n      swap3\n      sub(shl(0xa0, 0x01), 0x01)\n        /* \"ERC20Staking.sol\":5580:5594  s_stakingToken */\n      and\n      swap2\n        /* \"ERC20Staking.sol\":5580:5606  s_stakingToken.totalSupply */\n      0x18160ddd\n      swap2\n        /* \"ERC20Staking.sol\":5580:5608  s_stakingToken.totalSupply() */\n      0x04\n      dup1\n      dup4\n      add\n      swap3\n      0x20\n      swap3\n      swap2\n      swap1\n      dup3\n      swap1\n      sub\n      add\n      dup2\n        /* \"ERC20Staking.sol\":5580:5594  s_stakingToken */\n      dup7\n        /* \"ERC20Staking.sol\":5580:5608  s_stakingToken.totalSupply() */\n      gas\n      staticcall\n      iszero\n      dup1\n      iszero\n      tag_168\n      jumpi\n      returndatasize\n      0x00\n      dup1\n      returndatacopy\n      revert(0x00, returndatasize)\n    tag_168:\n      pop\n      pop\n      pop\n      pop\n      mload(0x40)\n      returndatasize\n      not(0x1f)\n      0x1f\n      dup3\n      add\n      and\n      dup3\n      add\n      dup1\n      0x40\n      mstore\n      pop\n      dup2\n      add\n      swap1\n      tag_169\n      swap2\n      swap1\n      tag_170\n      jump\t// in\n    tag_169:\n        /* \"ERC20Staking.sol\":5573:5608  return s_stakingToken.totalSupply() */\n      swap1\n      pop\n        /* \"ERC20Staking.sol\":5496:5615  function getTotalStakingTokensSupply() public view returns (uint256) {... */\n      swap1\n      jump\t// out\n        /* \"ERC20Staking.sol\":2995:3343  function withdraw(uint256 amount) external updateReward(msg.sender) nonReentrant {... */\n    tag_58:\n        /* \"ERC20Staking.sol\":3051:3061  msg.sender */\n      caller\n        /* \"ERC20Staking.sol\":4548:4564  rewardPerToken() */\n      tag_172\n        /* \"ERC20Staking.sol\":4548:4562  rewardPerToken */\n      tag_136\n        /* \"ERC20Staking.sol\":4548:4564  rewardPerToken() */\n      jump\t// in\n    tag_172:\n        /* \"ERC20Staking.sol\":4523:4545  s_rewardPerTokenStored */\n      0x05\n        /* \"ERC20Staking.sol\":4523:4564  s_rewardPerTokenStored = rewardPerToken() */\n      sstore\n        /* \"ERC20Staking.sol\":4593:4608  block.timestamp */\n      timestamp\n        /* \"ERC20Staking.sol\":4574:4590  s_lastUpdateTime */\n      0x04\n        /* \"ERC20Staking.sol\":4574:4608  s_lastUpdateTime = block.timestamp */\n      sstore\n        /* \"ERC20Staking.sol\":4639:4654  earned(account) */\n      tag_173\n        /* \"ERC20Staking.sol\":4646:4653  account */\n      dup2\n        /* \"ERC20Staking.sol\":4639:4645  earned */\n      tag_45\n        /* \"ERC20Staking.sol\":4639:4654  earned(account) */\n      jump\t// in\n    tag_173:\n      sub(shl(0xa0, 0x01), 0x01)\n        /* \"ERC20Staking.sol\":4618:4636  s_rewards[account] */\n      dup3\n      and\n      0x00\n      swap1\n      dup2\n      mstore\n        /* \"ERC20Staking.sol\":4618:4627  s_rewards */\n      0x0a\n        /* \"ERC20Staking.sol\":4618:4636  s_rewards[account] */\n      0x20\n      swap1\n      dup2\n      mstore\n      0x40\n      dup1\n      dup4\n      keccak256\n        /* \"ERC20Staking.sol\":4618:4654  s_rewards[account] = earned(account) */\n      swap4\n      swap1\n      swap4\n      sstore\n        /* \"ERC20Staking.sol\":4700:4722  s_rewardPerTokenStored */\n      sload(0x05)\n        /* \"ERC20Staking.sol\":4664:4688  s_userRewardPerTokenPaid */\n      0x09\n        /* \"ERC20Staking.sol\":4664:4697  s_userRewardPerTokenPaid[account] */\n      swap1\n      swap2\n      mstore\n      swap2\n      dup2\n      keccak256\n        /* \"ERC20Staking.sol\":4664:4722  s_userRewardPerTokenPaid[account] = s_rewardPerTokenStored */\n      swap2\n      swap1\n      swap2\n      sstore\n        /* \"@openzeppelin/contracts/security/ReentrancyGuard.sol\":2325:2332   */\n      sload\n      not(0x01)\n        /* \"@openzeppelin/contracts/security/ReentrancyGuard.sol\":2325:2344   */\n      add\n        /* \"@openzeppelin/contracts/security/ReentrancyGuard.sol\":2317:2380   */\n      tag_175\n      jumpi\n      mload(0x40)\n      shl(0xe5, 0x461bcd)\n      dup2\n      mstore\n        /* \"#utility.yul\":3750:3752   */\n      0x20\n        /* \"@openzeppelin/contracts/security/ReentrancyGuard.sol\":2317:2380   */\n      0x04\n      dup3\n      add\n        /* \"#utility.yul\":3732:3753   */\n      mstore\n        /* \"#utility.yul\":3789:3791   */\n      0x1f\n        /* \"#utility.yul\":3769:3787   */\n      0x24\n      dup3\n      add\n        /* \"#utility.yul\":3762:3792   */\n      mstore\n        /* \"#utility.yul\":3828:3861   */\n      0x5265656e7472616e637947756172643a207265656e7472616e742063616c6c00\n        /* \"#utility.yul\":3808:3826   */\n      0x44\n      dup3\n      add\n        /* \"#utility.yul\":3801:3862   */\n      mstore\n        /* \"#utility.yul\":3879:3897   */\n      0x64\n      add\n        /* \"@openzeppelin/contracts/security/ReentrancyGuard.sol\":2317:2380   */\n    tag_176:\n      mload(0x40)\n      dup1\n      swap2\n      sub\n      swap1\n      revert\n    tag_175:\n        /* \"@openzeppelin/contracts/security/ReentrancyGuard.sol\":1744:1745   */\n      0x02\n        /* \"@openzeppelin/contracts/security/ReentrancyGuard.sol\":2455:2462   */\n      0x00\n        /* \"@openzeppelin/contracts/security/ReentrancyGuard.sol\":2455:2473   */\n      dup2\n      swap1\n      sstore\n      pop\n        /* \"ERC20Staking.sol\":3103:3109  amount */\n      dup2\n        /* \"ERC20Staking.sol\":3086:3099  s_totalSupply */\n      0x08\n      0x00\n        /* \"ERC20Staking.sol\":3086:3109  s_totalSupply -= amount */\n      dup3\n      dup3\n      sload\n      tag_179\n      swap2\n      swap1\n      tag_159\n      jump\t// in\n    tag_179:\n      swap1\n      swap2\n      sstore\n      pop\n      pop\n        /* \"ERC20Staking.sol\":3128:3138  msg.sender */\n      caller\n        /* \"ERC20Staking.sol\":3119:3139  s_stakes[msg.sender] */\n      0x00\n      swap1\n      dup2\n      mstore\n        /* \"ERC20Staking.sol\":3119:3127  s_stakes */\n      0x0b\n        /* \"ERC20Staking.sol\":3119:3139  s_stakes[msg.sender] */\n      0x20\n      mstore\n      0x40\n      dup2\n      keccak256\n        /* \"ERC20Staking.sol\":3119:3149  s_stakes[msg.sender] -= amount */\n      dup1\n      sload\n        /* \"ERC20Staking.sol\":3143:3149  amount */\n      dup5\n      swap3\n        /* \"ERC20Staking.sol\":3119:3139  s_stakes[msg.sender] */\n      swap1\n        /* \"ERC20Staking.sol\":3119:3149  s_stakes[msg.sender] -= amount */\n      tag_180\n      swap1\n        /* \"ERC20Staking.sol\":3143:3149  amount */\n      dup5\n      swap1\n        /* \"ERC20Staking.sol\":3119:3149  s_stakes[msg.sender] -= amount */\n      tag_159\n      jump\t// in\n    tag_180:\n      swap1\n      swap2\n      sstore\n      pop\n      pop\n        /* \"ERC20Staking.sol\":3164:3197  WithdrewStake(msg.sender, amount) */\n      mload(0x40)\n        /* \"ERC20Staking.sol\":3190:3196  amount */\n      dup3\n      swap1\n        /* \"ERC20Staking.sol\":3178:3188  msg.sender */\n      caller\n      swap1\n        /* \"ERC20Staking.sol\":3164:3197  WithdrewStake(msg.sender, amount) */\n      0x4cb6da433ea55f6e302b7bdbfeed740816a42301cde7f5bac5dff2b340376374\n      swap1\n      0x00\n      swap1\n      log3\n        /* \"ERC20Staking.sol\":3222:3236  s_stakingToken */\n      sload(0x03)\n        /* \"ERC20Staking.sol\":3222:3265  s_stakingToken.transfer(msg.sender, amount) */\n      mload(0x40)\n      shl(0xe0, 0xa9059cbb)\n      dup2\n      mstore\n        /* \"ERC20Staking.sol\":3246:3256  msg.sender */\n      caller\n        /* \"ERC20Staking.sol\":3222:3265  s_stakingToken.transfer(msg.sender, amount) */\n      0x04\n      dup3\n      add\n        /* \"#utility.yul\":4082:4156   */\n      mstore\n        /* \"#utility.yul\":4172:4190   */\n      0x24\n      dup2\n      add\n        /* \"#utility.yul\":4165:4199   */\n      dup5\n      swap1\n      mstore\n        /* \"ERC20Staking.sol\":3207:3219  bool success */\n      0x00\n      swap2\n      sub(shl(0xa0, 0x01), 0x01)\n        /* \"ERC20Staking.sol\":3222:3236  s_stakingToken */\n      and\n      swap1\n        /* \"ERC20Staking.sol\":3222:3245  s_stakingToken.transfer */\n      0xa9059cbb\n      swap1\n        /* \"#utility.yul\":4055:4073   */\n      0x44\n      add\n        /* \"ERC20Staking.sol\":3222:3265  s_stakingToken.transfer(msg.sender, amount) */\n    tag_181:\n      0x20\n      mload(0x40)\n      dup1\n      dup4\n      sub\n      dup2\n      0x00\n      dup8\n      gas\n      call\n      iszero\n      dup1\n      iszero\n      tag_184\n      jumpi\n      returndatasize\n      0x00\n      dup1\n      returndatacopy\n      revert(0x00, returndatasize)\n    tag_184:\n      pop\n      pop\n      pop\n      pop\n      mload(0x40)\n      returndatasize\n      not(0x1f)\n      0x1f\n      dup3\n      add\n      and\n      dup3\n      add\n      dup1\n      0x40\n      mstore\n      pop\n      dup2\n      add\n      swap1\n      tag_185\n      swap2\n      swap1\n      tag_186\n      jump\t// in\n    tag_185:\n        /* \"ERC20Staking.sol\":3207:3265  bool success = s_stakingToken.transfer(msg.sender, amount) */\n      swap1\n      pop\n        /* \"ERC20Staking.sol\":3280:3287  success */\n      dup1\n        /* \"ERC20Staking.sol\":3275:3337  if (!success) {... */\n      tag_187\n      jumpi\n        /* \"ERC20Staking.sol\":3310:3326  TransferFailed() */\n      mload(0x40)\n      shl(0xe3, 0x12171d83)\n      dup2\n      mstore\n      0x04\n      add\n      mload(0x40)\n      dup1\n      swap2\n      sub\n      swap1\n      revert\n        /* \"ERC20Staking.sol\":3275:3337  if (!success) {... */\n    tag_187:\n      pop\n      pop\n        /* \"@openzeppelin/contracts/security/ReentrancyGuard.sol\":1701:1702   */\n      0x01\n        /* \"@openzeppelin/contracts/security/ReentrancyGuard.sol\":2628:2635   */\n      0x00\n        /* \"@openzeppelin/contracts/security/ReentrancyGuard.sol\":2628:2650   */\n      sstore\n      pop\n        /* \"ERC20Staking.sol\":2995:3343  function withdraw(uint256 amount) external updateReward(msg.sender) nonReentrant {... */\n      jump\t// out\n        /* \"ERC20Staking.sol\":6007:6108  function isOwner(address account) public view returns (bool) {... */\n    tag_61:\n        /* \"ERC20Staking.sol\":6062:6066  bool */\n      0x00\n        /* \"ERC20Staking.sol\":6094:6101  account */\n      dup2\n      sub(shl(0xa0, 0x01), 0x01)\n        /* \"ERC20Staking.sol\":6083:6101  owner() == account */\n      and\n        /* \"ERC20Staking.sol\":6083:6090  owner() */\n      tag_189\n        /* \"@openzeppelin/contracts/access/Ownable.sol\":1108:1114   */\n      and(sub(shl(0xa0, 0x01), 0x01), sload(0x01))\n      swap1\n        /* \"@openzeppelin/contracts/access/Ownable.sol\":1036:1121   */\n      jump\n        /* \"ERC20Staking.sol\":6083:6090  owner() */\n    tag_189:\n      sub(shl(0xa0, 0x01), 0x01)\n        /* \"ERC20Staking.sol\":6083:6101  owner() == account */\n      and\n      eq\n      swap3\n        /* \"ERC20Staking.sol\":6007:6108  function isOwner(address account) public view returns (bool) {... */\n      swap2\n      pop\n      pop\n      jump\t// out\n        /* \"ERC20Staking.sol\":5089:5225  function getStakableTokensBalance(address account) public view returns (uint256) {... */\n    tag_73:\n        /* \"ERC20Staking.sol\":5185:5199  s_stakingToken */\n      sload(0x03)\n        /* \"ERC20Staking.sol\":5185:5218  s_stakingToken.balanceOf(account) */\n      mload(0x40)\n      shl(0xe0, 0x70a08231)\n      dup2\n      mstore\n      sub(shl(0xa0, 0x01), 0x01)\n        /* \"#utility.yul\":688:743   */\n      dup4\n      dup2\n      and\n        /* \"ERC20Staking.sol\":5185:5218  s_stakingToken.balanceOf(account) */\n      0x04\n      dup4\n      add\n        /* \"#utility.yul\":670:744   */\n      mstore\n        /* \"ERC20Staking.sol\":5161:5168  uint256 */\n      0x00\n      swap3\n        /* \"ERC20Staking.sol\":5185:5199  s_stakingToken */\n      and\n      swap1\n        /* \"ERC20Staking.sol\":5185:5209  s_stakingToken.balanceOf */\n      0x70a08231\n      swap1\n        /* \"#utility.yul\":643:661   */\n      0x24\n      add\n        /* \"ERC20Staking.sol\":5185:5218  s_stakingToken.balanceOf(account) */\n    tag_192:\n      0x20\n      mload(0x40)\n      dup1\n      dup4\n      sub\n      dup2\n      dup7\n      gas\n      staticcall\n      iszero\n      dup1\n      iszero\n      tag_194\n      jumpi\n      returndatasize\n      0x00\n      dup1\n      returndatacopy\n      revert(0x00, returndatasize)\n    tag_194:\n      pop\n      pop\n      pop\n      pop\n      mload(0x40)\n      returndatasize\n      not(0x1f)\n      0x1f\n      dup3\n      add\n      and\n      dup3\n      add\n      dup1\n      0x40\n      mstore\n      pop\n      dup2\n      add\n      swap1\n      tag_164\n      swap2\n      swap1\n      tag_170\n      jump\t// in\n        /* \"ERC20Staking.sol\":5231:5366  function getRewardsTokensBalance(address account) public view returns (uint256) {... */\n    tag_84:\n        /* \"ERC20Staking.sol\":5326:5340  s_rewardsToken */\n      sload(0x02)\n        /* \"ERC20Staking.sol\":5326:5359  s_rewardsToken.balanceOf(account) */\n      mload(0x40)\n      shl(0xe0, 0x70a08231)\n      dup2\n      mstore\n      sub(shl(0xa0, 0x01), 0x01)\n        /* \"#utility.yul\":688:743   */\n      dup4\n      dup2\n      and\n        /* \"ERC20Staking.sol\":5326:5359  s_rewardsToken.balanceOf(account) */\n      0x04\n      dup4\n      add\n        /* \"#utility.yul\":670:744   */\n      mstore\n        /* \"ERC20Staking.sol\":5302:5309  uint256 */\n      0x00\n      swap3\n        /* \"ERC20Staking.sol\":5326:5340  s_rewardsToken */\n      and\n      swap1\n        /* \"ERC20Staking.sol\":5326:5350  s_rewardsToken.balanceOf */\n      0x70a08231\n      swap1\n        /* \"#utility.yul\":643:661   */\n      0x24\n      add\n        /* \"ERC20Staking.sol\":5326:5359  s_rewardsToken.balanceOf(account) */\n      tag_192\n        /* \"#utility.yul\":510:750   */\n      jump\n        /* \"@openzeppelin/contracts/access/Ownable.sol\":1668:1769   */\n    tag_93:\n        /* \"@openzeppelin/contracts/access/Ownable.sol\":1108:1114   */\n      and(sub(shl(0xa0, 0x01), 0x01), sload(0x01))\n        /* \"ERC20Staking.sol\":5899:5909  msg.sender */\n      caller\n        /* \"@openzeppelin/contracts/access/Ownable.sol\":1248:1271   */\n      eq\n        /* \"@openzeppelin/contracts/access/Ownable.sol\":1240:1308   */\n      tag_207\n      jumpi\n      mload(0x40)\n      shl(0xe5, 0x461bcd)\n      dup2\n      mstore\n        /* \"#utility.yul\":4694:4696   */\n      0x20\n        /* \"@openzeppelin/contracts/access/Ownable.sol\":1240:1308   */\n      0x04\n      dup3\n      add\n        /* \"#utility.yul\":4676:4697   */\n      dup2\n      swap1\n      mstore\n        /* \"#utility.yul\":4713:4731   */\n      0x24\n      dup3\n      add\n        /* \"#utility.yul\":4706:4736   */\n      mstore\n        /* \"#utility.yul\":4772:4806   */\n      0x4f776e61626c653a2063616c6c6572206973206e6f7420746865206f776e6572\n        /* \"#utility.yul\":4752:4770   */\n      0x44\n      dup3\n      add\n        /* \"#utility.yul\":4745:4807   */\n      mstore\n        /* \"#utility.yul\":4824:4842   */\n      0x64\n      add\n        /* \"@openzeppelin/contracts/access/Ownable.sol\":1240:1308   */\n      tag_176\n        /* \"#utility.yul\":4492:4848   */\n      jump\n        /* \"@openzeppelin/contracts/access/Ownable.sol\":1240:1308   */\n    tag_207:\n        /* \"@openzeppelin/contracts/access/Ownable.sol\":1732:1762   */\n      tag_211\n        /* \"@openzeppelin/contracts/access/Ownable.sol\":1759:1760   */\n      0x00\n        /* \"@openzeppelin/contracts/access/Ownable.sol\":1732:1750   */\n      tag_212\n        /* \"@openzeppelin/contracts/access/Ownable.sol\":1732:1762   */\n      jump\t// in\n    tag_211:\n        /* \"@openzeppelin/contracts/access/Ownable.sol\":1668:1769   */\n      jump\t// out\n        /* \"ERC20Staking.sol\":5922:6001  function getOwner() public view returns (address) {... */\n    tag_95:\n        /* \"ERC20Staking.sol\":5963:5970  address */\n      0x00\n        /* \"ERC20Staking.sol\":5987:5994  owner() */\n      tag_169\n        /* \"@openzeppelin/contracts/access/Ownable.sol\":1108:1114   */\n      and(sub(shl(0xa0, 0x01), 0x01), sload(0x01))\n      swap1\n        /* \"@openzeppelin/contracts/access/Ownable.sol\":1036:1121   */\n      jump\n        /* \"ERC20Staking.sol\":4013:4384  function claimRewardsTimer(address _user)... */\n    tag_109:\n        /* \"ERC20Staking.sol\":4170:4184  minStakePeriod */\n      sload(0x07)\n      sub(shl(0xa0, 0x01), 0x01)\n        /* \"ERC20Staking.sol\":4134:4167  s_lastTimeOfRewardsClaimed[_user] */\n      dup3\n      and\n        /* \"ERC20Staking.sol\":4100:4114  uint256 _timer */\n      0x00\n        /* \"ERC20Staking.sol\":4134:4167  s_lastTimeOfRewardsClaimed[_user] */\n      swap1\n      dup2\n      mstore\n        /* \"ERC20Staking.sol\":4134:4160  s_lastTimeOfRewardsClaimed */\n      0x0c\n        /* \"ERC20Staking.sol\":4134:4167  s_lastTimeOfRewardsClaimed[_user] */\n      0x20\n      mstore\n      0x40\n      dup2\n      keccak256\n      sload\n        /* \"ERC20Staking.sol\":4100:4114  uint256 _timer */\n      swap1\n      swap2\n        /* \"ERC20Staking.sol\":4188:4203  block.timestamp */\n      timestamp\n      swap2\n        /* \"ERC20Staking.sol\":4134:4184  s_lastTimeOfRewardsClaimed[_user] + minStakePeriod */\n      tag_218\n      swap2\n        /* \"ERC20Staking.sol\":4170:4184  minStakePeriod */\n      swap1\n        /* \"ERC20Staking.sol\":4134:4184  s_lastTimeOfRewardsClaimed[_user] + minStakePeriod */\n      tag_165\n      jump\t// in\n    tag_218:\n        /* \"ERC20Staking.sol\":4134:4203  s_lastTimeOfRewardsClaimed[_user] + minStakePeriod <= block.timestamp */\n      gt\n        /* \"ERC20Staking.sol\":4130:4378  if (s_lastTimeOfRewardsClaimed[_user] + minStakePeriod <= block.timestamp) {... */\n      tag_219\n      jumpi\n      pop\n        /* \"ERC20Staking.sol\":4226:4227  0 */\n      0x00\n      swap2\n        /* \"ERC20Staking.sol\":4013:4384  function claimRewardsTimer(address _user)... */\n      swap1\n      pop\n      jump\t// out\n        /* \"ERC20Staking.sol\":4130:4378  if (s_lastTimeOfRewardsClaimed[_user] + minStakePeriod <= block.timestamp) {... */\n    tag_219:\n        /* \"ERC20Staking.sol\":4318:4332  minStakePeriod */\n      sload(0x07)\n      sub(shl(0xa0, 0x01), 0x01)\n        /* \"ERC20Staking.sol\":4282:4315  s_lastTimeOfRewardsClaimed[_user] */\n      dup4\n      and\n      0x00\n      swap1\n      dup2\n      mstore\n        /* \"ERC20Staking.sol\":4282:4308  s_lastTimeOfRewardsClaimed */\n      0x0c\n        /* \"ERC20Staking.sol\":4282:4315  s_lastTimeOfRewardsClaimed[_user] */\n      0x20\n      mstore\n      0x40\n      swap1\n      keccak256\n      sload\n        /* \"ERC20Staking.sol\":4352:4367  block.timestamp */\n      timestamp\n      swap2\n        /* \"ERC20Staking.sol\":4282:4332  s_lastTimeOfRewardsClaimed[_user] + minStakePeriod */\n      tag_221\n      swap2\n      tag_165\n      jump\t// in\n    tag_221:\n        /* \"ERC20Staking.sol\":4281:4367  (s_lastTimeOfRewardsClaimed[_user] + minStakePeriod) -... */\n      tag_164\n      swap2\n      swap1\n      tag_159\n      jump\t// in\n        /* \"ERC20Staking.sol\":2374:2879  function stake(uint256 amount)... */\n    tag_113:\n        /* \"ERC20Staking.sol\":2443:2453  msg.sender */\n      caller\n        /* \"ERC20Staking.sol\":4548:4564  rewardPerToken() */\n      tag_224\n        /* \"ERC20Staking.sol\":4548:4562  rewardPerToken */\n      tag_136\n        /* \"ERC20Staking.sol\":4548:4564  rewardPerToken() */\n      jump\t// in\n    tag_224:\n        /* \"ERC20Staking.sol\":4523:4545  s_rewardPerTokenStored */\n      0x05\n        /* \"ERC20Staking.sol\":4523:4564  s_rewardPerTokenStored = rewardPerToken() */\n      sstore\n        /* \"ERC20Staking.sol\":4593:4608  block.timestamp */\n      timestamp\n        /* \"ERC20Staking.sol\":4574:4590  s_lastUpdateTime */\n      0x04\n        /* \"ERC20Staking.sol\":4574:4608  s_lastUpdateTime = block.timestamp */\n      sstore\n        /* \"ERC20Staking.sol\":4639:4654  earned(account) */\n      tag_225\n        /* \"ERC20Staking.sol\":4646:4653  account */\n      dup2\n        /* \"ERC20Staking.sol\":4639:4645  earned */\n      tag_45\n        /* \"ERC20Staking.sol\":4639:4654  earned(account) */\n      jump\t// in\n    tag_225:\n      sub(shl(0xa0, 0x01), 0x01)\n        /* \"ERC20Staking.sol\":4618:4636  s_rewards[account] */\n      dup3\n      and\n      0x00\n      swap1\n      dup2\n      mstore\n        /* \"ERC20Staking.sol\":4618:4627  s_rewards */\n      0x0a\n        /* \"ERC20Staking.sol\":4618:4636  s_rewards[account] */\n      0x20\n      swap1\n      dup2\n      mstore\n      0x40\n      dup1\n      dup4\n      keccak256\n        /* \"ERC20Staking.sol\":4618:4654  s_rewards[account] = earned(account) */\n      swap4\n      swap1\n      swap4\n      sstore\n        /* \"ERC20Staking.sol\":4700:4722  s_rewardPerTokenStored */\n      sload(0x05)\n        /* \"ERC20Staking.sol\":4664:4688  s_userRewardPerTokenPaid */\n      0x09\n        /* \"ERC20Staking.sol\":4664:4697  s_userRewardPerTokenPaid[account] */\n      swap1\n      swap2\n      mstore\n      swap2\n      dup2\n      keccak256\n        /* \"ERC20Staking.sol\":4664:4722  s_userRewardPerTokenPaid[account] = s_rewardPerTokenStored */\n      swap2\n      swap1\n      swap2\n      sstore\n        /* \"@openzeppelin/contracts/security/ReentrancyGuard.sol\":2325:2332   */\n      sload\n      not(0x01)\n        /* \"@openzeppelin/contracts/security/ReentrancyGuard.sol\":2325:2344   */\n      add\n        /* \"@openzeppelin/contracts/security/ReentrancyGuard.sol\":2317:2380   */\n      tag_227\n      jumpi\n      mload(0x40)\n      shl(0xe5, 0x461bcd)\n      dup2\n      mstore\n        /* \"#utility.yul\":3750:3752   */\n      0x20\n        /* \"@openzeppelin/contracts/security/ReentrancyGuard.sol\":2317:2380   */\n      0x04\n      dup3\n      add\n        /* \"#utility.yul\":3732:3753   */\n      mstore\n        /* \"#utility.yul\":3789:3791   */\n      0x1f\n        /* \"#utility.yul\":3769:3787   */\n      0x24\n      dup3\n      add\n        /* \"#utility.yul\":3762:3792   */\n      mstore\n        /* \"#utility.yul\":3828:3861   */\n      0x5265656e7472616e637947756172643a207265656e7472616e742063616c6c00\n        /* \"#utility.yul\":3808:3826   */\n      0x44\n      dup3\n      add\n        /* \"#utility.yul\":3801:3862   */\n      mstore\n        /* \"#utility.yul\":3879:3897   */\n      0x64\n      add\n        /* \"@openzeppelin/contracts/security/ReentrancyGuard.sol\":2317:2380   */\n      tag_176\n        /* \"#utility.yul\":3548:3903   */\n      jump\n        /* \"@openzeppelin/contracts/security/ReentrancyGuard.sol\":2317:2380   */\n    tag_227:\n        /* \"@openzeppelin/contracts/security/ReentrancyGuard.sol\":1744:1745   */\n      0x02\n        /* \"@openzeppelin/contracts/security/ReentrancyGuard.sol\":2455:2462   */\n      0x00\n        /* \"@openzeppelin/contracts/security/ReentrancyGuard.sol\":2455:2473   */\n      dup2\n      swap1\n      sstore\n      pop\n        /* \"ERC20Staking.sol\":2497:2503  amount */\n      dup2\n        /* \"ERC20Staking.sol\":4798:4804  amount */\n      dup1\n        /* \"ERC20Staking.sol\":4808:4809  0 */\n      0x00\n        /* \"ERC20Staking.sol\":4798:4809  amount == 0 */\n      sub\n        /* \"ERC20Staking.sol\":4794:4862  if (amount == 0) {... */\n      tag_230\n      jumpi\n        /* \"ERC20Staking.sol\":4832:4851  NeedsMoreThanZero() */\n      mload(0x40)\n      shl(0xe4, 0x0f45911f)\n      dup2\n      mstore\n      0x04\n      add\n      mload(0x40)\n      dup1\n      swap2\n      sub\n      swap1\n      revert\n        /* \"ERC20Staking.sol\":4794:4862  if (amount == 0) {... */\n    tag_230:\n        /* \"ERC20Staking.sol\":2533:2543  msg.sender */\n      caller\n        /* \"ERC20Staking.sol\":2547:2548  0 */\n      0x00\n        /* \"ERC20Staking.sol\":2524:2544  s_stakes[msg.sender] */\n      swap1\n      dup2\n      mstore\n        /* \"ERC20Staking.sol\":2524:2532  s_stakes */\n      0x0b\n        /* \"ERC20Staking.sol\":2524:2544  s_stakes[msg.sender] */\n      0x20\n      mstore\n      0x40\n      swap1\n      keccak256\n      sload\n        /* \"ERC20Staking.sol\":2519:2601  if(!(s_stakes[msg.sender] > 0)){... */\n      tag_232\n      jumpi\n        /* \"ERC20Staking.sol\":2564:2573  addresses */\n      0x06\n        /* \"ERC20Staking.sol\":2564:2590  addresses.push(msg.sender) */\n      dup1\n      sload\n      0x01\n      dup2\n      add\n      dup3\n      sstore\n      0x00\n      swap2\n      swap1\n      swap2\n      mstore\n      0xf652222313e28459528d920b65115c16c04f3efc82aaedc97be59f3f377c0d3f\n      add\n      dup1\n      sload\n      not(0xffffffffffffffffffffffffffffffffffffffff)\n      and\n        /* \"ERC20Staking.sol\":2579:2589  msg.sender */\n      caller\n        /* \"ERC20Staking.sol\":2564:2590  addresses.push(msg.sender) */\n      or\n      swap1\n      sstore\n        /* \"ERC20Staking.sol\":2519:2601  if(!(s_stakes[msg.sender] > 0)){... */\n    tag_232:\n        /* \"ERC20Staking.sol\":2627:2633  amount */\n      dup3\n        /* \"ERC20Staking.sol\":2610:2623  s_totalSupply */\n      0x08\n      0x00\n        /* \"ERC20Staking.sol\":2610:2633  s_totalSupply += amount */\n      dup3\n      dup3\n      sload\n      tag_234\n      swap2\n      swap1\n      tag_165\n      jump\t// in\n    tag_234:\n      swap1\n      swap2\n      sstore\n      pop\n      pop\n        /* \"ERC20Staking.sol\":2652:2662  msg.sender */\n      caller\n        /* \"ERC20Staking.sol\":2643:2663  s_stakes[msg.sender] */\n      0x00\n      swap1\n      dup2\n      mstore\n        /* \"ERC20Staking.sol\":2643:2651  s_stakes */\n      0x0b\n        /* \"ERC20Staking.sol\":2643:2663  s_stakes[msg.sender] */\n      0x20\n      mstore\n      0x40\n      dup2\n      keccak256\n        /* \"ERC20Staking.sol\":2643:2673  s_stakes[msg.sender] += amount */\n      dup1\n      sload\n        /* \"ERC20Staking.sol\":2667:2673  amount */\n      dup6\n      swap3\n        /* \"ERC20Staking.sol\":2643:2663  s_stakes[msg.sender] */\n      swap1\n        /* \"ERC20Staking.sol\":2643:2673  s_stakes[msg.sender] += amount */\n      tag_235\n      swap1\n        /* \"ERC20Staking.sol\":2667:2673  amount */\n      dup5\n      swap1\n        /* \"ERC20Staking.sol\":2643:2673  s_stakes[msg.sender] += amount */\n      tag_165\n      jump\t// in\n    tag_235:\n      swap1\n      swap2\n      sstore\n      pop\n      pop\n        /* \"ERC20Staking.sol\":2688:2714  Staked(msg.sender, amount) */\n      mload(0x40)\n        /* \"ERC20Staking.sol\":2707:2713  amount */\n      dup4\n      swap1\n        /* \"ERC20Staking.sol\":2695:2705  msg.sender */\n      caller\n      swap1\n        /* \"ERC20Staking.sol\":2688:2714  Staked(msg.sender, amount) */\n      0x9e71bc8eea02a63969f509818f2dafb9254532904319f9dbda79b67bd34a5f3d\n      swap1\n      0x00\n      swap1\n      log3\n        /* \"ERC20Staking.sol\":2739:2753  s_stakingToken */\n      sload(0x03)\n        /* \"ERC20Staking.sol\":2739:2801  s_stakingToken.transferFrom(msg.sender, address(this), amount) */\n      mload(0x40)\n      shl(0xe0, 0x23b872dd)\n      dup2\n      mstore\n        /* \"ERC20Staking.sol\":2767:2777  msg.sender */\n      caller\n        /* \"ERC20Staking.sol\":2739:2801  s_stakingToken.transferFrom(msg.sender, address(this), amount) */\n      0x04\n      dup3\n      add\n        /* \"#utility.yul\":5116:5150   */\n      mstore\n        /* \"ERC20Staking.sol\":2787:2791  this */\n      address\n        /* \"#utility.yul\":5166:5184   */\n      0x24\n      dup3\n      add\n        /* \"#utility.yul\":5159:5202   */\n      mstore\n        /* \"#utility.yul\":5218:5236   */\n      0x44\n      dup2\n      add\n        /* \"#utility.yul\":5211:5245   */\n      dup6\n      swap1\n      mstore\n        /* \"ERC20Staking.sol\":2724:2736  bool success */\n      0x00\n      swap2\n      sub(shl(0xa0, 0x01), 0x01)\n        /* \"ERC20Staking.sol\":2739:2753  s_stakingToken */\n      and\n      swap1\n        /* \"ERC20Staking.sol\":2739:2766  s_stakingToken.transferFrom */\n      0x23b872dd\n      swap1\n        /* \"#utility.yul\":5028:5046   */\n      0x64\n      add\n        /* \"ERC20Staking.sol\":2739:2801  s_stakingToken.transferFrom(msg.sender, address(this), amount) */\n      0x20\n      mload(0x40)\n      dup1\n      dup4\n      sub\n      dup2\n      0x00\n      dup8\n      gas\n      call\n      iszero\n      dup1\n      iszero\n      tag_239\n      jumpi\n      returndatasize\n      0x00\n      dup1\n      returndatacopy\n      revert(0x00, returndatasize)\n    tag_239:\n      pop\n      pop\n      pop\n      pop\n      mload(0x40)\n      returndatasize\n      not(0x1f)\n      0x1f\n      dup3\n      add\n      and\n      dup3\n      add\n      dup1\n      0x40\n      mstore\n      pop\n      dup2\n      add\n      swap1\n      tag_240\n      swap2\n      swap1\n      tag_186\n      jump\t// in\n    tag_240:\n        /* \"ERC20Staking.sol\":2724:2801  bool success = s_stakingToken.transferFrom(msg.sender, address(this), amount) */\n      swap1\n      pop\n        /* \"ERC20Staking.sol\":2816:2823  success */\n      dup1\n        /* \"ERC20Staking.sol\":2811:2873  if (!success) {... */\n      tag_241\n      jumpi\n        /* \"ERC20Staking.sol\":2846:2862  TransferFailed() */\n      mload(0x40)\n      shl(0xe3, 0x12171d83)\n      dup2\n      mstore\n      0x04\n      add\n      mload(0x40)\n      dup1\n      swap2\n      sub\n      swap1\n      revert\n        /* \"ERC20Staking.sol\":2811:2873  if (!success) {... */\n    tag_241:\n      pop\n      pop\n        /* \"@openzeppelin/contracts/security/ReentrancyGuard.sol\":1701:1702   */\n      0x01\n        /* \"@openzeppelin/contracts/security/ReentrancyGuard.sol\":2628:2635   */\n      0x00\n        /* \"@openzeppelin/contracts/security/ReentrancyGuard.sol\":2628:2650   */\n      sstore\n      pop\n      pop\n        /* \"ERC20Staking.sol\":2374:2879  function stake(uint256 amount)... */\n      jump\t// out\n        /* \"ERC20Staking.sol\":3405:3939  function claimReward() external updateReward(msg.sender) nonReentrant {... */\n    tag_118:\n        /* \"ERC20Staking.sol\":3450:3460  msg.sender */\n      caller\n        /* \"ERC20Staking.sol\":4548:4564  rewardPerToken() */\n      tag_243\n        /* \"ERC20Staking.sol\":4548:4562  rewardPerToken */\n      tag_136\n        /* \"ERC20Staking.sol\":4548:4564  rewardPerToken() */\n      jump\t// in\n    tag_243:\n        /* \"ERC20Staking.sol\":4523:4545  s_rewardPerTokenStored */\n      0x05\n        /* \"ERC20Staking.sol\":4523:4564  s_rewardPerTokenStored = rewardPerToken() */\n      sstore\n        /* \"ERC20Staking.sol\":4593:4608  block.timestamp */\n      timestamp\n        /* \"ERC20Staking.sol\":4574:4590  s_lastUpdateTime */\n      0x04\n        /* \"ERC20Staking.sol\":4574:4608  s_lastUpdateTime = block.timestamp */\n      sstore\n        /* \"ERC20Staking.sol\":4639:4654  earned(account) */\n      tag_244\n        /* \"ERC20Staking.sol\":4646:4653  account */\n      dup2\n        /* \"ERC20Staking.sol\":4639:4645  earned */\n      tag_45\n        /* \"ERC20Staking.sol\":4639:4654  earned(account) */\n      jump\t// in\n    tag_244:\n      sub(shl(0xa0, 0x01), 0x01)\n        /* \"ERC20Staking.sol\":4618:4636  s_rewards[account] */\n      dup3\n      and\n      0x00\n      swap1\n      dup2\n      mstore\n        /* \"ERC20Staking.sol\":4618:4627  s_rewards */\n      0x0a\n        /* \"ERC20Staking.sol\":4618:4636  s_rewards[account] */\n      0x20\n      swap1\n      dup2\n      mstore\n      0x40\n      dup1\n      dup4\n      keccak256\n        /* \"ERC20Staking.sol\":4618:4654  s_rewards[account] = earned(account) */\n      swap4\n      swap1\n      swap4\n      sstore\n        /* \"ERC20Staking.sol\":4700:4722  s_rewardPerTokenStored */\n      sload(0x05)\n        /* \"ERC20Staking.sol\":4664:4688  s_userRewardPerTokenPaid */\n      0x09\n        /* \"ERC20Staking.sol\":4664:4697  s_userRewardPerTokenPaid[account] */\n      swap1\n      swap2\n      mstore\n      swap2\n      dup2\n      keccak256\n        /* \"ERC20Staking.sol\":4664:4722  s_userRewardPerTokenPaid[account] = s_rewardPerTokenStored */\n      swap2\n      swap1\n      swap2\n      sstore\n        /* \"@openzeppelin/contracts/security/ReentrancyGuard.sol\":2325:2332   */\n      sload\n      not(0x01)\n        /* \"@openzeppelin/contracts/security/ReentrancyGuard.sol\":2325:2344   */\n      add\n        /* \"@openzeppelin/contracts/security/ReentrancyGuard.sol\":2317:2380   */\n      tag_246\n      jumpi\n      mload(0x40)\n      shl(0xe5, 0x461bcd)\n      dup2\n      mstore\n        /* \"#utility.yul\":3750:3752   */\n      0x20\n        /* \"@openzeppelin/contracts/security/ReentrancyGuard.sol\":2317:2380   */\n      0x04\n      dup3\n      add\n        /* \"#utility.yul\":3732:3753   */\n      mstore\n        /* \"#utility.yul\":3789:3791   */\n      0x1f\n        /* \"#utility.yul\":3769:3787   */\n      0x24\n      dup3\n      add\n        /* \"#utility.yul\":3762:3792   */\n      mstore\n        /* \"#utility.yul\":3828:3861   */\n      0x5265656e7472616e637947756172643a207265656e7472616e742063616c6c00\n        /* \"#utility.yul\":3808:3826   */\n      0x44\n      dup3\n      add\n        /* \"#utility.yul\":3801:3862   */\n      mstore\n        /* \"#utility.yul\":3879:3897   */\n      0x64\n      add\n        /* \"@openzeppelin/contracts/security/ReentrancyGuard.sol\":2317:2380   */\n      tag_176\n        /* \"#utility.yul\":3548:3903   */\n      jump\n        /* \"@openzeppelin/contracts/security/ReentrancyGuard.sol\":2317:2380   */\n    tag_246:\n        /* \"@openzeppelin/contracts/security/ReentrancyGuard.sol\":1744:1745   */\n      0x02\n        /* \"@openzeppelin/contracts/security/ReentrancyGuard.sol\":2455:2462   */\n      0x00\n        /* \"@openzeppelin/contracts/security/ReentrancyGuard.sol\":2455:2473   */\n      sstore\n        /* \"ERC20Staking.sol\":3504:3533  claimRewardsTimer(msg.sender) */\n      tag_249\n        /* \"ERC20Staking.sol\":3522:3532  msg.sender */\n      caller\n        /* \"ERC20Staking.sol\":3504:3521  claimRewardsTimer */\n      tag_109\n        /* \"ERC20Staking.sol\":3504:3533  claimRewardsTimer(msg.sender) */\n      jump\t// in\n    tag_249:\n        /* \"ERC20Staking.sol\":3504:3538  claimRewardsTimer(msg.sender) == 0 */\n      iszero\n        /* \"ERC20Staking.sol\":3483:3595  require(... */\n      tag_250\n      jumpi\n      mload(0x40)\n      shl(0xe5, 0x461bcd)\n      dup2\n      mstore\n        /* \"#utility.yul\":5458:5460   */\n      0x20\n        /* \"ERC20Staking.sol\":3483:3595  require(... */\n      0x04\n      dup3\n      add\n        /* \"#utility.yul\":5440:5461   */\n      mstore\n        /* \"#utility.yul\":5497:5499   */\n      0x1f\n        /* \"#utility.yul\":5477:5495   */\n      0x24\n      dup3\n      add\n        /* \"#utility.yul\":5470:5500   */\n      mstore\n        /* \"#utility.yul\":5536:5569   */\n      0x547269656420746f20636c61696d207265776172647320746f6f20736f6f6e00\n        /* \"#utility.yul\":5516:5534   */\n      0x44\n      dup3\n      add\n        /* \"#utility.yul\":5509:5570   */\n      mstore\n        /* \"#utility.yul\":5587:5605   */\n      0x64\n      add\n        /* \"ERC20Staking.sol\":3483:3595  require(... */\n      tag_176\n        /* \"#utility.yul\":5256:5611   */\n      jump\n        /* \"ERC20Staking.sol\":3483:3595  require(... */\n    tag_250:\n        /* \"ERC20Staking.sol\":3632:3642  msg.sender */\n      caller\n        /* \"ERC20Staking.sol\":3605:3643  s_lastTimeOfRewardsClaimed[msg.sender] */\n      0x00\n      dup2\n      dup2\n      mstore\n        /* \"ERC20Staking.sol\":3605:3631  s_lastTimeOfRewardsClaimed */\n      0x0c\n        /* \"ERC20Staking.sol\":3605:3643  s_lastTimeOfRewardsClaimed[msg.sender] */\n      0x20\n      swap1\n      dup2\n      mstore\n      0x40\n      dup1\n      dup4\n      keccak256\n        /* \"ERC20Staking.sol\":3646:3661  block.timestamp */\n      timestamp\n        /* \"ERC20Staking.sol\":3605:3661  s_lastTimeOfRewardsClaimed[msg.sender] = block.timestamp */\n      swap1\n      sstore\n        /* \"ERC20Staking.sol\":3688:3697  s_rewards */\n      0x0a\n        /* \"ERC20Staking.sol\":3688:3709  s_rewards[msg.sender] */\n      swap1\n      swap2\n      mstore\n      dup1\n      dup3\n      keccak256\n      dup1\n      sload\n        /* \"ERC20Staking.sol\":3719:3744  s_rewards[msg.sender] = 0 */\n      swap1\n      dup4\n      swap1\n      sstore\n        /* \"ERC20Staking.sol\":3759:3793  RewardsClaimed(msg.sender, reward) */\n      swap1\n      mload\n        /* \"ERC20Staking.sol\":3688:3709  s_rewards[msg.sender] */\n      swap1\n      swap3\n      dup4\n      swap3\n        /* \"ERC20Staking.sol\":3632:3642  msg.sender */\n      swap1\n      swap2\n        /* \"ERC20Staking.sol\":3759:3793  RewardsClaimed(msg.sender, reward) */\n      0xfc30cddea38e2bf4d6ea7d3f9ed3b6ad7f176419f4963bd81318067a4aee73fe\n      swap2\n        /* \"ERC20Staking.sol\":3605:3643  s_lastTimeOfRewardsClaimed[msg.sender] */\n      swap1\n        /* \"ERC20Staking.sol\":3759:3793  RewardsClaimed(msg.sender, reward) */\n      log3\n        /* \"ERC20Staking.sol\":3818:3832  s_rewardsToken */\n      sload(0x02)\n        /* \"ERC20Staking.sol\":3818:3861  s_rewardsToken.transfer(msg.sender, reward) */\n      mload(0x40)\n      shl(0xe0, 0xa9059cbb)\n      dup2\n      mstore\n        /* \"ERC20Staking.sol\":3842:3852  msg.sender */\n      caller\n        /* \"ERC20Staking.sol\":3818:3861  s_rewardsToken.transfer(msg.sender, reward) */\n      0x04\n      dup3\n      add\n        /* \"#utility.yul\":4082:4156   */\n      mstore\n        /* \"#utility.yul\":4172:4190   */\n      0x24\n      dup2\n      add\n        /* \"#utility.yul\":4165:4199   */\n      dup4\n      swap1\n      mstore\n        /* \"ERC20Staking.sol\":3803:3815  bool success */\n      0x00\n      swap2\n      sub(shl(0xa0, 0x01), 0x01)\n        /* \"ERC20Staking.sol\":3818:3832  s_rewardsToken */\n      and\n      swap1\n        /* \"ERC20Staking.sol\":3818:3841  s_rewardsToken.transfer */\n      0xa9059cbb\n      swap1\n        /* \"#utility.yul\":4055:4073   */\n      0x44\n      add\n        /* \"ERC20Staking.sol\":3818:3861  s_rewardsToken.transfer(msg.sender, reward) */\n      tag_181\n        /* \"#utility.yul\":3908:4205   */\n      jump\n        /* \"ERC20Staking.sol\":6587:7074  function getUsersRewards(address account) public view returns (address[] memory, uint[] memory) {... */\n    tag_125:\n        /* \"ERC20Staking.sol\":6650:6666  address[] memory */\n      0x60\n        /* \"ERC20Staking.sol\":6668:6681  uint[] memory */\n      dup1\n        /* \"ERC20Staking.sol\":6710:6717  account */\n      dup3\n      sub(shl(0xa0, 0x01), 0x01)\n        /* \"ERC20Staking.sol\":6699:6717  owner() == account */\n      and\n        /* \"ERC20Staking.sol\":6699:6706  owner() */\n      tag_259\n        /* \"@openzeppelin/contracts/access/Ownable.sol\":1108:1114   */\n      and(sub(shl(0xa0, 0x01), 0x01), sload(0x01))\n      swap1\n        /* \"@openzeppelin/contracts/access/Ownable.sol\":1036:1121   */\n      jump\n        /* \"ERC20Staking.sol\":6699:6706  owner() */\n    tag_259:\n      sub(shl(0xa0, 0x01), 0x01)\n        /* \"ERC20Staking.sol\":6699:6717  owner() == account */\n      and\n      eq\n        /* \"ERC20Staking.sol\":6691:6743  require(owner() == account, \"You are not the owner\") */\n      tag_260\n      jumpi\n      mload(0x40)\n      shl(0xe5, 0x461bcd)\n      dup2\n      mstore\n        /* \"#utility.yul\":5818:5820   */\n      0x20\n        /* \"ERC20Staking.sol\":6691:6743  require(owner() == account, \"You are not the owner\") */\n      0x04\n      dup3\n      add\n        /* \"#utility.yul\":5800:5821   */\n      mstore\n        /* \"#utility.yul\":5857:5859   */\n      0x15\n        /* \"#utility.yul\":5837:5855   */\n      0x24\n      dup3\n      add\n        /* \"#utility.yul\":5830:5860   */\n      mstore\n        /* \"#utility.yul\":5896:5919   */\n      0x596f7520617265206e6f7420746865206f776e65720000000000000000000000\n        /* \"#utility.yul\":5876:5894   */\n      0x44\n      dup3\n      add\n        /* \"#utility.yul\":5869:5920   */\n      mstore\n        /* \"#utility.yul\":5937:5955   */\n      0x64\n      add\n        /* \"ERC20Staking.sol\":6691:6743  require(owner() == account, \"You are not the owner\") */\n      tag_176\n        /* \"#utility.yul\":5616:5961   */\n      jump\n        /* \"ERC20Staking.sol\":6691:6743  require(owner() == account, \"You are not the owner\") */\n    tag_260:\n        /* \"ERC20Staking.sol\":6795:6804  addresses */\n      0x06\n        /* \"ERC20Staking.sol\":6795:6811  addresses.length */\n      sload\n        /* \"ERC20Staking.sol\":6751:6778  address[] memory mAddresses */\n      0x00\n      swap1\n        /* \"ERC20Staking.sol\":6781:6812  new address[](addresses.length) */\n      0xffffffffffffffff\n      dup2\n      gt\n      iszero\n      tag_264\n      jumpi\n      tag_264\n      tag_265\n      jump\t// in\n    tag_264:\n      mload(0x40)\n      swap1\n      dup1\n      dup3\n      mstore\n      dup1\n      0x20\n      mul\n      0x20\n      add\n      dup3\n      add\n      0x40\n      mstore\n      dup1\n      iszero\n      tag_266\n      jumpi\n      dup2\n      0x20\n      add\n      0x20\n      dup3\n      mul\n      dup1\n      calldatasize\n      dup4\n      calldatacopy\n      add\n      swap1\n      pop\n    tag_266:\n      pop\n        /* \"ERC20Staking.sol\":6856:6865  addresses */\n      0x06\n        /* \"ERC20Staking.sol\":6856:6872  addresses.length */\n      sload\n        /* \"ERC20Staking.sol\":6751:6812  address[] memory mAddresses = new address[](addresses.length) */\n      swap1\n      swap2\n      pop\n        /* \"ERC20Staking.sol\":6820:6842  uint[] memory mRewards */\n      0x00\n      swap1\n        /* \"ERC20Staking.sol\":6845:6873  new uint[](addresses.length) */\n      0xffffffffffffffff\n      dup2\n      gt\n      iszero\n      tag_268\n      jumpi\n      tag_268\n      tag_265\n      jump\t// in\n    tag_268:\n      mload(0x40)\n      swap1\n      dup1\n      dup3\n      mstore\n      dup1\n      0x20\n      mul\n      0x20\n      add\n      dup3\n      add\n      0x40\n      mstore\n      dup1\n      iszero\n      tag_269\n      jumpi\n      dup2\n      0x20\n      add\n      0x20\n      dup3\n      mul\n      dup1\n      calldatasize\n      dup4\n      calldatacopy\n      add\n      swap1\n      pop\n    tag_269:\n      pop\n        /* \"ERC20Staking.sol\":6820:6873  uint[] memory mRewards = new uint[](addresses.length) */\n      swap1\n      pop\n        /* \"ERC20Staking.sol\":6886:6892  uint i */\n      0x00\n        /* \"ERC20Staking.sol\":6882:7030  for(uint i=0; i<addresses.length; i++) {... */\n    tag_270:\n        /* \"ERC20Staking.sol\":6898:6907  addresses */\n      0x06\n        /* \"ERC20Staking.sol\":6898:6914  addresses.length */\n      sload\n        /* \"ERC20Staking.sol\":6896:6914  i<addresses.length */\n      dup2\n      lt\n        /* \"ERC20Staking.sol\":6882:7030  for(uint i=0; i<addresses.length; i++) {... */\n      iszero\n      tag_271\n      jumpi\n        /* \"ERC20Staking.sol\":6947:6956  addresses */\n      0x06\n        /* \"ERC20Staking.sol\":6957:6958  i */\n      dup2\n        /* \"ERC20Staking.sol\":6947:6959  addresses[i] */\n      dup2\n      sload\n      dup2\n      lt\n      tag_274\n      jumpi\n      tag_274\n      tag_275\n      jump\t// in\n    tag_274:\n      swap1\n      0x00\n      mstore\n      keccak256(0x00, 0x20)\n      add\n      0x00\n      swap1\n      sload\n      swap1\n      0x0100\n      exp\n      swap1\n      div\n      sub(shl(0xa0, 0x01), 0x01)\n      and\n        /* \"ERC20Staking.sol\":6931:6941  mAddresses */\n      dup4\n        /* \"ERC20Staking.sol\":6942:6943  i */\n      dup3\n        /* \"ERC20Staking.sol\":6931:6944  mAddresses[i] */\n      dup2\n      mload\n      dup2\n      lt\n      tag_278\n      jumpi\n      tag_278\n      tag_275\n      jump\t// in\n    tag_278:\n      sub(shl(0xa0, 0x01), 0x01)\n        /* \"ERC20Staking.sol\":6931:6959  mAddresses[i] = addresses[i] */\n      swap3\n      dup4\n      and\n        /* \"ERC20Staking.sol\":6931:6944  mAddresses[i] */\n      0x20\n      swap2\n      dup3\n      mul\n      swap3\n      swap1\n      swap3\n      add\n      add\n        /* \"ERC20Staking.sol\":6931:6959  mAddresses[i] = addresses[i] */\n      mstore\n        /* \"ERC20Staking.sol\":6983:6997  s_rewardsToken */\n      sload(0x02)\n        /* \"ERC20Staking.sol\":7008:7017  addresses */\n      0x06\n        /* \"ERC20Staking.sol\":7008:7020  addresses[i] */\n      dup1\n      sload\n        /* \"ERC20Staking.sol\":6983:6997  s_rewardsToken */\n      swap2\n      swap1\n      swap3\n      and\n      swap2\n        /* \"ERC20Staking.sol\":6983:7007  s_rewardsToken.balanceOf */\n      0x70a08231\n      swap2\n        /* \"ERC20Staking.sol\":7018:7019  i */\n      dup5\n      swap1\n        /* \"ERC20Staking.sol\":7008:7020  addresses[i] */\n      dup2\n      lt\n      tag_280\n      jumpi\n      tag_280\n      tag_275\n      jump\t// in\n    tag_280:\n      0x00\n      swap2\n      dup3\n      mstore\n      0x20\n      swap1\n      swap2\n      keccak256\n      add\n      sload\n        /* \"ERC20Staking.sol\":6983:7021  s_rewardsToken.balanceOf(addresses[i]) */\n      mload(0x40)\n      0xe0\n      dup4\n      swap1\n      shl\n      0xffffffff00000000000000000000000000000000000000000000000000000000\n      and\n      dup2\n      mstore\n      sub(shl(0xa0, 0x01), 0x01)\n        /* \"ERC20Staking.sol\":7008:7020  addresses[i] */\n      swap1\n      swap2\n      and\n        /* \"ERC20Staking.sol\":6983:7021  s_rewardsToken.balanceOf(addresses[i]) */\n      0x04\n      dup3\n      add\n        /* \"#utility.yul\":670:744   */\n      mstore\n        /* \"#utility.yul\":643:661   */\n      0x24\n      add\n        /* \"ERC20Staking.sol\":6983:7021  s_rewardsToken.balanceOf(addresses[i]) */\n      0x20\n      mload(0x40)\n      dup1\n      dup4\n      sub\n      dup2\n      dup7\n      gas\n      staticcall\n      iszero\n      dup1\n      iszero\n      tag_284\n      jumpi\n      returndatasize\n      0x00\n      dup1\n      returndatacopy\n      revert(0x00, returndatasize)\n    tag_284:\n      pop\n      pop\n      pop\n      pop\n      mload(0x40)\n      returndatasize\n      not(0x1f)\n      0x1f\n      dup3\n      add\n      and\n      dup3\n      add\n      dup1\n      0x40\n      mstore\n      pop\n      dup2\n      add\n      swap1\n      tag_285\n      swap2\n      swap1\n      tag_170\n      jump\t// in\n    tag_285:\n        /* \"ERC20Staking.sol\":6969:6977  mRewards */\n      dup3\n        /* \"ERC20Staking.sol\":6978:6979  i */\n      dup3\n        /* \"ERC20Staking.sol\":6969:6980  mRewards[i] */\n      dup2\n      mload\n      dup2\n      lt\n      tag_287\n      jumpi\n      tag_287\n      tag_275\n      jump\t// in\n    tag_287:\n      0x20\n      swap1\n      dup2\n      mul\n      swap2\n      swap1\n      swap2\n      add\n      add\n        /* \"ERC20Staking.sol\":6969:7021  mRewards[i] = s_rewardsToken.balanceOf(addresses[i]) */\n      mstore\n        /* \"ERC20Staking.sol\":6916:6919  i++ */\n      dup1\n      tag_288\n      dup2\n      tag_289\n      jump\t// in\n    tag_288:\n      swap2\n      pop\n      pop\n        /* \"ERC20Staking.sol\":6882:7030  for(uint i=0; i<addresses.length; i++) {... */\n      jump(tag_270)\n    tag_271:\n      pop\n        /* \"ERC20Staking.sol\":7046:7056  mAddresses */\n      swap1\n      swap5\n        /* \"ERC20Staking.sol\":7058:7066  mRewards */\n      swap1\n      swap4\n      pop\n        /* \"ERC20Staking.sol\":6587:7074  function getUsersRewards(address account) public view returns (address[] memory, uint[] memory) {... */\n      swap2\n      pop\n      pop\n      jump\t// out\n        /* \"ERC20Staking.sol\":6114:6581  function getUsersStaked(address account) public view returns (address[] memory, uint[] memory) {... */\n    tag_130:\n        /* \"ERC20Staking.sol\":6176:6192  address[] memory */\n      0x60\n        /* \"ERC20Staking.sol\":6194:6207  uint[] memory */\n      dup1\n        /* \"ERC20Staking.sol\":6236:6243  account */\n      dup3\n      sub(shl(0xa0, 0x01), 0x01)\n        /* \"ERC20Staking.sol\":6225:6243  owner() == account */\n      and\n        /* \"ERC20Staking.sol\":6225:6232  owner() */\n      tag_291\n        /* \"@openzeppelin/contracts/access/Ownable.sol\":1108:1114   */\n      and(sub(shl(0xa0, 0x01), 0x01), sload(0x01))\n      swap1\n        /* \"@openzeppelin/contracts/access/Ownable.sol\":1036:1121   */\n      jump\n        /* \"ERC20Staking.sol\":6225:6232  owner() */\n    tag_291:\n      sub(shl(0xa0, 0x01), 0x01)\n        /* \"ERC20Staking.sol\":6225:6243  owner() == account */\n      and\n      eq\n        /* \"ERC20Staking.sol\":6217:6269  require(owner() == account, \"You are not the owner\") */\n      tag_292\n      jumpi\n      mload(0x40)\n      shl(0xe5, 0x461bcd)\n      dup2\n      mstore\n        /* \"#utility.yul\":5818:5820   */\n      0x20\n        /* \"ERC20Staking.sol\":6217:6269  require(owner() == account, \"You are not the owner\") */\n      0x04\n      dup3\n      add\n        /* \"#utility.yul\":5800:5821   */\n      mstore\n        /* \"#utility.yul\":5857:5859   */\n      0x15\n        /* \"#utility.yul\":5837:5855   */\n      0x24\n      dup3\n      add\n        /* \"#utility.yul\":5830:5860   */\n      mstore\n        /* \"#utility.yul\":5896:5919   */\n      0x596f7520617265206e6f7420746865206f776e65720000000000000000000000\n        /* \"#utility.yul\":5876:5894   */\n      0x44\n      dup3\n      add\n        /* \"#utility.yul\":5869:5920   */\n      mstore\n        /* \"#utility.yul\":5937:5955   */\n      0x64\n      add\n        /* \"ERC20Staking.sol\":6217:6269  require(owner() == account, \"You are not the owner\") */\n      tag_176\n        /* \"#utility.yul\":5616:5961   */\n      jump\n        /* \"ERC20Staking.sol\":6217:6269  require(owner() == account, \"You are not the owner\") */\n    tag_292:\n        /* \"ERC20Staking.sol\":6321:6330  addresses */\n      0x06\n        /* \"ERC20Staking.sol\":6321:6337  addresses.length */\n      sload\n        /* \"ERC20Staking.sol\":6277:6304  address[] memory mAddresses */\n      0x00\n      swap1\n        /* \"ERC20Staking.sol\":6307:6338  new address[](addresses.length) */\n      0xffffffffffffffff\n      dup2\n      gt\n      iszero\n      tag_295\n      jumpi\n      tag_295\n      tag_265\n      jump\t// in\n    tag_295:\n      mload(0x40)\n      swap1\n      dup1\n      dup3\n      mstore\n      dup1\n      0x20\n      mul\n      0x20\n      add\n      dup3\n      add\n      0x40\n      mstore\n      dup1\n      iszero\n      tag_296\n      jumpi\n      dup2\n      0x20\n      add\n      0x20\n      dup3\n      mul\n      dup1\n      calldatasize\n      dup4\n      calldatacopy\n      add\n      swap1\n      pop\n    tag_296:\n      pop\n        /* \"ERC20Staking.sol\":6381:6390  addresses */\n      0x06\n        /* \"ERC20Staking.sol\":6381:6397  addresses.length */\n      sload\n        /* \"ERC20Staking.sol\":6277:6338  address[] memory mAddresses = new address[](addresses.length) */\n      swap1\n      swap2\n      pop\n        /* \"ERC20Staking.sol\":6346:6367  uint[] memory mStakes */\n      0x00\n      swap1\n        /* \"ERC20Staking.sol\":6370:6398  new uint[](addresses.length) */\n      0xffffffffffffffff\n      dup2\n      gt\n      iszero\n      tag_298\n      jumpi\n      tag_298\n      tag_265\n      jump\t// in\n    tag_298:\n      mload(0x40)\n      swap1\n      dup1\n      dup3\n      mstore\n      dup1\n      0x20\n      mul\n      0x20\n      add\n      dup3\n      add\n      0x40\n      mstore\n      dup1\n      iszero\n      tag_299\n      jumpi\n      dup2\n      0x20\n      add\n      0x20\n      dup3\n      mul\n      dup1\n      calldatasize\n      dup4\n      calldatacopy\n      add\n      swap1\n      pop\n    tag_299:\n      pop\n        /* \"ERC20Staking.sol\":6346:6398  uint[] memory mStakes = new uint[](addresses.length) */\n      swap1\n      pop\n        /* \"ERC20Staking.sol\":6411:6417  uint i */\n      0x00\n        /* \"ERC20Staking.sol\":6407:6538  for(uint i=0; i<addresses.length; i++) {... */\n    tag_300:\n        /* \"ERC20Staking.sol\":6423:6432  addresses */\n      0x06\n        /* \"ERC20Staking.sol\":6423:6439  addresses.length */\n      sload\n        /* \"ERC20Staking.sol\":6421:6439  i<addresses.length */\n      dup2\n      lt\n        /* \"ERC20Staking.sol\":6407:6538  for(uint i=0; i<addresses.length; i++) {... */\n      iszero\n      tag_271\n      jumpi\n        /* \"ERC20Staking.sol\":6472:6481  addresses */\n      0x06\n        /* \"ERC20Staking.sol\":6482:6483  i */\n      dup2\n        /* \"ERC20Staking.sol\":6472:6484  addresses[i] */\n      dup2\n      sload\n      dup2\n      lt\n      tag_304\n      jumpi\n      tag_304\n      tag_275\n      jump\t// in\n    tag_304:\n      swap1\n      0x00\n      mstore\n      keccak256(0x00, 0x20)\n      add\n      0x00\n      swap1\n      sload\n      swap1\n      0x0100\n      exp\n      swap1\n      div\n      sub(shl(0xa0, 0x01), 0x01)\n      and\n        /* \"ERC20Staking.sol\":6456:6466  mAddresses */\n      dup4\n        /* \"ERC20Staking.sol\":6467:6468  i */\n      dup3\n        /* \"ERC20Staking.sol\":6456:6469  mAddresses[i] */\n      dup2\n      mload\n      dup2\n      lt\n      tag_307\n      jumpi\n      tag_307\n      tag_275\n      jump\t// in\n    tag_307:\n      0x20\n      mul\n      0x20\n      add\n      add\n        /* \"ERC20Staking.sol\":6456:6484  mAddresses[i] = addresses[i] */\n      swap1\n      sub(shl(0xa0, 0x01), 0x01)\n      and\n      swap1\n      dup2\n      sub(shl(0xa0, 0x01), 0x01)\n      and\n      dup2\n      mstore\n      pop\n      pop\n        /* \"ERC20Staking.sol\":6507:6515  s_stakes */\n      0x0b\n        /* \"ERC20Staking.sol\":6507:6529  s_stakes[addresses[i]] */\n      0x00\n        /* \"ERC20Staking.sol\":6516:6525  addresses */\n      0x06\n        /* \"ERC20Staking.sol\":6526:6527  i */\n      dup4\n        /* \"ERC20Staking.sol\":6516:6528  addresses[i] */\n      dup2\n      sload\n      dup2\n      lt\n      tag_309\n      jumpi\n      tag_309\n      tag_275\n      jump\t// in\n    tag_309:\n      0x00\n      swap2\n      dup3\n      mstore\n      0x20\n      dup1\n      dup4\n      keccak256\n      swap1\n      swap2\n      add\n      sload\n      sub(shl(0xa0, 0x01), 0x01)\n      and\n        /* \"ERC20Staking.sol\":6507:6529  s_stakes[addresses[i]] */\n      dup4\n      mstore\n      dup3\n      add\n      swap3\n      swap1\n      swap3\n      mstore\n      0x40\n      add\n      swap1\n      keccak256\n      sload\n        /* \"ERC20Staking.sol\":6494:6504  mStakes[i] */\n      dup3\n      mload\n        /* \"ERC20Staking.sol\":6494:6501  mStakes */\n      dup4\n      swap1\n        /* \"ERC20Staking.sol\":6502:6503  i */\n      dup4\n      swap1\n        /* \"ERC20Staking.sol\":6494:6504  mStakes[i] */\n      dup2\n      lt\n      tag_312\n      jumpi\n      tag_312\n      tag_275\n      jump\t// in\n    tag_312:\n      0x20\n      swap1\n      dup2\n      mul\n      swap2\n      swap1\n      swap2\n      add\n      add\n        /* \"ERC20Staking.sol\":6494:6529  mStakes[i] = s_stakes[addresses[i]] */\n      mstore\n        /* \"ERC20Staking.sol\":6441:6444  i++ */\n      dup1\n      tag_313\n      dup2\n      tag_289\n      jump\t// in\n    tag_313:\n      swap2\n      pop\n      pop\n        /* \"ERC20Staking.sol\":6407:6538  for(uint i=0; i<addresses.length; i++) {... */\n      jump(tag_300)\n        /* \"ERC20Staking.sol\":5372:5490  function getTotalRewardTokensSupply() public view returns (uint256) {... */\n    tag_133:\n        /* \"ERC20Staking.sol\":5455:5469  s_rewardsToken */\n      sload(0x02)\n        /* \"ERC20Staking.sol\":5455:5483  s_rewardsToken.totalSupply() */\n      0x40\n      dup1\n      mload\n      shl(0xe0, 0x18160ddd)\n      dup2\n      mstore\n      swap1\n      mload\n        /* \"ERC20Staking.sol\":5431:5438  uint256 */\n      0x00\n      swap3\n      sub(shl(0xa0, 0x01), 0x01)\n        /* \"ERC20Staking.sol\":5455:5469  s_rewardsToken */\n      and\n      swap2\n        /* \"ERC20Staking.sol\":5455:5481  s_rewardsToken.totalSupply */\n      0x18160ddd\n      swap2\n        /* \"ERC20Staking.sol\":5455:5483  s_rewardsToken.totalSupply() */\n      0x04\n      dup1\n      dup4\n      add\n      swap3\n      0x20\n      swap3\n      swap2\n      swap1\n      dup3\n      swap1\n      sub\n      add\n      dup2\n        /* \"ERC20Staking.sol\":5455:5469  s_rewardsToken */\n      dup7\n        /* \"ERC20Staking.sol\":5455:5483  s_rewardsToken.totalSupply() */\n      gas\n      staticcall\n      iszero\n      dup1\n      iszero\n      tag_168\n      jumpi\n      returndatasize\n      0x00\n      dup1\n      returndatacopy\n      revert(0x00, returndatasize)\n        /* \"ERC20Staking.sol\":1693:1986  function rewardPerToken() public view returns (uint256) {... */\n    tag_136:\n        /* \"ERC20Staking.sol\":1740:1747  uint256 */\n      0x00\n        /* \"ERC20Staking.sol\":1763:1776  s_totalSupply */\n      sload(0x08)\n        /* \"ERC20Staking.sol\":1780:1781  0 */\n      0x00\n        /* \"ERC20Staking.sol\":1763:1781  s_totalSupply == 0 */\n      sub\n        /* \"ERC20Staking.sol\":1759:1837  if (s_totalSupply == 0) {... */\n      tag_319\n      jumpi\n      pop\n        /* \"ERC20Staking.sol\":1804:1826  s_rewardPerTokenStored */\n      sload(0x05)\n      swap1\n        /* \"ERC20Staking.sol\":1693:1986  function rewardPerToken() public view returns (uint256) {... */\n      jump\t// out\n        /* \"ERC20Staking.sol\":1759:1837  if (s_totalSupply == 0) {... */\n    tag_319:\n        /* \"ERC20Staking.sol\":1965:1978  s_totalSupply */\n      sload(0x08)\n        /* \"ERC20Staking.sol\":721:724  100 */\n      0x64\n        /* \"ERC20Staking.sol\":1923:1939  s_lastUpdateTime */\n      sload(0x04)\n        /* \"ERC20Staking.sol\":1905:1920  block.timestamp */\n      timestamp\n        /* \"ERC20Staking.sol\":1905:1939  block.timestamp - s_lastUpdateTime */\n      tag_320\n      swap2\n      swap1\n      tag_159\n      jump\t// in\n    tag_320:\n        /* \"ERC20Staking.sol\":1904:1954  (block.timestamp - s_lastUpdateTime) * REWARD_RATE */\n      tag_321\n      swap2\n      swap1\n      tag_161\n      jump\t// in\n    tag_321:\n        /* \"ERC20Staking.sol\":1904:1961  (block.timestamp - s_lastUpdateTime) * REWARD_RATE * 1e18 */\n      tag_322\n      swap1\n        /* \"ERC20Staking.sol\":1957:1961  1e18 */\n      0x0de0b6b3a7640000\n        /* \"ERC20Staking.sol\":1904:1961  (block.timestamp - s_lastUpdateTime) * REWARD_RATE * 1e18 */\n      tag_161\n      jump\t// in\n    tag_322:\n        /* \"ERC20Staking.sol\":1903:1978  ((block.timestamp - s_lastUpdateTime) * REWARD_RATE * 1e18) / s_totalSupply */\n      tag_323\n      swap2\n      swap1\n      tag_163\n      jump\t// in\n    tag_323:\n        /* \"ERC20Staking.sol\":1865:1887  s_rewardPerTokenStored */\n      sload(0x05)\n        /* \"ERC20Staking.sol\":1865:1979  s_rewardPerTokenStored +... */\n      tag_169\n      swap2\n      swap1\n      tag_165\n      jump\t// in\n        /* \"ERC20Staking.sol\":810:836  address[] public addresses */\n    tag_143:\n      0x06\n      dup2\n      dup2\n      sload\n      dup2\n      lt\n      tag_325\n      jumpi\n      0x00\n      dup1\n      revert\n    tag_325:\n      0x00\n      swap2\n      dup3\n      mstore\n      0x20\n      swap1\n      swap2\n      keccak256\n      add\n      sload\n      sub(shl(0xa0, 0x01), 0x01)\n      and\n      swap1\n      pop\n      dup2\n      jump\t// out\n        /* \"@openzeppelin/contracts/access/Ownable.sol\":1918:2116   */\n    tag_155:\n        /* \"@openzeppelin/contracts/access/Ownable.sol\":1108:1114   */\n      and(sub(shl(0xa0, 0x01), 0x01), sload(0x01))\n        /* \"ERC20Staking.sol\":5899:5909  msg.sender */\n      caller\n        /* \"@openzeppelin/contracts/access/Ownable.sol\":1248:1271   */\n      eq\n        /* \"@openzeppelin/contracts/access/Ownable.sol\":1240:1308   */\n      tag_330\n      jumpi\n      mload(0x40)\n      shl(0xe5, 0x461bcd)\n      dup2\n      mstore\n        /* \"#utility.yul\":4694:4696   */\n      0x20\n        /* \"@openzeppelin/contracts/access/Ownable.sol\":1240:1308   */\n      0x04\n      dup3\n      add\n        /* \"#utility.yul\":4676:4697   */\n      dup2\n      swap1\n      mstore\n        /* \"#utility.yul\":4713:4731   */\n      0x24\n      dup3\n      add\n        /* \"#utility.yul\":4706:4736   */\n      mstore\n        /* \"#utility.yul\":4772:4806   */\n      0x4f776e61626c653a2063616c6c6572206973206e6f7420746865206f776e6572\n        /* \"#utility.yul\":4752:4770   */\n      0x44\n      dup3\n      add\n        /* \"#utility.yul\":4745:4807   */\n      mstore\n        /* \"#utility.yul\":4824:4842   */\n      0x64\n      add\n        /* \"@openzeppelin/contracts/access/Ownable.sol\":1240:1308   */\n      tag_176\n        /* \"#utility.yul\":4492:4848   */\n      jump\n        /* \"@openzeppelin/contracts/access/Ownable.sol\":1240:1308   */\n    tag_330:\n      sub(shl(0xa0, 0x01), 0x01)\n        /* \"@openzeppelin/contracts/access/Ownable.sol\":2006:2028   */\n      dup2\n      and\n        /* \"@openzeppelin/contracts/access/Ownable.sol\":1998:2071   */\n      tag_333\n      jumpi\n      mload(0x40)\n      shl(0xe5, 0x461bcd)\n      dup2\n      mstore\n        /* \"#utility.yul\":6572:6574   */\n      0x20\n        /* \"@openzeppelin/contracts/access/Ownable.sol\":1998:2071   */\n      0x04\n      dup3\n      add\n        /* \"#utility.yul\":6554:6575   */\n      mstore\n        /* \"#utility.yul\":6611:6613   */\n      0x26\n        /* \"#utility.yul\":6591:6609   */\n      0x24\n      dup3\n      add\n        /* \"#utility.yul\":6584:6614   */\n      mstore\n        /* \"#utility.yul\":6650:6684   */\n      0x4f776e61626c653a206e6577206f776e657220697320746865207a65726f2061\n        /* \"#utility.yul\":6630:6648   */\n      0x44\n      dup3\n      add\n        /* \"#utility.yul\":6623:6685   */\n      mstore\n        /* \"#utility.yul\":6721:6729   */\n      0x6464726573730000000000000000000000000000000000000000000000000000\n        /* \"#utility.yul\":6701:6719   */\n      0x64\n      dup3\n      add\n        /* \"#utility.yul\":6694:6730   */\n      mstore\n        /* \"#utility.yul\":6747:6766   */\n      0x84\n      add\n        /* \"@openzeppelin/contracts/access/Ownable.sol\":1998:2071   */\n      tag_176\n        /* \"#utility.yul\":6370:6772   */\n      jump\n        /* \"@openzeppelin/contracts/access/Ownable.sol\":1998:2071   */\n    tag_333:\n        /* \"@openzeppelin/contracts/access/Ownable.sol\":2081:2109   */\n      tag_336\n        /* \"@openzeppelin/contracts/access/Ownable.sol\":2100:2108   */\n      dup2\n        /* \"@openzeppelin/contracts/access/Ownable.sol\":2081:2099   */\n      tag_212\n        /* \"@openzeppelin/contracts/access/Ownable.sol\":2081:2109   */\n      jump\t// in\n    tag_336:\n        /* \"@openzeppelin/contracts/access/Ownable.sol\":1918:2116   */\n      pop\n      jump\t// out\n        /* \"@openzeppelin/contracts/access/Ownable.sol\":2270:2457   */\n    tag_212:\n        /* \"@openzeppelin/contracts/access/Ownable.sol\":2362:2368   */\n      0x01\n      dup1\n      sload\n      sub(shl(0xa0, 0x01), 0x01)\n        /* \"@openzeppelin/contracts/access/Ownable.sol\":2378:2395   */\n      dup4\n      dup2\n      and\n      not(0xffffffffffffffffffffffffffffffffffffffff)\n      dup4\n      and\n      dup2\n      or\n      swap1\n      swap4\n      sstore\n        /* \"@openzeppelin/contracts/access/Ownable.sol\":2410:2450   */\n      mload(0x40)\n        /* \"@openzeppelin/contracts/access/Ownable.sol\":2362:2368   */\n      swap2\n      and\n      swap2\n        /* \"@openzeppelin/contracts/access/Ownable.sol\":2378:2395   */\n      swap1\n        /* \"@openzeppelin/contracts/access/Ownable.sol\":2362:2368   */\n      dup3\n      swap1\n        /* \"@openzeppelin/contracts/access/Ownable.sol\":2410:2450   */\n      0x8be0079c531659141344cd1fd0a4f28419497f9722a3daafe3b4186f6b6457e0\n      swap1\n        /* \"@openzeppelin/contracts/access/Ownable.sol\":2343:2359   */\n      0x00\n      swap1\n        /* \"@openzeppelin/contracts/access/Ownable.sol\":2410:2450   */\n      log3\n        /* \"@openzeppelin/contracts/access/Ownable.sol\":2333:2457   */\n      pop\n        /* \"@openzeppelin/contracts/access/Ownable.sol\":2270:2457   */\n      pop\n      jump\t// out\n        /* \"#utility.yul\":14:323   */\n    tag_44:\n        /* \"#utility.yul\":73:79   */\n      0x00\n        /* \"#utility.yul\":126:128   */\n      0x20\n        /* \"#utility.yul\":114:123   */\n      dup3\n        /* \"#utility.yul\":105:112   */\n      dup5\n        /* \"#utility.yul\":101:124   */\n      sub\n        /* \"#utility.yul\":97:129   */\n      slt\n        /* \"#utility.yul\":94:146   */\n      iszero\n      tag_342\n      jumpi\n        /* \"#utility.yul\":142:143   */\n      0x00\n        /* \"#utility.yul\":139:140   */\n      dup1\n        /* \"#utility.yul\":132:144   */\n      revert\n        /* \"#utility.yul\":94:146   */\n    tag_342:\n        /* \"#utility.yul\":181:190   */\n      dup2\n        /* \"#utility.yul\":168:191   */\n      calldataload\n      sub(shl(0xa0, 0x01), 0x01)\n        /* \"#utility.yul\":224:229   */\n      dup2\n        /* \"#utility.yul\":220:274   */\n      and\n        /* \"#utility.yul\":213:218   */\n      dup2\n        /* \"#utility.yul\":210:275   */\n      eq\n        /* \"#utility.yul\":200:293   */\n      tag_343\n      jumpi\n        /* \"#utility.yul\":289:290   */\n      0x00\n        /* \"#utility.yul\":286:287   */\n      dup1\n        /* \"#utility.yul\":279:291   */\n      revert\n        /* \"#utility.yul\":200:293   */\n    tag_343:\n        /* \"#utility.yul\":312:317   */\n      swap4\n        /* \"#utility.yul\":14:323   */\n      swap3\n      pop\n      pop\n      pop\n      jump\t// out\n        /* \"#utility.yul\":755:935   */\n    tag_57:\n        /* \"#utility.yul\":814:820   */\n      0x00\n        /* \"#utility.yul\":867:869   */\n      0x20\n        /* \"#utility.yul\":855:864   */\n      dup3\n        /* \"#utility.yul\":846:853   */\n      dup5\n        /* \"#utility.yul\":842:865   */\n      sub\n        /* \"#utility.yul\":838:870   */\n      slt\n        /* \"#utility.yul\":835:887   */\n      iszero\n      tag_347\n      jumpi\n        /* \"#utility.yul\":883:884   */\n      0x00\n        /* \"#utility.yul\":880:881   */\n      dup1\n        /* \"#utility.yul\":873:885   */\n      revert\n        /* \"#utility.yul\":835:887   */\n    tag_347:\n      pop\n        /* \"#utility.yul\":906:929   */\n      calldataload\n      swap2\n        /* \"#utility.yul\":755:935   */\n      swap1\n      pop\n      jump\t// out\n        /* \"#utility.yul\":1363:2564   */\n    tag_127:\n        /* \"#utility.yul\":1631:1633   */\n      0x40\n        /* \"#utility.yul\":1643:1664   */\n      dup1\n      dup3\n      mstore\n        /* \"#utility.yul\":1713:1726   */\n      dup4\n      mload\n        /* \"#utility.yul\":1616:1634   */\n      swap1\n      dup3\n      add\n        /* \"#utility.yul\":1735:1757   */\n      dup2\n      swap1\n      mstore\n        /* \"#utility.yul\":1583:1587   */\n      0x00\n      swap1\n        /* \"#utility.yul\":1810:1814   */\n      0x20\n      swap1\n        /* \"#utility.yul\":1788:1790   */\n      0x60\n        /* \"#utility.yul\":1773:1791   */\n      dup5\n      add\n      swap1\n        /* \"#utility.yul\":1837:1852   */\n      dup3\n      dup8\n      add\n        /* \"#utility.yul\":1583:1587   */\n      dup5\n        /* \"#utility.yul\":1880:2098   */\n    tag_351:\n        /* \"#utility.yul\":1894:1900   */\n      dup3\n        /* \"#utility.yul\":1891:1892   */\n      dup2\n        /* \"#utility.yul\":1888:1901   */\n      lt\n        /* \"#utility.yul\":1880:2098   */\n      iszero\n      tag_353\n      jumpi\n        /* \"#utility.yul\":1959:1972   */\n      dup2\n      mload\n      sub(shl(0xa0, 0x01), 0x01)\n        /* \"#utility.yul\":1955:2017   */\n      and\n        /* \"#utility.yul\":1943:2018   */\n      dup5\n      mstore\n        /* \"#utility.yul\":2038:2050   */\n      swap3\n      dup5\n      add\n      swap3\n        /* \"#utility.yul\":2073:2088   */\n      swap1\n      dup5\n      add\n      swap1\n        /* \"#utility.yul\":1916:1917   */\n      0x01\n        /* \"#utility.yul\":1909:1918   */\n      add\n        /* \"#utility.yul\":1880:2098   */\n      jump(tag_351)\n    tag_353:\n      pop\n      pop\n      pop\n        /* \"#utility.yul\":2134:2153   */\n      dup4\n      dup2\n      sub\n        /* \"#utility.yul\":2114:2132   */\n      dup3\n      dup6\n      add\n        /* \"#utility.yul\":2107:2154   */\n      mstore\n        /* \"#utility.yul\":2204:2217   */\n      dup5\n      mload\n        /* \"#utility.yul\":2226:2247   */\n      dup1\n      dup3\n      mstore\n        /* \"#utility.yul\":2302:2317   */\n      dup6\n      dup4\n      add\n      swap2\n        /* \"#utility.yul\":2265:2277   */\n      dup4\n      add\n      swap1\n        /* \"#utility.yul\":2337:2338   */\n      0x00\n        /* \"#utility.yul\":2347:2536   */\n    tag_354:\n        /* \"#utility.yul\":2363:2371   */\n      dup2\n        /* \"#utility.yul\":2358:2361   */\n      dup2\n        /* \"#utility.yul\":2355:2372   */\n      lt\n        /* \"#utility.yul\":2347:2536   */\n      iszero\n      tag_356\n      jumpi\n        /* \"#utility.yul\":2432:2447   */\n      dup4\n      mload\n        /* \"#utility.yul\":2418:2448   */\n      dup4\n      mstore\n        /* \"#utility.yul\":2509:2526   */\n      swap3\n      dup5\n      add\n      swap3\n        /* \"#utility.yul\":2470:2484   */\n      swap2\n      dup5\n      add\n      swap2\n        /* \"#utility.yul\":2391:2392   */\n      0x01\n        /* \"#utility.yul\":2382:2393   */\n      add\n        /* \"#utility.yul\":2347:2536   */\n      jump(tag_354)\n    tag_356:\n      pop\n        /* \"#utility.yul\":2553:2558   */\n      swap1\n      swap8\n        /* \"#utility.yul\":1363:2564   */\n      swap7\n      pop\n      pop\n      pop\n      pop\n      pop\n      pop\n      pop\n      jump\t// out\n        /* \"#utility.yul\":2569:2696   */\n    tag_339:\n        /* \"#utility.yul\":2630:2640   */\n      0x4e487b71\n        /* \"#utility.yul\":2625:2628   */\n      0xe0\n        /* \"#utility.yul\":2621:2641   */\n      shl\n        /* \"#utility.yul\":2618:2619   */\n      0x00\n        /* \"#utility.yul\":2611:2642   */\n      mstore\n        /* \"#utility.yul\":2661:2665   */\n      0x11\n        /* \"#utility.yul\":2658:2659   */\n      0x04\n        /* \"#utility.yul\":2651:2666   */\n      mstore\n        /* \"#utility.yul\":2685:2689   */\n      0x24\n        /* \"#utility.yul\":2682:2683   */\n      0x00\n        /* \"#utility.yul\":2675:2690   */\n      revert\n        /* \"#utility.yul\":2701:2826   */\n    tag_159:\n        /* \"#utility.yul\":2741:2745   */\n      0x00\n        /* \"#utility.yul\":2769:2770   */\n      dup3\n        /* \"#utility.yul\":2766:2767   */\n      dup3\n        /* \"#utility.yul\":2763:2771   */\n      lt\n        /* \"#utility.yul\":2760:2794   */\n      iszero\n      tag_360\n      jumpi\n        /* \"#utility.yul\":2774:2792   */\n      tag_360\n      tag_339\n      jump\t// in\n    tag_360:\n      pop\n        /* \"#utility.yul\":2811:2820   */\n      sub\n      swap1\n        /* \"#utility.yul\":2701:2826   */\n      jump\t// out\n        /* \"#utility.yul\":2831:2999   */\n    tag_161:\n        /* \"#utility.yul\":2871:2878   */\n      0x00\n        /* \"#utility.yul\":2937:2938   */\n      dup2\n        /* \"#utility.yul\":2933:2934   */\n      0x00\n        /* \"#utility.yul\":2929:2935   */\n      not\n        /* \"#utility.yul\":2925:2939   */\n      div\n        /* \"#utility.yul\":2922:2923   */\n      dup4\n        /* \"#utility.yul\":2919:2940   */\n      gt\n        /* \"#utility.yul\":2914:2915   */\n      dup3\n        /* \"#utility.yul\":2907:2916   */\n      iszero\n        /* \"#utility.yul\":2900:2917   */\n      iszero\n        /* \"#utility.yul\":2896:2941   */\n      and\n        /* \"#utility.yul\":2893:2964   */\n      iszero\n      tag_363\n      jumpi\n        /* \"#utility.yul\":2944:2962   */\n      tag_363\n      tag_339\n      jump\t// in\n    tag_363:\n      pop\n        /* \"#utility.yul\":2984:2993   */\n      mul\n      swap1\n        /* \"#utility.yul\":2831:2999   */\n      jump\t// out\n        /* \"#utility.yul\":3004:3221   */\n    tag_163:\n        /* \"#utility.yul\":3044:3045   */\n      0x00\n        /* \"#utility.yul\":3070:3071   */\n      dup3\n        /* \"#utility.yul\":3060:3192   */\n      tag_365\n      jumpi\n        /* \"#utility.yul\":3114:3124   */\n      0x4e487b71\n        /* \"#utility.yul\":3109:3112   */\n      0xe0\n        /* \"#utility.yul\":3105:3125   */\n      shl\n        /* \"#utility.yul\":3102:3103   */\n      0x00\n        /* \"#utility.yul\":3095:3126   */\n      mstore\n        /* \"#utility.yul\":3149:3153   */\n      0x12\n        /* \"#utility.yul\":3146:3147   */\n      0x04\n        /* \"#utility.yul\":3139:3154   */\n      mstore\n        /* \"#utility.yul\":3177:3181   */\n      0x24\n        /* \"#utility.yul\":3174:3175   */\n      0x00\n        /* \"#utility.yul\":3167:3182   */\n      revert\n        /* \"#utility.yul\":3060:3192   */\n    tag_365:\n      pop\n        /* \"#utility.yul\":3206:3215   */\n      div\n      swap1\n        /* \"#utility.yul\":3004:3221   */\n      jump\t// out\n        /* \"#utility.yul\":3226:3354   */\n    tag_165:\n        /* \"#utility.yul\":3266:3269   */\n      0x00\n        /* \"#utility.yul\":3297:3298   */\n      dup3\n        /* \"#utility.yul\":3293:3299   */\n      not\n        /* \"#utility.yul\":3290:3291   */\n      dup3\n        /* \"#utility.yul\":3287:3300   */\n      gt\n        /* \"#utility.yul\":3284:3323   */\n      iszero\n      tag_368\n      jumpi\n        /* \"#utility.yul\":3303:3321   */\n      tag_368\n      tag_339\n      jump\t// in\n    tag_368:\n      pop\n        /* \"#utility.yul\":3339:3348   */\n      add\n      swap1\n        /* \"#utility.yul\":3226:3354   */\n      jump\t// out\n        /* \"#utility.yul\":3359:3543   */\n    tag_170:\n        /* \"#utility.yul\":3429:3435   */\n      0x00\n        /* \"#utility.yul\":3482:3484   */\n      0x20\n        /* \"#utility.yul\":3470:3479   */\n      dup3\n        /* \"#utility.yul\":3461:3468   */\n      dup5\n        /* \"#utility.yul\":3457:3480   */\n      sub\n        /* \"#utility.yul\":3453:3485   */\n      slt\n        /* \"#utility.yul\":3450:3502   */\n      iszero\n      tag_370\n      jumpi\n        /* \"#utility.yul\":3498:3499   */\n      0x00\n        /* \"#utility.yul\":3495:3496   */\n      dup1\n        /* \"#utility.yul\":3488:3500   */\n      revert\n        /* \"#utility.yul\":3450:3502   */\n    tag_370:\n      pop\n        /* \"#utility.yul\":3521:3537   */\n      mload\n      swap2\n        /* \"#utility.yul\":3359:3543   */\n      swap1\n      pop\n      jump\t// out\n        /* \"#utility.yul\":4210:4487   */\n    tag_186:\n        /* \"#utility.yul\":4277:4283   */\n      0x00\n        /* \"#utility.yul\":4330:4332   */\n      0x20\n        /* \"#utility.yul\":4318:4327   */\n      dup3\n        /* \"#utility.yul\":4309:4316   */\n      dup5\n        /* \"#utility.yul\":4305:4328   */\n      sub\n        /* \"#utility.yul\":4301:4333   */\n      slt\n        /* \"#utility.yul\":4298:4350   */\n      iszero\n      tag_374\n      jumpi\n        /* \"#utility.yul\":4346:4347   */\n      0x00\n        /* \"#utility.yul\":4343:4344   */\n      dup1\n        /* \"#utility.yul\":4336:4348   */\n      revert\n        /* \"#utility.yul\":4298:4350   */\n    tag_374:\n        /* \"#utility.yul\":4378:4387   */\n      dup2\n        /* \"#utility.yul\":4372:4388   */\n      mload\n        /* \"#utility.yul\":4431:4436   */\n      dup1\n        /* \"#utility.yul\":4424:4437   */\n      iszero\n        /* \"#utility.yul\":4417:4438   */\n      iszero\n        /* \"#utility.yul\":4410:4415   */\n      dup2\n        /* \"#utility.yul\":4407:4439   */\n      eq\n        /* \"#utility.yul\":4397:4457   */\n      tag_343\n      jumpi\n        /* \"#utility.yul\":4453:4454   */\n      0x00\n        /* \"#utility.yul\":4450:4451   */\n      dup1\n        /* \"#utility.yul\":4443:4455   */\n      revert\n        /* \"#utility.yul\":5966:6093   */\n    tag_265:\n        /* \"#utility.yul\":6027:6037   */\n      0x4e487b71\n        /* \"#utility.yul\":6022:6025   */\n      0xe0\n        /* \"#utility.yul\":6018:6038   */\n      shl\n        /* \"#utility.yul\":6015:6016   */\n      0x00\n        /* \"#utility.yul\":6008:6039   */\n      mstore\n        /* \"#utility.yul\":6058:6062   */\n      0x41\n        /* \"#utility.yul\":6055:6056   */\n      0x04\n        /* \"#utility.yul\":6048:6063   */\n      mstore\n        /* \"#utility.yul\":6082:6086   */\n      0x24\n        /* \"#utility.yul\":6079:6080   */\n      0x00\n        /* \"#utility.yul\":6072:6087   */\n      revert\n        /* \"#utility.yul\":6098:6225   */\n    tag_275:\n        /* \"#utility.yul\":6159:6169   */\n      0x4e487b71\n        /* \"#utility.yul\":6154:6157   */\n      0xe0\n        /* \"#utility.yul\":6150:6170   */\n      shl\n        /* \"#utility.yul\":6147:6148   */\n      0x00\n        /* \"#utility.yul\":6140:6171   */\n      mstore\n        /* \"#utility.yul\":6190:6194   */\n      0x32\n        /* \"#utility.yul\":6187:6188   */\n      0x04\n        /* \"#utility.yul\":6180:6195   */\n      mstore\n        /* \"#utility.yul\":6214:6218   */\n      0x24\n        /* \"#utility.yul\":6211:6212   */\n      0x00\n        /* \"#utility.yul\":6204:6219   */\n      revert\n        /* \"#utility.yul\":6230:6365   */\n    tag_289:\n        /* \"#utility.yul\":6269:6272   */\n      0x00\n        /* \"#utility.yul\":6290:6307   */\n      0x01\n      dup3\n      add\n        /* \"#utility.yul\":6287:6330   */\n      tag_384\n      jumpi\n        /* \"#utility.yul\":6310:6328   */\n      tag_384\n      tag_339\n      jump\t// in\n    tag_384:\n      pop\n        /* \"#utility.yul\":6357:6358   */\n      0x01\n        /* \"#utility.yul\":6346:6359   */\n      add\n      swap1\n        /* \"#utility.yul\":6230:6365   */\n      jump\t// out\n\n    auxdata: 0xa264697066735822122094fd54243bead2aa380debf4923c1268db7c87281a871d5cdb092a156dba1d1964736f6c634300080d0033\n}\n",
    "bytecode": {
      "linkReferences": {},
      "object": "608060405260786007553480156200001657600080fd5b50604051620015e1380380620015e18339810160408190526200003991620000ea565b600160005562000049336200007b565b600380546001600160a01b039384166001600160a01b0319918216179091556002805492909316911617905562000122565b600180546001600160a01b038381166001600160a01b0319831681179093556040519116919082907f8be0079c531659141344cd1fd0a4f28419497f9722a3daafe3b4186f6b6457e090600090a35050565b80516001600160a01b0381168114620000e557600080fd5b919050565b60008060408385031215620000fe57600080fd5b6200010983620000cd565b91506200011960208401620000cd565b90509250929050565b6114af80620001326000396000f3fe608060405234801561001057600080fd5b50600436106101ef5760003560e01c80638d8693421161010f578063c32726c2116100a2578063edf26d9b11610071578063edf26d9b146103f3578063ee6da84814610406578063f245ace414610426578063f2fde38b1461044657600080fd5b8063c32726c2146103c7578063c9b1b70d146103da578063cd3daf9d146103e2578063d84f2bc6146103ea57600080fd5b8063adca9b72116100de578063adca9b721461036b578063b88a802f1461037e578063bea0815114610386578063c2f8498d146103a657600080fd5b80638d8693421461032c5780638da5cb5b14610334578063a06b181314610345578063a694fc3a1461035857600080fd5b80635997bb37116101875780636aa0838f116101565780636aa0838f146102f3578063715018a6146102fc578063893d20e8146103045780638a8775671461030c57600080fd5b80635997bb37146102ca5780635e01eb5a146102d2578063675f457d146102d857806368c33627146102eb57600080fd5b80632f54bf6e116101c35780632f54bf6e14610262578063304ac91b14610285578063399080ec1461028e57806343cbce3e146102b757600080fd5b80628cc262146101f45780630bd21c561461021a5780630fda55b4146102455780632e1a7d4d1461024d575b600080fd5b6102076102023660046112a6565b610459565b6040519081526020015b60405180910390f35b60025461022d906001600160a01b031681565b6040516001600160a01b039091168152602001610211565b6102076104d6565b61026061025b3660046112d6565b610549565b005b6102756102703660046112a6565b6106f7565b6040519015158152602001610211565b61020760055481565b61020761029c3660046112a6565b6001600160a01b03166000908152600b602052604090205490565b6102076102c53660046112a6565b610725565b610207606481565b3361022d565b6102076102e63660046112a6565b610795565b600854610207565b61020760045481565b6102606107c8565b61022d61082e565b61020761031a3660046112a6565b600b6020526000908152604090205481565b600554610207565b6001546001600160a01b031661022d565b6102076103533660046112a6565b610842565b6102606103663660046112d6565b6108aa565b60035461022d906001600160a01b031681565b610260610adf565b6102076103943660046112a6565b600a6020526000908152604090205481565b6103b96103b43660046112a6565b610c59565b6040516102119291906112ef565b6103b96103d53660046112a6565b610eb1565b610207611098565b6102076110e2565b61020760075481565b61022d6104013660046112d6565b61113b565b6102076104143660046112a6565b600c6020526000908152604090205481565b6102076104343660046112a6565b60096020526000908152604090205481565b6102606104543660046112a6565b611165565b6001600160a01b0381166000908152600a60209081526040808320546009909252822054670de0b6b3a76400009061048f6110e2565b6104999190611389565b6001600160a01b0385166000908152600b60205260409020546104bc91906113a0565b6104c691906113bf565b6104d091906113e1565b92915050565b600354604080516318160ddd60e01b815290516000926001600160a01b0316916318160ddd9160048083019260209291908290030181865afa158015610520573d6000803e3d6000fd5b505050506040513d601f19601f8201168201806040525081019061054491906113f9565b905090565b336105526110e2565b6005554260045561056281610459565b6001600160a01b0382166000908152600a602090815260408083209390935560055460099091529181209190915554600119016105e65760405162461bcd60e51b815260206004820152601f60248201527f5265656e7472616e637947756172643a207265656e7472616e742063616c6c0060448201526064015b60405180910390fd5b600260008190555081600860008282546106009190611389565b9091555050336000908152600b602052604081208054849290610624908490611389565b9091555050604051829033907f4cb6da433ea55f6e302b7bdbfeed740816a42301cde7f5bac5dff2b34037637490600090a360035460405163a9059cbb60e01b8152336004820152602481018490526000916001600160a01b03169063a9059cbb906044015b6020604051808303816000875af11580156106a9573d6000803e3d6000fd5b505050506040513d601f19601f820116820180604052508101906106cd9190611412565b9050806106ed576040516312171d8360e31b815260040160405180910390fd5b5050600160005550565b6000816001600160a01b03166107156001546001600160a01b031690565b6001600160a01b03161492915050565b6003546040516370a0823160e01b81526001600160a01b03838116600483015260009216906370a08231906024015b602060405180830381865afa158015610771573d6000803e3d6000fd5b505050506040513d601f19601f820116820180604052508101906104d091906113f9565b6002546040516370a0823160e01b81526001600160a01b03838116600483015260009216906370a0823190602401610754565b6001546001600160a01b031633146108225760405162461bcd60e51b815260206004820181905260248201527f4f776e61626c653a2063616c6c6572206973206e6f7420746865206f776e657260448201526064016105dd565b61082c6000611247565b565b60006105446001546001600160a01b031690565b6007546001600160a01b0382166000908152600c60205260408120549091429161086c91906113e1565b1161087957506000919050565b6007546001600160a01b0383166000908152600c602052604090205442916108a0916113e1565b6104d09190611389565b336108b36110e2565b600555426004556108c381610459565b6001600160a01b0382166000908152600a602090815260408083209390935560055460099091529181209190915554600119016109425760405162461bcd60e51b815260206004820152601f60248201527f5265656e7472616e637947756172643a207265656e7472616e742063616c6c0060448201526064016105dd565b6002600081905550818060000361096c57604051630f45911f60e41b815260040160405180910390fd5b336000908152600b60205260409020546109d057600680546001810182556000919091527ff652222313e28459528d920b65115c16c04f3efc82aaedc97be59f3f377c0d3f01805473ffffffffffffffffffffffffffffffffffffffff1916331790555b82600860008282546109e291906113e1565b9091555050336000908152600b602052604081208054859290610a069084906113e1565b9091555050604051839033907f9e71bc8eea02a63969f509818f2dafb9254532904319f9dbda79b67bd34a5f3d90600090a36003546040516323b872dd60e01b8152336004820152306024820152604481018590526000916001600160a01b0316906323b872dd906064016020604051808303816000875af1158015610a90573d6000803e3d6000fd5b505050506040513d601f19601f82011682018060405250810190610ab49190611412565b905080610ad4576040516312171d8360e31b815260040160405180910390fd5b505060016000555050565b33610ae86110e2565b60055542600455610af881610459565b6001600160a01b0382166000908152600a60209081526040808320939093556005546009909152918120919091555460011901610b775760405162461bcd60e51b815260206004820152601f60248201527f5265656e7472616e637947756172643a207265656e7472616e742063616c6c0060448201526064016105dd565b6002600055610b8533610842565b15610bd25760405162461bcd60e51b815260206004820152601f60248201527f547269656420746f20636c61696d207265776172647320746f6f20736f6f6e0060448201526064016105dd565b336000818152600c60209081526040808320429055600a90915280822080549083905590519092839290917ffc30cddea38e2bf4d6ea7d3f9ed3b6ad7f176419f4963bd81318067a4aee73fe9190a360025460405163a9059cbb60e01b8152336004820152602481018390526000916001600160a01b03169063a9059cbb9060440161068a565b606080826001600160a01b0316610c786001546001600160a01b031690565b6001600160a01b031614610cce5760405162461bcd60e51b815260206004820152601560248201527f596f7520617265206e6f7420746865206f776e6572000000000000000000000060448201526064016105dd565b60065460009067ffffffffffffffff811115610cec57610cec611434565b604051908082528060200260200182016040528015610d15578160200160208202803683370190505b5060065490915060009067ffffffffffffffff811115610d3757610d37611434565b604051908082528060200260200182016040528015610d60578160200160208202803683370190505b50905060005b600654811015610ea65760068181548110610d8357610d8361144a565b9060005260206000200160009054906101000a90046001600160a01b0316838281518110610db357610db361144a565b6001600160a01b0392831660209182029290920101526002546006805491909216916370a082319184908110610deb57610deb61144a565b60009182526020909120015460405160e083901b7fffffffff000000000000000000000000000000000000000000000000000000001681526001600160a01b039091166004820152602401602060405180830381865afa158015610e53573d6000803e3d6000fd5b505050506040513d601f19601f82011682018060405250810190610e7791906113f9565b828281518110610e8957610e8961144a565b602090810291909101015280610e9e81611460565b915050610d66565b509094909350915050565b606080826001600160a01b0316610ed06001546001600160a01b031690565b6001600160a01b031614610f265760405162461bcd60e51b815260206004820152601560248201527f596f7520617265206e6f7420746865206f776e6572000000000000000000000060448201526064016105dd565b60065460009067ffffffffffffffff811115610f4457610f44611434565b604051908082528060200260200182016040528015610f6d578160200160208202803683370190505b5060065490915060009067ffffffffffffffff811115610f8f57610f8f611434565b604051908082528060200260200182016040528015610fb8578160200160208202803683370190505b50905060005b600654811015610ea65760068181548110610fdb57610fdb61144a565b9060005260206000200160009054906101000a90046001600160a01b031683828151811061100b5761100b61144a565b60200260200101906001600160a01b031690816001600160a01b031681525050600b6000600683815481106110425761104261144a565b60009182526020808320909101546001600160a01b03168352820192909252604001902054825183908390811061107b5761107b61144a565b60209081029190910101528061109081611460565b915050610fbe565b600254604080516318160ddd60e01b815290516000926001600160a01b0316916318160ddd9160048083019260209291908290030181865afa158015610520573d6000803e3d6000fd5b60006008546000036110f5575060055490565b6008546064600454426111089190611389565b61111291906113a0565b61112490670de0b6b3a76400006113a0565b61112e91906113bf565b60055461054491906113e1565b6006818154811061114b57600080fd5b6000918252602090912001546001600160a01b0316905081565b6001546001600160a01b031633146111bf5760405162461bcd60e51b815260206004820181905260248201527f4f776e61626c653a2063616c6c6572206973206e6f7420746865206f776e657260448201526064016105dd565b6001600160a01b03811661123b5760405162461bcd60e51b815260206004820152602660248201527f4f776e61626c653a206e6577206f776e657220697320746865207a65726f206160448201527f646472657373000000000000000000000000000000000000000000000000000060648201526084016105dd565b61124481611247565b50565b600180546001600160a01b0383811673ffffffffffffffffffffffffffffffffffffffff19831681179093556040519116919082907f8be0079c531659141344cd1fd0a4f28419497f9722a3daafe3b4186f6b6457e090600090a35050565b6000602082840312156112b857600080fd5b81356001600160a01b03811681146112cf57600080fd5b9392505050565b6000602082840312156112e857600080fd5b5035919050565b604080825283519082018190526000906020906060840190828701845b828110156113315781516001600160a01b03168452928401929084019060010161130c565b5050508381038285015284518082528583019183019060005b818110156113665783518352928401929184019160010161134a565b5090979650505050505050565b634e487b7160e01b600052601160045260246000fd5b60008282101561139b5761139b611373565b500390565b60008160001904831182151516156113ba576113ba611373565b500290565b6000826113dc57634e487b7160e01b600052601260045260246000fd5b500490565b600082198211156113f4576113f4611373565b500190565b60006020828403121561140b57600080fd5b5051919050565b60006020828403121561142457600080fd5b815180151581146112cf57600080fd5b634e487b7160e01b600052604160045260246000fd5b634e487b7160e01b600052603260045260246000fd5b60006001820161147257611472611373565b506001019056fea264697066735822122094fd54243bead2aa380debf4923c1268db7c87281a871d5cdb092a156dba1d1964736f6c634300080d0033",
      "opcodes": "PUSH1 0x80 PUSH1 0x40 MSTORE PUSH1 0x78 PUSH1 0x7 SSTORE CALLVALUE DUP1 ISZERO PUSH3 0x16 JUMPI PUSH1 0x0 DUP1 REVERT JUMPDEST POP PUSH1 0x40 MLOAD PUSH3 0x15E1 CODESIZE SUB DUP1 PUSH3 0x15E1 DUP4 CODECOPY DUP2 ADD PUSH1 0x40 DUP2 SWAP1 MSTORE PUSH3 0x39 SWAP2 PUSH3 0xEA JUMP JUMPDEST PUSH1 0x1 PUSH1 0x0 SSTORE PUSH3 0x49 CALLER PUSH3 0x7B JUMP JUMPDEST PUSH1 0x3 DUP1 SLOAD PUSH1 0x1 PUSH1 0x1 PUSH1 0xA0 SHL SUB SWAP4 DUP5 AND PUSH1 0x1 PUSH1 0x1 PUSH1 0xA0 SHL SUB NOT SWAP2 DUP3 AND OR SWAP1 SWAP2 SSTORE PUSH1 0x2 DUP1 SLOAD SWAP3 SWAP1 SWAP4 AND SWAP2 AND OR SWAP1 SSTORE PUSH3 0x122 JUMP JUMPDEST PUSH1 0x1 DUP1 SLOAD PUSH1 0x1 PUSH1 0x1 PUSH1 0xA0 SHL SUB DUP4 DUP2 AND PUSH1 0x1 PUSH1 0x1 PUSH1 0xA0 SHL SUB NOT DUP4 AND DUP2 OR SWAP1 SWAP4 SSTORE PUSH1 0x40 MLOAD SWAP2 AND SWAP2 SWAP1 DUP3 SWAP1 PUSH32 0x8BE0079C531659141344CD1FD0A4F28419497F9722A3DAAFE3B4186F6B6457E0 SWAP1 PUSH1 0x0 SWAP1 LOG3 POP POP JUMP JUMPDEST DUP1 MLOAD PUSH1 0x1 PUSH1 0x1 PUSH1 0xA0 SHL SUB DUP2 AND DUP2 EQ PUSH3 0xE5 JUMPI PUSH1 0x0 DUP1 REVERT JUMPDEST SWAP2 SWAP1 POP JUMP JUMPDEST PUSH1 0x0 DUP1 PUSH1 0x40 DUP4 DUP6 SUB SLT ISZERO PUSH3 0xFE JUMPI PUSH1 0x0 DUP1 REVERT JUMPDEST PUSH3 0x109 DUP4 PUSH3 0xCD JUMP JUMPDEST SWAP2 POP PUSH3 0x119 PUSH1 0x20 DUP5 ADD PUSH3 0xCD JUMP JUMPDEST SWAP1 POP SWAP3 POP SWAP3 SWAP1 POP JUMP JUMPDEST PUSH2 0x14AF DUP1 PUSH3 0x132 PUSH1 0x0 CODECOPY PUSH1 0x0 RETURN INVALID PUSH1 0x80 PUSH1 0x40 MSTORE CALLVALUE DUP1 ISZERO PUSH2 0x10 JUMPI PUSH1 0x0 DUP1 REVERT JUMPDEST POP PUSH1 0x4 CALLDATASIZE LT PUSH2 0x1EF JUMPI PUSH1 0x0 CALLDATALOAD PUSH1 0xE0 SHR DUP1 PUSH4 0x8D869342 GT PUSH2 0x10F JUMPI DUP1 PUSH4 0xC32726C2 GT PUSH2 0xA2 JUMPI DUP1 PUSH4 0xEDF26D9B GT PUSH2 0x71 JUMPI DUP1 PUSH4 0xEDF26D9B EQ PUSH2 0x3F3 JUMPI DUP1 PUSH4 0xEE6DA848 EQ PUSH2 0x406 JUMPI DUP1 PUSH4 0xF245ACE4 EQ PUSH2 0x426 JUMPI DUP1 PUSH4 0xF2FDE38B EQ PUSH2 0x446 JUMPI PUSH1 0x0 DUP1 REVERT JUMPDEST DUP1 PUSH4 0xC32726C2 EQ PUSH2 0x3C7 JUMPI DUP1 PUSH4 0xC9B1B70D EQ PUSH2 0x3DA JUMPI DUP1 PUSH4 0xCD3DAF9D EQ PUSH2 0x3E2 JUMPI DUP1 PUSH4 0xD84F2BC6 EQ PUSH2 0x3EA JUMPI PUSH1 0x0 DUP1 REVERT JUMPDEST DUP1 PUSH4 0xADCA9B72 GT PUSH2 0xDE JUMPI DUP1 PUSH4 0xADCA9B72 EQ PUSH2 0x36B JUMPI DUP1 PUSH4 0xB88A802F EQ PUSH2 0x37E JUMPI DUP1 PUSH4 0xBEA08151 EQ PUSH2 0x386 JUMPI DUP1 PUSH4 0xC2F8498D EQ PUSH2 0x3A6 JUMPI PUSH1 0x0 DUP1 REVERT JUMPDEST DUP1 PUSH4 0x8D869342 EQ PUSH2 0x32C JUMPI DUP1 PUSH4 0x8DA5CB5B EQ PUSH2 0x334 JUMPI DUP1 PUSH4 0xA06B1813 EQ PUSH2 0x345 JUMPI DUP1 PUSH4 0xA694FC3A EQ PUSH2 0x358 JUMPI PUSH1 0x0 DUP1 REVERT JUMPDEST DUP1 PUSH4 0x5997BB37 GT PUSH2 0x187 JUMPI DUP1 PUSH4 0x6AA0838F GT PUSH2 0x156 JUMPI DUP1 PUSH4 0x6AA0838F EQ PUSH2 0x2F3 JUMPI DUP1 PUSH4 0x715018A6 EQ PUSH2 0x2FC JUMPI DUP1 PUSH4 0x893D20E8 EQ PUSH2 0x304 JUMPI DUP1 PUSH4 0x8A877567 EQ PUSH2 0x30C JUMPI PUSH1 0x0 DUP1 REVERT JUMPDEST DUP1 PUSH4 0x5997BB37 EQ PUSH2 0x2CA JUMPI DUP1 PUSH4 0x5E01EB5A EQ PUSH2 0x2D2 JUMPI DUP1 PUSH4 0x675F457D EQ PUSH2 0x2D8 JUMPI DUP1 PUSH4 0x68C33627 EQ PUSH2 0x2EB JUMPI PUSH1 0x0 DUP1 REVERT JUMPDEST DUP1 PUSH4 0x2F54BF6E GT PUSH2 0x1C3 JUMPI DUP1 PUSH4 0x2F54BF6E EQ PUSH2 0x262 JUMPI DUP1 PUSH4 0x304AC91B EQ PUSH2 0x285 JUMPI DUP1 PUSH4 0x399080EC EQ PUSH2 0x28E JUMPI DUP1 PUSH4 0x43CBCE3E EQ PUSH2 0x2B7 JUMPI PUSH1 0x0 DUP1 REVERT JUMPDEST DUP1 PUSH3 0x8CC262 EQ PUSH2 0x1F4 JUMPI DUP1 PUSH4 0xBD21C56 EQ PUSH2 0x21A JUMPI DUP1 PUSH4 0xFDA55B4 EQ PUSH2 0x245 JUMPI DUP1 PUSH4 0x2E1A7D4D EQ PUSH2 0x24D JUMPI JUMPDEST PUSH1 0x0 DUP1 REVERT JUMPDEST PUSH2 0x207 PUSH2 0x202 CALLDATASIZE PUSH1 0x4 PUSH2 0x12A6 JUMP JUMPDEST PUSH2 0x459 JUMP JUMPDEST PUSH1 0x40 MLOAD SWAP1 DUP2 MSTORE PUSH1 0x20 ADD JUMPDEST PUSH1 0x40 MLOAD DUP1 SWAP2 SUB SWAP1 RETURN JUMPDEST PUSH1 0x2 SLOAD PUSH2 0x22D SWAP1 PUSH1 0x1 PUSH1 0x1 PUSH1 0xA0 SHL SUB AND DUP2 JUMP JUMPDEST PUSH1 0x40 MLOAD PUSH1 0x1 PUSH1 0x1 PUSH1 0xA0 SHL SUB SWAP1 SWAP2 AND DUP2 MSTORE PUSH1 0x20 ADD PUSH2 0x211 JUMP JUMPDEST PUSH2 0x207 PUSH2 0x4D6 JUMP JUMPDEST PUSH2 0x260 PUSH2 0x25B CALLDATASIZE PUSH1 0x4 PUSH2 0x12D6 JUMP JUMPDEST PUSH2 0x549 JUMP JUMPDEST STOP JUMPDEST PUSH2 0x275 PUSH2 0x270 CALLDATASIZE PUSH1 0x4 PUSH2 0x12A6 JUMP JUMPDEST PUSH2 0x6F7 JUMP JUMPDEST PUSH1 0x40 MLOAD SWAP1 ISZERO ISZERO DUP2 MSTORE PUSH1 0x20 ADD PUSH2 0x211 JUMP JUMPDEST PUSH2 0x207 PUSH1 0x5 SLOAD DUP2 JUMP JUMPDEST PUSH2 0x207 PUSH2 0x29C CALLDATASIZE PUSH1 0x4 PUSH2 0x12A6 JUMP JUMPDEST PUSH1 0x1 PUSH1 0x1 PUSH1 0xA0 SHL SUB AND PUSH1 0x0 SWAP1 DUP2 MSTORE PUSH1 0xB PUSH1 0x20 MSTORE PUSH1 0x40 SWAP1 KECCAK256 SLOAD SWAP1 JUMP JUMPDEST PUSH2 0x207 PUSH2 0x2C5 CALLDATASIZE PUSH1 0x4 PUSH2 0x12A6 JUMP JUMPDEST PUSH2 0x725 JUMP JUMPDEST PUSH2 0x207 PUSH1 0x64 DUP2 JUMP JUMPDEST CALLER PUSH2 0x22D JUMP JUMPDEST PUSH2 0x207 PUSH2 0x2E6 CALLDATASIZE PUSH1 0x4 PUSH2 0x12A6 JUMP JUMPDEST PUSH2 0x795 JUMP JUMPDEST PUSH1 0x8 SLOAD PUSH2 0x207 JUMP JUMPDEST PUSH2 0x207 PUSH1 0x4 SLOAD DUP2 JUMP JUMPDEST PUSH2 0x260 PUSH2 0x7C8 JUMP JUMPDEST PUSH2 0x22D PUSH2 0x82E JUMP JUMPDEST PUSH2 0x207 PUSH2 0x31A CALLDATASIZE PUSH1 0x4 PUSH2 0x12A6 JUMP JUMPDEST PUSH1 0xB PUSH1 0x20 MSTORE PUSH1 0x0 SWAP1 DUP2 MSTORE PUSH1 0x40 SWAP1 KECCAK256 SLOAD DUP2 JUMP JUMPDEST PUSH1 0x5 SLOAD PUSH2 0x207 JUMP JUMPDEST PUSH1 0x1 SLOAD PUSH1 0x1 PUSH1 0x1 PUSH1 0xA0 SHL SUB AND PUSH2 0x22D JUMP JUMPDEST PUSH2 0x207 PUSH2 0x353 CALLDATASIZE PUSH1 0x4 PUSH2 0x12A6 JUMP JUMPDEST PUSH2 0x842 JUMP JUMPDEST PUSH2 0x260 PUSH2 0x366 CALLDATASIZE PUSH1 0x4 PUSH2 0x12D6 JUMP JUMPDEST PUSH2 0x8AA JUMP JUMPDEST PUSH1 0x3 SLOAD PUSH2 0x22D SWAP1 PUSH1 0x1 PUSH1 0x1 PUSH1 0xA0 SHL SUB AND DUP2 JUMP JUMPDEST PUSH2 0x260 PUSH2 0xADF JUMP JUMPDEST PUSH2 0x207 PUSH2 0x394 CALLDATASIZE PUSH1 0x4 PUSH2 0x12A6 JUMP JUMPDEST PUSH1 0xA PUSH1 0x20 MSTORE PUSH1 0x0 SWAP1 DUP2 MSTORE PUSH1 0x40 SWAP1 KECCAK256 SLOAD DUP2 JUMP JUMPDEST PUSH2 0x3B9 PUSH2 0x3B4 CALLDATASIZE PUSH1 0x4 PUSH2 0x12A6 JUMP JUMPDEST PUSH2 0xC59 JUMP JUMPDEST PUSH1 0x40 MLOAD PUSH2 0x211 SWAP3 SWAP2 SWAP1 PUSH2 0x12EF JUMP JUMPDEST PUSH2 0x3B9 PUSH2 0x3D5 CALLDATASIZE PUSH1 0x4 PUSH2 0x12A6 JUMP JUMPDEST PUSH2 0xEB1 JUMP JUMPDEST PUSH2 0x207 PUSH2 0x1098 JUMP JUMPDEST PUSH2 0x207 PUSH2 0x10E2 JUMP JUMPDEST PUSH2 0x207 PUSH1 0x7 SLOAD DUP2 JUMP JUMPDEST PUSH2 0x22D PUSH2 0x401 CALLDATASIZE PUSH1 0x4 PUSH2 0x12D6 JUMP JUMPDEST PUSH2 0x113B JUMP JUMPDEST PUSH2 0x207 PUSH2 0x414 CALLDATASIZE PUSH1 0x4 PUSH2 0x12A6 JUMP JUMPDEST PUSH1 0xC PUSH1 0x20 MSTORE PUSH1 0x0 SWAP1 DUP2 MSTORE PUSH1 0x40 SWAP1 KECCAK256 SLOAD DUP2 JUMP JUMPDEST PUSH2 0x207 PUSH2 0x434 CALLDATASIZE PUSH1 0x4 PUSH2 0x12A6 JUMP JUMPDEST PUSH1 0x9 PUSH1 0x20 MSTORE PUSH1 0x0 SWAP1 DUP2 MSTORE PUSH1 0x40 SWAP1 KECCAK256 SLOAD DUP2 JUMP JUMPDEST PUSH2 0x260 PUSH2 0x454 CALLDATASIZE PUSH1 0x4 PUSH2 0x12A6 JUMP JUMPDEST PUSH2 0x1165 JUMP JUMPDEST PUSH1 0x1 PUSH1 0x1 PUSH1 0xA0 SHL SUB DUP2 AND PUSH1 0x0 SWAP1 DUP2 MSTORE PUSH1 0xA PUSH1 0x20 SWAP1 DUP2 MSTORE PUSH1 0x40 DUP1 DUP4 KECCAK256 SLOAD PUSH1 0x9 SWAP1 SWAP3 MSTORE DUP3 KECCAK256 SLOAD PUSH8 0xDE0B6B3A7640000 SWAP1 PUSH2 0x48F PUSH2 0x10E2 JUMP JUMPDEST PUSH2 0x499 SWAP2 SWAP1 PUSH2 0x1389 JUMP JUMPDEST PUSH1 0x1 PUSH1 0x1 PUSH1 0xA0 SHL SUB DUP6 AND PUSH1 0x0 SWAP1 DUP2 MSTORE PUSH1 0xB PUSH1 0x20 MSTORE PUSH1 0x40 SWAP1 KECCAK256 SLOAD PUSH2 0x4BC SWAP2 SWAP1 PUSH2 0x13A0 JUMP JUMPDEST PUSH2 0x4C6 SWAP2 SWAP1 PUSH2 0x13BF JUMP JUMPDEST PUSH2 0x4D0 SWAP2 SWAP1 PUSH2 0x13E1 JUMP JUMPDEST SWAP3 SWAP2 POP POP JUMP JUMPDEST PUSH1 0x3 SLOAD PUSH1 0x40 DUP1 MLOAD PUSH4 0x18160DDD PUSH1 0xE0 SHL DUP2 MSTORE SWAP1 MLOAD PUSH1 0x0 SWAP3 PUSH1 0x1 PUSH1 0x1 PUSH1 0xA0 SHL SUB AND SWAP2 PUSH4 0x18160DDD SWAP2 PUSH1 0x4 DUP1 DUP4 ADD SWAP3 PUSH1 0x20 SWAP3 SWAP2 SWAP1 DUP3 SWAP1 SUB ADD DUP2 DUP7 GAS STATICCALL ISZERO DUP1 ISZERO PUSH2 0x520 JUMPI RETURNDATASIZE PUSH1 0x0 DUP1 RETURNDATACOPY RETURNDATASIZE PUSH1 0x0 REVERT JUMPDEST POP POP POP POP PUSH1 0x40 MLOAD RETURNDATASIZE PUSH1 0x1F NOT PUSH1 0x1F DUP3 ADD AND DUP3 ADD DUP1 PUSH1 0x40 MSTORE POP DUP2 ADD SWAP1 PUSH2 0x544 SWAP2 SWAP1 PUSH2 0x13F9 JUMP JUMPDEST SWAP1 POP SWAP1 JUMP JUMPDEST CALLER PUSH2 0x552 PUSH2 0x10E2 JUMP JUMPDEST PUSH1 0x5 SSTORE TIMESTAMP PUSH1 0x4 SSTORE PUSH2 0x562 DUP2 PUSH2 0x459 JUMP JUMPDEST PUSH1 0x1 PUSH1 0x1 PUSH1 0xA0 SHL SUB DUP3 AND PUSH1 0x0 SWAP1 DUP2 MSTORE PUSH1 0xA PUSH1 0x20 SWAP1 DUP2 MSTORE PUSH1 0x40 DUP1 DUP4 KECCAK256 SWAP4 SWAP1 SWAP4 SSTORE PUSH1 0x5 SLOAD PUSH1 0x9 SWAP1 SWAP2 MSTORE SWAP2 DUP2 KECCAK256 SWAP2 SWAP1 SWAP2 SSTORE SLOAD PUSH1 0x1 NOT ADD PUSH2 0x5E6 JUMPI PUSH1 0x40 MLOAD PUSH3 0x461BCD PUSH1 0xE5 SHL DUP2 MSTORE PUSH1 0x20 PUSH1 0x4 DUP3 ADD MSTORE PUSH1 0x1F PUSH1 0x24 DUP3 ADD MSTORE PUSH32 0x5265656E7472616E637947756172643A207265656E7472616E742063616C6C00 PUSH1 0x44 DUP3 ADD MSTORE PUSH1 0x64 ADD JUMPDEST PUSH1 0x40 MLOAD DUP1 SWAP2 SUB SWAP1 REVERT JUMPDEST PUSH1 0x2 PUSH1 0x0 DUP2 SWAP1 SSTORE POP DUP2 PUSH1 0x8 PUSH1 0x0 DUP3 DUP3 SLOAD PUSH2 0x600 SWAP2 SWAP1 PUSH2 0x1389 JUMP JUMPDEST SWAP1 SWAP2 SSTORE POP POP CALLER PUSH1 0x0 SWAP1 DUP2 MSTORE PUSH1 0xB PUSH1 0x20 MSTORE PUSH1 0x40 DUP2 KECCAK256 DUP1 SLOAD DUP5 SWAP3 SWAP1 PUSH2 0x624 SWAP1 DUP5 SWAP1 PUSH2 0x1389 JUMP JUMPDEST SWAP1 SWAP2 SSTORE POP POP PUSH1 0x40 MLOAD DUP3 SWAP1 CALLER SWAP1 PUSH32 0x4CB6DA433EA55F6E302B7BDBFEED740816A42301CDE7F5BAC5DFF2B340376374 SWAP1 PUSH1 0x0 SWAP1 LOG3 PUSH1 0x3 SLOAD PUSH1 0x40 MLOAD PUSH4 0xA9059CBB PUSH1 0xE0 SHL DUP2 MSTORE CALLER PUSH1 0x4 DUP3 ADD MSTORE PUSH1 0x24 DUP2 ADD DUP5 SWAP1 MSTORE PUSH1 0x0 SWAP2 PUSH1 0x1 PUSH1 0x1 PUSH1 0xA0 SHL SUB AND SWAP1 PUSH4 0xA9059CBB SWAP1 PUSH1 0x44 ADD JUMPDEST PUSH1 0x20 PUSH1 0x40 MLOAD DUP1 DUP4 SUB DUP2 PUSH1 0x0 DUP8 GAS CALL ISZERO DUP1 ISZERO PUSH2 0x6A9 JUMPI RETURNDATASIZE PUSH1 0x0 DUP1 RETURNDATACOPY RETURNDATASIZE PUSH1 0x0 REVERT JUMPDEST POP POP POP POP PUSH1 0x40 MLOAD RETURNDATASIZE PUSH1 0x1F NOT PUSH1 0x1F DUP3 ADD AND DUP3 ADD DUP1 PUSH1 0x40 MSTORE POP DUP2 ADD SWAP1 PUSH2 0x6CD SWAP2 SWAP1 PUSH2 0x1412 JUMP JUMPDEST SWAP1 POP DUP1 PUSH2 0x6ED JUMPI PUSH1 0x40 MLOAD PUSH4 0x12171D83 PUSH1 0xE3 SHL DUP2 MSTORE PUSH1 0x4 ADD PUSH1 0x40 MLOAD DUP1 SWAP2 SUB SWAP1 REVERT JUMPDEST POP POP PUSH1 0x1 PUSH1 0x0 SSTORE POP JUMP JUMPDEST PUSH1 0x0 DUP2 PUSH1 0x1 PUSH1 0x1 PUSH1 0xA0 SHL SUB AND PUSH2 0x715 PUSH1 0x1 SLOAD PUSH1 0x1 PUSH1 0x1 PUSH1 0xA0 SHL SUB AND SWAP1 JUMP JUMPDEST PUSH1 0x1 PUSH1 0x1 PUSH1 0xA0 SHL SUB AND EQ SWAP3 SWAP2 POP POP JUMP JUMPDEST PUSH1 0x3 SLOAD PUSH1 0x40 MLOAD PUSH4 0x70A08231 PUSH1 0xE0 SHL DUP2 MSTORE PUSH1 0x1 PUSH1 0x1 PUSH1 0xA0 SHL SUB DUP4 DUP2 AND PUSH1 0x4 DUP4 ADD MSTORE PUSH1 0x0 SWAP3 AND SWAP1 PUSH4 0x70A08231 SWAP1 PUSH1 0x24 ADD JUMPDEST PUSH1 0x20 PUSH1 0x40 MLOAD DUP1 DUP4 SUB DUP2 DUP7 GAS STATICCALL ISZERO DUP1 ISZERO PUSH2 0x771 JUMPI RETURNDATASIZE PUSH1 0x0 DUP1 RETURNDATACOPY RETURNDATASIZE PUSH1 0x0 REVERT JUMPDEST POP POP POP POP PUSH1 0x40 MLOAD RETURNDATASIZE PUSH1 0x1F NOT PUSH1 0x1F DUP3 ADD AND DUP3 ADD DUP1 PUSH1 0x40 MSTORE POP DUP2 ADD SWAP1 PUSH2 0x4D0 SWAP2 SWAP1 PUSH2 0x13F9 JUMP JUMPDEST PUSH1 0x2 SLOAD PUSH1 0x40 MLOAD PUSH4 0x70A08231 PUSH1 0xE0 SHL DUP2 MSTORE PUSH1 0x1 PUSH1 0x1 PUSH1 0xA0 SHL SUB DUP4 DUP2 AND PUSH1 0x4 DUP4 ADD MSTORE PUSH1 0x0 SWAP3 AND SWAP1 PUSH4 0x70A08231 SWAP1 PUSH1 0x24 ADD PUSH2 0x754 JUMP JUMPDEST PUSH1 0x1 SLOAD PUSH1 0x1 PUSH1 0x1 PUSH1 0xA0 SHL SUB AND CALLER EQ PUSH2 0x822 JUMPI PUSH1 0x40 MLOAD PUSH3 0x461BCD PUSH1 0xE5 SHL DUP2 MSTORE PUSH1 0x20 PUSH1 0x4 DUP3 ADD DUP2 SWAP1 MSTORE PUSH1 0x24 DUP3 ADD MSTORE PUSH32 0x4F776E61626C653A2063616C6C6572206973206E6F7420746865206F776E6572 PUSH1 0x44 DUP3 ADD MSTORE PUSH1 0x64 ADD PUSH2 0x5DD JUMP JUMPDEST PUSH2 0x82C PUSH1 0x0 PUSH2 0x1247 JUMP JUMPDEST JUMP JUMPDEST PUSH1 0x0 PUSH2 0x544 PUSH1 0x1 SLOAD PUSH1 0x1 PUSH1 0x1 PUSH1 0xA0 SHL SUB AND SWAP1 JUMP JUMPDEST PUSH1 0x7 SLOAD PUSH1 0x1 PUSH1 0x1 PUSH1 0xA0 SHL SUB DUP3 AND PUSH1 0x0 SWAP1 DUP2 MSTORE PUSH1 0xC PUSH1 0x20 MSTORE PUSH1 0x40 DUP2 KECCAK256 SLOAD SWAP1 SWAP2 TIMESTAMP SWAP2 PUSH2 0x86C SWAP2 SWAP1 PUSH2 0x13E1 JUMP JUMPDEST GT PUSH2 0x879 JUMPI POP PUSH1 0x0 SWAP2 SWAP1 POP JUMP JUMPDEST PUSH1 0x7 SLOAD PUSH1 0x1 PUSH1 0x1 PUSH1 0xA0 SHL SUB DUP4 AND PUSH1 0x0 SWAP1 DUP2 MSTORE PUSH1 0xC PUSH1 0x20 MSTORE PUSH1 0x40 SWAP1 KECCAK256 SLOAD TIMESTAMP SWAP2 PUSH2 0x8A0 SWAP2 PUSH2 0x13E1 JUMP JUMPDEST PUSH2 0x4D0 SWAP2 SWAP1 PUSH2 0x1389 JUMP JUMPDEST CALLER PUSH2 0x8B3 PUSH2 0x10E2 JUMP JUMPDEST PUSH1 0x5 SSTORE TIMESTAMP PUSH1 0x4 SSTORE PUSH2 0x8C3 DUP2 PUSH2 0x459 JUMP JUMPDEST PUSH1 0x1 PUSH1 0x1 PUSH1 0xA0 SHL SUB DUP3 AND PUSH1 0x0 SWAP1 DUP2 MSTORE PUSH1 0xA PUSH1 0x20 SWAP1 DUP2 MSTORE PUSH1 0x40 DUP1 DUP4 KECCAK256 SWAP4 SWAP1 SWAP4 SSTORE PUSH1 0x5 SLOAD PUSH1 0x9 SWAP1 SWAP2 MSTORE SWAP2 DUP2 KECCAK256 SWAP2 SWAP1 SWAP2 SSTORE SLOAD PUSH1 0x1 NOT ADD PUSH2 0x942 JUMPI PUSH1 0x40 MLOAD PUSH3 0x461BCD PUSH1 0xE5 SHL DUP2 MSTORE PUSH1 0x20 PUSH1 0x4 DUP3 ADD MSTORE PUSH1 0x1F PUSH1 0x24 DUP3 ADD MSTORE PUSH32 0x5265656E7472616E637947756172643A207265656E7472616E742063616C6C00 PUSH1 0x44 DUP3 ADD MSTORE PUSH1 0x64 ADD PUSH2 0x5DD JUMP JUMPDEST PUSH1 0x2 PUSH1 0x0 DUP2 SWAP1 SSTORE POP DUP2 DUP1 PUSH1 0x0 SUB PUSH2 0x96C JUMPI PUSH1 0x40 MLOAD PUSH4 0xF45911F PUSH1 0xE4 SHL DUP2 MSTORE PUSH1 0x4 ADD PUSH1 0x40 MLOAD DUP1 SWAP2 SUB SWAP1 REVERT JUMPDEST CALLER PUSH1 0x0 SWAP1 DUP2 MSTORE PUSH1 0xB PUSH1 0x20 MSTORE PUSH1 0x40 SWAP1 KECCAK256 SLOAD PUSH2 0x9D0 JUMPI PUSH1 0x6 DUP1 SLOAD PUSH1 0x1 DUP2 ADD DUP3 SSTORE PUSH1 0x0 SWAP2 SWAP1 SWAP2 MSTORE PUSH32 0xF652222313E28459528D920B65115C16C04F3EFC82AAEDC97BE59F3F377C0D3F ADD DUP1 SLOAD PUSH20 0xFFFFFFFFFFFFFFFFFFFFFFFFFFFFFFFFFFFFFFFF NOT AND CALLER OR SWAP1 SSTORE JUMPDEST DUP3 PUSH1 0x8 PUSH1 0x0 DUP3 DUP3 SLOAD PUSH2 0x9E2 SWAP2 SWAP1 PUSH2 0x13E1 JUMP JUMPDEST SWAP1 SWAP2 SSTORE POP POP CALLER PUSH1 0x0 SWAP1 DUP2 MSTORE PUSH1 0xB PUSH1 0x20 MSTORE PUSH1 0x40 DUP2 KECCAK256 DUP1 SLOAD DUP6 SWAP3 SWAP1 PUSH2 0xA06 SWAP1 DUP5 SWAP1 PUSH2 0x13E1 JUMP JUMPDEST SWAP1 SWAP2 SSTORE POP POP PUSH1 0x40 MLOAD DUP4 SWAP1 CALLER SWAP1 PUSH32 0x9E71BC8EEA02A63969F509818F2DAFB9254532904319F9DBDA79B67BD34A5F3D SWAP1 PUSH1 0x0 SWAP1 LOG3 PUSH1 0x3 SLOAD PUSH1 0x40 MLOAD PUSH4 0x23B872DD PUSH1 0xE0 SHL DUP2 MSTORE CALLER PUSH1 0x4 DUP3 ADD MSTORE ADDRESS PUSH1 0x24 DUP3 ADD MSTORE PUSH1 0x44 DUP2 ADD DUP6 SWAP1 MSTORE PUSH1 0x0 SWAP2 PUSH1 0x1 PUSH1 0x1 PUSH1 0xA0 SHL SUB AND SWAP1 PUSH4 0x23B872DD SWAP1 PUSH1 0x64 ADD PUSH1 0x20 PUSH1 0x40 MLOAD DUP1 DUP4 SUB DUP2 PUSH1 0x0 DUP8 GAS CALL ISZERO DUP1 ISZERO PUSH2 0xA90 JUMPI RETURNDATASIZE PUSH1 0x0 DUP1 RETURNDATACOPY RETURNDATASIZE PUSH1 0x0 REVERT JUMPDEST POP POP POP POP PUSH1 0x40 MLOAD RETURNDATASIZE PUSH1 0x1F NOT PUSH1 0x1F DUP3 ADD AND DUP3 ADD DUP1 PUSH1 0x40 MSTORE POP DUP2 ADD SWAP1 PUSH2 0xAB4 SWAP2 SWAP1 PUSH2 0x1412 JUMP JUMPDEST SWAP1 POP DUP1 PUSH2 0xAD4 JUMPI PUSH1 0x40 MLOAD PUSH4 0x12171D83 PUSH1 0xE3 SHL DUP2 MSTORE PUSH1 0x4 ADD PUSH1 0x40 MLOAD DUP1 SWAP2 SUB SWAP1 REVERT JUMPDEST POP POP PUSH1 0x1 PUSH1 0x0 SSTORE POP POP JUMP JUMPDEST CALLER PUSH2 0xAE8 PUSH2 0x10E2 JUMP JUMPDEST PUSH1 0x5 SSTORE TIMESTAMP PUSH1 0x4 SSTORE PUSH2 0xAF8 DUP2 PUSH2 0x459 JUMP JUMPDEST PUSH1 0x1 PUSH1 0x1 PUSH1 0xA0 SHL SUB DUP3 AND PUSH1 0x0 SWAP1 DUP2 MSTORE PUSH1 0xA PUSH1 0x20 SWAP1 DUP2 MSTORE PUSH1 0x40 DUP1 DUP4 KECCAK256 SWAP4 SWAP1 SWAP4 SSTORE PUSH1 0x5 SLOAD PUSH1 0x9 SWAP1 SWAP2 MSTORE SWAP2 DUP2 KECCAK256 SWAP2 SWAP1 SWAP2 SSTORE SLOAD PUSH1 0x1 NOT ADD PUSH2 0xB77 JUMPI PUSH1 0x40 MLOAD PUSH3 0x461BCD PUSH1 0xE5 SHL DUP2 MSTORE PUSH1 0x20 PUSH1 0x4 DUP3 ADD MSTORE PUSH1 0x1F PUSH1 0x24 DUP3 ADD MSTORE PUSH32 0x5265656E7472616E637947756172643A207265656E7472616E742063616C6C00 PUSH1 0x44 DUP3 ADD MSTORE PUSH1 0x64 ADD PUSH2 0x5DD JUMP JUMPDEST PUSH1 0x2 PUSH1 0x0 SSTORE PUSH2 0xB85 CALLER PUSH2 0x842 JUMP JUMPDEST ISZERO PUSH2 0xBD2 JUMPI PUSH1 0x40 MLOAD PUSH3 0x461BCD PUSH1 0xE5 SHL DUP2 MSTORE PUSH1 0x20 PUSH1 0x4 DUP3 ADD MSTORE PUSH1 0x1F PUSH1 0x24 DUP3 ADD MSTORE PUSH32 0x547269656420746F20636C61696D207265776172647320746F6F20736F6F6E00 PUSH1 0x44 DUP3 ADD MSTORE PUSH1 0x64 ADD PUSH2 0x5DD JUMP JUMPDEST CALLER PUSH1 0x0 DUP2 DUP2 MSTORE PUSH1 0xC PUSH1 0x20 SWAP1 DUP2 MSTORE PUSH1 0x40 DUP1 DUP4 KECCAK256 TIMESTAMP SWAP1 SSTORE PUSH1 0xA SWAP1 SWAP2 MSTORE DUP1 DUP3 KECCAK256 DUP1 SLOAD SWAP1 DUP4 SWAP1 SSTORE SWAP1 MLOAD SWAP1 SWAP3 DUP4 SWAP3 SWAP1 SWAP2 PUSH32 0xFC30CDDEA38E2BF4D6EA7D3F9ED3B6AD7F176419F4963BD81318067A4AEE73FE SWAP2 SWAP1 LOG3 PUSH1 0x2 SLOAD PUSH1 0x40 MLOAD PUSH4 0xA9059CBB PUSH1 0xE0 SHL DUP2 MSTORE CALLER PUSH1 0x4 DUP3 ADD MSTORE PUSH1 0x24 DUP2 ADD DUP4 SWAP1 MSTORE PUSH1 0x0 SWAP2 PUSH1 0x1 PUSH1 0x1 PUSH1 0xA0 SHL SUB AND SWAP1 PUSH4 0xA9059CBB SWAP1 PUSH1 0x44 ADD PUSH2 0x68A JUMP JUMPDEST PUSH1 0x60 DUP1 DUP3 PUSH1 0x1 PUSH1 0x1 PUSH1 0xA0 SHL SUB AND PUSH2 0xC78 PUSH1 0x1 SLOAD PUSH1 0x1 PUSH1 0x1 PUSH1 0xA0 SHL SUB AND SWAP1 JUMP JUMPDEST PUSH1 0x1 PUSH1 0x1 PUSH1 0xA0 SHL SUB AND EQ PUSH2 0xCCE JUMPI PUSH1 0x40 MLOAD PUSH3 0x461BCD PUSH1 0xE5 SHL DUP2 MSTORE PUSH1 0x20 PUSH1 0x4 DUP3 ADD MSTORE PUSH1 0x15 PUSH1 0x24 DUP3 ADD MSTORE PUSH32 0x596F7520617265206E6F7420746865206F776E65720000000000000000000000 PUSH1 0x44 DUP3 ADD MSTORE PUSH1 0x64 ADD PUSH2 0x5DD JUMP JUMPDEST PUSH1 0x6 SLOAD PUSH1 0x0 SWAP1 PUSH8 0xFFFFFFFFFFFFFFFF DUP2 GT ISZERO PUSH2 0xCEC JUMPI PUSH2 0xCEC PUSH2 0x1434 JUMP JUMPDEST PUSH1 0x40 MLOAD SWAP1 DUP1 DUP3 MSTORE DUP1 PUSH1 0x20 MUL PUSH1 0x20 ADD DUP3 ADD PUSH1 0x40 MSTORE DUP1 ISZERO PUSH2 0xD15 JUMPI DUP2 PUSH1 0x20 ADD PUSH1 0x20 DUP3 MUL DUP1 CALLDATASIZE DUP4 CALLDATACOPY ADD SWAP1 POP JUMPDEST POP PUSH1 0x6 SLOAD SWAP1 SWAP2 POP PUSH1 0x0 SWAP1 PUSH8 0xFFFFFFFFFFFFFFFF DUP2 GT ISZERO PUSH2 0xD37 JUMPI PUSH2 0xD37 PUSH2 0x1434 JUMP JUMPDEST PUSH1 0x40 MLOAD SWAP1 DUP1 DUP3 MSTORE DUP1 PUSH1 0x20 MUL PUSH1 0x20 ADD DUP3 ADD PUSH1 0x40 MSTORE DUP1 ISZERO PUSH2 0xD60 JUMPI DUP2 PUSH1 0x20 ADD PUSH1 0x20 DUP3 MUL DUP1 CALLDATASIZE DUP4 CALLDATACOPY ADD SWAP1 POP JUMPDEST POP SWAP1 POP PUSH1 0x0 JUMPDEST PUSH1 0x6 SLOAD DUP2 LT ISZERO PUSH2 0xEA6 JUMPI PUSH1 0x6 DUP2 DUP2 SLOAD DUP2 LT PUSH2 0xD83 JUMPI PUSH2 0xD83 PUSH2 0x144A JUMP JUMPDEST SWAP1 PUSH1 0x0 MSTORE PUSH1 0x20 PUSH1 0x0 KECCAK256 ADD PUSH1 0x0 SWAP1 SLOAD SWAP1 PUSH2 0x100 EXP SWAP1 DIV PUSH1 0x1 PUSH1 0x1 PUSH1 0xA0 SHL SUB AND DUP4 DUP3 DUP2 MLOAD DUP2 LT PUSH2 0xDB3 JUMPI PUSH2 0xDB3 PUSH2 0x144A JUMP JUMPDEST PUSH1 0x1 PUSH1 0x1 PUSH1 0xA0 SHL SUB SWAP3 DUP4 AND PUSH1 0x20 SWAP2 DUP3 MUL SWAP3 SWAP1 SWAP3 ADD ADD MSTORE PUSH1 0x2 SLOAD PUSH1 0x6 DUP1 SLOAD SWAP2 SWAP1 SWAP3 AND SWAP2 PUSH4 0x70A08231 SWAP2 DUP5 SWAP1 DUP2 LT PUSH2 0xDEB JUMPI PUSH2 0xDEB PUSH2 0x144A JUMP JUMPDEST PUSH1 0x0 SWAP2 DUP3 MSTORE PUSH1 0x20 SWAP1 SWAP2 KECCAK256 ADD SLOAD PUSH1 0x40 MLOAD PUSH1 0xE0 DUP4 SWAP1 SHL PUSH32 0xFFFFFFFF00000000000000000000000000000000000000000000000000000000 AND DUP2 MSTORE PUSH1 0x1 PUSH1 0x1 PUSH1 0xA0 SHL SUB SWAP1 SWAP2 AND PUSH1 0x4 DUP3 ADD MSTORE PUSH1 0x24 ADD PUSH1 0x20 PUSH1 0x40 MLOAD DUP1 DUP4 SUB DUP2 DUP7 GAS STATICCALL ISZERO DUP1 ISZERO PUSH2 0xE53 JUMPI RETURNDATASIZE PUSH1 0x0 DUP1 RETURNDATACOPY RETURNDATASIZE PUSH1 0x0 REVERT JUMPDEST POP POP POP POP PUSH1 0x40 MLOAD RETURNDATASIZE PUSH1 0x1F NOT PUSH1 0x1F DUP3 ADD AND DUP3 ADD DUP1 PUSH1 0x40 MSTORE POP DUP2 ADD SWAP1 PUSH2 0xE77 SWAP2 SWAP1 PUSH2 0x13F9 JUMP JUMPDEST DUP3 DUP3 DUP2 MLOAD DUP2 LT PUSH2 0xE89 JUMPI PUSH2 0xE89 PUSH2 0x144A JUMP JUMPDEST PUSH1 0x20 SWAP1 DUP2 MUL SWAP2 SWAP1 SWAP2 ADD ADD MSTORE DUP1 PUSH2 0xE9E DUP2 PUSH2 0x1460 JUMP JUMPDEST SWAP2 POP POP PUSH2 0xD66 JUMP JUMPDEST POP SWAP1 SWAP5 SWAP1 SWAP4 POP SWAP2 POP POP JUMP JUMPDEST PUSH1 0x60 DUP1 DUP3 PUSH1 0x1 PUSH1 0x1 PUSH1 0xA0 SHL SUB AND PUSH2 0xED0 PUSH1 0x1 SLOAD PUSH1 0x1 PUSH1 0x1 PUSH1 0xA0 SHL SUB AND SWAP1 JUMP JUMPDEST PUSH1 0x1 PUSH1 0x1 PUSH1 0xA0 SHL SUB AND EQ PUSH2 0xF26 JUMPI PUSH1 0x40 MLOAD PUSH3 0x461BCD PUSH1 0xE5 SHL DUP2 MSTORE PUSH1 0x20 PUSH1 0x4 DUP3 ADD MSTORE PUSH1 0x15 PUSH1 0x24 DUP3 ADD MSTORE PUSH32 0x596F7520617265206E6F7420746865206F776E65720000000000000000000000 PUSH1 0x44 DUP3 ADD MSTORE PUSH1 0x64 ADD PUSH2 0x5DD JUMP JUMPDEST PUSH1 0x6 SLOAD PUSH1 0x0 SWAP1 PUSH8 0xFFFFFFFFFFFFFFFF DUP2 GT ISZERO PUSH2 0xF44 JUMPI PUSH2 0xF44 PUSH2 0x1434 JUMP JUMPDEST PUSH1 0x40 MLOAD SWAP1 DUP1 DUP3 MSTORE DUP1 PUSH1 0x20 MUL PUSH1 0x20 ADD DUP3 ADD PUSH1 0x40 MSTORE DUP1 ISZERO PUSH2 0xF6D JUMPI DUP2 PUSH1 0x20 ADD PUSH1 0x20 DUP3 MUL DUP1 CALLDATASIZE DUP4 CALLDATACOPY ADD SWAP1 POP JUMPDEST POP PUSH1 0x6 SLOAD SWAP1 SWAP2 POP PUSH1 0x0 SWAP1 PUSH8 0xFFFFFFFFFFFFFFFF DUP2 GT ISZERO PUSH2 0xF8F JUMPI PUSH2 0xF8F PUSH2 0x1434 JUMP JUMPDEST PUSH1 0x40 MLOAD SWAP1 DUP1 DUP3 MSTORE DUP1 PUSH1 0x20 MUL PUSH1 0x20 ADD DUP3 ADD PUSH1 0x40 MSTORE DUP1 ISZERO PUSH2 0xFB8 JUMPI DUP2 PUSH1 0x20 ADD PUSH1 0x20 DUP3 MUL DUP1 CALLDATASIZE DUP4 CALLDATACOPY ADD SWAP1 POP JUMPDEST POP SWAP1 POP PUSH1 0x0 JUMPDEST PUSH1 0x6 SLOAD DUP2 LT ISZERO PUSH2 0xEA6 JUMPI PUSH1 0x6 DUP2 DUP2 SLOAD DUP2 LT PUSH2 0xFDB JUMPI PUSH2 0xFDB PUSH2 0x144A JUMP JUMPDEST SWAP1 PUSH1 0x0 MSTORE PUSH1 0x20 PUSH1 0x0 KECCAK256 ADD PUSH1 0x0 SWAP1 SLOAD SWAP1 PUSH2 0x100 EXP SWAP1 DIV PUSH1 0x1 PUSH1 0x1 PUSH1 0xA0 SHL SUB AND DUP4 DUP3 DUP2 MLOAD DUP2 LT PUSH2 0x100B JUMPI PUSH2 0x100B PUSH2 0x144A JUMP JUMPDEST PUSH1 0x20 MUL PUSH1 0x20 ADD ADD SWAP1 PUSH1 0x1 PUSH1 0x1 PUSH1 0xA0 SHL SUB AND SWAP1 DUP2 PUSH1 0x1 PUSH1 0x1 PUSH1 0xA0 SHL SUB AND DUP2 MSTORE POP POP PUSH1 0xB PUSH1 0x0 PUSH1 0x6 DUP4 DUP2 SLOAD DUP2 LT PUSH2 0x1042 JUMPI PUSH2 0x1042 PUSH2 0x144A JUMP JUMPDEST PUSH1 0x0 SWAP2 DUP3 MSTORE PUSH1 0x20 DUP1 DUP4 KECCAK256 SWAP1 SWAP2 ADD SLOAD PUSH1 0x1 PUSH1 0x1 PUSH1 0xA0 SHL SUB AND DUP4 MSTORE DUP3 ADD SWAP3 SWAP1 SWAP3 MSTORE PUSH1 0x40 ADD SWAP1 KECCAK256 SLOAD DUP3 MLOAD DUP4 SWAP1 DUP4 SWAP1 DUP2 LT PUSH2 0x107B JUMPI PUSH2 0x107B PUSH2 0x144A JUMP JUMPDEST PUSH1 0x20 SWAP1 DUP2 MUL SWAP2 SWAP1 SWAP2 ADD ADD MSTORE DUP1 PUSH2 0x1090 DUP2 PUSH2 0x1460 JUMP JUMPDEST SWAP2 POP POP PUSH2 0xFBE JUMP JUMPDEST PUSH1 0x2 SLOAD PUSH1 0x40 DUP1 MLOAD PUSH4 0x18160DDD PUSH1 0xE0 SHL DUP2 MSTORE SWAP1 MLOAD PUSH1 0x0 SWAP3 PUSH1 0x1 PUSH1 0x1 PUSH1 0xA0 SHL SUB AND SWAP2 PUSH4 0x18160DDD SWAP2 PUSH1 0x4 DUP1 DUP4 ADD SWAP3 PUSH1 0x20 SWAP3 SWAP2 SWAP1 DUP3 SWAP1 SUB ADD DUP2 DUP7 GAS STATICCALL ISZERO DUP1 ISZERO PUSH2 0x520 JUMPI RETURNDATASIZE PUSH1 0x0 DUP1 RETURNDATACOPY RETURNDATASIZE PUSH1 0x0 REVERT JUMPDEST PUSH1 0x0 PUSH1 0x8 SLOAD PUSH1 0x0 SUB PUSH2 0x10F5 JUMPI POP PUSH1 0x5 SLOAD SWAP1 JUMP JUMPDEST PUSH1 0x8 SLOAD PUSH1 0x64 PUSH1 0x4 SLOAD TIMESTAMP PUSH2 0x1108 SWAP2 SWAP1 PUSH2 0x1389 JUMP JUMPDEST PUSH2 0x1112 SWAP2 SWAP1 PUSH2 0x13A0 JUMP JUMPDEST PUSH2 0x1124 SWAP1 PUSH8 0xDE0B6B3A7640000 PUSH2 0x13A0 JUMP JUMPDEST PUSH2 0x112E SWAP2 SWAP1 PUSH2 0x13BF JUMP JUMPDEST PUSH1 0x5 SLOAD PUSH2 0x544 SWAP2 SWAP1 PUSH2 0x13E1 JUMP JUMPDEST PUSH1 0x6 DUP2 DUP2 SLOAD DUP2 LT PUSH2 0x114B JUMPI PUSH1 0x0 DUP1 REVERT JUMPDEST PUSH1 0x0 SWAP2 DUP3 MSTORE PUSH1 0x20 SWAP1 SWAP2 KECCAK256 ADD SLOAD PUSH1 0x1 PUSH1 0x1 PUSH1 0xA0 SHL SUB AND SWAP1 POP DUP2 JUMP JUMPDEST PUSH1 0x1 SLOAD PUSH1 0x1 PUSH1 0x1 PUSH1 0xA0 SHL SUB AND CALLER EQ PUSH2 0x11BF JUMPI PUSH1 0x40 MLOAD PUSH3 0x461BCD PUSH1 0xE5 SHL DUP2 MSTORE PUSH1 0x20 PUSH1 0x4 DUP3 ADD DUP2 SWAP1 MSTORE PUSH1 0x24 DUP3 ADD MSTORE PUSH32 0x4F776E61626C653A2063616C6C6572206973206E6F7420746865206F776E6572 PUSH1 0x44 DUP3 ADD MSTORE PUSH1 0x64 ADD PUSH2 0x5DD JUMP JUMPDEST PUSH1 0x1 PUSH1 0x1 PUSH1 0xA0 SHL SUB DUP2 AND PUSH2 0x123B JUMPI PUSH1 0x40 MLOAD PUSH3 0x461BCD PUSH1 0xE5 SHL DUP2 MSTORE PUSH1 0x20 PUSH1 0x4 DUP3 ADD MSTORE PUSH1 0x26 PUSH1 0x24 DUP3 ADD MSTORE PUSH32 0x4F776E61626C653A206E6577206F776E657220697320746865207A65726F2061 PUSH1 0x44 DUP3 ADD MSTORE PUSH32 0x6464726573730000000000000000000000000000000000000000000000000000 PUSH1 0x64 DUP3 ADD MSTORE PUSH1 0x84 ADD PUSH2 0x5DD JUMP JUMPDEST PUSH2 0x1244 DUP2 PUSH2 0x1247 JUMP JUMPDEST POP JUMP JUMPDEST PUSH1 0x1 DUP1 SLOAD PUSH1 0x1 PUSH1 0x1 PUSH1 0xA0 SHL SUB DUP4 DUP2 AND PUSH20 0xFFFFFFFFFFFFFFFFFFFFFFFFFFFFFFFFFFFFFFFF NOT DUP4 AND DUP2 OR SWAP1 SWAP4 SSTORE PUSH1 0x40 MLOAD SWAP2 AND SWAP2 SWAP1 DUP3 SWAP1 PUSH32 0x8BE0079C531659141344CD1FD0A4F28419497F9722A3DAAFE3B4186F6B6457E0 SWAP1 PUSH1 0x0 SWAP1 LOG3 POP POP JUMP JUMPDEST PUSH1 0x0 PUSH1 0x20 DUP3 DUP5 SUB SLT ISZERO PUSH2 0x12B8 JUMPI PUSH1 0x0 DUP1 REVERT JUMPDEST DUP2 CALLDATALOAD PUSH1 0x1 PUSH1 0x1 PUSH1 0xA0 SHL SUB DUP2 AND DUP2 EQ PUSH2 0x12CF JUMPI PUSH1 0x0 DUP1 REVERT JUMPDEST SWAP4 SWAP3 POP POP POP JUMP JUMPDEST PUSH1 0x0 PUSH1 0x20 DUP3 DUP5 SUB SLT ISZERO PUSH2 0x12E8 JUMPI PUSH1 0x0 DUP1 REVERT JUMPDEST POP CALLDATALOAD SWAP2 SWAP1 POP JUMP JUMPDEST PUSH1 0x40 DUP1 DUP3 MSTORE DUP4 MLOAD SWAP1 DUP3 ADD DUP2 SWAP1 MSTORE PUSH1 0x0 SWAP1 PUSH1 0x20 SWAP1 PUSH1 0x60 DUP5 ADD SWAP1 DUP3 DUP8 ADD DUP5 JUMPDEST DUP3 DUP2 LT ISZERO PUSH2 0x1331 JUMPI DUP2 MLOAD PUSH1 0x1 PUSH1 0x1 PUSH1 0xA0 SHL SUB AND DUP5 MSTORE SWAP3 DUP5 ADD SWAP3 SWAP1 DUP5 ADD SWAP1 PUSH1 0x1 ADD PUSH2 0x130C JUMP JUMPDEST POP POP POP DUP4 DUP2 SUB DUP3 DUP6 ADD MSTORE DUP5 MLOAD DUP1 DUP3 MSTORE DUP6 DUP4 ADD SWAP2 DUP4 ADD SWAP1 PUSH1 0x0 JUMPDEST DUP2 DUP2 LT ISZERO PUSH2 0x1366 JUMPI DUP4 MLOAD DUP4 MSTORE SWAP3 DUP5 ADD SWAP3 SWAP2 DUP5 ADD SWAP2 PUSH1 0x1 ADD PUSH2 0x134A JUMP JUMPDEST POP SWAP1 SWAP8 SWAP7 POP POP POP POP POP POP POP JUMP JUMPDEST PUSH4 0x4E487B71 PUSH1 0xE0 SHL PUSH1 0x0 MSTORE PUSH1 0x11 PUSH1 0x4 MSTORE PUSH1 0x24 PUSH1 0x0 REVERT JUMPDEST PUSH1 0x0 DUP3 DUP3 LT ISZERO PUSH2 0x139B JUMPI PUSH2 0x139B PUSH2 0x1373 JUMP JUMPDEST POP SUB SWAP1 JUMP JUMPDEST PUSH1 0x0 DUP2 PUSH1 0x0 NOT DIV DUP4 GT DUP3 ISZERO ISZERO AND ISZERO PUSH2 0x13BA JUMPI PUSH2 0x13BA PUSH2 0x1373 JUMP JUMPDEST POP MUL SWAP1 JUMP JUMPDEST PUSH1 0x0 DUP3 PUSH2 0x13DC JUMPI PUSH4 0x4E487B71 PUSH1 0xE0 SHL PUSH1 0x0 MSTORE PUSH1 0x12 PUSH1 0x4 MSTORE PUSH1 0x24 PUSH1 0x0 REVERT JUMPDEST POP DIV SWAP1 JUMP JUMPDEST PUSH1 0x0 DUP3 NOT DUP3 GT ISZERO PUSH2 0x13F4 JUMPI PUSH2 0x13F4 PUSH2 0x1373 JUMP JUMPDEST POP ADD SWAP1 JUMP JUMPDEST PUSH1 0x0 PUSH1 0x20 DUP3 DUP5 SUB SLT ISZERO PUSH2 0x140B JUMPI PUSH1 0x0 DUP1 REVERT JUMPDEST POP MLOAD SWAP2 SWAP1 POP JUMP JUMPDEST PUSH1 0x0 PUSH1 0x20 DUP3 DUP5 SUB SLT ISZERO PUSH2 0x1424 JUMPI PUSH1 0x0 DUP1 REVERT JUMPDEST DUP2 MLOAD DUP1 ISZERO ISZERO DUP2 EQ PUSH2 0x12CF JUMPI PUSH1 0x0 DUP1 REVERT JUMPDEST PUSH4 0x4E487B71 PUSH1 0xE0 SHL PUSH1 0x0 MSTORE PUSH1 0x41 PUSH1 0x4 MSTORE PUSH1 0x24 PUSH1 0x0 REVERT JUMPDEST PUSH4 0x4E487B71 PUSH1 0xE0 SHL PUSH1 0x0 MSTORE PUSH1 0x32 PUSH1 0x4 MSTORE PUSH1 0x24 PUSH1 0x0 REVERT JUMPDEST PUSH1 0x0 PUSH1 0x1 DUP3 ADD PUSH2 0x1472 JUMPI PUSH2 0x1472 PUSH2 0x1373 JUMP JUMPDEST POP PUSH1 0x1 ADD SWAP1 JUMP INVALID LOG2 PUSH5 0x6970667358 0x22 SLT KECCAK256 SWAP5 REVERT SLOAD 0x24 EXTCODESIZE 0xEA 0xD2 0xAA CODESIZE 0xD 0xEB DELEGATECALL SWAP3 EXTCODECOPY SLT PUSH9 0xDB7C87281A871D5CDB MULMOD 0x2A ISZERO PUSH14 0xBA1D1964736F6C634300080D0033 "
    },
    "gasEstimates": {
      "creation": {
        "codeDepositCost": "1059000",
        "executionCost": "infinite",
        "totalCost": "infinite"
      },
      "external": {
        "REWARD_RATE()": "230",
        "addresses(uint256)": "4658",
        "claimReward()": "infinite",
        "claimRewardsTimer(address)": "infinite",
        "earned(address)": "infinite",
        "getOwner()": "2458",
        "getRewardPerTokenStored()": "2327",
        "getRewardsTokensBalance(address)": "infinite",
        "getSender()": "280",
        "getStakableTokensBalance(address)": "infinite",
        "getStaked(address)": "2581",
        "getTotalRewardTokensSupply()": "infinite",
        "getTotalStakes()": "2393",
        "getTotalStakingTokensSupply()": "infinite",
        "getUsersRewards(address)": "infinite",
        "getUsersStaked(address)": "infinite",
        "isOwner(address)": "2567",
        "minStakePeriod()": "2395",
        "owner()": "2399",
        "renounceOwnership()": "28172",
        "rewardPerToken()": "infinite",
        "s_lastTimeOfRewardsClaimed(address)": "2539",
        "s_lastUpdateTime()": "2329",
        "s_rewardPerTokenStored()": "2352",
        "s_rewards(address)": "2562",
        "s_rewardsToken()": "2406",
        "s_stakes(address)": "2584",
        "s_stakingToken()": "2382",
        "s_userRewardPerTokenPaid(address)": "2561",
        "stake(uint256)": "infinite",
        "transferOwnership(address)": "28375",
        "withdraw(uint256)": "infinite"
      }
    },
    "methodIdentifiers": {
      "REWARD_RATE()": "5997bb37",
      "addresses(uint256)": "edf26d9b",
      "claimReward()": "b88a802f",
      "claimRewardsTimer(address)": "a06b1813",
      "earned(address)": "008cc262",
      "getOwner()": "893d20e8",
      "getRewardPerTokenStored()": "8d869342",
      "getRewardsTokensBalance(address)": "675f457d",
      "getSender()": "5e01eb5a",
      "getStakableTokensBalance(address)": "43cbce3e",
      "getStaked(address)": "399080ec",
      "getTotalRewardTokensSupply()": "c9b1b70d",
      "getTotalStakes()": "68c33627",
      "getTotalStakingTokensSupply()": "0fda55b4",
      "getUsersRewards(address)": "c2f8498d",
      "getUsersStaked(address)": "c32726c2",
      "isOwner(address)": "2f54bf6e",
      "minStakePeriod()": "d84f2bc6",
      "owner()": "8da5cb5b",
      "renounceOwnership()": "715018a6",
      "rewardPerToken()": "cd3daf9d",
      "s_lastTimeOfRewardsClaimed(address)": "ee6da848",
      "s_lastUpdateTime()": "6aa0838f",
      "s_rewardPerTokenStored()": "304ac91b",
      "s_rewards(address)": "bea08151",
      "s_rewardsToken()": "0bd21c56",
      "s_stakes(address)": "8a877567",
      "s_stakingToken()": "adca9b72",
      "s_userRewardPerTokenPaid(address)": "f245ace4",
      "stake(uint256)": "a694fc3a",
      "transferOwnership(address)": "f2fde38b",
      "withdraw(uint256)": "2e1a7d4d"
    }
  },
  "storageLayout": {
    "storage": [
      {
        "astId": 783,
        "contract": "ERC20Staking.sol:StakingFinal",
        "label": "_status",
        "offset": 0,
        "slot": "0",
        "type": "t_uint256"
      },
      {
        "astId": 675,
        "contract": "ERC20Staking.sol:StakingFinal",
        "label": "_owner",
        "offset": 0,
        "slot": "1",
        "type": "t_address"
      },
      {
        "astId": 15,
        "contract": "ERC20Staking.sol:StakingFinal",
        "label": "s_rewardsToken",
        "offset": 0,
        "slot": "2",
        "type": "t_contract(IERC20)890"
      },
      {
        "astId": 18,
        "contract": "ERC20Staking.sol:StakingFinal",
        "label": "s_stakingToken",
        "offset": 0,
        "slot": "3",
        "type": "t_contract(IERC20)890"
      },
      {
        "astId": 23,
        "contract": "ERC20Staking.sol:StakingFinal",
        "label": "s_lastUpdateTime",
        "offset": 0,
        "slot": "4",
        "type": "t_uint256"
      },
      {
        "astId": 25,
        "contract": "ERC20Staking.sol:StakingFinal",
        "label": "s_rewardPerTokenStored",
        "offset": 0,
        "slot": "5",
        "type": "t_uint256"
      },
      {
        "astId": 28,
        "contract": "ERC20Staking.sol:StakingFinal",
        "label": "addresses",
        "offset": 0,
        "slot": "6",
        "type": "t_array(t_address)dyn_storage"
      },
      {
        "astId": 31,
        "contract": "ERC20Staking.sol:StakingFinal",
        "label": "minStakePeriod",
        "offset": 0,
        "slot": "7",
        "type": "t_uint256"
      },
      {
        "astId": 33,
        "contract": "ERC20Staking.sol:StakingFinal",
        "label": "s_totalSupply",
        "offset": 0,
        "slot": "8",
        "type": "t_uint256"
      },
      {
        "astId": 37,
        "contract": "ERC20Staking.sol:StakingFinal",
        "label": "s_userRewardPerTokenPaid",
        "offset": 0,
        "slot": "9",
        "type": "t_mapping(t_address,t_uint256)"
      },
      {
        "astId": 41,
        "contract": "ERC20Staking.sol:StakingFinal",
        "label": "s_rewards",
        "offset": 0,
        "slot": "10",
        "type": "t_mapping(t_address,t_uint256)"
      },
      {
        "astId": 45,
        "contract": "ERC20Staking.sol:StakingFinal",
        "label": "s_stakes",
        "offset": 0,
        "slot": "11",
        "type": "t_mapping(t_address,t_uint256)"
      },
      {
        "astId": 49,
        "contract": "ERC20Staking.sol:StakingFinal",
        "label": "s_lastTimeOfRewardsClaimed",
        "offset": 0,
        "slot": "12",
        "type": "t_mapping(t_address,t_uint256)"
      }
    ],
    "types": {
      "t_address": {
        "encoding": "inplace",
        "label": "address",
        "numberOfBytes": "20"
      },
      "t_array(t_address)dyn_storage": {
        "base": "t_address",
        "encoding": "dynamic_array",
        "label": "address[]",
        "numberOfBytes": "32"
      },
      "t_contract(IERC20)890": {
        "encoding": "inplace",
        "label": "contract IERC20",
        "numberOfBytes": "20"
      },
      "t_mapping(t_address,t_uint256)": {
        "encoding": "mapping",
        "key": "t_address",
        "label": "mapping(address => uint256)",
        "numberOfBytes": "32",
        "value": "t_uint256"
      },
      "t_uint256": {
        "encoding": "inplace",
        "label": "uint256",
        "numberOfBytes": "32"
      }
    }
  },
  "userdoc": {
    "kind": "user",
    "methods": {
      "claimReward()": {
        "notice": "User claims their tokens"
      },
      "earned(address)": {
        "notice": "How much reward a user has earned"
      },
      "rewardPerToken()": {
        "notice": "How much reward a token gets based on how long it's been in and during which \"snapshots\""
      },
      "stake(uint256)": {
        "notice": "Deposit tokens into this contract"
      },
      "withdraw(uint256)": {
        "notice": "Withdraw tokens from this contract"
      }
    },
    "version": 1
  }
}